:020000040800F2
:1000000000C00020F10B0108C9F50008D1F5000877
:10001000D9F50008E1F50008E9F500080000000046
:10002000000000000000000000000000F1F50008E2
:10003000FDF500080000000009F6000815F60008AC
:10004000390C0108390C0108390C0108390C010878
:10005000390C0108390C0108390C0108390C010868
:10006000390C0108390C0108390C0108390C010858
:10007000390C0108390C0108390C0108390C010848
:10008000390C0108390C0108390C0108390C010838
:10009000390C0108390C0108390C0108390C010828
:1000A000390C0108390C0108390C0108390C010818
:1000B000390C0108390C0108390C0108390C010808
:1000C000390C0108390C0108390C0108390C0108F8
:1000D000390C010821F60008390C0108390C010817
:1000E000390C0108390C0108390C0108390C0108D8
:1000F000390C0108390C0108390C0108390C0108C8
:10010000390C0108390C0108390C0108390C0108B7
:10011000390C0108390C0108390C0108390C0108A7
:10012000390C0108390C0108390C0108390C010897
:1001300000000000000000000000000000000000BF
:1001400000000000000000000000000000000000AF
:10015000000000000000000000000000000000009F
:10016000000000000000000000000000000000008F
:10017000000000000000000000000000000000007F
:10018000000000000000000000000000000000006F
:10019000000000000000000000000000000000005F
:1001A000000000000000000000000000000000004F
:1001B000000000000000000000000000000000003F
:1001C000000000000000000000000000000000002F
:1001D000000000000000000000000000000000001F
:0401E0005FF8E0F1F3
:1001E80010B5054C237833B9044B13B10448AFF369
:1001F80000800123237010BDBC0000200000000017
:10020800444B010808B5034B1BB103490348AFF33E
:10021800008008BD00000000C0000020444B010819
:1002280010F8012B11F8013B012A28BF9A42F7D098
:10023800D01A704781F0004102E000BF83F000430C
:1002480030B54FEA41044FEA430594EA050F08BF69
:1002580090EA020F1FBF54EA000C55EA020C7FEA2D
:10026800645C7FEA655C00F0E2804FEA5454D4EBAA
:100278005555B8BF6D420CDD2C4480EA020281EA74
:10028800030382EA000083EA010180EA020281EAAC
:100298000303362D88BF30BD11F0004F4FEA0131FE
:1002A8004FF4801C4CEA113102D0404261EB41010D
:1002B80013F0004F4FEA03334CEA133302D0524293
:1002C80063EB430394EA050F00F0A780A4F101044F
:1002D800D5F1200E0DDB02FA0EFC22FA05F2801889
:1002E80041F1000103FA0EF2801843FA05F359416F
:1002F8000EE0A5F120050EF1200E012A03FA0EFCEE
:1003080028BF4CF0020C43FA05F3C01851EBE37117
:1003180001F0004507D54FF0000EDCF1000C7EEB34
:1003280000006EEB0101B1F5801F1BD3B1F5001F72
:100338000CD349085FEA30004FEA3C0C04F1010491
:100348004FEA445212F5800F80F09A80BCF1004FBA
:1003580008BF5FEA500C50F1000041EB045141EA3C
:10036800050130BD5FEA4C0C404141EB0101013C05
:1003780028BFB1F5801FE9D291F0000F04BF0146F4
:100388000020B1FA81F308BF2033A3F10B03B3F1C6
:1003980020020CDA0C3208DD02F1140CC2F10C0256
:1003A80001FA0CF021FA02F10CE002F11402D8BFB4
:1003B800C2F1200C01FA02F120FA0CFCDCBF41EA80
:1003C8000C019040E41AA2BF01EB0451294330BD4F
:1003D8006FEA04041F3C1CDA0C340EDC04F114042C
:1003E800C4F1200220FA04F001FA02F340EA030003
:1003F80021FA04F345EA030130BDC4F10C04C4F149
:10040800200220FA02F001FA04F340EA0300294628
:1004180030BD21FA04F0294630BD94F0000F83F472
:10042800801306BF81F480110134013D4EE77FEA55
:10043800645C18BF7FEA655C29D094EA050F08BFA1
:1004480090EA020F05D054EA000C04BF1946104682
:1004580030BD91EA030F1EBF0021002030BD5FEAC6
:10046800545C05D14000494128BF41F0004130BDEE
:1004780014F580043CBF01F5801130BD01F0004542
:1004880045F0FE4141F470014FF0000030BD7FEAB5
:10049800645C1ABF194610467FEA655C1CBF0B46B0
:1004A800024650EA013406BF52EA033591EA030FC7
:1004B80041F4002130BD00BF90F0000F04BF0021BF
:1004C800704730B54FF4806404F132044FF00005F2
:1004D8004FF0000150E700BF90F0000F04BF00216B
:1004E800704730B54FF4806404F1320410F00045D1
:1004F80048BF40424FF000013EE700BF42004FEACC
:10050800E2014FEA31014FEA02701FBF12F07F4348
:1005180093F07F4F81F06051704732F07F4208BFFF
:10052800704793F07F4F04BF41F40021704730B506
:100538004FF4607401F0004521F000411CE700BF52
:1005480050EA010208BF704730B54FF000050AE0D5
:1005580050EA010208BF704730B511F0004502D5D6
:10056800404261EB41014FF4806404F132045FEAD8
:10057800915C3FF4D8AE4FF003025FEADC0C18BF81
:1005880003325FEADC0C18BF033202EBDC02C2F173
:10059800200300FA03FC20FA02F001FA03FE40EA05
:1005A8000E0021FA02F11444BDE600BF70B54FF009
:1005B800FF0C4CF4E06C1CEA11541DBF1CEA1355E7
:1005C80094EA0C0F95EA0C0F00F0DEF82C4481EA4F
:1005D800030621EA4C5123EA4C5350EA013518BF6F
:1005E80052EA033541F4801143F4801338D0A0FB5C
:1005F80002CE4FF00005E1FB02E506F00042E0FB09
:1006080003E54FF00006E1FB03569CF0000F18BF0E
:100618004EF0010EA4F1FF04B6F5007F64F54074B6
:1006280004D25FEA4E0E6D4146EB060642EAC62149
:1006380041EA55514FEAC52040EA5E504FEACE2EB6
:10064800B4F1FD0C88BFBCF5E06F1ED8BEF1004FB9
:1006580008BF5FEA500E50F1000041EB045170BD35
:1006680006F0004646EA010140EA020081EA030179
:10067800B4EB5C04C2BFD4EB0C0541EA045170BD75
:1006880041F480114FF0000E013C00F3AB8014F1EF
:10069800360FDEBF002001F0004170BDC4F1000438
:1006A800203C35DA0C341BDC04F11404C4F12005B9
:1006B80000FA05F320FA04F001FA05F240EA020014
:1006C80001F0004221F0004110EBD37021FA04F64A
:1006D80042EB06015EEA430E08BF20EAD37070BD04
:1006E800C4F10C04C4F1200500FA04F320FA05F063
:1006F80001FA04F240EA020001F0004110EBD37065
:1007080041F100015EEA430E08BF20EAD37070BDD4
:10071800C4F1200500FA05F24EEA020E20FA04F3AD
:1007280001FA05F243EA020321FA04F001F000415C
:1007380021FA04F220EA020000EBD3705EEA430ECD
:1007480008BF20EAD37070BD94F0000F0FD101F0FC
:100758000046400041EB010111F4801F08BF013C35
:10076800F7D041EA060195F0000F18BF704703F073
:100778000046520043EB030313F4801F08BF013DFA
:10078800F7D043EA0603704794EA0C0F0CEA1355B6
:1007980018BF95EA0C0F0CD050EA410618BF52EA70
:1007A8004306D1D181EA030101F000414FF0000076
:1007B80070BD50EA410606BF1046194652EA430684
:1007C80019D094EA0C0F02D150EA013613D195EAF8
:1007D8000C0F05D152EA03361CBF104619460AD140
:1007E80081EA030101F0004141F0FE4141F470014A
:1007F8004FF0000070BD41F0FE4141F4780170BD3A
:1008080070B54FF0FF0C4CF4E06C1CEA11541DBF9E
:100818001CEA135594EA0C0F95EA0C0F00F0A7F8A0
:10082800A4EB050481EA030E52EA03354FEA0131CD
:1008380000F088804FEA03334FF0805545EA1313E0
:1008480043EA12634FEA022245EA111545EA1065A8
:100858004FEA00260EF000419D4208BF964244F13F
:10086800FD0404F5407402D25B084FEA3202B61A5E
:1008780065EB03055B084FEA32024FF480104FF432
:10088800002CB6EB020E75EB030E22BFB61A7546A6
:1008980040EA0C005B084FEA3202B6EB020E75EB39
:1008A800030E22BFB61A754640EA5C005B084FEAA1
:1008B8003202B6EB020E75EB030E22BFB61A75466E
:1008C80040EA9C005B084FEA3202B6EB020E75EB79
:1008D800030E22BFB61A754640EADC0055EA060E3A
:1008E80018D04FEA051545EA16754FEA06164FEA7D
:1008F800C30343EA52734FEAC2025FEA1C1CC0D129
:1009080011F4801F0BD141EA00014FF000004FF0B5
:10091800004CB6E711F4801F04BF01430020B4F176
:10092800FD0C88BFBCF5E06F3FF6AFAEB5EB030C2E
:1009380004BFB6EB020C5FEA500C50F1000041EB2B
:10094800045170BD0EF0004E4EEA113114EB5C04F8
:10095800C2BFD4EB0C0541EA045170BD41F48011CB
:100968004FF0000E013C90E645EA060E8DE60CEAD3
:10097800135594EA0C0F08BF95EA0C0F3FF43BAFF0
:1009880094EA0C0F0AD150EA01347FF434AF95EAA7
:100998000C0F7FF425AF104619462CE795EA0C0F8B
:1009A80006D152EA03353FF4FDAE1046194622E758
:1009B80050EA410618BF52EA43067FF4C5AE50EA32
:1009C80041047FF40DAF52EA43057FF4EBAE12E722
:1009D8004FF0FF3C06E000BF4FF0010C02E000BF03
:1009E8004FF0010C4DF804CD4FEA410C7FEA6C5CE6
:1009F8004FEA430C18BF7FEA6C5C1BD001B050EA89
:100A0800410C0CBF52EA430C91EA030F02BF90EA73
:100A1800020F0020704710F1000F91EA030F58BF32
:100A2800994208BF90422CBFD8176FEAE37040F094
:100A3800010070474FEA410C7FEA6C5C02D150EA32
:100A4800013C07D14FEA430C7FEA6C5CD6D152EAED
:100A5800033CD3D05DF8040B704700BF84461046B2
:100A680062468C461946634600E000BF01B5FFF7B1
:100A7800B7FF002848BF10F1000F01BD4DF808ED81
:100A8800FFF7F4FF0CBF012000205DF808FB00BF52
:100A98004DF808EDFFF7EAFF34BF012000205DF8AC
:100AA80008FB00BF4DF808EDFFF7E0FF94BF0120F9
:100AB80000205DF808FB00BF4DF808EDFFF7CEFFFA
:100AC80094BF012000205DF808FB00BF4DF808ED39
:100AD800FFF7C4FF34BF012000205DF808FB00BF0A
:100AE8004FEA410C7FEA6C5C02D150EA013C0AD122
:100AF8004FEA430C7FEA6C5C02D152EA033C02D114
:100B08004FF0000070474FF0010070474A0011D2C3
:100B180012F5001211D20DD56FF47873B3EB62524F
:100B28000ED44FEAC12343F0004343EA505323FA5B
:100B380002F070474FF00000704750EA013002D1D0
:100B48004FF0FF3070474FF00000704780F00040D2
:100B580002E000BF81F0004142001FBF5FEA41038D
:100B680092EA030F7FEA226C7FEA236C6AD04FEA8D
:100B78001262D2EB1363C1BFD218414048404140D2
:100B8800B8BF5B42192B88BF704710F0004F40F484
:100B9800000020F07F4018BF404211F0004F41F4A0
:100BA800000121F07F4118BF494292EA030F3FD06C
:100BB800A2F1010241FA03FC10EB0C00C3F120037F
:100BC80001FA03F100F0004302D5494260EB40000E
:100BD800B0F5000F13D3B0F1807F06D340084FEA79
:100BE800310102F10102FE2A51D2B1F1004F40EB6E
:100BF800C25008BF20F0010040EA030070474900D6
:100C080040EB0000013A28BFB0F5000FEDD2B0FA72
:100C180080FCACF1080CB2EB0C0200FA0CF0AABF95
:100C280000EBC25052421843BCBFD0401843704733
:100C380092F0000F81F4000106BF80F40000013239
:100C4800013BB5E74FEA41037FEA226C18BF7FEA10
:100C5800236C21D092EA030F04D092F0000F08BF52
:100C68000846704790EA010F1CBF0020704712F039
:100C78007F4F04D1400028BF40F00040704712F178
:100C880000723CBF00F50000704700F0004343F0DD
:100C9800FE4040F4000070477FEA226216BF084613
:100CA8007FEA23630146420206BF5FEA412390EAD6
:100CB800010F40F4800070474FF0000304E000BFCC
:100CC80010F0004348BF40425FEA000C08BF70477D
:100CD80043F0964301464FF000001CE050EA010241
:100CE80008BF70474FF000030AE000BF50EA010256
:100CF80008BF704711F0004302D5404261EB410143
:100D08005FEA010C02BF84460146002043F0B64367
:100D180008BFA3F18053A3F50003BCFA8CF2083A8C
:100D2800A3EBC25310DB01FA02FC634400FA02FC95
:100D3800C2F12002BCF1004F20FA02F243EB02009C
:100D480008BF20F00100704702F1200201FA02FCFE
:100D5800C2F1200250EA4C0021FA02F243EB0200F1
:100D680008BF20EADC7070474FF0FF0C1CEAD05235
:100D78001EBF1CEAD15392EA0C0F93EA0C0F6FD0F6
:100D88001A4480EA010C400218BF5FEA41211ED0D4
:100D98004FF0006343EA501043EA5111A0FB0131C0
:100DA8000CF00040B1F5000F3EBF490041EAD37195
:100DB8005B0040EA010062F17F02FD2A1DD8B3F111
:100DC800004F40EBC25008BF20F00100704790F080
:100DD800000F0CF0004C08BF49024CEA502040EAD2
:100DE80051207F3AC2BFD2F1FF0340EAC250704798
:100DF80040F400004FF00003013A5DDC12F1190FD6
:100E0800DCBF00F000407047C2F10002410021FA47
:100E180002F1C2F1200200FA02FC5FEA310040F15F
:100E2800000053EA4C0308BF20EADC70704792F0D8
:100E3800000F00F0004C02BF400010F4000F013A10
:100E4800F9D040EA0C0093F0000F01F0004C02BF0B
:100E5800490011F4000F013BF9D041EA0C018FE77A
:100E68000CEAD15392EA0C0F18BF93EA0C0F0AD080
:100E780030F0004C18BF31F0004CD8D180EA0100A6
:100E880000F00040704790F0000F17BF90F0004F3F
:100E9800084691F0000F91F0004F14D092EA0C0F21
:100EA80001D142020FD193EA0C0F03D14B0218BFB4
:100EB800084608D180EA010000F0004040F0FE40FA
:100EC80040F40000704740F0FE4040F44000704796
:100ED8004FF0FF0C1CEAD0521EBF1CEAD15392EA15
:100EE8000C0F93EA0C0F69D0A2EB030280EA010C05
:100EF80049024FEA402037D04FF0805343EA11119E
:100F080043EA10130CF000408B4238BF5B0042F1FB
:100F18007D024FF4000C8B4224BF5B1A40EA0C00A0
:100F2800B3EB510F24BFA3EB510340EA5C00B3EBD2
:100F3800910F24BFA3EB910340EA9C00B3EBD10FC0
:100F480024BFA3EBD10340EADC001B0118BF5FEA12
:100F58001C1CE0D1FD2A3FF650AF8B4240EBC2503B
:100F680008BF20F0010070470CF0004C4CEA5020FC
:100F78007F32C2BFD2F1FF0340EAC250704740F44B
:100F880000004FF00003013A37E792F0000F00F03D
:100F9800004C02BF400010F4000F013AF9D040EABB
:100FA8000C0093F0000F01F0004C02BF490011F44F
:100FB800000F013BF9D041EA0C0195E70CEAD15347
:100FC80092EA0C0F08D142027FF47DAF93EA0C0F2E
:100FD8007FF470AF084676E793EA0C0F04D14B0212
:100FE8003FF44CAF08466EE730F0004C18BF31F0C4
:100FF800004CCAD130F000427FF45CAF31F00043BE
:101008007FF43CAF5FE700BF4FEA4002B2F1FE4F0A
:101018000FD34FF09E03B3EB12620DD94FEA0023B2
:1010280043F0004310F0004F23FA02F018BF40428B
:1010380070474FF00000704712F1610F01D1420272
:1010480005D110F0004008BF6FF0004070474FF026
:101058000000704742000ED2B2F1FE4F0BD34FF0A2
:101068009E03B3EB126209D44FEA002343F0004316
:1010780023FA02F070474FF00000704712F1610F39
:1010880001D1420202D14FF0FF3070474FF000000B
:10109800704700BF80B500AF0DF0E4FD00BF80BD14
:1010A80080B584B000AF0346FB800023FB730DF0CE
:1010B80009FEFB881B0A9BB2DBB25B00DBB2603B1C
:1010C800DBB218460DF0DAFE0DF04CFEFB88DBB201
:1010D80018460DF0D3FE0DF045FE0DF0F3FDA120EE
:1010E8000DF0CCFE0DF03EFE00200DF007FF03468C
:1010F800FB730DF00FFEFB7B18461037BD4680BD15
:1011080080B582B000AF03460A46FB8013467B7168
:101118000DF0D8FDFB881B0A9BB2DBB25B00DBB28B
:10112800603BDBB218460DF0A9FE0DF01BFEFB88F4
:10113800DBB218460DF0A2FE0DF014FE7B791846BE
:101148000DF09CFE0DF00EFE0DF0E4FD0A2000F0FF
:1011580021FA00BF0837BD4680BD90B583B000AF07
:1011680003463960FB801346BB800DE0FB885A1CA0
:10117800FA803C68621C3A601846FFF791FF034604
:101188002370BB88013BBB80BB88002BEED100BF1E
:1011980000BF0C37BD4690BD80B582B000AF034696
:1011A8003960FB801346BB800CE03B681A78FB88EB
:1011B80011461846FFF7A4FFFB880133FB803B6804
:1011C80001333B60BB885A1EBA80002BEDD100BFAB
:1011D80000BF0837BD4680BD80B500AF052000F0D0
:1011E8009BF900BF80BD000080B586B000AF124BF0
:1011F8009B69114A43F0100393610F4B9B6903F0FD
:1012080010037B607B680923BB600123FB6001231B
:101218003B6103237B6107F10803194607480FF078
:10122800FDFF074B01221A60064B01221A6000BF1E
:101238001837BD4680BD00BF0010024000100140B5
:10124800800122428C01224280B500AF0F4B1B68FF
:101258000E4A23F4704313600C4B1B680B4A43F48B
:10126800405313600A4B01221A600A4B01221A608C
:101278001E2000F051F9064B00221A60FFF7ACFF60
:10128800044B00221A6000BF80BD00BF001001405F
:101298008C0122428001224280B500AF0D4B1B68B1
:1012A8000C4A23F4704313600A4B1B68094A43F441
:1012B80040531360084B01221A601E2000F02CF9DD
:1012C800064B00221A60FFF787FF044B01221A60C1
:1012D80000BF80BD00100140800122428C012242E3
:1012E80080B582B000AF0023FB71164B1B68154A0E
:1012F80023F470431360134B1B68124A43F40043F2
:101308001360114B01221A60104B01221A60FFF77B
:1013180063FF0BE0FB790133FB71FB79FA2B03D9EF
:10132800FFF7BAFF012309E0FFF756FF084B1B68D8
:10133800002BEFD1054B00221A600023184608370E
:10134800BD4680BD001001408C012242800122422E
:101358000C01224280B500AF0F4B00221A600F4BE0
:101368001B680E4A23F4704313600C4B1B680B4A2E
:1013780043F440531360FFF72FFF094B00221A6014
:10138800FFF72AFF044B01221A60FFF725FF024BE3
:1013980000221A6000BF80BD800122420010014077
:1013A8008C01224280B500AF0F4B00221A600F4B10
:1013B8001B680E4A23F4704313600C4B1B680B4ADE
:1013C80043F440531360FFF707FF094B01221A60EB
:1013D800FFF702FF044B01221A60FFF7FDFE024BE4
:1013E80000221A6000BF80BD800122420010014027
:1013F8008C01224280B584B000AF0346FB71184BC4
:101408001B68174A23F470431360154B1B68144A72
:1014180043F440531360134B00221A60FFF7DCFEBD
:101428000023FB7314E0FB79DB09DAB20E4B1A6078
:10143800FB795B00FB710B4B01221A60FFF7CCFEB6
:10144800084B00221A60FFF7C7FEFB7B0133FB73D2
:10145800FB7B072BE7D900BF00BF1037BD4680BD17
:1014680000100140800122428C01224280B584B0E4
:1014780000AF0346FB710023BB731B4B1B681A4A62
:1014880023F470431360184B1B68174A43F4004356
:1014980013601E2000F040F80023FB7314E0134B88
:1014A80000221A60FFF798FE104B01221A60BB7BDE
:1014B8005B00BB730E4B1B68002B02D0BB7B013358
:1014C800BB73FB7B0133FB73FB7B072BE7D9FB79F2
:1014D800002B02D1FFF766FF01E0FFF73BFFBB7B64
:1014E80018461037BD4680BD0010014080012242D9
:1014F8000C01224280B582B000AF0346FB71042084
:101508000FF02CFDFB79034A136000BF0837BD4676
:1015180080BD00BFD800002080B489B000AF7860DB
:101528000023BB61194B5B687B61194B1A687B68A8
:1015380002FB03F33B61154B9B68FB61134B9B68F4
:10154800FB60FA68FB699A42F8D0FA68FB699A422C
:1015580006D2FA69FB68D31ABA691344BB6107E07B
:101568007A69FB68D21AFB691344BA691344BB61F0
:10157800FB68FB61BA693B699A4200D2DEE700BFAB
:1015880000BF2437BD4680BC704700BF10E000E0B4
:10159800D800002080B584B000AF0346FB8000234C
:1015A800FB6006E04FF47A70FFF7B6FFFB68013383
:1015B800FB60FB88FA689A42F4D300BF00BF10377B
:1015C800BD4680BD80B584B000AF03463960FB805E
:1015D80013467B710023BB73FFF736FE7020FFF7BD
:1015E80009FFFFF77DFEFB88DBB21846FFF702FF15
:1015F800FFF776FE0023FB7310E0FB7B3A68134489
:101608001B781846FFF7F6FEFFF76AFE0346BB7322
:10161800BB7B002B07D1FB7B0133FB73FA7B7B7908
:101628009A42EAD300E000BFFFF736FEBB7B1846BC
:101638001037BD4680BD90B585B000AF0346396010
:10164800FB8013467B71FFF7FFFD7020FFF7D2FE8A
:10165800FFF746FEFB88DBB21846FFF7CBFEFFF725
:101668003FFEFFF7F1FD7120FFF7C4FEFFF738FEDC
:101678000023FB7313E0FA7B7B79013B9A4214BF8A
:1016880001230023DBB21946FB7B3A68D4180846CD
:10169800FFF7ECFE03462370FB7B0133FB73FA7BF9
:1016A8007B799A42E7D3FFF7F7FD00BF1437BD46B1
:1016B80090BD000080B586B000AF374B9B69364AB5
:1016C80043F010039361344B9B6903F010033B60B4
:1016D8003B684FF400537B600123BB600123FB6030
:1016E80003233B613B1D19462C480FF097FD02234D
:1016F8007B600023BB603B1D194628480FF08EFD18
:10170800FFF772FD264B00221A601420FFF742FFF4
:10171800234B01221A603220FFF73CFF00233B7560
:1017280007F11403012219460020FFF74BFF07F1C8
:10173800140301221946A420FFF744FF16233B7522
:1017480007F11403012219468020FFF73BFF0C2301
:101758003B7507F11403012219468820FFF732FF71
:1017680007F1140302221946A120FFF764FF3B7D0D
:10177800302B0CD17B7D032B09D13B7D1B027A7D5D
:1017880013441946074812F037F8002300E00123F4
:1017980018461837BD4680BD0010024000100140B1
:1017A800B4012242604B010880B584B000AF034603
:1017B800FB710023FB730023BB73824B1B7801333F
:1017C800DAB2804B1A707F4B1A787F4BA3FB021357
:1017D800D9080B469B000B445B00D31ADBB2002BE5
:1017E80004D0784B1B78092B00F2BA80FB1D01222C
:1017F80019460220FFF71FFFFB7903F00F03002BA8
:1018080000F0AE80FB7903F00F03052B00F3A880EE
:10181800FB7903F00F03FF2202FA03F37B7397F9B6
:101828000D30DB435BB263F03F035BB2DAB2674B68
:1018380083F820200023FB737FE0644B93F820306B
:101848001A46FB7B42FA03F303F00103002B71D025
:10185800FB7B5F4A32F8133007F10801042218466F
:10186800FFF7E9FE594B93F8303003F00103002BE2
:1018780022D03B7A1B029BB203F470639AB27B7A44
:101888001946FB7B0A4491B2504A08335B00134463
:101898000A46DA80BB7A1B029BB203F470639AB2E1
:1018A800FB7A1946FB7B0A4491B2484A04335B0031
:1018B80013440A469A8023E03B7A1B029BB203F446
:1018C80070639BB27A7A13449AB2FB7BC2F5F072CA
:1018D80091B23E4A04335B0013440A469A80BB7AAD
:1018E8001B029BB203F470639AB2FB7A1946FB7B26
:1018F8000A4491B2354A08335B0013440A46DA8039
:101908003B7A03F0F003802B14D0FA7B2F4902F1C5
:1019180008035B000B440021D980F97B2B4802F1B6
:1019280008035B000344D888284A0B1D5B00134456
:1019380002469A80FB7B0133FB73FB7B042B7FF60B
:101948007CAF0123BB73214B9B89002B05D11F4B17
:10195800DB8A002B01D10023FB711A4B00221A707D
:10196800FB7903F01F03002B20D1184B93F820308C
:101978005BB2002B09DA154B93F8203003F07F0394
:10198800DAB2124B83F8202010E0104B4FF6FF72AA
:101998009A810E4B4FF6FF72DA820C4B93F8203087
:1019A80023F01F03DAB2094B83F82020054B1B787C
:1019B800F02B02D9034B0A221A70BB7B184610374A
:1019C800BD4680BDDC000020CDCCCCCC0C00002076
:1019D800904D010880B588B000AF07F110030022D0
:1019E8001A605A609A60DA602F4B9B692E4A43F05E
:1019F800200393612C4B9B6903F02003FB60FB6879
:101A0800294B9B69284A43F004039361264B9B6941
:101A180003F00403BB60BB68234B9B69224A43F075
:101A280010039361204B9B6903F010037B607B6874
:101A3800002204211D480FF09CFD01233B61002377
:101A48007B610223BB6107F11003194618480FF0A8
:101A5800E5FB20233B6100237B610123BB6107F188
:101A68001003194613480FF0D9FB4FF400433B61AC
:101A780000237B610123BB6107F1100319460C4861
:101A88000FF0CCFB04233B6101237B610023BB6186
:101A98000223FB6107F11003194604480FF0BEFB4F
:101AA80000BF2037BD4680BD001002400014014031
:101AB800000801400010014080B584B000AF034623
:101AC800FB710023FB7300233B73FB797B730023BB
:101AD800FB7309E03A7BFB7B1049CB5C1344DBB218
:101AE8003B73FB7B0133FB73FB7BB72BF2D93B7B4F
:101AF8005B42DBB23B73B822084948F2470000F06A
:101B08000FF807F10C030222194648F2FF0000F013
:101B180007F8002318461037BD4680BD9C4D0108C4
:101B280080B584B000AF03463960FB8013467B71F3
:101B38000023BB73FFF788FB2820FFF75BFCFFF748
:101B4800CFFBFB881B0A9BB2DBB21846FFF752FC9F
:101B5800FFF7C6FBFB88DBB21846FFF74BFCFFF725
:101B6800BFFB0023FB7310E0FB7B3A6813441B7830
:101B78001846FFF73FFCFFF7B3FB0346BB73BB7B7D
:101B8800002B07D1FB7B0133FB73FA7B7B799A42ED
:101B9800EAD300E000BFFFF77FFBBB7B1846103796
:101BA800BD4680BD90B585B000AF03463960FB8067
:101BB80013467B71FFF748FB2820FFF71BFCFFF754
:101BC8008FFBFB881B0A9BB2DBB21846FFF712FC9F
:101BD800FFF786FBFB88DBB21846FFF70BFCFFF725
:101BE8007FFBFFF731FB2920FFF704FCFFF778FBA9
:101BF8000023FB7313E0FA7B7B79013B9A4214BF05
:101C080001230023DBB21946FB7B3A68D418084647
:101C1800FFF72CFC03462370FB7B0133FB73FA7B35
:101C28007B799A42E7D3FFF737FB00BF1437BD46ED
:101C380090BD000080B588B000AF464B9B69454A0F
:101C480043F010039361434B9B6903F010037B60DF
:101C58007B684FF40053BB600123FB6001233B61A9
:101C680003237B6107F1080319463B480FF0D6FAB6
:101C78000223BB600023FB6007F1080319463648BE
:101C88000FF0CCFAFFF7B0FA344B00221A600A20A2
:101C9800FFF780FC314B01221A600A20FFF77AFC1B
:101CA8000223BB6002233B610023FB6007F10803AA
:101CB800194629480FF0B2FA6420FFF76BFC07F1C8
:101CC80018030422194648F24010FFF76BFF00235F
:101CD8003B7707F118031946214811F08DFD07F1EC
:101CE800180320491846FEF79BFA0346002B2BD110
:101CF80002233B7607F118030122194648F24000F7
:101D0800FFF70EFF07F118030122194648F24700B2
:101D1800FFF748FF3B7E5F2B07D83B7E19461248EA
:101D280011F06AFD0120FFF7C7FE0A20FFF732FC19
:101D380000233B7607F118030122194648F24000B8
:101D4800FFF7EEFE002300E0002318462037BD46CB
:101D580080BD00BF0010024000100140B4012242C3
:101D68006C4B0108784B0108804B010880B586B0A0
:101D780000AF0346FB710023FB750023BB75904B36
:101D88001B780133DAB28E4B1A708D4B1A788D4B53
:101D9800A3FB0213D9080B469B000B445B00D31A24
:101DA800DBB2002B04D0864B1B78092B00F2D680BF
:101DB800FB1D0122194648F24E10FFF7F3FEFB798E
:101DC8005BB2002B0EDAFB7903F00F03052B09DC5D
:101DD8000023FB7307F10F030122194648F24E1046
:101DE800FFF79EFEFB7903F00F03002B00F0B6808F
:101DF800FB7903F00F03052B00F3B080FB7903F0A8
:101E08000F03FF2202FA03F3DBB2FB736E4B93F866
:101E180020307B75FB7B5BB2DB435BB263F03F0337
:101E28005BB2DAB2684B83F82020674B9A89664B1D
:101E38009A82654BDA8A644BDA830023FB7559E092
:101E4800614B93F820301A46FB7D42FA03F303F006
:101E58000103002B4BD0FB7D5C4A32F8133007F1AD
:101E6800100104221846FFF79DFE574B93F83030B7
:101E780003F00103002B1ED07B7C1B029AB23B7C33
:101E88001946FB7D0A4491B24F4A08335B0013445C
:101E98000A46DA80FB7C1B029BB2BA7C13449AB2D6
:101EA800FB7DC2F5487291B2474A04335B00134484
:101EB8000A469A801BE07B7C1B029AB23B7C19463F
:101EC800FB7D0A4491B2404A04335B0013440A463E
:101ED8009A80FB7C1B029AB2BB7C1946FB7D0A44A4
:101EE80091B2394A08335B0013440A46DA80FB7D15
:101EF8000133FB75FB7D042BA2D90123BB75324B43
:101F08009A89334B1B889A4205D82F4BDA8A304B73
:101F18005B889A421FD9FB7903F00E03002B0BD084
:101F2800294BDA89284B9A81274B1A8B264BDA8260
:101F3800234B00221A7011E0234B9A8A224B9A8174
:101F4800214BDA8B204BDA828023FB711E4A7B7D82
:101F580082F8203002E01A4B00221A70FB7903F055
:101F68008F03802B20D1184B93F820305BB2002BC5
:101F780009DA154B93F8203003F07F03DAB2124BDD
:101F880083F8202010E0104B4FF6FF729A810E4B19
:101F98004FF6FF72DA820C4B93F8203023F01F03C0
:101FA800DAB2094B83F82020054B1B78F02B02D9B5
:101FB800034B0A221A70BB7D18461837BD4680BDF0
:101FC800DD000020CDCCCCCC0C000020544E010804
:101FD800E000002080B586B000AF1F4B9B691E4A09
:101FE80043F0040393611C4B9B6903F004037B607B
:101FF8007B68194B9B69184A43F010039361164B91
:102008009B6903F010033B603B680123BB6000231E
:10201800FB6002233B6103237B6107F10803194638
:102028000E480FF0FBF84FF40043BB6001233B61FF
:1020380007F10803194609480FF0F0F82023BB60A0
:1020480001233B6107F10803194605480FF0E6F83C
:1020580000BF1837BD4680BD00100240000801408F
:102068000010014080B582B000AF0346FB71FB79D8
:10207800012B02D12F4B01221A702E4B1B78002BFB
:1020880037D020212C480FF05DFA0346002B0ED0E4
:102098004FF4004129480FF055FA0346002B06D0AB
:1020A800012126480FF04EFA0346012B21D10A20C0
:1020B800FFF770FA1F4B00221A7020211E480FF0FC
:1020C80041FA0346002B01D101232EE04FF40041D1
:1020D8001A480FF037FA0346002B01D1022324E0F7
:1020E800012116480FF02EFA0346012B1BD10323BA
:1020F8001BE0202110480FF025FA0346012B13D1CD
:102108004FF400410D480FF01DFA0346012B0BD187
:1021180001210A480FF016FA0346002B04D1054B9B
:1021280001221A7000E000BF002318460837BD4698
:1021380080BD00BF000000200010014000080140E1
:1021480080B483B000AF0346FB800D4B4FF4807220
:102158005A610B4B4FF400725A610A4AFB88D360EC
:10216800074B80225A61064B80221A61044B4FF4B8
:1021780000721A6100BF0C37BD4680BC704700BFB3
:1021880000100140000C014080B483B000AF03464A
:10219800FB800D4B4FF480721A610B4B4FF40072A9
:1021A8005A610A4AFB88D360074B80225A61064B62
:1021B80080221A61044B4FF400721A6100BF0C3779
:1021C800BD4680BC704700BF00100140000C0140B4
:1021D80080B582B000AF1D4B4FF088321A601B4BA0
:1021E8004FF088325A60194B0022DA60184B4FF4CE
:1021F80080721A61164B4FF400725A61144B4022D8
:102208005A61144B9B8848F68912934202D10120E7
:102218000EF072FD0D4B9B68FB800D4B40221A613E
:102228000B4B4FF400721A61084B4FF033321A60AF
:10223800064B4FF033325A60044B4FF6FF72DA60A8
:10224800FB8818460837BD4680BD00BF000C01401A
:1022580000100140E000002080B582B000AF0346C6
:102268000A46FB801346BB80FB881846FFF768FFC9
:102278000C4B4FF480721A610A4B4FF400725A618A
:10228800094ABB88D360074B80225A61054B8022DC
:102298001A61044B4FF400721A6100BF0837BD463B
:1022A80080BD00BF00100140000C014080B582B025
:1022B80000AF0346FB80FB881846FFF741FFFFF796
:1022C80087FF034618460837BD4680BD80B500AF76
:1022D800034B1B891846FFF733FF00BF80BD00BFC3
:1022E800E000002080B582B000AF03460A46FB80BC
:1022F8001346BB80734B9B8849F24132934205D009
:10230800704B9B8845F21032934264D16D4B5B89C8
:102318001846FFF715FF6C4B4FF480721A616A4B31
:102328004FF400725A61FB881B0A9AB2674BDA6055
:10233800654B80225A61644B80221A61624B4FF4CC
:1023480000721A61604B4FF480721A615E4B4FF451
:1023580000725A61FB885D4ADBB2D3605A4B802217
:102368005A61594B80221A61574B4FF400721A6117
:10237800544B9B891846FFF7E3FE534B4FF480728A
:102388001A61514B4FF400725A61BB881B0A9AB20A
:102398004E4BDA604C4B80225A614B4B80221A61BB
:1023A800494B4FF400721A61474B4FF480721A611F
:1023B800454B4FF400725A61BB88444ADBB2D36084
:1023C800414B80225A61404B80221A613E4B4FF4A8
:1023D80000721A6148E23B4B9B8846F6040293421E
:1023E80076D1384B9B79012B06D1364B1A88FB885E
:1023F800D31A9BB2013BFB80324B5B891846FFF72F
:102408009FFE314B4FF480721A612F4B4FF40072CC
:102418005A61FB881B0A9AB22C4BDA602A4B80223D
:102428005A61294B80221A61274B4FF400721A61B6
:10243800254B4FF480721A61234B4FF400725A6196
:10244800FB88224ADBB2D3601F4B80225A611E4BA5
:1024580080221A611C4B4FF400721A61194B9B8938
:102468001846FFF76DFE184B4FF480721A61164B31
:102478004FF400725A61BB881B0A9AB2134BDA6098
:10248800114B80225A61104B80221A610E4B4FF477
:1024980000721A610C4B4FF480721A610A4B4FF4A8
:1024A80000725A61BB88094ADBB2D360064B8022AE
:1024B8005A61054B80221A61034B4FF400721A616E
:1024C800D2E100BFE000002000100140000C0140F4
:1024D800994B9B8841F66312934240F03381964BA7
:1024E8009B79002B63D1944B1A88FB88D31A9BB233
:1024F800013BFB80904B5B891846FFF721FE8F4B11
:102508004FF480721A618D4B4FF400725A618C4BF4
:102518000022DA60894B80225A61884B80221A6136
:10252800864B4FF400721A61844B4FF480721A6123
:10253800824B4FF400725A61814B0022DA607F4B64
:1025480080225A617D4B80221A617C4B4FF40072C5
:102558001A617A4B4FF480721A61784B4FF400720B
:102568005A61FB881B0A9AB2754BDA60734B80225A
:102578005A61724B80221A61704B4FF400721A61D3
:102588006E4B4FF480721A616C4B4FF400725A61B3
:10259800FB886B4ADBB2D360684B80225A61674B79
:1025A80080221A61654B4FF400721A6161E0624B38
:1025B8005B891846FFF7C4FD604B4FF480721A61BF
:1025C8005E4B4FF400725A61FB881B0A9AB25C4B4F
:1025D800DA605A4B80225A61584B80221A61574B55
:1025E8004FF400721A61554B4FF480721A61534BC5
:1025F8004FF400725A61FB88514ADBB2D3604F4BEB
:1026080080225A614D4B80221A614C4B4FF4007264
:102618001A614A4B4FF480721A61484B4FF40072AA
:102628005A61454B1B88013B1A12454BDA60434BF4
:1026380080225A61414B80221A61404B4FF400724C
:102648001A613E4B4FF480721A613C4B4FF4007292
:102658005A61394B1B88013B394ADBB2D360374B8F
:1026680080225A61354B80221A61344B4FF4007234
:102678001A61314B9B891846FFF762FD2F4B4FF4C7
:1026880080721A612D4B4FF400725A61BB881B0A85
:102698009AB22B4BDA60294B80225A61274B802251
:1026A8001A61264B4FF400721A61244B4FF4807262
:1026B8001A61224B4FF400725A61BB88204ADBB280
:1026C800D3601E4B80225A611C4B80221A611B4B1F
:1026D8004FF400721A61194B4FF480721A61174B4C
:1026E8004FF400725A61144B5B88013B1A12144B69
:1026F800DA60124B80225A61104B80221A610F4B0C
:102708004FF400721A610D4B4FF480721A610B4B33
:102718004FF400725A61084B5B88013B084ADBB2F0
:10272800D360064B80225A61044B80221A61034B06
:102738004FF400721A6197E0E00000200010014099
:10274800000C01404A4B9B8845F21052934272D1CB
:10275800474B5B891846FFF7F3FC464B4FF48072F2
:102768001A61444B4FF400725A61FB881B0A9AB2F3
:10277800414BDA603F4B80225A613E4B80221A61FE
:102788003C4B4FF400721A61394B5B8901339BB2A1
:102798001846FFF7D5FC374B4FF480721A61354B5A
:1027A8004FF400725A61FB88334ADBB2D360314B75
:1027B80080225A612F4B80221A612E4B4FF40072EF
:1027C8001A612B4B9B891846FFF7BAFC294B4FF42B
:1027D80080721A61274B4FF400725A61BB881B0A3A
:1027E8009AB2254BDA60234B80225A61214B802212
:1027F8001A61204B4FF400721A611D4B9B890133FB
:102808009BB21846FFF79CFC1A4B4FF480721A6172
:10281800184B4FF400725A61BB88174ADBB2D36079
:10282800144B80225A61134B80221A61114B4FF4CA
:1028380000721A6118E00E4B9B79012B06D10C4BE4
:102848001A88FB88D31A9BB2013BFB80084B5B8933
:10285800FA8811461846FFF7FFFC054B9B89BA8892
:1028680011461846FFF7F8FC00BF0837BD4680BD83
:10287800E000002000100140000C014080B584B049
:1028880000AF0346FB710023FB810023BB81784B1B
:102898009B79012B0BD1764B9B8846F60402934219
:1028A80005D0734B9B8841F66312934209D1704B54
:1028B8009B79002B34D16E4B9B8841F6631293426F
:1028C8002ED1FB79072B2BD801A252F823F000BF99
:1028D800F9280008FF280008052900080B29000826
:1028E80011290008172900081D29000823290008B4
:1028F8000623FB7114E00723FB7111E00423FB712D
:102908000EE00523FB710BE00123FB7108E00023B7
:10291800FB7105E00323FB7102E00223FB7100BF9A
:10292800534B9B8849F24132934218D0504B9B88B5
:1029380046F60402934212D04D4B9B8845F2103262
:1029480093420CD04A4B9B8845F21052934206D0D2
:10295800474B9B8841F66312934240F05082FB79C3
:10296800072B36D801A252F823F000BFDB29000854
:10297800952900089F290008A9290008B3290008FB
:10298800BD290008C7290008D1290008FB8943F0A0
:102998008003FB811DE0FB8943F04003FB8118E0C5
:1029A800FB8943F0C003FB8113E0FB8943F020035C
:1029B800FB810EE0FB8943F06003FB8109E0FB89A2
:1029C80043F0A003FB8104E0FB8943F0E003FB81B3
:1029D80000BF274B9B8845F21052934203D14FF416
:1029E8005853BB8101E03623BB81214B9B8845F2BC
:1029F800103293420FD01E4B9B8845F210529342DF
:102A080009D01B4B9B8841F66312934203D0FB8984
:102A180043F00803FB81164B9B8846F60402934259
:102A280003D1FB8943F00203FB81FA89BB89114674
:102A38001846FFF711FC0E4B9B8841F66312934230
:102A480028D0FB8903F02003002B13D0084B1A88E9
:102A5800074B5B889A421DD2054B1B887B81044B30
:102A68005A88034B1A80024A7B89538012E000BFC0
:102A7800E00000207F4B1A887E4B5B889A4209D978
:102A88007C4B1B887B817B4B5A887A4B1A80794A0E
:102A98007B895380774B9B8845F21052934240F0D4
:102AA800EF80744B5B891846FFF74AFB724B4FF473
:102AB80080721A61704B4FF400725A616F4B00229A
:102AC800DA606D4B80225A616B4B80221A616A4B27
:102AD8004FF400721A61674B5B8901339BB2184649
:102AE800FFF72EFB644B4FF480721A61624B4FF470
:102AF80000725A61614B0022DA605F4B80225A6192
:102B08005D4B80221A615C4B4FF400721A61594B7D
:102B18005B8902339BB21846FFF712FB564B4FF402
:102B280080721A61544B4FF400725A61514B1B88E2
:102B3800013B1A12514BDA604F4B80225A614E4BBF
:102B480080221A614C4B4FF400721A61494B5B8921
:102B580003339BB21846FFF7F3FA474B4FF48072E2
:102B68001A61454B4FF400725A61424B1B88013B76
:102B7800424ADBB2D360404B80225A613E4B8022EE
:102B88001A613D4B4FF400721A613A4B9B89184603
:102B9800FFF7D6FA384B4FF480721A61364B4FF470
:102BA80000725A61354B0022DA60334B80225A6139
:102BB800314B80221A61304B4FF400721A612D4B51
:102BC8009B8901339BB21846FFF7BAFA2A4B4FF498
:102BD80080721A61284B4FF400725A61274B002209
:102BE800DA60254B80225A61234B80221A61224BDE
:102BF8004FF400721A611F4B9B8902339BB218462F
:102C0800FFF79EFA1C4B4FF480721A611A4B4FF46F
:102C180000725A61174B5B88013B1A12174BDA6036
:102C2800154B80225A61144B80221A61124B4FF4C3
:102C380000721A610F4B9B8903339BB21846FFF74A
:102C48007FFA0D4B4FF480721A610B4B4FF40072F0
:102C58005A61084B5B88013B084ADBB2D360064BDC
:102C680080225A61044B80221A61034B4FF4007290
:102C78001A610BE1E000002000100140000C014047
:102C8800844B5B891846FFF75BFA834B4FF48072DD
:102C98001A61814B4FF400725A61804B0022DA604E
:102CA8007D4B80225A617C4B80221A617A4B4FF40B
:102CB80000721A61784B4FF480721A61764B4FF4A8
:102CC80000725A61754B0022DA60734B80225A6198
:102CD800714B80221A61704B4FF400721A616E4B6F
:102CE8004FF480721A616C4B4FF400725A61694B51
:102CF8001B88013B1A12694BDA60674B80225A61C4
:102D0800654B80221A61644B4FF400721A61624B62
:102D18004FF480721A61604B4FF400725A615D4B38
:102D28001B88013B5D4ADBB2D3605B4B80225A6152
:102D3800594B80221A61584B4FF400721A61554B57
:102D48009B891846FFF7FCF9534B4FF480721A61C0
:102D5800514B4FF400725A61504B0022DA604E4BCF
:102D680080225A614C4B80221A614B4B4FF40072FF
:102D78001A61494B4FF480721A61474B4FF4007245
:102D88005A61464B0022DA60434B80225A61424B1B
:102D980080221A61404B4FF400721A613E4B4FF487
:102DA80080721A613C4B4FF400725A61394B5B8850
:102DB800013B1A12394BDA60374B80225A61364B85
:102DC80080221A61344B4FF400721A61324B4FF46F
:102DD80080721A61304B4FF400725A612D4B5B8838
:102DE800013B2E4ADBB2D3602B4B80225A612A4B1F
:102DF80080221A61284B4FF400721A6146E0FB7971
:102E0800072B36D801A252F823F000BF352E000850
:102E18003F2E0008492E00087B2E0008532E00087C
:102E28005D2E0008672E0008712E0008FB8943F00C
:102E38003003FB811DE0FB8943F01003FB8118E0A0
:102E4800FB8943F02003FB8113E0FB8943F038033F
:102E5800FB810EE0FB8943F02803FB8109E0FB8935
:102E680043F01803FB8104E0FB8943F00803FB816E
:102E780000BF0323BB81FB8943F48053FB81FA899C
:102E8800BB8911461846FFF7E7F900BF00BF1037A6
:102E9800BD4680BDE000002000100140000C01404C
:102EA80080B582B000AF03460A46FB801346BB805C
:102EB800BA88FB8811461846FFF714FAFFF706FA96
:102EC8000C4B4FF480721A610A4B4FF400725A612E
:102ED800094B1A88094BDA60064B80225A61054B68
:102EE80080221A61034B4FF400721A6100BF083741
:102EF800BD4680BD00100140DE000020000C0140EE
:102F080080B582B000AF0346FB800B46BB801346FA
:102F18007B80754B9B8849F24132934205D0724BB6
:102F28009B8845F21032934264D16F4B5B891846F7
:102F3800FFF706F96D4B4FF480721A616B4B4FF433
:102F480000725A61FB881B0A9AB2694BDA60674BB8
:102F580080225A61654B80221A61644B4FF40072DB
:102F68001A61624B4FF480721A61604B4FF4007221
:102F78005A61FB885E4ADBB2D3605C4B80225A619F
:102F88005A4B80221A61594B4FF400721A61564B02
:102F98009B891846FFF7D4F8544B4FF480721A6196
:102FA800524B4FF400725A61BB881B0A9AB2504BBD
:102FB800DA604E4B80225A614C4B80221A614B4B8F
:102FC8004FF400721A61494B4FF480721A61474BF3
:102FD8004FF400725A61BB88454ADBB2D360434B59
:102FE80080225A61414B80221A61404B4FF4007293
:102FF8001A61E6E13C4B9B8845F21052934279D125
:10300800394B5B891846FFF79BF8384B4FF48072B1
:103018001A61364B4FF400725A61FB881B0A9AB248
:10302800334BDA60314B80225A61304B80221A616F
:103038002E4B4FF400721A612B4B5B8901339BB204
:103048001846FFF77DF8294B4FF480721A61274B19
:103058004FF400725A61FB88254ADBB2D360234BD8
:1030680080225A61214B80221A61204B4FF4007252
:103078001A611D4B9B891846FFF762F81B4B4FF4EA
:1030880080721A61194B4FF400725A61BB881B0A8F
:103098009AB2174BDA60154B80225A61134B802283
:1030A8001A61124B4FF400721A610F4B9B8901335E
:1030B8009BB21846FFF744F80C4B4FF480721A6124
:1030C8000A4B4FF400725A61BB88094ADBB2D360DD
:1030D800064B80225A61054B80221A61034B4FF43C
:1030E80000721A616DE100BFE0000020001001408D
:1030F800000C0140684B9B8841F66312934240F0F4
:10310800D180654B9B79002B06D1634B1A88FB88CD
:10311800D31A9BB2013BFB805F4B5B891846FFF7D4
:103128000FF85E4B4FF480721A615C4B4FF40072DB
:103138005A61FB881B0A9AB2594BDA60574B8022B6
:103148005A61564B80221A61544B4FF400721A612F
:10315800524B4FF480721A61504B4FF400725A610F
:10316800FB884F4ADBB2D3604C4B80225A614B4BF1
:1031780080221A61494B4FF400721A61474B4FF491
:1031880080721A61454B4FF400725A61FB881B0A22
:103198009AB2434BDA60414B80225A613F4B8022FE
:1031A8001A613E4B4FF400721A613C4B4FF4807227
:1031B8001A613A4B4FF400725A61FB88384ADBB205
:1031C800D360364B80225A61344B80221A61334BCC
:1031D8004FF400721A61304B9B891846FEF7B0FF16
:1031E8002E4B4FF480721A612C4B4FF400725A61C7
:1031F800BB881B0A9AB22A4BDA60284B80225A6194
:10320800264B80221A61254B4FF400721A61234B1A
:103218004FF480721A61214B4FF400725A61BB88D7
:103228001F4ADBB2D3601D4B80225A611B4B8022A0
:103238001A611A4B4FF400721A61184B4FF48072DE
:103248001A61164B4FF400725A61BB881B0A9AB276
:10325800134BDA60114B80225A61104B80221A619D
:103268000E4B4FF400721A610C4B4FF480721A61C6
:103278000A4B4FF400725A61BB88094ADBB2D3602B
:10328800064B80225A61054B80221A61034B4FF48A
:1032980000721A6195E000BFE000002000100140B4
:1032A800000C01405E4B9B8846F6040293426FD1A6
:1032B8005B4B9B79012B06D1594B1A88FB88D31A93
:1032C8009BB2013BFB80564B5B891846FEF738FFE3
:1032D800544B4FF480721A61524B4FF400725A618A
:1032E800FB881B0A9AB2504BDA604E4B80225A6117
:1032F8004C4B80221A614B4B4FF400721A61494BB8
:103308004FF480721A61474B4FF400725A61FB8880
:10331800454ADBB2D360434B80225A61414B80223D
:103328001A61404B4FF400721A613D4B9B89184655
:10333800FEF706FF3B4B4FF480721A61394B4FF48E
:1033480000725A61BB881B0A9AB2374BDA60354B58
:1033580080225A61334B80221A61324B4FF400723B
:103368001A61304B4FF480721A612E4B4FF4007281
:103378005A61BB882C4ADBB2D3602A4B80225A613F
:10338800284B80221A61274B4FF400721A6118E00B
:10339800234B9B79012B06D1214B1A88FB88D31A22
:1033A8009BB2013BFB801E4B5B89FA88114618468D
:1033B800FEF752FF1A4B9B89BA8811461846FEF74A
:1033C8004BFF184B4FF480725A61164B4FF4007242
:1033D8005A61134B1A89144BDA60124B80225A61D6
:1033E800104B80221A610F4B4FF400721A610D4B7B
:1033F8004FF480721A610B4B4FF400725A610A4AFB
:103408007B88D360074B80225A61064B80221A6161
:10341800044B4FF400721A6100BF0837BD4680BDE7
:10342800E000002000100140000C014000000000F6
:1034380090B583B000AF0346FB71BE20FEF780FE57
:103448004B4B4FF480721A61494B4FF400725A612A
:10345800484B0522DA60464B80225A61444B802251
:103468001A61434B4FF400721A61414B4FF480725A
:103478001A613F4B4FF400725A61FB791846FDF709
:103488002BF839A3D3E90023FDF790F802460B4641
:10349800384C10461946FDF739FB0346E360344BB8
:1034A80080225A61324B80221A61314B4FF40072EC
:1034B8001A612F4B4FF480721A612D4B4FF4007232
:1034C8005A612C4B0122DA60294B80225A61284B21
:1034D80080221A61264B4FF400721A61244B4FF474
:1034E80080721A61224B4FF400725A61214BFF22FD
:1034F800DA601F4B80225A611D4B80221A611C4BD7
:103508004FF400721A611A4B4FF480721A61184B0B
:103518004FF400725A61174B0022DA60144B802274
:103528005A61134B80221A61114B4FF400721A61D1
:103538000F4B4FF480721A610D4B4FF400725A61B1
:103548000C4B0022DA600A4B80225A61084B802219
:103558001A61074B4FF400721A6100BF0C37BD4661
:1035680090BD00BFAFF3008066666666666604407D
:1035780000100140000C014080B582B000AF034646
:10358800FB71FB79002B77D1804B00229A717F4B1E
:10359800F0221A807D4B4FF4A0725A807B4B9B8897
:1035A80049F2413293420BD0784B9B8846F604028D
:1035B800934205D0754B9B8845F2103293421ED139
:1035C800724B2C221A81714B2A225A816F4B2B2263
:1035D8009A816E4B9B8846F60402934206D06B4B49
:1035E8009B8845F21032934240F0C780674B4FF4F6
:1035F800A0721A80654B4FF4F0725A80BDE0634B9D
:103608009B8845F21052934214D1604B4FF43052CC
:103618001A815E4B4FF428525A815C4B4FF42C525E
:103628009A815A4B4FF4F0721A80584B4FF44872F3
:103638005A80A3E0554B9B8841F66312934211D1FF
:10364800524B2C221A81514B2B225A814F4B2A2242
:103658009A814E4B4FF4F0721A804C4B4FF44872DB
:103668005A808BE0494B22221A81484B20225A81EA
:10367800464B21229A8181E0444B01229A71434BA7
:103688004FF4A0721A80414BF0225A803F4B9B881E
:1036980049F24132934205D03C4B9B8845F21032A7
:1036A800934209D1394B2C221A81384B2A225A814C
:1036B800364B2B229A814BE0344B9B8846F604020A
:1036C800934209D1314B2C221A81304B2B225A813B
:1036D8002E4B2A229A813BE02C4B9B8845F21052B4
:1036E800934214D1294B4FF430521A81274B4FF48F
:1036F80028525A81254B4FF42C529A81234B4FF470
:1037080048721A80214B4FF4F0725A8020E01F4B08
:103718009B8841F66312934211D11C4B2C221A81CB
:103728001A4B2A225A81194B2B229A81174B4FF494
:1037380048721A80154B4FF4F0725A8008E0134B08
:1037480022221A81114B21225A81104B20229A8160
:103758000E4B9B8846F60402934205D00B4B9B8880
:1037680045F21032934209D1084B4FF4F0721A8097
:10377800064B4FF4A0725A8000E000BF0020FFF70C
:103788007DF800BF0837BD4680BD00BFE0000020BF
:1037980080B586B000AF904B9B698F4A43F0080311
:1037A80093618D4B9B6903F008037B607B688A4BB0
:1037B8009B69894A43F010039361874B9B6903F027
:1037C80010033B603B684FF4F863BB600123FB6068
:1037D80001233B6103237B6107F1080319467F48F6
:1037E8000DF01CFD4FF6FF73BB6007F10803194687
:1037F8007B480DF013FD32200DF07EFA01210020E8
:10380800FEF72AFD32200DF077FA0020FEF74EFD74
:1038180003461A46734B9A80724B9B88FE2B0BD932
:10382800704B9B884FF6FF72934205D06D4B9B8877
:10383800B3F5134F40F0C880D320FEF781FCFEF7A4
:10384800C7FCFEF7C5FCFEF7C3FC03461A46654BEA
:103858009A80644B9B881B029AB2624B9A80FEF74F
:10386800B7FC03461A465F4B9B8813439AB25D4BDD
:103878009A805C4B9B8849F24132934200F0A480C5
:10388800BF20FEF75DFCFEF7A3FCFEF7A1FCFEF7E8
:103898009FFCFEF79DFC03461A46524B9A80514BFB
:1038A8009B881B029AB24F4B9A80FEF791FC034605
:1038B8001A464C4B9B8813439AB24A4B9A80494B01
:1038C8009B8846F6040293427ED0D420FEF738FC4B
:1038D800FEF77EFCFEF77CFCFEF77AFC03461A46F0
:1038E800404B9A803F4B9B881B029AB23D4B9A8073
:1038F800FEF76EFC03461A463A4B9B8813439AB26E
:10390800384B9A80374B9B8845F2103293425BD0F4
:103918004FF45A40FEF714FCFEF75AFC4FF45B4094
:10392800FEF70EFCFEF754FC03461A462D4B9A8010
:103938002C4B9B881B029AB22A4B9A804FF45C400E
:10394800FEF7FEFBFEF744FC03461A46254B9B8810
:1039580013439AB2234B9A80224B9B88B3F5004FAE
:1039680003D1204B45F210529A801E4B9B8845F29A
:103978001052934228D0A120FEF7E2FBFEF728FC64
:1039880003461A46174B9A80FEF722FC03461A464E
:10399800144B9A80134B9B881B029AB2114B9A8046
:1039A800FEF716FC03461A460E4B9B8813439AB241
:1039B8000C4B9A800B4B9B8845F26172934203D162
:1039C800084B41F663129A80064B9B8849F24132B4
:1039D800934240F01F8107E00010024000100140B0
:1039E800000C0140E0000020CF20FEF7A9FB0020DA
:1039F800FEF7CAFBC120FEF7C7FB3020FEF7C4FB69
:103A0800ED20FEF79DFB6420FEF7BEFB0320FEF7CA
:103A1800BBFB1220FEF7B8FB8120FEF7B5FBE820C0
:103A2800FEF78EFB8520FEF7AFFB1020FEF7ACFB00
:103A38007A20FEF7A9FBCB20FEF782FB3920FEF7A0
:103A4800A3FB2C20FEF7A0FB0020FEF79DFB3420F3
:103A5800FEF79AFB0220FEF797FBF720FEF770FBB4
:103A68002020FEF791FBEA20FEF76AFB0020FEF714
:103A78008BFB0020FEF788FBC020FEF761FB1B20B4
:103A8800FEF782FBC120FEF75BFB0120FEF77CFB03
:103A9800C520FEF755FB3020FEF776FB3020FEF7F9
:103AA80073FBC720FEF74CFBB720FEF76DFB3620F3
:103AB800FEF746FB4820FEF767FB3A20FEF740FB7F
:103AC8005520FEF761FBB120FEF73AFB0020FEF718
:103AD8005BFB1A20FEF758FBB620FEF731FB0A20E5
:103AE800FEF752FBA220FEF74FFBF220FEF728FB61
:103AF8000020FEF749FB2620FEF722FB0120FEF7F7
:103B080043FBE020FEF71CFB0F20FEF73DFB2A20BD
:103B1800FEF73AFB2820FEF737FB0820FEF734FBB8
:103B28000E20FEF731FB0820FEF72EFB5420FEF78F
:103B38002BFBA920FEF728FB4320FEF725FB0A20D4
:103B4800FEF722FB0F20FEF71FFB0020FEF71CFBF1
:103B58000020FEF719FB0020FEF716FB0020FEF7F9
:103B680013FBE120FEF7ECFA0020FEF70DFB152011
:103B7800FEF70AFB1720FEF707FB0720FEF704FBFA
:103B88001120FEF701FB0620FEF7FEFA2B20FEF7B8
:103B9800FBFA5620FEF7F8FA3C20FEF7F5FA052066
:103BA800FEF7F2FA1020FEF7EFFA0F20FEF7ECFA14
:103BB8003F20FEF7E9FA3F20FEF7E6FA0F20FEF76E
:103BC800E3FA2B20FEF7BCFA0020FEF7DDFA00200E
:103BD800FEF7DAFA0120FEF7D7FA3F20FEF7D4FA0B
:103BE8002A20FEF7ADFA0020FEF7CEFA0020FEF7F5
:103BF800CBFA0020FEF7C8FAEF20FEF7C5FA11202D
:103C0800FEF79EFA78200DF077F82920FEF798FA4B
:103C180003F0D8BC584B9B8846F60402934240F008
:103C2800AD801120FEF78CFA14200DF065F8D02035
:103C3800FEF786FA0720FEF7A7FA4220FEF7A4FA55
:103C48001D20FEF7A1FAD120FEF77AFA0020FEF730
:103C58009BFA1A20FEF798FA0920FEF795FAD22067
:103C6800FEF76EFA0120FEF78FFA2220FEF78CFA93
:103C7800C020FEF765FA1020FEF786FA3B20FEF713
:103C880083FA0020FEF780FA0220FEF77DFA112061
:103C9800FEF77AFAC520FEF753FA0320FEF774FA06
:103CA800C820FEF74DFA0020FEF76EFA2520FEF731
:103CB8006BFA2120FEF768FA0520FEF765FA002066
:103CC800FEF762FA0A20FEF75FFA6520FEF75CFA53
:103CD8002520FEF759FA7720FEF756FA5020FEF70E
:103CE80053FA0F20FEF750FA0020FEF74DFAF8209D
:103CF800FEF726FA0120FEF747FAFE20FEF720FA23
:103D08000020FEF741FA0220FEF73EFA2020FEF7D7
:103D180017FA3620FEF714FA0820FEF735FA3A208B
:103D2800FEF70EFA5520FEF72FFA2B20FEF708FAB9
:103D38000020FEF729FA0020FEF726FA0120FEF7F8
:103D480023FA3F20FEF720FA2A20FEF7F9F900208F
:103D5800FEF71AFA0020FEF717FA0120FEF714FA08
:103D6800DF20FEF711FA78200CF0C6FF2920FEF7B5
:103D7800E7F903F027BC00BFE0000020034B9B8855
:103D880045F21032934240F07C8701E0E0000020C9
:103D9800ED20FEF7D5F90120FEF7F6F9FE20FEF733
:103DA800F3F9EE20FEF7CCF9DE20FEF7EDF921203D
:103DB800FEF7EAF9F120FEF7C3F90120FEF7E4F96E
:103DC800DF20FEF7BDF91020FEF7DEF9C420FEF76C
:103DD800B7F98F20FEF7D8F9C620FEF7B1F9002011
:103DE800FEF7D2F9E220FEF7CFF9E220FEF7CCF990
:103DF800E220FEF7C9F9BF20FEF7A2F9AA20FEF7D4
:103E0800C3F9B020FEF79CF90D20FEF7BDF900209C
:103E1800FEF7BAF90D20FEF7B7F90020FEF7B4F95E
:103E28001120FEF7B1F90020FEF7AEF91920FEF7D0
:103E3800ABF90020FEF7A8F92120FEF7A5F900202C
:103E4800FEF7A2F92D20FEF79FF90020FEF79CF956
:103E58003D20FEF799F90020FEF796F95D20FEF760
:103E680093F90020FEF790F95D20FEF78DF9002008
:103E7800FEF78AF9B120FEF763F98020FEF784F98E
:103E88000020FEF781F98B20FEF77EF90020FEF76F
:103E98007BF99620FEF778F90020FEF775F9B22035
:103EA800FEF74EF90020FEF76FF90020FEF76CF9D7
:103EB8000220FEF769F90020FEF766F90320FEF7F5
:103EC80063F90020FEF760F9B320FEF739F9002006
:103ED800FEF75AF90020FEF757F90020FEF754F9CB
:103EE8000020FEF751F90020FEF74EF90020FEF7FA
:103EF8004BF90020FEF748F90020FEF745F90020AD
:103F0800FEF742F90020FEF73FF90020FEF73CF9E2
:103F18000020FEF739F90020FEF736F90020FEF7F9
:103F280033F90020FEF730F90020FEF72DF90020C4
:103F3800FEF72AF90020FEF727F90020FEF724F9FA
:103F48000020FEF721F90020FEF71EF90020FEF7F9
:103F58001BF90020FEF718F90020FEF715F9B42028
:103F6800FEF7EEF88B20FEF70FF90020FEF70CF9AC
:103F78009620FEF709F90020FEF706F9A120FEF7C2
:103F880003F90020FEF700F9B520FEF7D9F8022062
:103F9800FEF7FAF80020FEF7F7F80320FEF7F4F82A
:103FA8000020FEF7F1F80420FEF7EEF80020FEF7F7
:103FB800EBF8B620FEF7C4F80020FEF7E5F800207D
:103FC800FEF7E2F8B720FEF7BBF80020FEF7DCF8B2
:103FD8000020FEF7D9F83F20FEF7D6F80020FEF7BC
:103FE800D3F85E20FEF7D0F80020FEF7CDF8642065
:103FF800FEF7CAF80020FEF7C7F88C20FEF7C4F8D1
:104008000020FEF7C1F8AC20FEF7BEF80020FEF74E
:10401800BBF8DC20FEF7B8F80020FEF7B5F87020F2
:10402800FEF7B2F80020FEF7AFF89020FEF7ACF8E4
:104038000020FEF7A9F8EB20FEF7A6F80020FEF70F
:10404800A3F8DC20FEF7A0F80020FEF79DF8B820C2
:10405800FEF776F80020FEF797F80020FEF794F8B0
:104068000020FEF791F80020FEF78EF80020FEF7FA
:104078008BF80020FEF788F80020FEF785F800206E
:10408800FEF782F8BA20FEF75BF82420FEF77CF8EA
:104098000020FEF779F80020FEF776F80020FEF7FA
:1040A80073F8C120FEF74CF82020FEF76DF80020C9
:1040B800FEF76AF85420FEF767F80020FEF764F868
:1040C800FF20FEF761F80020FEF75EF8C220FEF739
:1040D80037F80A20FEF758F80020FEF755F80420B4
:1040E800FEF752F80020FEF74FF8C320FEF728F835
:1040F8003C20FEF749F80020FEF746F83A20FEF784
:1041080043F80020FEF740F83920FEF73DF800207C
:10411800FEF73AF83720FEF737F80020FEF734F8B4
:104128003C20FEF731F80020FEF72EF83620FEF787
:104138002BF80020FEF728F83220FEF725F800209B
:10414800FEF722F82F20FEF71FF80020FEF71CF8D4
:104158002C20FEF719F80020FEF716F82920FEF7A4
:1041680013F80020FEF710F82620FEF70DF80020BF
:10417800FEF70AF82420FEF707F80020FEF704F8F7
:104188002420FEF701F80020FDF7FEFF2320FDF7AD
:10419800FBFF0020FDF7F8FF3C20FDF7F5FF0020AE
:1041A800FDF7F2FF3620FDF7EFFF0020FDF7ECFFEB
:1041B8003220FDF7E9FF0020FDF7E6FF2F20FDF78D
:1041C800E3FF0020FDF7E0FF2C20FDF7DDFF0020D6
:1041D800FDF7DAFF2920FDF7D7FF0020FDF7D4FF10
:1041E8002620FDF7D1FF0020FDF7CEFF2420FDF7A4
:1041F800CBFF0020FDF7C8FF2420FDF7C5FF0020F6
:10420800FDF7C2FF2320FDF7BFFF0020FDF7BCFF2D
:10421800C420FDF795FF6220FDF7B6FF0020FDF7EB
:10422800B3FF0520FDF7B0FF0020FDF7ADFF8420A8
:10423800FDF7AAFF0020FDF7A7FFF020FDF7A4FF78
:104248000020FDF7A1FF1820FDF79EFF0020FDF7D5
:104258009BFFA420FDF798FF0020FDF795FF18208D
:10426800FDF792FF0020FDF78FFF5020FDF78CFF30
:104278000020FDF789FF0C20FDF786FF0020FDF7E1
:1042880083FF1720FDF780FF0020FDF77DFF9520B5
:10429800FDF77AFF0020FDF777FFF320FDF774FFA5
:1042A8000020FDF771FFE620FDF76EFF0020FDF707
:1042B8006BFFC520FDF744FF3220FDF765FF0020A6
:1042C800FDF762FF4420FDF75FFF0020FDF75CFF6C
:1042D8006520FDF759FF0020FDF756FF7620FDF712
:1042E80053FF0020FDF750FF8820FDF74DFF002009
:1042F800FDF74AFFC620FDF723FF2020FDF744FF06
:104308000020FDF741FF1720FDF73EFF0020FDF7D5
:104318003BFF0120FDF738FF0020FDF735FFC720E0
:10432800FDF70EFF0020FDF72FFF0020FDF72CFF03
:104338000020FDF729FF0020FDF726FFC820FDF724
:10434800FFFE0020FDF720FF0020FDF71DFF0020E5
:10435800FDF71AFF0020FDF717FFC920FDF7F0FE53
:104368000020FDF711FF0020FDF70EFF0020FDF7EC
:104378000BFF0020FDF708FF0020FDF705FF0020D8
:10438800FDF702FF0020FDF7FFFE0020FDF7FCFE11
:104398000020FDF7F9FE0020FDF7F6FE0020FDF7EE
:1043A800F3FE0020FDF7F0FE0020FDF7EDFE0020F3
:1043B800FDF7EAFE0020FDF7E7FE0020FDF7E4FE2A
:1043C800E020FDF7BDFE1620FDF7DEFE0020FDF71C
:1043D800DBFE1C20FDF7D8FE0020FDF7D5FE2120CE
:1043E800FDF7D2FE0020FDF7CFFE3620FDF7CCFE0C
:1043F8000020FDF7C9FE4620FDF7C6FE0020FDF7A8
:10440800C3FE5220FDF7C0FE0020FDF7BDFE64206C
:10441800FDF7BAFE0020FDF7B7FE7A20FDF7B4FEDF
:104428000020FDF7B1FE8B20FDF7AEFE0020FDF762
:10443800ABFE9920FDF7A8FE0020FDF7A5FEA820F9
:10444800FDF7A2FE0020FDF79FFEB920FDF79CFEB8
:104458000020FDF799FEC420FDF796FE0020FDF729
:1044680093FECA20FDF790FE0020FDF78DFED220B6
:10447800FDF78AFE0020FDF787FED920FDF784FEB0
:104488000020FDF781FEE020FDF77EFE0020FDF70D
:104498007BFEF320FDF778FE0020FDF775FEE12096
:1044A800FDF74EFE1620FDF76FFE0020FDF76CFEAF
:1044B8001C20FDF769FE0020FDF766FE2220FDF7AF
:1044C80063FE0020FDF760FE3620FDF75DFE00204C
:1044D800FDF75AFE4520FDF757FE0020FDF754FE74
:1044E8005220FDF751FE0020FDF74EFE6420FDF737
:1044F8004BFE0020FDF748FE7A20FDF745FE002020
:10450800FDF742FE8B20FDF73FFE0020FDF73CFE45
:104518009920FDF739FE0020FDF736FEA820FDF7AB
:1045280033FE0020FDF730FEB920FDF72DFE0020F8
:10453800FDF72AFEC420FDF727FE0020FDF724FE24
:10454800CA20FDF721FE0020FDF71EFED220FDF750
:104558001BFE0020FDF718FED820FDF715FE0020F1
:10456800FDF712FEE020FDF70FFE0020FDF70CFE20
:10457800F320FDF709FE0020FDF706FEE220FDF717
:10458800DFFD0520FDF700FE0020FDF7FDFD0B20F7
:10459800FDF7FAFD0020FDF7F7FD1B20FDF7F4FD00
:1045A8000020FDF7F1FD3420FDF7EEFD0020FDF7BA
:1045B800EBFD4420FDF7E8FD0020FDF7E5FD4F2069
:1045C800FDF7E2FD0020FDF7DFFD6120FDF7DCFDD2
:1045D8000020FDF7D9FD7920FDF7D6FD0020FDF775
:1045E800D3FD8820FDF7D0FD0020FDF7CDFD9720F5
:1045F800FDF7CAFD0020FDF7C7FDA620FDF7C4FDA5
:104608000020FDF7C1FDB720FDF7BEFD0020FDF736
:10461800BBFDC220FDF7B8FD0020FDF7B5FDC720A2
:10462800FDF7B2FD0020FDF7AFFDD120FDF7ACFD91
:104638000020FDF7A9FDD620FDF7A6FD0020FDF717
:10464800A3FDDD20FDF7A0FD0020FDF79DFDF32073
:10465800FDF79AFD0020FDF797FDE320FDF770FDBB
:104668000520FDF791FD0020FDF78EFD0A20FDF7DE
:104678008BFD0020FDF788FD1C20FDF785FD00203F
:10468800FDF782FD3320FDF77FFD0020FDF77CFD5F
:104698004420FDF779FD0020FDF776FD5020FDF759
:1046A80073FD0020FDF770FD6220FDF76DFD002011
:1046B800FDF76AFD7820FDF767FD0020FDF764FD32
:1046C8008820FDF761FD0020FDF75EFD9720FDF7CE
:1046D8005BFD0020FDF758FDA620FDF755FD0020E5
:1046E800FDF752FDB720FDF74FFD0020FDF74CFD0B
:1046F800C220FDF749FD0020FDF746FDC720FDF764
:1047080043FD0020FDF740FDD120FDF73DFD0020D1
:10471800FDF73AFDD520FDF737FD0020FDF734FD04
:10472800DD20FDF731FD0020FDF72EFDF320FDF71C
:104738002BFD0020FDF728FDE420FDF701FD0120F9
:10474800FDF722FD0020FDF71FFD0120FDF71CFDF0
:104758000020FDF719FD0220FDF716FD0020FDF7EA
:1047680013FD2A20FDF710FD0020FDF70DFD3C206C
:10477800FDF70AFD0020FDF707FD4B20FDF704FDBE
:104788000020FDF701FD5D20FDF7FEFC0020FDF790
:10479800FBFC7420FDF7F8FC0020FDF7F5FC8420F5
:1047A800FDF7F2FC0020FDF7EFFC9320FDF7ECFC91
:1047B8000020FDF7E9FCA220FDF7E6FC0020FDF74C
:1047C800E3FCB320FDF7E0FC0020FDF7DDFCBE2094
:1047D800FDF7DAFC0020FDF7D7FCC420FDF7D4FC78
:1047E8000020FDF7D1FCCD20FDF7CEFC0020FDF721
:1047F800CBFCD320FDF7C8FC0020FDF7C5FCDD206D
:10480800FDF7C2FC0020FDF7BFFCF320FDF7BCFC60
:104818000020FDF7B9FCE520FDF792FC0020FDF72C
:10482800B3FC0020FDF7B0FC0020FDF7ADFC002034
:10483800FDF7AAFC0220FDF7A7FC0020FDF7A4FC69
:104848002920FDF7A1FC0020FDF79EFC3C20FDF788
:104858009BFC0020FDF798FC4B20FDF795FC002001
:10486800FDF792FC5D20FDF78FFC0020FDF78CFC26
:104878007420FDF789FC0020FDF786FC8420FDF7F5
:1048880083FC0020FDF780FC9320FDF77DFC0020D1
:10489800FDF77AFCA220FDF777FC0020FDF774FCF9
:1048A800B320FDF771FC0020FDF76EFCBE20FDF77C
:1048B8006BFC0020FDF768FCC420FDF765FC0020B8
:1048C800FDF762FCCD20FDF75FFC0020FDF75CFCE6
:1048D800D320FDF759FC0020FDF756FCDC20FDF73E
:1048E80053FC0020FDF750FCF320FDF74DFC0020A1
:1048F800FDF74AFCE620FDF723FC1120FDF744FCF8
:104908000020FDF741FC3420FDF73EFC0020FDF7B8
:104918003BFC5620FDF738FC0020FDF735FC7620DF
:10492800FDF732FC0020FDF72FFC7720FDF72CFC6B
:104938000020FDF729FC6620FDF726FC0020FDF786
:1049480023FC8820FDF720FC0020FDF71DFC9920A2
:10495800FDF71AFC0020FDF717FCBB20FDF714FC3F
:104968000020FDF711FC9920FDF70EFC0020FDF753
:104978000BFC6620FDF708FC0020FDF705FC552020
:10498800FDF702FC0020FDF7FFFB5520FDF7FCFBBF
:104998000020FDF7F9FB4520FDF7F6FB0020FDF7A9
:1049A800F3FB4320FDF7F0FB0020FDF7EDFB44206F
:1049B800FDF7EAFB0020FDF7E7FBE720FDF7C0FB6A
:1049C8003220FDF7E1FB0020FDF7DEFB5520FDF767
:1049D800DBFB0020FDF7D8FB7620FDF7D5FB002098
:1049E800FDF7D2FB6620FDF7CFFB0020FDF7CCFBDF
:1049F8006720FDF7C9FB0020FDF7C6FB6720FDF720
:104A0800C3FB0020FDF7C0FB8720FDF7BDFB00209E
:104A1800FDF7BAFB9920FDF7B7FB0020FDF7B4FBC3
:104A2800BB20FDF7B1FB0020FDF7AEFB9920FDF799
:104A3800ABFB0020FDF7A8FB7720FDF7A5FB0020C6
:104A4800FDF7A2FB4420FDF79FFB0020FDF79CFB30
:104A58005620FDF799FB0020FDF796FB2320FDF774
:104A680093FB0020FDF790FB3320FDF78DFB002022
:104A7800FDF78AFB4520FDF787FB0020FDF784FB47
:104A8800E820FDF75DFB0020FDF77EFB0020FDF729
:104A98007BFB9920FDF778FB0020FDF775FB87204D
:104AA800FDF772FB0020FDF76FFB8820FDF76CFB1C
:104AB8000020FDF769FB7720FDF766FB0020FDF776
:104AC80063FB6620FDF760FB0020FDF75DFB882097
:104AD800FDF75AFB0020FDF757FBAA20FDF754FB12
:104AE8000020FDF751FBBB20FDF74EFB0020FDF732
:104AF8004BFB9920FDF748FB0020FDF745FB66209E
:104B0800FDF742FB0020FDF73FFB5520FDF73CFB7E
:104B18000020FDF739FB5520FDF736FB0020FDF797
:104B280033FB4420FDF730FB0020FDF72DFB44202C
:104B3800FDF72AFB0020FDF727FB5520FDF724FB96
:104B48000020FDF721FBE920FDF7FAFAAA20FDF77E
:104B58001BFB0020FDF718FB0020FDF715FB0020CC
:104B6800FDF712FB0020FDF7EBFAAA20FDF70CFB7E
:104B7800CF20FDF7E5FA0020FDF706FB0020FDF742
:104B880003FB0020FDF700FB0020FDF7FDFA0020E5
:104B9800FDF7FAFA0020FDF7F7FA0020FDF7F4FA1E
:104BA8000020FDF7F1FA0020FDF7EEFA0020FDF7EE
:104BB800EBFA0020FDF7E8FA0020FDF7E5FA0020FF
:104BC800FDF7E2FA0020FDF7DFFA0020FDF7DCFA36
:104BD8000020FDF7D9FA0020FDF7D6FAF020FDF7FE
:104BE800AFFA0020FDF7D0FA5020FDF7CDFA0020EB
:104BF800FDF7CAFA0020FDF7C7FA0020FDF7C4FA4E
:104C0800F320FDF79DFA0020FDF7BEFAF920FDF725
:104C180097FA0620FDF7B8FA1020FDF7B5FA292013
:104C2800FDF7B2FA0020FDF7AFFA3A20FDF788FA4F
:104C38005520FDF7A9FA1120FDF782FA64200CF03F
:104C48005BF82920FDF77CFA3520FDF779FA00207A
:104C5800FDF79AFA5120FDF773FAFF20FDF794FA51
:104C68005320FDF76DFA2C20FDF78EFA5520FDF73D
:104C780067FA8220FDF788FA2C20FDF761FA02F026
:104C8800A1BC044B9B8845F21052934240F08287A6
:104C980002E000BFE000002055214FF47040FDF70E
:104CA800DBFAAA214FF20100FDF7D6FA52214FF2A2
:104CB8000200FDF7D1FA08214FF20300FDF7CCFA04
:104CC80001214FF20400FDF7C7FA0D214FF43040DF
:104CD800FDF7C2FA0D214BF20100FDF7BDFA0D21D7
:104CE8004BF20200FDF7B8FA34214FF43640FDF7D5
:104CF800B3FA34214BF20160FDF7AEFA34214BF2DE
:104D08000260FDF7A9FA0D214FF43140FDF7A4FA2E
:104D18000D214BF20110FDF79FFA0D214BF2021005
:104D2800FDF79AFA34214FF43740FDF795FA34210C
:104D38004BF20170FDF790FA34214BF20270FDF747
:104D48008BFA00214FF43240FDF786FA00214BF22E
:104D58000120FDF781FA00214BF20220FDF77CFAD1
:104D680024214FF43840FDF777FA24214BF601004F
:104D7800FDF772FA24214BF60200FDF76DFA0121C6
:104D88004FF43F40FDF768FA0F214FF43340FDF729
:104D980063FA0F214BF20130FDF75EFA0F214BF257
:104DA8000230FDF759FA34214FF43940FDF754FA2F
:104DB80034214BF60110FDF74FFA34214BF602105F
:104DC800FDF74AFA08214FF43540FDF745FA082166
:104DD8004BF20150FDF740FA08214BF20250FDF763
:104DE8003BFA03214FF44240FDF736FA24214FF4F1
:104DF8003A40FDF731FA24214BF60120FDF72CFA51
:104E080024214BF60220FDF727FA00214FF43C40FD
:104E1800FDF722FA78214BF60140FDF71DFA002133
:104E28004BF60240FDF718FA00214FF43D40FDF71C
:104E380013FA78214BF60150FDF70EFA00214BF6D4
:104E48000250FDF709FA00214FF43E40FDF704FA3D
:104E580064214BF60160FDF7FFF900214FF4514042
:104E6800FDF7FAF933214DF20110FDF7F5F90021AC
:104E78004DF20210FDF7F0F934214DF20310FDF761
:104E8800EBF900214DF20410FDF7E6F93A214DF255
:104E98000510FDF7E1F900214DF20610FDF7DCF9E8
:104EA8004A214DF20710FDF7D7F900214DF20810FD
:104EB800FDF7D2F95C214DF20910FDF7CDF900217B
:104EC8004DF20A10FDF7C8F981214DF20B10FDF7DC
:104ED800C3F900214DF20C10FDF7BEF9A6214DF2E1
:104EE8000D10FDF7B9F900214DF20E10FDF7B4F9D8
:104EF800E5214DF20F10FDF7AFF901214DF2101029
:104F0800FDF7AAF913214DF21110FDF7A5F90121BA
:104F18004DF21210FDF7A0F954214DF21310FDF7D0
:104F28009BF901214DF21410FDF796F982214DF2FB
:104F38001510FDF791F901214DF21610FDF78CF9C6
:104F4800CA214DF21710FDF787F902214DF218100A
:104F5800FDF782F900214DF21910FDF77DF90221C4
:104F68004DF21A10FDF778F901214DF21B10FDF7EB
:104F780073F902214DF21C10FDF76EF934214DF240
:104F88001D10FDF769F902214DF21E10FDF764F9B5
:104F980067214DF21F10FDF75FF902214DF2201035
:104FA800FDF75AF984214DF22110FDF755F9022138
:104FB8004DF22210FDF750F9A4214DF22310FDF710
:104FC8004BF902214DF22410FDF746F9B7214DF2B5
:104FD8002510FDF741F902214DF22610FDF73CF9A5
:104FE800CF214DF22710FDF737F902214DF2281095
:104FF800FDF732F9DE214DF22910FDF72DF90221D6
:105008004DF22A10FDF728F9F2214DF22B10FDF789
:1050180023F902214DF22C10FDF71EF9FE214DF265
:105028002D10FDF719F903214DF22E10FDF714F993
:1050380010214DF22F10FDF70FF903214DF230101A
:10504800FDF70AF933214DF23110FDF705F9032177
:105058004DF23210FDF700F96D214DF23310FDF7D6
:10506800FBF800214FF45240FDF7F6F833214DF2DA
:105078000120FDF7F1F800214DF20220FDF7ECF8D0
:1050880034214DF20320FDF7E7F800214DF204200A
:10509800FDF7E2F83A214DF20520FDF7DDF8002191
:1050A8004DF20620FDF7D8F84A214DF20720FDF70A
:1050B800D3F800214DF20820FDF7CEF85C214DF21F
:1050C8000920FDF7C9F800214DF20A20FDF7C4F8C0
:1050D80081214DF20B20FDF7BFF800214DF20C2085
:1050E800FDF7BAF8A6214DF20D20FDF7B5F800211D
:1050F8004DF20E20FDF7B0F8E5214DF20F20FDF737
:10510800ABF801214DF21020FDF7A6F813214DF25E
:105118001120FDF7A1F801214DF21220FDF79CF8AE
:1051280054214DF21320FDF797F801214DF2142078
:10513800FDF792F882214DF21520FDF78DF8012137
:105148004DF21620FDF788F8CA214DF21720FDF719
:1051580083F802214DF21820FDF77EF800214DF268
:105168001920FDF779F802214DF21A20FDF774F89D
:1051780001214DF21B20FDF76FF802214DF21C2092
:10518800FDF76AF834214DF21D20FDF765F802217C
:105198004DF21E20FDF760F867214DF21F20FDF744
:1051A8005BF802214DF22020FDF756F884214DF2DC
:1051B8002120FDF751F802214DF22220FDF74CF88D
:1051C800A4214DF22320FDF747F802214DF22420B7
:1051D800FDF742F8B7214DF22520FDF73DF80221F1
:1051E8004DF22620FDF738F8CF214DF22720FDF7A4
:1051F80033F802214DF22820FDF72EF8DE214DF27A
:105208002920FDF729F802214DF22A20FDF724F87C
:10521800F2214DF22B20FDF71FF802214DF22C2030
:10522800FDF71AF8FE214DF22D20FDF715F80321A0
:105238004DF22E20FDF710F810214DF22F20FDF72A
:105248000BF803214DF23020FDF706F833214DF21B
:105258003120FDF701F803214DF23220FCF7FCFF65
:105268006D214DF23320FCF7F7FF00214FF4534036
:10527800FCF7F2FF33214DF20130FCF7EDFF00217E
:105288004DF20230FCF7E8FF34214DF20330FCF711
:10529800E3FF00214DF20430FCF7DEFF3A214DF226
:1052A8000530FCF7D9FF00214DF20630FCF7D4FF9A
:1052B8004A214DF20730FCF7CFFF00214DF20830AC
:1052C800FCF7CAFF5C214DF20930FCF7C5FF00214D
:1052D8004DF20A30FCF7C0FF81214DF20B30FCF78C
:1052E800BBFF00214DF20C30FCF7B6FFA6214DF2B2
:1052F8000D30FCF7B1FF00214DF20E30FCF7ACFF8A
:10530800E5214DF20F30FCF7A7FF01214DF21030D7
:10531800FCF7A2FF13214DF21130FCF79DFF01218C
:105328004DF21230FCF798FF54214DF21330FCF780
:1053380093FF01214DF21430FCF78EFF82214DF2CC
:105348001530FCF789FF01214DF21630FCF784FF78
:10535800CA214DF21730FCF77FFF02214DF21830B9
:10536800FCF77AFF00214DF21930FCF775FF022196
:105378004DF21A30FCF770FF01214DF21B30FCF79B
:105388006BFF02214DF21C30FCF766FF34214DF211
:105398001D30FCF761FF02214DF21E30FCF75CFF67
:1053A80067214DF21F30FCF757FF02214DF22030E4
:1053B800FCF752FF84214DF22130FCF74DFF02210A
:1053C8004DF22230FCF748FFA4214DF22330FCF7C0
:1053D80043FF02214DF22430FCF73EFFB7214DF286
:1053E8002530FCF739FF02214DF22630FCF734FF57
:1053F800CF214DF22730FCF72FFF02214DF2283044
:10540800FCF72AFFDE214DF22930FCF725FF0221A7
:105418004DF22A30FCF720FFF2214DF22B30FCF739
:105428001BFF02214DF22C30FCF716FFFE214DF236
:105438002D30FCF711FF03214DF22E30FCF70CFF45
:1054480010214DF22F30FCF707FF03214DF23030C9
:10545800FCF702FF33214DF23130FCF7FDFE03214A
:105468004DF23230FCF7F8FE6D214DF23330FCF787
:10547800F3FE00214FF45440FCF7EEFE33214DF2C9
:105488000140FCF7E9FE00214DF20240FCF7E4FE82
:1054980034214DF20340FCF7DFFE00214DF20440B9
:1054A800FCF7DAFE3A214DF20540FCF7D5FE002163
:1054B8004DF20640FCF7D0FE4A214DF20740FCF7BA
:1054C800CBFE00214DF20840FCF7C6FE5C214DF2F0
:1054D8000940FCF7C1FE00214DF20A40FCF7BCFE72
:1054E80081214DF20B40FCF7B7FE00214DF20C4034
:1054F800FCF7B2FEA6214DF20D40FCF7ADFE0021EF
:105508004DF20E40FCF7A8FEE5214DF20F40FCF7E6
:10551800A3FE01214DF21040FCF79EFE13214DF22F
:105528001140FCF799FE01214DF21240FCF794FE60
:1055380054214DF21340FCF78FFE01214DF2144027
:10554800FCF78AFE82214DF21540FCF785FE012109
:105558004DF21640FCF780FECA214DF21740FCF7C9
:105568007BFE02214DF21840FCF776FE00214DF239
:105578001940FCF771FE02214DF21A40FCF76CFE4F
:1055880001214DF21B40FCF767FE02214DF21C4041
:10559800FCF762FE34214DF21D40FCF75DFE02214E
:1055A8004DF21E40FCF758FE67214DF21F40FCF7F4
:1055B80053FE02214DF22040FCF74EFE84214DF2AD
:1055C8002140FCF749FE02214DF22240FCF744FE3F
:1055D800A4214DF22340FCF73FFE02214DF2244066
:1055E800FCF73AFEB7214DF22540FCF735FE0221C3
:1055F8004DF22640FCF730FECF214DF22740FCF754
:105608002BFE02214DF22840FCF726FEDE214DF24A
:105618002940FCF721FE02214DF22A40FCF71CFE2E
:10562800F2214DF22B40FCF717FE02214DF22C40DF
:10563800FCF712FEFE214DF22D40FCF70DFE032172
:105648004DF22E40FCF708FE10214DF22F40FCF7DA
:1056580003FE03214DF23040FCF7FEFD33214DF2ED
:105668003140FCF7F9FD03214DF23240FCF7F4FD1F
:105678006D214DF23340FCF7EFFD00214FF455400A
:10568800FCF7EAFD33214DF20150FCF7E5FD00215E
:105698004DF20250FCF7E0FD34214DF20350FCF7C7
:1056A800DBFD00214DF20450FCF7D6FD3A214DF206
:1056B8000550FCF7D1FD00214DF20650FCF7CCFD5A
:1056C8004A214DF20750FCF7C7FD00214DF2085062
:1056D800FCF7C2FD5C214DF20950FCF7BDFD00212D
:1056E8004DF20A50FCF7B8FD81214DF20B50FCF742
:1056F800B3FD00214DF20C50FCF7AEFDA6214DF292
:105708000D50FCF7A9FD00214DF20E50FCF7A4FD49
:10571800E5214DF20F50FCF79FFD01214DF210508D
:10572800FCF79AFD13214DF21150FCF795FD01216C
:105738004DF21250FCF790FD54214DF21350FCF736
:105748008BFD01214DF21450FCF786FD82214DF2AC
:105758001550FCF781FD01214DF21650FCF77CFD38
:10576800CA214DF21750FCF777FD02214DF218506F
:10577800FCF772FD00214DF21950FCF76DFD022176
:105788004DF21A50FCF768FD01214DF21B50FCF751
:1057980063FD02214DF21C50FCF75EFD34214DF2F1
:1057A8001D50FCF759FD02214DF21E50FCF754FD27
:1057B80067214DF21F50FCF74FFD02214DF220509A
:1057C800FCF74AFD84214DF22150FCF745FD0221EA
:1057D8004DF22250FCF740FDA4214DF22350FCF776
:1057E8003BFD02214DF22450FCF736FDB7214DF266
:1057F8002550FCF731FD02214DF22650FCF72CFD17
:10580800CF214DF22750FCF727FD02214DF22850F9
:10581800FCF722FDDE214DF22950FCF71DFD022187
:105828004DF22A50FCF718FDF2214DF22B50FCF7EF
:1058380013FD02214DF22C50FCF70EFDFE214DF216
:105848002D50FCF709FD03214DF22E50FCF704FD05
:1058580010214DF22F50FCF7FFFC03214DF2305080
:10586800FCF7FAFC33214DF23150FCF7F5FC03212B
:105878004DF23250FCF7F0FC6D214DF23350FCF73D
:10588800EBFC00214FF45640FCF7E6FC33214DF2C7
:105898000160FCF7E1FC00214DF20260FCF7DCFC42
:1058A80034214DF20360FCF7D7FC00214DF204606F
:1058B800FCF7D2FC3A214DF20560FCF7CDFC002143
:1058C8004DF20660FCF7C8FC4A214DF20760FCF770
:1058D800C3FC00214DF20860FCF7BEFC5C214DF2D0
:1058E8000960FCF7B9FC00214DF20A60FCF7B4FC32
:1058F80081214DF20B60FCF7AFFC00214DF20C60EA
:10590800FCF7AAFCA6214DF20D60FCF7A5FC0021CE
:105918004DF20E60FCF7A0FCE5214DF20F60FCF79C
:105928009BFC01214DF21060FCF796FC13214DF20F
:105938001160FCF791FC01214DF21260FCF78CFC20
:1059480054214DF21360FCF787FC01214DF21460DD
:10595800FCF782FC82214DF21560FCF77DFC0121E9
:105968004DF21660FCF778FCCA214DF21760FCF77F
:1059780073FC02214DF21860FCF76EFC00214DF219
:105988001960FCF769FC02214DF21A60FCF764FC0F
:1059980001214DF21B60FCF75FFC02214DF21C60F7
:1059A800FCF75AFC34214DF21D60FCF755FC02212E
:1059B8004DF21E60FCF750FC67214DF21F60FCF7AA
:1059C8004BFC02214DF22060FCF746FC84214DF28D
:1059D8002160FCF741FC02214DF22260FCF73CFCFF
:1059E800A4214DF22360FCF737FC02214DF224601C
:1059F800FCF732FCB7214DF22560FCF72DFC0221A3
:105A08004DF22660FCF728FCCF214DF22760FCF709
:105A180023FC02214DF22860FCF71EFCDE214DF22A
:105A28002960FCF719FC02214DF22A60FCF714FCEE
:105A3800F2214DF22B60FCF70FFC02214DF22C6095
:105A4800FCF70AFCFE214DF22D60FCF705FC032152
:105A58004DF22E60FCF700FC10214DF22F60FCF790
:105A6800FBFB03214DF23060FCF7F6FB33214DF2CE
:105A78003160FCF7F1FB03214DF23260FCF7ECFBDF
:105A88006D214DF23360FCF7E7FB55214FF4704070
:105A9800FCF7E2FBAA214FF20100FCF7DDFB5221E3
:105AA8004FF20200FCF7D8FB08214FF20300FCF785
:105AB800D3FB00214FF20400FCF7CEFBCC214FF4BE
:105AC8003140FCF7C9FB00214BF20110FCF7C4FB85
