:020000040800F2
:1000000000C00020BD0A00082D07000835070008C1
:100010003D070008450700084D07000800000000E4
:10002000000000000000000000000000550700086C
:1000300061070008000000006D070008790700084C
:10004000050B0008050B0008050B0008050B000850
:10005000050B0008050B0008050B0008050B000840
:10006000050B0008050B0008050B0008050B000830
:10007000050B0008050B0008050B0008050B000820
:10008000050B0008050B0008050B0008050B000810
:10009000050B0008050B0008050B0008050B000800
:1000A000050B0008050B0008050B0008050B0008F0
:1000B000050B000885070008050B0008050B000864
:1000C000050B0008050B0008050B0008050B0008D0
:1000D000050B0008050B0008050B0008050B0008C0
:1000E000050B0008050B0008050B0008050B0008B0
:1000F000050B0008050B0008050B0008050B0008A0
:10010000050B0008050B0008050B0008050B00088F
:10011000050B0008050B0008050B0008050B00087F
:10012000050B0008050B0008050B0008050B00086F
:1001300000000000000000000000000000000000BF
:1001400000000000000000000000000000000000AF
:10015000000000000000000000000000000000009F
:10016000000000000000000000000000000000008F
:10017000000000000000000000000000000000007F
:10018000000000000000000000000000000000006F
:10019000000000000000000000000000000000005F
:1001A000000000000000000000000000000000004F
:1001B000000000000000000000000000000000003F
:1001C000000000000000000000000000000000002F
:1001D000000000000000000000000000000000001F
:0401E0005FF8E0F1F3
:1001E40010B5054C237833B9044B13B10448AFF36D
:1001F40000800123237010BD0C00002000000000CB
:10020400F429000808B5034B1BB103490348AFF3B5
:10021400008008BD0000000010000020F429000840
:1002240080B500AF0421124801F0A2FC0C21104853
:1002340001F09EFC0E4B1B684FF4FA729A630C4B50
:100244001B684FF4FA721A6400224FF48061094863
:1002540000F097FF00220421064800F092FF064BAD
:1002640000221A70054801F0D3FB00BF80BD00BF17
:100274007400002000100140280000202C00002001
:1002840080B500AF00224FF400510B4800F079FF15
:1002940001228021084800F074FF00224FF480718D
:1002A400054800F06EFF01224FF48041024800F03F
:1002B40068FF00BF80BD00BF000C014080B500AFE7
:1002C40000224FF400510B4800F05BFF0022802114
:1002D400084800F056FF00224FF48071054800F0F2
:1002E40050FF01224FF48041024800F04AFF00BF52
:1002F40080BD00BF000C014080B500AF00224FF468
:1003040000510B4800F03DFF01228021084800F015
:1003140038FF00224FF48071054800F032FF0022BC
:100324004FF48041024800F02CFF00BF80BD00BFA5
:10033400000C014080B500AF174B1B6800229A6384
:10034400154B1B6800221A64144B00221A700022F9
:100354004FF48061124800F014FF00220421104879
:1003640000F00FFF00224FF400510E4800F009FF87
:10037400002280210B4800F004FF00224FF480711A
:10038400084800F0FEFE00224FF48041054800F0CA
:10039400F8FE00BF80BD00BF7400002028000020CC
:1003A40000100140000C014080B588B000AF07F197
:1003B400100300221A605A609A60DA603F4B9B690E
:1003C4003E4A43F0200393613C4B9B6903F02003B6
:1003D400FB60FB68394B9B69384A43F00403936123
:1003E400364B9B6903F00403BB60BB68334B9B69CA
:1003F400324A43F010039361304B9B6903F01003BE
:100404007B607B682D4B9B692C4A43F00803936106
:100414002A4B9B6903F008033B603B6800224FF2C0
:10042400C131274800F0ADFE00220421254800F028
:10043400A8FE01233B6100237B610223BB6107F11A
:1004440010031946204800F0F1FC30233B610023DF
:100454007B610123BB6107F1100319461B4800F0BF
:10046400E5FC4FF2C1333B6101237B610023BB6197
:100474000223FB6107F110031946114800F0D6FC72
:1004840004233B6101237B610023BB610223FB61E5
:1004940007F1100319460B4800F0C8FC30233B61F8
:1004A40000237B610123BB6107F110031946044853
:1004B40000F0BCFC00BF2037BD4680BD00100240E8
:1004C400000C0140001401400008014000100140EC
:1004D40080B500AF1021234800F03CFE0346002BFA
:1004E4000FD120211F4800F035FE0346012B08D10F
:1004F40001211D4800F02EFE0346002B01D10123EB
:100504002EE01021174800F025FE0346012B0FD1E1
:100514002021144800F01EFE0346002B08D10121BF
:10052400114800F017FE0346002B01D1022317E007
:1005340010210C4800F00EFE0346012B0FD12021A0
:10054400084800F007FE0346012B08D101210648A4
:1005540000F000FE0346012B01D1032300E0002339
:10056400184680BD001001400008014080B582B0EB
:1005740000AF00F0C7FAFFF7DDFE00F018F8FFF750
:1005840013FF00F043F900F08FF9FFF7A1FF786043
:100594007B68012B02D100F055F8F6E77B68022B4B
:1005A40002D100F055F8F0E7FFF7C4FEEDE780B59F
:1005B40090B000AF07F1180328220021184602F07A
:1005C400EAF93B1D00221A605A609A60DA601A61E7
:1005D4000123BB614FF48033FB6100233B620123A1
:1005E400BB6202237B634FF48033BB634FF4E0139D
:1005F400FB6307F11803184600F0DCFD0346002BEB
:1006040001D000F019F80F237B600223BB600023A4
:10061400FB604FF480633B6100237B613B1D02213F
:10062400184601F049F80346002B01D000F004F805
:1006340000BF4037BD4680BD80B400AF72B600BF76
:1006440000BFFDE780B400AF00BFBD4680BC70476B
:1006540080B582B000AFFFF7E3FD1021184800F029
:1006640079FD0346FB712021154800F073FD034614
:10067400BB71FB79002B05D0BB79002B02D0FFF7AF
:1006840059FE19E0FB79002B05D1BB79002B02D070
:10069400FFF732FE10E0FB79002B05D0BB79002B6D
:1006A40002D1FFF70BFE07E0FB79002B04D1BB79E5
:1006B400002B01D1FFF7E4FD0A2000F085FACCE716
:1006C400000C014080B485B000AF154B9B69144AFF
:1006D40043F001039361124B9B6903F00103BB6078
:1006E400BB680F4BDB690E4A43F08053D3610C4B5C
:1006F400DB6903F080537B607B680A4B5B68FB60BB
:10070400FB6823F0E063FB60FB6843F00073FB606D
:10071400044AFB68536000BF1437BD4680BC704771
:10072400001002400000014080B400AF00BFFDE7AC
:1007340080B400AF00BFFDE780B400AF00BFFDE7A9
:1007440080B400AF00BFFDE780B400AF00BFFDE799
:1007540080B400AF00BFBD4680BC704780B400AF1A
:1007640000BFBD4680BC704780B400AF00BFBD462B
:1007740080BC704780B500AF00F00AFA00BF80BDAE
:1007840080B500AF024801F0ADFA00BF80BD00BFE4
:100794002C00002080B582B000AF78607B681B68B5
:1007A400144A934222D1144B1B78DBB283F0010329
:1007B400DAB2114B1A70104B1B78DBB2002B14BF4A
:1007C40001230023DBB21A464FF480610B4800F08A
:1007D400D8FC094B1B78DBB2002B14BF0123002388
:1007E400DBB21A460421054800F0CBFC00BF0837F1
:1007F400BD4680BD000400402800002000100140D8
:1008040080B400AF00BFBD4680BC704780B586B0E1
:1008140000AF07F1080300221A605A609A60DA6098
:100824003B4600221A605A601D4B1E4A1A601C4B3C
:1008340041F61F425A601A4B00229A60184B092253
:10084400DA60174B00221A61154B00229A61144892
:1008540001F08EF80346002B01D0FFF7EDFE4FF4B4
:100864008053BB6007F1080319460D4801F0ECFB07
:100874000346002B01D0FFF7DFFE00233B6000237B
:100884007B603B461946064801F0B6FF0346002B41
:1008940001D0FFF7D1FE00BF1837BD4680BD00BFB1
:1008A4002C0000200004004080B592B000AF07F196
:1008B400400300221A605A6007F1240300221A60E0
:1008C4005A609A60DA601A615A619A613B1D20226B
:1008D4000021184602F05FF8394B3A4A1A60384B47
:1008E40047225A60364B00229A60354B40F2E73279
:1008F400DA60334B00221A61314B00225A61304BCB
:1009040000229A612E4801F0E3F80346002B01D03F
:10091400FFF792FE00233B6400237B6407F140034E
:100924001946274801F068FF0346002B01D0FFF762
:1009340083FE60237B620023BB620023FB620023EF
:100944003B6300237B630023BB630023FB6307F14A
:100954002403042219461A4801F0B4FA0346002B72
:1009640001D0FFF769FE07F124030C22194614484D
:1009740001F0A8FA0346002B01D0FFF75DFE002327
:100984007B600023BB600023FB6000233B610023EA
:100994007B614FF40053BB6100233B623B1D19464E
:1009A400074801F095FF0346002B01D0FFF744FEF2
:1009B400034800F04DF800BF4837BD4680BD00BF76
:1009C400740000200034014080B584B000AF78602A
:1009D4007B681B680D4A934213D10D4BDB690C4AAB
:1009E40043F00203D3610A4BDB6903F00203FB60AB
:1009F400FB68002201211D2000F0E1F91D2000F018
:100A0400FAF900BF1037BD4680BD00BF00040040A6
:100A14000010024080B485B000AF78607B681B682A
:100A2400094A93420BD1094B9B69084A43F400538A
:100A34009361064B9B6903F40053FB60FB6800BFA2
:100A44001437BD4680BC704700340140001002409A
:100A540080B588B000AF786007F1100300221A60F7
:100A64005A609A60DA607B681B68104A934218D116
:100A74000F4B9B690E4A43F0100393610C4B9B6927
:100A840003F01003FB60FB684FF420733B61022307
:100A94007B610223FB6107F110031946054800F04E
:100AA400C5F900BF2037BD4680BD00BF00340140FA
:100AB4000010024000100140FFF7A2FE0B480C4951
:100AC4000C4A002302E0D458C4500433C4188C42A6
:100AD400F9D3094A094C002301E013600432A2420D
:100AE400FBD301F061FFFFF741FD704700000020D8
:100AF4000C000020382A00080C000020C000002050
:100B0400FEE7000080B500AF084B1B68074A43F0BE
:100B140010031360032000F047F9002000F008F8E8
:100B2400FFF7D0FD0023184680BD00BF002002401F
:100B340080B582B000AF7860124B1A68124B1B78F4
:100B440019464FF47A73B3FBF1F3B2FBF3F318468F
:100B540000F05FF90346002B01D001230EE07B680F
:100B64000F2B0AD8002279684FF0FF3000F027F9E4
:100B7400064A7B681360002300E001231846083707
:100B8400BD4680BD000000200800002004000020B5
:100B940080B400AF054B1B781A46054B1B68134401
:100BA400034A136000BFBD4680BC704708000020A4
:100BB400BC00002080B400AF024B1B681846BD4641
:100BC40080BC7047BC00002080B584B000AF786062
:100BD400FFF7F0FFB8607B68FB60FB68B3F1FF3F91
:100BE40005D00A4B1B781A46FB681344FB6000BF10
:100BF400FFF7E0FF0246BB68D31AFA689A42F7D8B7
:100C040000BF00BF1037BD4680BD00BF08000020F4
:100C140080B485B000AF78607B6803F00703FB60A5
:100C24000C4BDB68BB60BA684FF6FF031340BB6034
:100C3400FB681A02BB68134343F0BF6343F40033F9
:100C4400BB60044ABB68D36000BF1437BD4680BC98
:100C5400704700BF00ED00E080B400AF044BDB68D8
:100C64001B0A03F007031846BD4680BC704700BF4B
:100C740000ED00E080B483B000AF0346FB7197F948
:100C84000730002B0BDBFB7903F01F02064997F9B1
:100C940007305B09012000FA02F241F8232000BF6B
:100CA4000C37BD4680BC704700E100E080B483B0DF
:100CB40000AF03463960FB7197F90730002B0ADB5C
:100CC4003B68DAB20C4997F907301201D2B20B44EF
:100CD40083F800230AE03B68DAB20849FB7903F0A1
:100CE4000F03043B1201D2B20B441A7600BF0C3737
:100CF400BD4680BC704700BF00E100E000ED00E0AD
:100D040080B489B000AFF860B9607A60FB6803F022
:100D14000703FB61FB69C3F10703042B28BF04230A
:100D2400BB61FB690433062B02D9FB69033B00E07A
:100D340000237B614FF0FF32BB6902FA03F3DA430D
:100D4400BB681A407B699A404FF0FF317B6901FA16
:100D540003F3D9437B680B40134318462437BD463D
:100D640080BC704780B582B000AF78607B68013B7F
:100D7400B3F1807F01D301230FE00A4A7B68013B72
:100D840053600F214FF0FF30FFF790FF054B002217
:100D94009A60044B07221A60002318460837BD46A0
:100DA40080BD00BF10E000E080B582B000AF786085
:100DB4007868FFF72DFF00BF0837BD4680BD80B5BA
:100DC40086B000AF0346B9607A60FB7300237B6191
:100DD400FFF742FF78617A68B9687869FFF790FF96
:100DE400024697F90F3011461846FFF75FFF00BF20
:100DF4001837BD4680BD80B582B000AF0346FB7195
:100E040097F907301846FFF735FF00BF0837BD468E
:100E140080BD80B582B000AF78607868FFF7A2FF2C
:100E2400034618460837BD4680BD000080B48BB029
:100E340000AF7860396000237B6200233B6279E174
:100E440001227B6A02FA03F3FB613B681B68FA69BF
:100E54001340BB61BA69FB699A4240F068813B6800
:100E64005B68964A93425ED0944A934275D8944AFA
:100E7400934258D0924A93426FD8924A934252D0A6
:100E8400904A934269D8904A93424CD08E4A9342F6
:100E940063D88E4A934246D08C4A93425DD8122B33
:100EA4002AD8122B59D801A252F823F02B0F00088C
:100EB400050F0008170F0008590F00085F0F0008FE
:100EC4005F0F00085F0F00085F0F00085F0F000846
:100ED4005F0F00085F0F00085F0F00085F0F000836
:100EE4005F0F00085F0F00085F0F00085F0F000826
:100EF4000D0F0008210F0008754A934213D02CE00F
:100F04003B68DB683B6229E03B68DB6804333B6297
:100F140024E03B68DB6808333B621FE03B68DB6826
:100F24000C333B621AE03B689B68002B02D104231C
:100F34003B6213E03B689B68012B05D108233B62AD
:100F44007B68FA691A6109E008233B627B68FA69E5
:100F54005A6103E000233B6200E000BFBB69FF2B42
:100F640001D87B6801E07B6804337B61BB69FF2B9C
:100F740002D87B6A9B0002E07B6A083B9B003B61D2
:100F84007B691A680F213B6901FA03F3DB431A40BA
:100F9400396A3B6901FA03F31A437B691A603B68B7
:100FA4005B6803F08053002B00F0C180494B9B69C0
:100FB400484A43F001039361464B9B6903F00103E4
:100FC400BB60BB68444A7B6A9B08023352F82330F7
:100FD400FB607B6A03F003039B000F2202FA03F316
:100FE400DB43FA681340FB607B683C4A93421FD0A2
:100FF4007B683B4A934219D07B683A4A934213D0A8
:101004007B68394A93420DD07B68384A934207D0B3
:101014007B68374A934201D105230AE0062308E09E
:10102400042306E0032304E0022302E0012300E09A
:1010340000237A6A02F0030292009340FA68134391
:10104400FB6025497B6A9B080233FA6841F8232038
:101054003B685B6803F48013002B06D0254B9A6829
:101064002449BB6913438B6006E0224B9A68BB6931
:10107400DB43204913408B603B685B6803F4001337
:10108400002B06D01B4BDA681A49BB691343CB60AB
:1010940006E0184BDA68BB69DB4316491340CB60A2
:1010A4003B685B6803F40033002B25D0114B5A686E
:1010B4001049BB6913434B6025E000BF00003210A8
:1010C4000000311000002210000021100000121056
:1010D400000011100010024000000140000801400F
:1010E400000C0140001001400014014000180140B0
:1010F400001C014000040140154B5A68BB69DB43E6
:10110400134913404B603B685B6803F48033002B46
:1011140006D00F4B1A680E49BB6913430B6006E0F7
:101124000B4B1A68BB69DB43094913400B607B6AAC
:1011340001337B623B681A687B6A22FA03F3002B53
:101144007FF47EAE00BF00BF2C37BD4680BC704725
:101154000004014080B485B000AF78600B467B800A
:101164007B689A687B881340002B02D00123FB73B1
:1011740001E00023FB73FB7B18461437BD4680BC9B
:10118400704780B483B000AF78600B467B80134611
:101194007B707B78002B03D07A887B681A6103E02C
:1011A4007B881A047B681A6100BF0C37BD4680BC7B
:1011B4007047000080B586B000AF78607B68002B74
:1011C40001D1012372E27B681B6803F00103002B49
:1011D40000F08780924B5B6803F00C03042B0CD067
:1011E4008F4B5B6803F00C03082B12D18C4B5B68AC
:1011F40003F48033B3F5803F0BD1894B1B6803F4B0
:101204000033002B6CD07B685B68002B68D1012312
:101214004CE27B685B68B3F5803F06D1804B1B686A
:101224007F4A43F4803313602EE07B685B68002BB5
:101234000CD17B4B1B687A4A23F480331360784BC0
:101244001B68774A23F4802313601DE07B685B6886
:10125400B3F5A02F0CD1724B1B68714A43F4802361
:1012640013606F4B1B686E4A43F4803313600BE0CA
:101274006B4B1B686A4A23F480331360684B1B680A
:10128400674A23F4802313607B685B68002B13D0C8
:10129400FFF790FC386108E0FFF78CFC02463B69DD
:1012A400D31A642B01D9032300E25D4B1B6803F4BA
:1012B4000033002BF0D014E0FFF77CFC386108E029
:1012C400FFF778FC02463B69D31A642B01D9032348
:1012D400ECE1534B1B6803F40033002BF0D100E026
:1012E40000BF7B681B6803F00203002B63D04C4BE8
:1012F4005B6803F00C03002B0BD0494B5B6803F0D5
:101304000C03082B1CD1464B5B6803F48033002B81
:1013140016D1434B1B6803F00203002B05D07B68F6
:101324001B69012B01D00123C0E13D4B1B6823F055
:10133400F8027B685B69DB00394913430B603AE0D0
:101344007B681B69002B20D0364B01221A60FFF703
:1013540031FC386108E0FFF72DFC02463B69D31AE3
:10136400022B01D90323A1E12D4B1B6803F00203D7
:10137400002BF0D02A4B1B6823F0F8027B685B69D2
:10138400DB00274913430B6015E0264B00221A604B
:10139400FFF710FC386108E0FFF70CFC02463B69DC
:1013A400D31A022B01D9032380E11D4B1B6803F0E0
:1013B4000203002BF0D17B681B6803F00803002BA9
:1013C4003AD07B689B69002B19D0174B01221A6015
:1013D400FFF7F0FB386108E0FFF7ECFB02463B69DE
:1013E400D31A022B01D9032360E10D4B5B6A03F08E
:1013F4000203002BF0D0012000F09CFA1CE00A4B01
:1014040000221A60FFF7D6FB38610FE0FFF7D2FB2A
:1014140002463B69D31A022B08D9032346E100BFD5
:10142400001002400000424280044242924B5B6A38
:1014340003F00203002BE9D17B681B6803F004036B
:10144400002B00F0A6800023FB758B4BDB6903F0B7
:101454008053002B0DD1884BDB69874A43F08053BE
:10146400D361854BDB6903F08053BB60BB68012308
:10147400FB75824B1B6803F48073002B18D17F4BE0
:101484001B687E4A43F480731360FFF793FB386153
:1014940008E0FFF78FFB02463B69D31A642B01D99E
:1014A400032303E1754B1B6803F48073002BF0D016
:1014B4007B68DB68012B06D16F4B1B6A6E4A43F0D5
:1014C400010313622DE07B68DB68002B0CD16A4BAF
:1014D4001B6A694A23F001031362674B1B6A664A5D
:1014E40023F0040313621CE07B68DB68052B0CD13A
:1014F400614B1B6A604A43F0040313625E4B1B6A30
:101504005D4A43F0010313620BE05B4B1B6A5A4ACA
:1015140023F001031362584B1B6A574A23F0040358
:1015240013627B68DB68002B15D0FFF743FB38613F
:101534000AE0FFF73FFB02463B69D31A41F28832C7
:10154400934201D90323B1E04B4B1B6A03F002031E
:10155400002BEED014E0FFF72DFB38610AE0FFF713
:1015640029FB02463B69D31A41F28832934201D9DE
:1015740003239BE0404B1B6A03F00203002BEED1D4
:10158400FB7D012B05D13C4BDB693B4A23F08053A7
:10159400D3617B68DB69002B00F08780364B5B6886
:1015A40003F00C03082B61D07B68DB69022B46D166
:1015B400334B00221A60FFF7FDFA386108E0FFF7A9
:1015C400F9FA02463B69D31A022B01D903236DE0D1
:1015D400294B1B6803F00073002BF0D17B681B6A56
:1015E400B3F5803F08D1244B5B6823F400327B6859
:1015F4009B68214913434B601F4B5B6823F47412AF
:101604007B68196A7B685B6A0B431B4913434B6015
:101614001B4B01221A60FFF7CDFA386108E0FFF78F
:10162400C9FA02463B69D31A022B01D903233DE0D0
:10163400114B1B6803F00073002BF0D035E0104B06
:1016440000221A60FFF7B6FA386108E0FFF7B2FA31
:1016540002463B69D31A022B01D9032326E0064B29
:101664001B6803F00073002BF0D11EE07B68DB697C
:10167400012B07D1012319E0001002400070004043
:10168400600042420B4B5B68FB60FB6803F48032F2
:101694007B681B6A9A4206D1FB6803F470127B686C
:1016A4005B6A9A4201D0012300E0002318461837F0
:1016B400BD4680BD0010024080B584B000AF7860A4
:1016C40039607B68002B01D10123D0E06A4B1B6891
:1016D40003F007033A689A4210D9674B1B6823F05A
:1016E400070265493B6813430B60634B1B6803F0B7
:1016F40007033A689A4201D00123B8E07B681B686B
:1017040003F00203002B20D07B681B6803F0040362
:10171400002B05D0594B5B68584A43F4E06353608F
:101724007B681B6803F00803002B05D0534B5B68F0
:10173400524A43F460535360504B5B6823F0F00209
:101744007B689B684D4913434B607B681B6803F0BF
:101754000103002B40D07B685B68012B07D1474B0A
:101764001B6803F40033002B15D101237FE07B6851
:101774005B68022B07D1414B1B6803F00073002BFD
:1017840009D1012373E03D4B1B6803F00203002BD6
:1017940001D101236BE0394B5B6823F003027B68C2
:1017A4005B68364913434B60FFF704FAF8600AE0BC
:1017B400FFF700FA0246FB68D31A41F288329342DB
:1017C40001D9032353E02D4B5B6803F00C027B68C3
:1017D4005B689B009A42EBD1274B1B6803F007031D
:1017E4003A689A4210D2244B1B6823F0070222491C
:1017F4003B6813430B60204B1B6803F007033A68F4
:101804009A4201D0012332E07B681B6803F0040391
:10181400002B08D0194B5B6823F4E0627B68DB681B
:10182400164913434B607B681B6803F00803002BC5
:1018340009D0124B5B6823F460527B681B69DB00A0
:101844000E4913434B6000F021F802460B4B5B68D2
:101854001B0903F00F030A49CB5C22FA03F3094A7C
:101864001360094B1B681846FFF762F900231846FA
:101874001037BD4680BD00BF00200240001002406A
:101884000C2A0008000000200400002080B487B067
:1018940000AF0023FB600023BB6000237B610023B7
:1018A4007B6000233B611E4B5B68FB60FB6803F0BD
:1018B4000C03042B02D0082B03D027E0194B3B6107
:1018C40027E0FB689B0C03F00F03174AD35C7B6093
:1018D400FB6803F48033002B10D0114B5B685B0C66
:1018E40003F00103114AD35CBB607B680D4A03FB20
:1018F40002F2BB68B2FBF3F37B6104E07B680C4A41
:1019040002FB03F37B617B693B6102E0054B3B61B6
:1019140000BF3B6918461C37BD4680BC704700BFFA
:101924000010024000127A001C2A00082C2A000829
:1019340000093D0080B485B000AF78600A4B1B6895
:101944000A4AA2FB03235B0A7A6802FB03F3FB60E7
:1019540000BFFB685A1EFA60002BF9D100BF00BF1C
:101964001437BD4680BC704700000020D34D621080
:1019740080B582B000AF78607B68002B01D1012371
:1019840041E07B6893F83D30DBB2002B06D17B68E5
:10199400002283F83C207868FFF716F87B6802225F
:1019A40083F83D207B681A687B6804331946104627
:1019B40000F036FC7B68012283F846207B68012214
:1019C40083F83E207B68012283F83F207B68012254
:1019D40083F840207B68012283F841207B68012240
:1019E40083F842207B68012283F843207B6801222C
:1019F40083F844207B68012283F845207B68012218
:101A040083F83D20002318460837BD4680BD0000FA
:101A140080B485B000AF78607B6893F83D30DBB26A
:101A2400012B01D0012344E07B68022283F83D208E
:101A34007B681B68DA687B681B6842F00102DA6025
:101A44007B681B681D4A934218D07B681B681C4A3C
:101A5400934213D07B681B68B3F1804F0ED07B6830
:101A64001B68184A934209D07B681B68164A934244
:101A740004D07B681B68154A934211D17B681B68AC
:101A84009B6803F00703FB60FB68062B10D07B68A0
:101A94001B681A687B681B6842F001021A6007E041
:101AA4007B681B681A687B681B6842F001021A6035
:101AB400002318461437BD4680BC7047002C0140F3
:101AC400003401400004004000080040000C0040C5
:101AD40080B582B000AF78607B68002B01D1012310
:101AE40041E07B6893F83D30DBB2002B06D17B6884
:101AF400002283F83C207868FEF78CFF7B68022282
:101B040083F83D207B681A687B68043319461046C5
:101B140000F086FB7B68012283F846207B68012263
:101B240083F83E207B68012283F83F207B680122F2
:101B340083F840207B68012283F841207B680122DE
:101B440083F842207B68012283F843207B680122CA
:101B540083F844207B68012283F845207B680122B6
:101B640083F83D20002318460837BD4680BD000099
:101B740080B584B000AF786039603B68002B09D130
:101B84007B6893F83E30DBB2012B14BF01230023A2
:101B9400DBB222E03B68042B09D17B6893F83F3029
:101BA400DBB2012B14BF01230023DBB215E03B6839
:101BB400082B09D17B6893F84030DBB2012B14BFAA
:101BC40001230023DBB208E07B6893F84130DBB2E9
:101BD400012B14BF01230023DBB2002B01D001230E
:101BE40072E03B68002B04D17B68022283F83E201C
:101BF40013E03B68042B04D17B68022283F83F2066
:101C04000BE03B68082B04D17B68022283F8402058
:101C140003E07B68022283F841207B681B68012271
:101C24003968184600F0C4FD7B681B68284A934253
:101C340004D07B681B68274A934201D1012300E04A
:101C44000023002B07D07B681B685A6C7B681B68D9
:101C540042F400425A647B681B681D4A934218D0C0
:101C64007B681B681B4A934213D07B681B68B3F1E3
:101C7400804F0ED07B681B68174A934209D07B685B
:101C84001B68164A934204D07B681B68144A93422B
:101C940011D17B681B689B6803F00703FB60FB683A
:101CA400062B10D07B681B681A687B681B6842F09F
:101CB40001021A6007E07B681B681A687B681B686E
:101CC40042F001021A60002318461037BD4680BD59
:101CD400002C014000340140000400400008004092
:101CE400000C004080B584B000AF78607B681B684E
:101CF400DB68FB607B681B681B69BB60BB6803F027
:101D04000203002B20D0FB6803F00203002B1BD03E
:101D14007B681B686FF002021A617B6801221A77E4
:101D24007B681B689B6903F00303002B03D078686E
:101D340000F05AFA05E0786800F04DFA786800F08F
:101D44005CFA7B6800221A77BB6803F00403002B5B
:101D540020D0FB6803F00403002B1BD07B681B68B6
:101D64006FF004021A617B6802221A777B681B6891
:101D74009B6903F44073002B03D0786800F034FAB5
:101D840005E0786800F027FA786800F036FA7B6896
:101D940000221A77BB6803F00803002B20D0FB68ED
:101DA40003F00803002B1BD07B681B686FF008024C
:101DB4001A617B6804221A777B681B68DB6903F06D
:101DC4000303002B03D0786800F00EFA05E078686E
:101DD40000F001FA786800F010FA7B6800221A77A4
:101DE400BB6803F01003002B20D0FB6803F0100342
:101DF400002B1BD07B681B686FF010021A617B6894
:101E040008221A777B681B68DB6903F44073002B94
:101E140003D0786800F0E8F905E0786800F0DBF9B1
:101E2400786800F0EAF97B6800221A77BB6803F04F
:101E34000103002B0CD0FB6803F00103002B07D037
:101E44007B681B686FF001021A617868FEF7A2FCD8
:101E5400BB6803F08003002B0CD0FB6803F0800305
:101E6400002B07D07B681B686FF080021A617868CA
:101E740000F088FDBB6803F04003002B0CD0FB6826
:101E840003F04003002B07D07B681B686FF040020F
:101E94001A61786800F0BAF9BB6803F02003002BDC
:101EA4000CD0FB6803F02003002B07D07B681B6871
:101EB4006FF020021A61786800F05BFD00BF1037F4
:101EC400BD4680BD80B586B000AFF860B9607A6069
:101ED4000023FB75FB6893F83C30012B01D10223EE
:101EE400AEE0FB68012283F83C207B680C2B00F2F7
:101EF4009F8001A252F823F0311F0008352000080A
:101F04003520000835200008711F0008352000081E
:101F14003520000835200008B31F000835200008CC
:101F24003520000835200008F31F0008FB681B68F3
:101F3400B968184600F0FAF9FB681B689A69FB68EF
:101F44001B6842F008029A61FB681B689A69FB6887
:101F54001B6822F004029A61FB681B689969BB68DC
:101F64001A69FB681B680A439A6164E0FB681B6892
:101F7400B968184600F04AFAFB681B689A69FB685E
:101F84001B6842F400629A61FB681B689A69FB68EB
:101F94001B6822F480629A61FB681B689969BB68BC
:101FA4001B691A02FB681B680A439A6143E0FB68D9
:101FB4001B68B968184600F09DFAFB681B68DA696B
:101FC400FB681B6842F00802DA61FB681B68DA6987
:101FD400FB681B6822F00402DA61FB681B68D9699C
:101FE400BB681A69FB681B680A43DA6123E0FB6873
:101FF4001B68B968184600F0F1FAFB681B68DA69D7
:10200400FB681B6842F40062DA61FB681B68DA69EA
:10201400FB681B6822F48062DA61FB681B68D9697B
:10202400BB681B691A02FB681B680A43DA6102E099
:102034000123FB7500BFFB68002283F83C20FB7D75
:1020440018461837BD4680BD80B584B000AF7860AF
:1020540039600023FB737B6893F83C30012B01D17A
:102064000223B4E07B68012283F83C207B680222CF
:1020740083F83D207B681B689B68BB60BB6823F0CA
:102084007703BB60BB6823F47F43BB607B681B683A
:10209400BA689A603B681B68B3F5005F3ED0B3F53D
:1020A400005F00F28780B3F5805F00F08680B3F5AF
:1020B400805F7FD8702B1AD0702B7BD8602B50D0C8
:1020C400602B77D8502B3CD0502B73D8402B58D052
:1020D400402B6FD8302B64D0302B6BD8202B60D0A2
:1020E400202B67D8002B5CD0102B5AD062E07B6881
:1020F40018683B6899683B685A683B68DB6800F07D
:1021040038FB7B681B689B68BB60BB6843F0770344
:10211400BB607B681B68BA689A604FE07B6818688C
:102124003B6899683B685A683B68DB6800F021FBB0
:102134007B681B689A687B681B6842F480429A60DB
:102144003CE07B6818683B6859683B68DB681A4662
:1021540000F098FA7B681B685021184600F0EFFAEB
:102164002CE07B6818683B6859683B68DB681A4652
:1021740000F0B6FA7B681B686021184600F0DFFAAD
:102184001CE07B6818683B6859683B68DB681A4642
:1021940000F078FA7B681B684021184600F0CFFAFB
:1021A4000CE07B681A683B681B681946104600F00F
:1021B400C6FA03E00123FB7300E000BF7B68012241
:1021C40083F83D207B68002283F83C20FB7B184683
:1021D4001037BD4680BD80B483B000AF786000BFC7
:1021E4000C37BD4680BC704780B483B000AF7860C4
:1021F40000BF0C37BD4680BC704780B483B000AFCD
:10220400786000BF0C37BD4680BC704780B483B093
:1022140000AF786000BF0C37BD4680BC704700003B
:1022240080B485B000AF786039607B681B68FB6060
:102234007B68394A934213D07B68384A93420FD063
:102244007B68B3F1804F0BD07B68354A934207D04B
:102254007B68344A934203D07B68334A934208D163
:10226400FB6823F07003FB603B685B68FA68134308
:10227400FB607B68284A934213D07B68274A9342C9
:102284000FD07B68B3F1804F0BD07B68244A934214
:1022940007D07B68234A934203D07B68224A934247
:1022A40008D1FB6823F44073FB603B68DB68FA6881
:1022B4001343FB60FB6823F080023B685B691343B4
:1022C400FB607B68FA681A603B689A687B68DA622C
:1022D4003B681A687B689A627B680F4A934203D012
:1022E4007B680E4A934203D13B681A697B681A6380
:1022F4007B6801225A617B681B6903F00103002B90
:1023040005D07B681B6923F001027B681A6100BF5A
:102314001437BD4680BC7047002C01400034014096
:102324000004004000080040000C004080B487B066
:1023340000AF786039607B681B6A7B617B681B6ACD
:1023440023F001027B681A627B685B683B617B68EF
:102354009B69FB60FB6823F07003FB60FB6823F060
:102364000303FB603B681B68FA681343FB607B69EB
:1023740023F002037B613B689B687A6913437B61AA
:102384007B68204A934203D07B681F4A93420CD156
:102394007B6923F008037B613B68DB687A6913433C
:1023A4007B617B6923F004037B617B68154A93425C
:1023B40003D07B68144A934211D13B6923F48073A0
:1023C4003B613B6923F400733B613B685B693A6999
:1023D40013433B613B689B693A6913433B617B68E8
:1023E4003A695A607B68FA689A613B685A687B6804
:1023F4005A637B687A691A6200BF1C37BD4680BC89
:10240400704700BF002C01400034014080B487B005
:1024140000AF786039607B681B6A7B617B681B6AEC
:1024240023F010027B681A627B685B683B617B68FF
:102434009B69FB60FB6823F4E043FB60FB6823F4C7
:102444004073FB603B681B681B02FA681343FB6024
:102454007B6923F020037B613B689B681B017A69DD
:1024640013437B617B68214A934203D07B68204AF3
:1024740093420DD17B6923F080037B613B68DB6869
:102484001B017A6913437B617B6923F040037B6101
:102494007B68164A934203D07B68154A934213D152
:1024A4003B6923F480633B613B6923F400633B6134
:1024B4003B685B699B003A6913433B613B689B69DA
:1024C4009B003A6913433B617B683A695A607B68B5
:1024D400FA689A613B685A687B689A637B687A6990
:1024E4001A6200BF1C37BD4680BC7047002C0140F7
:1024F4000034014080B487B000AF786039607B68F5
:102504001B6A7B617B681B6A23F480727B681A6296
:102514007B685B683B617B68DB69FB60FB6823F07D
:102524007003FB60FB6823F00303FB603B681B68DC
:10253400FA681343FB607B6923F400737B613B6897
:102544009B681B027A6913437B617B68214A93422F
:1025540003D07B68204A93420DD17B6923F4006346
:102564007B613B68DB681B027A6913437B617B698F
:1025740023F480637B617B68164A934203D07B68B3
:10258400154A934213D13B6923F480533B613B6961
:1025940023F400533B613B685B691B013A691343B5
:1025A4003B613B689B691B013A6913433B617B6850
:1025B4003A695A607B68FA68DA613B685A687B68F2
:1025C400DA637B687A691A6200BF1C37BD4680BC37
:1025D400704700BF002C01400034014080B487B034
:1025E40000AF786039607B681B6A3B617B681B6A5B
:1025F40023F480527B681A627B685B687B617B682A
:10260400DB69FB60FB6823F4E043FB60FB6823F4B5
:102614004073FB603B681B681B02FA681343FB6052
:102624003B6923F400533B613B689B681B033A6995
:1026340013433B617B68114A934203D07B68104A81
:10264400934209D17B6923F480437B613B685B69D6
:102654009B017A6913437B617B687A695A607B6862
:10266400FA68DA613B685A687B681A647B683A697D
:102674001A6200BF1C37BD4680BC7047002C014065
:102684000034014080B487B000AFF860B9607A606C
:10269400FB681B6A7B61FB681B6A23F00102FB6811
:1026A4001A62FB689B693B613B6923F0F0033B6161
:1026B4007B681B013A6913433B617B6923F00A037E
:1026C4007B617A69BB6813437B61FB683A699A61F1
:1026D400FB687A691A6200BF1C37BD4680BC70472C
:1026E40080B487B000AFF860B9607A60FB681B6A99
:1026F4007B61FB681B6A23F01002FB681A62FB68AB
:102704009B693B613B6923F470433B617B681B031A
:102714003A6913433B617B6923F0A0037B61BB6887
:102724001B017A6913437B61FB683A699A61FB6810
:102734007A691A6200BF1C37BD4680BC704780B4FA
:1027440085B000AF786039607B689B68FB60FB688C
:1027540023F07003FB603A68FB68134343F00703FC
:10276400FB607B68FA689A6000BF1437BD4680BC82
:10277400704780B487B000AFF860B9607A603B609E
:10278400FB689B687B617B6923F47F437B613B68C7
:102794001A027B681A43BB6813437A6913437B614B
:1027A400FB687A699A6000BF1C37BD4680BC7047DD
:1027B40080B487B000AFF860B9607A60BB6803F09A
:1027C4001F03012202FA03F37B61FB681A6A7B6927
:1027D400DB431A40FB681A62FB681A6ABB6803F0A1
:1027E4001F03796801FA03F31A43FB681A6200BFF6
:1027F4001C37BD4680BC704780B485B000AF78609C
:1028040039607B6893F83C30012B01D1022350E0FE
:102814007B68012283F83C207B68022283F83D20F8
:102824007B681B685B68FB607B681B689B68BB609C
:10283400FB6823F07003FB603B681B68FA68134372
:10284400FB607B681B68FA685A607B681B681B4ADC
:10285400934218D07B681B68194A934213D07B6853
:102864001B68B3F1804F0ED07B681B68154A9342F6
:1028740009D07B681B68144A934204D07B681B68A8
:10288400124A93420CD1BB6823F08003BB603B68BF
:102894005B68BA681343BB607B681B68BA689A605C
:1028A4007B68012283F83D207B68002283F83C206A
:1028B400002318461437BD4680BC7047002C0140E5
:1028C400003401400004004000080040000C0040B7
:1028D40080B485B000AF786039600023FB607B680A
:1028E40093F83C30012B01D102233DE07B680122A7
:1028F40083F83C20FB6823F0FF023B68DB6813434A
:10290400FB60FB6823F440723B689B681343FB60E5
:10291400FB6823F480623B685B681343FB60FB68DD
:1029240023F400623B681B681343FB60FB6823F4D9
:1029340080523B681B691343FB60FB6823F400521D
:102944003B685B691343FB60FB6823F480423B688C
:10295400DB691343FB607B681B68FA685A647B6815
:10296400002283F83C20002318461437BD4680BC5F
:10297400704780B483B000AF786000BF0C37BD46A9
:1029840080BC704780B483B000AF786000BF0C3760
:10299400BD4680BC704703460244934200D1704751
:1029A40003F8011BF9E7000070B500260C4D0D4C2F
:1029B400641BA410A64209D100F01AF800260A4D9F
:1029C4000A4C641BA410A64205D170BD55F8043B03
:1029D40098470136EEE755F8043B98470136F2E78D
:1029E400302A0008302A0008302A0008342A000857
:1029F400F8B500BFF8BC08BC9E467047F8B500BFE8
:082A0400F8BC08BC9E467047B7
:102A0C000000000000000000010203040607080992
:102A1C0002030405060708090A0B0C0D0E0F101013
:042A2C0001020000A3
:042A3000090200088F
:042A3400E5010008B0
:0C2A380000127A001000000001000000F5
:0400000508000ABD28
:00000001FF
