:020000040800F2
:1000000000C000200D120008810E0008890E0008B3
:10001000910E0008990E0008A10E000800000000D3
:10002000000000000000000000000000A90E000811
:10003000B50E000800000000C10E0008CD0E00083B
:1000400055120008551200085512000855120008F4
:1000500055120008551200085512000855120008E4
:1000600055120008551200085512000855120008D4
:1000700055120008551200085512000855120008C4
:1000800055120008551200085512000855120008B4
:1000900055120008551200085512000855120008A4
:1000A0005512000855120008551200085512000894
:1000B00055120008D90E0008551200085512000804
:1000C0005512000855120008551200085512000874
:1000D0005512000855120008551200085512000864
:1000E0005512000855120008551200085512000854
:1000F0005512000855120008551200085512000844
:100100005512000855120008551200085512000833
:100110005512000855120008551200085512000823
:100120005512000855120008551200085512000813
:1001300000000000000000000000000000000000BF
:1001400000000000000000000000000000000000AF
:10015000000000000000000000000000000000009F
:10016000000000000000000000000000000000008F
:10017000000000000000000000000000000000007F
:10018000000000000000000000000000000000006F
:10019000000000000000000000000000000000005F
:1001A000000000000000000000000000000000004F
:1001B000000000000000000000000000000000003F
:1001C000000000000000000000000000000000002F
:1001D000000000000000000000000000000000001F
:0401E0005FF8E0F1F3
:1001E40010B5054C237833B9044B13B10448AFF36D
:1001F40000800123237010BD0C00002000000000CB
:10020400403D000808B5034B1BB103490348AFF355
:10021400008008BD0000000010000020403D0008E0
:1002240080F0004002E000BF81F0004142001FBFA7
:100234005FEA410392EA030F7FEA226C7FEA236CB0
:100244006AD04FEA1262D2EB1363C1BFD2184140A5
:1002540048404140B8BF5B42192B88BF704710F03B
:10026400004F40F4000020F07F4018BF404211F0DE
:10027400004F41F4000121F07F4118BF494292EA46
:10028400030F3FD0A2F1010241FA03FC10EB0C0072
:10029400C3F1200301FA03F100F0004302D54942FF
:1002A40060EB4000B0F5000F13D3B0F1807F06D3AC
:1002B40040084FEA310102F10102FE2A51D2B1F1A4
:1002C400004F40EBC25008BF20F0010040EA030099
:1002D4007047490040EB0000013A28BFB0F5000F19
:1002E400EDD2B0FA80FCACF1080CB2EB0C0200FACF
:1002F4000CF0AABF00EBC25052421843BCBFD0401E
:100304001843704792F0000F81F4000106BF80F497
:1003140000000132013BB5E74FEA41037FEA226C5A
:1003240018BF7FEA236C21D092EA030F04D092F025
:10033400000F08BF0846704790EA010F1CBF002059
:10034400704712F07F4F04D1400028BF40F00040B6
:10035400704712F100723CBF00F50000704700F0D6
:10036400004343F0FE4040F4000070477FEA2262FD
:1003740016BF08467FEA23630146420206BF5FEACE
:10038400412390EA010F40F4800070474FF00003CE
:1003940004E000BF10F0004348BF40425FEA000C95
:1003A40008BF704743F0964301464FF000001CE03D
:1003B40050EA010208BF70474FF000030AE000BF93
:1003C40050EA010208BF704711F0004302D54042D1
:1003D40061EB41015FEA010C02BF84460146002043
:1003E40043F0B64308BFA3F18053A3F50003BCFA5E
:1003F4008CF2083AA3EBC25310DB01FA02FC63440B
:1004040000FA02FCC2F12002BCF1004F20FA02F211
:1004140043EB020008BF20F00100704702F1200204
:1004240001FA02FCC2F1200250EA4C0021FA02F265
:1004340043EB020008BF20EADC7070474FF0FF0C6A
:100444001CEAD0521EBF1CEAD15392EA0C0F93EA65
:100454000C0F6FD01A4480EA010C400218BF5FEA07
:1004640041211ED04FF0006343EA501043EA51117A
:10047400A0FB01310CF00040B1F5000F3EBF490074
:1004840041EAD3715B0040EA010062F17F02FD2A78
:100494001DD8B3F1004F40EBC25008BF20F001005B
:1004A400704790F0000F0CF0004C08BF49024CEA72
:1004B400502040EA51207F3AC2BFD2F1FF0340EA04
:1004C400C250704740F400004FF00003013A5DDC75
:1004D40012F1190FDCBF00F000407047C2F10002B6
:1004E400410021FA02F1C2F1200200FA02FC5FEAA3
:1004F400310040F1000053EA4C0308BF20EADC70ED
:10050400704792F0000F00F0004C02BF400010F45E
:10051400000F013AF9D040EA0C0093F0000F01F00B
:10052400004C02BF490011F4000F013BF9D041EA2D
:100534000C018FE70CEAD15392EA0C0F18BF93EA2F
:100544000C0F0AD030F0004C18BF31F0004CD8D159
:1005540080EA010000F00040704790F0000F17BFE0
:1005640090F0004F084691F0000F91F0004F14D026
:1005740092EA0C0F01D142020FD193EA0C0F03D17E
:100584004B0218BF084608D180EA010000F0004081
:1005940040F0FE4040F40000704740F0FE4040F45C
:1005A400400070474FF0FF0C1CEAD0521EBF1CEAFB
:1005B400D15392EA0C0F93EA0C0F69D0A2EB030219
:1005C40080EA010C49024FEA402037D04FF08053B3
:1005D40043EA111143EA10130CF000408B4238BF78
:1005E4005B0042F17D024FF4000C8B4224BF5B1A86
:1005F40040EA0C00B3EB510F24BFA3EB510340EAD4
:100604005C00B3EB910F24BFA3EB910340EA9C0081
:10061400B3EBD10F24BFA3EBD10340EADC001B01F1
:1006240018BF5FEA1C1CE0D1FD2A3FF650AF8B4295
:1006340040EBC25008BF20F0010070470CF0004CA2
:100644004CEA50207F32C2BFD2F1FF0340EAC250CD
:10065400704740F400004FF00003013A37E792F08E
:10066400000F00F0004C02BF400010F4000F013AEC
:10067400F9D040EA0C0093F0000F01F0004C02BFE7
:10068400490011F4000F013BF9D041EA0C0195E750
:100694000CEAD15392EA0C0F08D142027FF47DAFE9
:1006A40093EA0C0F7FF470AF084676E793EA0C0FD9
:1006B40004D14B023FF44CAF08466EE730F0004CD7
:1006C40018BF31F0004CCAD130F000427FF45CAF67
:1006D40031F000437FF43CAF5FE700BF4FF0FF3CD5
:1006E40006E000BF4FF0010C02E000BF4FF0010C28
:1006F4004DF804CD4FEA40024FEA41037FEA226CF1
:1007040018BF7FEA236C11D001B052EA530C18BF12
:1007140090EA010F58BFB2EB030088BFC81738BF77
:100724006FEAE17018BF40F0010070477FEA226C65
:1007340002D15FEA402C05D17FEA236CE4D15FEA61
:10074400412CE1D05DF8040B704700BF8446084695
:100754006146FFE70FB5FFF7C9FF002848BF10F156
:10076400000F0FBD4DF808EDFFF7F4FF0CBF01209B
:1007740000205DF808FB00BF4DF808EDFFF7EAFF25
:1007840034BF012000205DF808FB00BF4DF808EDE0
:10079400FFF7E0FF94BF012000205DF808FB00BFD5
:1007A4004DF808EDFFF7D2FF94BF012000205DF85B
:1007B40008FB00BF4DF808EDFFF7C8FF34BF012068
:1007C40000205DF808FB00BF4FEA4002B2F1FE4F83
:1007D4000FD34FF09E03B3EB12620DD94FEA0023FF
:1007E40043F0004310F0004F23FA02F018BF4042D8
:1007F40070474FF00000704712F1610F01D14202BF
:1008040005D110F0004008BF6FF0004070474FF072
:100814000000704790B585B000AF786039603968E2
:100824007868FFF703FD03464FF07C511846FFF745
:1008340005FE0346FB6079683868FFF7F5FC03465C
:1008440026491846FFF7AEFE0346BB60244B9C685E
:100854002449B868FFF7F2FD034619462046FFF71E
:10086400E5FC03461A461E4B9A601D4B1C681C4B44
:100874009B68184602F064FC0346F9681846FFF7C3
:10088400DDFD034617491846FFF7D8FD0346194610
:100894002046FFF7CBFC03461A46114B1A60104B57
:1008A4005C680F4B9B68184602F082FC0346F968AB
:1008B4001846FFF7C3FD03460A491846FFF7BEFD75
:1008C400034619462046FFF7B1FC03461A46044B7B
:1008D4005A6000BF1437BD4690BD00BF00006041A0
:1008E400280000200AD7233C80B500AF0421124819
:1008F40001F0E6FC0C21104801F0E2FC0E4B1B68F1
:100904004FF4FA729A630C4B1B684FF4FA721A6430
:1009140000224FF48061094800F0DBFF002204212B
:10092400064800F0D6FF064B00221A70054801F075
:1009340017FC00BF80BD00BF8000002000100140F4
:10094400340000203800002080B500AF00224FF4AE
:100954000051164800F0BDFF01228021134800F029
:10096400B8FF00224FF48051104800F0B2FF01227A
:1009740040210E4800F0ADFF00224FF480710B4877
:1009840000F0A7FF01224FF48041084800F0A1FFC6
:1009940000224FF40071054800F09BFF01224FF440
:1009A4000041024800F095FF00BF80BD000C0140EB
:1009B40080B500AF00224FF400510B4800F089FFCE
:1009C40000228021084800F084FF00224FF4807147
:1009D400054800F07EFF01224FF48041024800F0F8
:1009E40078FF00BF80BD00BF000C014080B500AFA0
:1009F40000224FF400510B4800F06BFF01228021CC
:100A0400084800F066FF00224FF48071054800F0AA
:100A140060FF00224FF48041024800F05AFF00BFFB
:100A240080BD00BF000C014080B500AF174B1B68B0
:100A340000229A63154B1B6800221A64144B00228F
:100A44001A7000224FF48061124800F042FF002225
:100A54000421104800F03DFF00224FF400510E48DD
:100A640000F037FF002280210B4800F032FF002203
:100A74004FF48071084800F02CFF00224FF48041AD
:100A8400054800F026FF00BF80BD00BF80000020A5
:100A94003400002000100140000C014080B588B0F3
:100AA40000AF07F1100300221A605A609A60DA60FE
:100AB4004A4B9B69494A43F020039361474B9B6926
:100AC40003F02003FB60FB68444B9B69434A43F0FB
:100AD40010039361414B9B6903F01003BB60BB6837
:100AE4003E4B9B693D4A43F0040393613B4B9B6936
:100AF40003F004037B607B68384B9B69374A43F0FF
:100B040008039361354B9B6903F008033B603B6822
:100B1400002240F20441324800F0DBFE00224FF292
:100B2400C131304800F0D5FE002204212E4800F0E7
:100B3400D0FE40F204433B6101237B610023BB618F
:100B44000223FB6107F110031946254800F016FD46
:100B540001233B6100237B610223BB6107F1100386
:100B64001946224800F00AFD30233B6100237B61D3
:100B74000123BB6107F110031946194800F0FEFC7C
:100B84004FF2C1333B6101237B610023BB6102232C
:100B9400FB6107F110031946124800F0EFFC04232F
:100BA4003B6101237B610023BB610223FB6107F1ED
:100BB400100319460C4800F0E1FC30233B6100238C
:100BC4007B610123BB6107F110031946054800F05E
:100BD400D5FC00BF2037BD4680BD00BF00100240D9
:100BE40000100140000C01400014014000080140C5
:100BF40080B500AF1021234800F054FE0346002BBB
:100C04000FD120211F4800F04DFE0346012B08D1CF
:100C140001211D4800F046FE0346002B01D10123AB
:100C24002EE01021174800F03DFE0346012B0FD1A2
:100C34002021144800F036FE0346002B08D1012180
:100C4400114800F02FFE0346002B01D1022317E0C8
:100C540010210C4800F026FE0346012B0FD1202161
:100C6400084800F01FFE0346012B08D10121064865
:100C740000F018FE0346012B01D1032300E00023FA
:100C8400184680BD001001400008014080B582B0C4
:100C940000AF00F0DFFAFFF7C7FE00F018F8FFF727
:100CA400FDFE00F05BF900F0A7F9FFF7A1FF786003
:100CB4007B68012B02D100F055F8F6E77B68022B24
:100CC40002D100F055F8F0E7FFF7AEFEEDE780B58E
:100CD40090B000AF07F1180328220021184602F053
:100CE40002FA3B1D00221A605A609A60DA601A61A7
:100CF4000123BB614FF48033FB6100233B6201237A
:100D0400BB6202237B634FF48033BB634FF4E01375
:100D1400FB6307F11803184600F0F4FD0346002BAB
:100D240001D000F019F80F237B600223BB6000237D
:100D3400FB604FF480633B6100237B613B1D022118
:100D4400184601F061F80346002B01D000F004F8C6
:100D540000BF4037BD4680BD80B400AF72B600BF4F
:100D640000BFFDE780B400AF00BFBD4680BC704744
:100D740080B582B000AFFFF7B7FD1021244800F022
:100D840091FD0346FB712021214800F08BFD0346B1
:100D9400BB71FB79002B09D0BB79002B06D0FFF780
:100DA40043FE00210020FFF735FD2DE0FB79002BE9
:100DB4000BD1BB79002B08D0FFF718FE00224FF0AF
:100DC40000001449FFF726FD1EE0FB79002B0BD031
:100DD400BB79002B08D1FFF7EBFD4FF000020D4B60
:100DE4000020FFF717FD0FE0FB79002B0CD1BB7936
:100DF400002B09D1FFF7A8FD4FF00002054B4FF07F
:100E040000000449FFF706FD0A2000F085FAB4E764
:100E1400000C01400000344080B485B000AF154B95
:100E24009B69144A43F001039361124B9B6903F0DD
:100E34000103BB60BB680F4BDB690E4A43F0805370
:100E4400D3610C4BDB6903F080537B607B680A4BF6
:100E54005B68FB60FB6823F0E063FB60FB6843F0C6
:100E64000073FB60044AFB68536000BF1437BD463F
:100E740080BC7047001002400000014080B400AF05
:100E840000BFFDE780B400AF00BFFDE780B400AF52
:100E940000BFFDE780B400AF00BFFDE780B400AF42
:100EA40000BFFDE780B400AF00BFBD4680BC704703
:100EB40080B400AF00BFBD4680BC704780B400AFB3
:100EC40000BFBD4680BC704780B500AF00F008FA93
:100ED40000BF80BD80B500AF024801F0ABFA00BF8F
:100EE40080BD00BF3800002080B582B000AF7860BC
:100EF4007B681B68134A93421FD1134B1B7883F002
:100F04000103DAB2104B1A700F4B1B78002B14BF7D
:100F140001230023DBB21A464FF480610B4800F032
:100F2400D8FC094B1B78002B14BF01230023DBB230
:100F34001A460421054800F0CCFC00BF0837BD4622
:100F440080BD00BF000400403400002000100140B8
:100F540080B400AF00BFBD4680BC704780B586B08A
:100F640000AF07F1080300221A605A609A60DA6041
:100F74003B4600221A605A601D4B1E4A1A601C4BE5
:100F840041F61F425A601A4B00229A60184B0922FC
:100F9400DA60174B00221A61154B00229A6114483B
:100FA40001F08EF80346002B01D0FFF7D5FE4FF475
:100FB4008053BB6007F1080319460D4801F0ECFBB0
:100FC4000346002B01D0FFF7C7FE00233B6000233C
:100FD4007B603B461946064801F0B6FF0346002BEA
:100FE40001D0FFF7B9FE00BF1837BD4680BD00BF72
:100FF400380000200004004080B592B000AF07F133
:10100400400300221A605A6007F1240300221A6088
:101014005A609A60DA601A615A619A613B1D202213
:101024000021184602F05FF8394B3A4A1A60384BEF
:1010340047225A60364B00229A60354B40F2E73221
:10104400DA60334B00221A61314B00225A61304B73
:1010540000229A612E4801F0E3F80346002B01D0E8
:10106400FFF77AFE00233B6400237B6407F140030F
:101074001946274801F068FF0346002B01D0FFF70B
:101084006BFE60237B620023BB620023FB620023B0
:101094003B6300237B630023BB630023FB6307F1F3
:1010A4002403042219461A4801F0B4FA0346002B1B
:1010B40001D0FFF751FE07F124030C22194614480E
:1010C40001F0A8FA0346002B01D0FFF745FE0023E8
:1010D4007B600023BB600023FB6000233B61002393
:1010E4007B614FF40053BB6100233B623B1D1946F7
:1010F400074801F095FF0346002B01D0FFF72CFEB3
:10110400034800F04DF800BF4837BD4680BD00BF1E
:10111400800000200034014080B584B000AF7860C6
:101124007B681B680D4A934213D10D4BDB690C4A53
:1011340043F00203D3610A4BDB6903F00203FB6053
:10114400FB68002201211D2000F0E1F91D2000F0C0
:10115400FAF900BF1037BD4680BD00BF000400404F
:101164000010024080B485B000AF78607B681B68D3
:10117400094A93420BD1094B9B69084A43F4005333
:101184009361064B9B6903F40053FB60FB6800BF4B
:101194001437BD4680BC7047003401400010024043
:1011A40080B588B000AF786007F1100300221A60A0
:1011B4005A609A60DA607B681B68104A934218D1BF
:1011C4000F4B9B690E4A43F0100393610C4B9B69D0
:1011D40003F01003FB60FB684FF420733B610223B0
:1011E4007B610223FB6107F110031946054800F0F7
:1011F400C5F900BF2037BD4680BD00BF00340140A3
:101204000010024000100140FFF7A2FE0B480C49F9
:101214000C4A002302E0D458C4500433C4188C424E
:10122400F9D3094A094C002301E013600432A242B5
:10123400FBD301F061FFFFF729FD70470000002098
:101244000C000020544100080C000020CC000020B9
:10125400FEE7000080B500AF084B1B68074A43F067
:1012640010031360032000F047F9002000F008F891
:10127400FFF7D2FD0023184680BD00BF00200240C6
:1012840080B582B000AF7860124B1A68124B1B789D
:1012940019464FF47A73B3FBF1F3B2FBF3F3184638
:1012A40000F05FF90346002B01D001230EE07B68B8
:1012B4000F2B0AD8002279684FF0FF3000F027F98D
:1012C400064A7B681360002300E0012318460837B0
:1012D400BD4680BD0000002008000020040000205E
:1012E40080B400AF054B1B781A46054B1B681344AA
:1012F400034A136000BFBD4680BC7047080000204D
:10130400C800002080B400AF024B1B681846BD46DD
:1013140080BC7047C800002080B584B000AF7860FE
:10132400FFF7F0FFB8607B68FB60FB68B3F1FF3F39
:1013340005D00A4B1B781A46FB681344FB6000BFB8
:10134400FFF7E0FF0246BB68D31AFA689A42F7D85F
:1013540000BF00BF1037BD4680BD00BF080000209D
:1013640080B485B000AF78607B6803F00703FB604E
:101374000C4BDB68BB60BA684FF6FF031340BB60DD
:10138400FB681A02BB68134343F0BF6343F40033A2
:10139400BB60044ABB68D36000BF1437BD4680BC41
:1013A400704700BF00ED00E080B400AF044BDB6881
:1013B4001B0A03F007031846BD4680BC704700BFF4
:1013C40000ED00E080B483B000AF0346FB7197F9F1
:1013D4000730002B0BDBFB7903F01F02064997F95A
:1013E40007305B09012000FA02F241F8232000BF14
:1013F4000C37BD4680BC704700E100E080B483B088
:1014040000AF03463960FB7197F90730002B0ADB04
:101414003B68DAB20C4997F907301201D2B20B4497
:1014240083F800230AE03B68DAB20849FB7903F049
:101434000F03043B1201D2B20B441A7600BF0C37DF
:10144400BD4680BC704700BF00E100E000ED00E055
:1014540080B489B000AFF860B9607A60FB6803F0CB
:101464000703FB61FB69C3F10703042B28BF0423B3
:10147400BB61FB690433062B02D9FB69033B00E023
:1014840000237B614FF0FF32BB6902FA03F3DA43B6
:10149400BB681A407B699A404FF0FF317B6901FABF
:1014A40003F3D9437B680B40134318462437BD46E6
:1014B40080BC704780B582B000AF78607B68013B28
:1014C400B3F1807F01D301230FE00A4A7B68013B1B
:1014D40053600F214FF0FF30FFF790FF054B0022C0
:1014E4009A60044B07221A60002318460837BD4649
:1014F40080BD00BF10E000E080B582B000AF78602E
:101504007868FFF72DFF00BF0837BD4680BD80B562
:1015140086B000AF0346B9607A60FB7300237B6139
:10152400FFF742FF78617A68B9687869FFF790FF3E
:10153400024697F90F3011461846FFF75FFF00BFC8
:101544001837BD4680BD80B582B000AF0346FB713D
:1015540097F907301846FFF735FF00BF0837BD4637
:1015640080BD80B582B000AF78607868FFF7A2FFD5
:10157400034618460837BD4680BD000080B48BB0D2
:1015840000AF7860396000237B6200233B6279E11D
:1015940001227B6A02FA03F3FB613B681B68FA6968
:1015A4001340BB61BA69FB699A4240F068813B68A9
:1015B4005B68964A93425ED0944A934275D8944AA3
:1015C400934258D0924A93426FD8924A934252D04F
:1015D400904A934269D8904A93424CD08E4A93429F
:1015E40063D88E4A934246D08C4A93425DD8122BDC
:1015F4002AD8122B59D801A252F823F07B160008DE
:101604005516000867160008A9160008AF1600084A
:10161400AF160008AF160008AF160008AF16000892
:10162400AF160008AF160008AF160008AF16000882
:10163400AF160008AF160008AF160008AF16000872
:101644005D16000871160008754A934213D02CE009
:101654003B68DB683B6229E03B68DB6804333B6240
:1016640024E03B68DB6808333B621FE03B68DB68CF
:101674000C333B621AE03B689B68002B02D10423C5
:101684003B6213E03B689B68012B05D108233B6256
:101694007B68FA691A6109E008233B627B68FA698E
:1016A4005A6103E000233B6200E000BFBB69FF2BEB
:1016B40001D87B6801E07B6804337B61BB69FF2B45
:1016C40002D87B6A9B0002E07B6A083B9B003B617B
:1016D4007B691A680F213B6901FA03F3DB431A4063
:1016E400396A3B6901FA03F31A437B691A603B6860
:1016F4005B6803F08053002B00F0C180494B9B6969
:10170400484A43F001039361464B9B6903F001038C
:10171400BB60BB68444A7B6A9B08023352F823309F
:10172400FB607B6A03F003039B000F2202FA03F3BE
:10173400DB43FA681340FB607B683C4A93421FD04A
:101744007B683B4A934219D07B683A4A934213D050
:101754007B68394A93420DD07B68384A934207D05C
:101764007B68374A934201D105230AE0062308E047
:10177400042306E0032304E0022302E0012300E043
:1017840000237A6A02F0030292009340FA6813433A
:10179400FB6025497B6A9B080233FA6841F82320E1
:1017A4003B685B6803F48013002B06D0254B9A68D2
:1017B4002449BB6913438B6006E0224B9A68BB69DA
:1017C400DB43204913408B603B685B6803F40013E0
:1017D400002B06D01B4BDA681A49BB691343CB6054
:1017E40006E0184BDA68BB69DB4316491340CB604B
:1017F4003B685B6803F40033002B25D0114B5A6817
:101804001049BB6913434B6025E000BF0000321050
:1018140000003110000022100000211000001210FE
:1018240000001110001002400000014000080140B7
:10183400000C014000100140001401400018014058
:10184400001C014000040140154B5A68BB69DB438E
:10185400134913404B603B685B6803F48033002BEF
:1018640006D00F4B1A680E49BB6913430B6006E0A0
:101874000B4B1A68BB69DB43094913400B607B6A55
:1018840001337B623B681A687B6A22FA03F3002BFC
:101894007FF47EAE00BF00BF2C37BD4680BC7047CE
:1018A4000004014080B485B000AF78600B467B80B3
:1018B4007B689A687B881340002B02D00123FB735A
:1018C40001E00023FB73FB7B18461437BD4680BC44
:1018D400704780B483B000AF78600B467B801346BA
:1018E4007B707B78002B03D07A887B681A6103E0D5
:1018F4007B881A047B681A6100BF0C37BD4680BC24
:101904007047000080B586B000AF78607B68002B1C
:1019140001D1012372E27B681B6803F00103002BF1
:1019240000F08780924B5B6803F00C03042B0CD00F
:101934008F4B5B6803F00C03082B12D18C4B5B6854
:1019440003F48033B3F5803F0BD1894B1B6803F458
:101954000033002B6CD07B685B68002B68D10123BB
:101964004CE27B685B68B3F5803F06D1804B1B6813
:101974007F4A43F4803313602EE07B685B68002B5E
:101984000CD17B4B1B687A4A23F480331360784B69
:101994001B68774A23F4802313601DE07B685B682F
:1019A400B3F5A02F0CD1724B1B68714A43F480230A
:1019B40013606F4B1B686E4A43F4803313600BE073
:1019C4006B4B1B686A4A23F480331360684B1B68B3
:1019D400674A23F4802313607B685B68002B13D071
:1019E400FFF790FC386108E0FFF78CFC02463B6986
:1019F400D31A642B01D9032300E25D4B1B6803F463
:101A04000033002BF0D014E0FFF77CFC386108E0D1
:101A1400FFF778FC02463B69D31A642B01D90323F0
:101A2400ECE1534B1B6803F40033002BF0D100E0CE
:101A340000BF7B681B6803F00203002B63D04C4B90
:101A44005B6803F00C03002B0BD0494B5B6803F07D
:101A54000C03082B1CD1464B5B6803F48033002B2A
:101A640016D1434B1B6803F00203002B05D07B689F
:101A74001B69012B01D00123C0E13D4B1B6823F0FE
:101A8400F8027B685B69DB00394913430B603AE079
:101A94007B681B69002B20D0364B01221A60FFF7AC
:101AA40031FC386108E0FFF72DFC02463B69D31A8C
:101AB400022B01D90323A1E12D4B1B6803F0020380
:101AC400002BF0D02A4B1B6823F0F8027B685B697B
:101AD400DB00274913430B6015E0264B00221A60F4
:101AE400FFF710FC386108E0FFF70CFC02463B6985
:101AF400D31A022B01D9032380E11D4B1B6803F089
:101B04000203002BF0D17B681B6803F00803002B51
:101B14003AD07B689B69002B19D0174B01221A60BD
:101B2400FFF7F0FB386108E0FFF7ECFB02463B6986
:101B3400D31A022B01D9032360E10D4B5B6A03F036
:101B44000203002BF0D0012000F09CFA1CE00A4BA9
:101B540000221A60FFF7D6FB38610FE0FFF7D2FBD3
:101B640002463B69D31A022B08D9032346E100BF7E
:101B7400001002400000424280044242924B5B6AE1
:101B840003F00203002BE9D17B681B6803F0040314
:101B9400002B00F0A6800023FB758B4BDB6903F060
:101BA4008053002B0DD1884BDB69874A43F0805367
:101BB400D361854BDB6903F08053BB60BB680123B1
:101BC400FB75824B1B6803F48073002B18D17F4B89
:101BD4001B687E4A43F480731360FFF793FB3861FC
:101BE40008E0FFF78FFB02463B69D31A642B01D947
:101BF400032303E1754B1B6803F48073002BF0D0BF
:101C04007B68DB68012B06D16F4B1B6A6E4A43F07D
:101C1400010313622DE07B68DB68002B0CD16A4B57
:101C24001B6A694A23F001031362674B1B6A664A05
:101C340023F0040313621CE07B68DB68052B0CD1E2
:101C4400614B1B6A604A43F0040313625E4B1B6AD8
:101C54005D4A43F0010313620BE05B4B1B6A5A4A73
:101C640023F001031362584B1B6A574A23F0040301
:101C740013627B68DB68002B15D0FFF743FB3861E8
:101C84000AE0FFF73FFB02463B69D31A41F2883270
:101C9400934201D90323B1E04B4B1B6A03F00203C7
:101CA400002BEED014E0FFF72DFB38610AE0FFF7BC
:101CB40029FB02463B69D31A41F28832934201D987
:101CC40003239BE0404B1B6A03F00203002BEED17D
:101CD400FB7D012B05D13C4BDB693B4A23F0805350
:101CE400D3617B68DB69002B00F08780364B5B682F
:101CF40003F00C03082B61D07B68DB69022B46D10F
:101D0400334B00221A60FFF7FDFA386108E0FFF751
:101D1400F9FA02463B69D31A022B01D903236DE079
:101D2400294B1B6803F00073002BF0D17B681B6AFE
:101D3400B3F5803F08D1244B5B6823F400327B6801
:101D44009B68214913434B601F4B5B6823F4741257
:101D54007B68196A7B685B6A0B431B4913434B60BE
:101D64001B4B01221A60FFF7CDFA386108E0FFF738
:101D7400C9FA02463B69D31A022B01D903233DE079
:101D8400114B1B6803F00073002BF0D035E0104BAF
:101D940000221A60FFF7B6FA386108E0FFF7B2FADA
:101DA40002463B69D31A022B01D9032326E0064BD2
:101DB4001B6803F00073002BF0D11EE07B68DB6925
:101DC400012B07D1012319E00010024000700040EC
:101DD400600042420B4B5B68FB60FB6803F480329B
:101DE4007B681B6A9A4206D1FB6803F470127B6815
:101DF4005B6A9A4201D0012300E000231846183799
:101E0400BD4680BD0010024080B584B000AF78604C
:101E140039607B68002B01D10123D0E06A4B1B6839
:101E240003F007033A689A4210D9674B1B6823F002
:101E3400070265493B6813430B60634B1B6803F05F
:101E440007033A689A4201D00123B8E07B681B6813
:101E540003F00203002B20D07B681B6803F004030B
:101E6400002B05D0594B5B68584A43F4E063536038
:101E74007B681B6803F00803002B05D0534B5B6899
:101E8400524A43F460535360504B5B6823F0F002B2
:101E94007B689B684D4913434B607B681B6803F068
:101EA4000103002B40D07B685B68012B07D1474BB3
:101EB4001B6803F40033002B15D101237FE07B68FA
:101EC4005B68022B07D1414B1B6803F00073002BA6
:101ED40009D1012373E03D4B1B6803F00203002B7F
:101EE40001D101236BE0394B5B6823F003027B686B
:101EF4005B68364913434B60FFF704FAF8600AE065
:101F0400FFF700FA0246FB68D31A41F28832934283
:101F140001D9032353E02D4B5B6803F00C027B686B
:101F24005B689B009A42EBD1274B1B6803F00703C5
:101F34003A689A4210D2244B1B6823F007022249C4
:101F44003B6813430B60204B1B6803F007033A689C
:101F54009A4201D0012332E07B681B6803F004033A
:101F6400002B08D0194B5B6823F4E0627B68DB68C4
:101F7400164913434B607B681B6803F00803002B6E
:101F840009D0124B5B6823F460527B681B69DB0049
:101F94000E4913434B6000F021F802460B4B5B687B
:101FA4001B0903F00F030A49CB5C22FA03F3094A25
:101FB4001360094B1B681846FFF762F900231846A3
:101FC4001037BD4680BD00BF002002400010024013
:101FD400583D0008000000200400002080B487B0B1
:101FE40000AF0023FB600023BB6000237B61002360
:101FF4007B6000233B611E4B5B68FB60FB6803F066
:102004000C03042B02D0082B03D027E0194B3B61AF
:1020140027E0FB689B0C03F00F03174AD35C7B603B
:10202400FB6803F48033002B10D0114B5B685B0C0E
:1020340003F00103114AD35CBB607B680D4A03FBC8
:1020440002F2BB68B2FBF3F37B6104E07B680C4AE9
:1020540002FB03F37B617B693B6102E0054B3B615F
:1020640000BF3B6918461C37BD4680BC704700BFA3
:102074000010024000127A00683D0008783D000814
:1020840000093D0080B485B000AF78600A4B1B683E
:102094000A4AA2FB03235B0A7A6802FB03F3FB6090
:1020A40000BFFB685A1EFA60002BF9D100BF00BFC5
:1020B4001437BD4680BC704700000020D34D621029
:1020C40080B582B000AF78607B68002B01D101231A
:1020D40041E07B6893F83D30DBB2002B06D17B688E
:1020E400002283F83C207868FFF716F87B68022208
:1020F40083F83D207B681A687B68043319461046D0
:1021040000F036FC7B68012283F846207B680122BC
:1021140083F83E207B68012283F83F207B680122FC
:1021240083F840207B68012283F841207B680122E8
:1021340083F842207B68012283F843207B680122D4
:1021440083F844207B68012283F845207B680122C0
:1021540083F83D20002318460837BD4680BD0000A3
:1021640080B485B000AF78607B6893F83D30DBB213
:10217400012B01D0012344E07B68022283F83D2037
:102184007B681B68DA687B681B6842F00102DA60CE
:102194007B681B681D4A934218D07B681B681C4AE5
:1021A400934213D07B681B68B3F1804F0ED07B68D9
:1021B4001B68184A934209D07B681B68164A9342ED
:1021C40004D07B681B68154A934211D17B681B6855
:1021D4009B6803F00703FB60FB68062B10D07B6849
:1021E4001B681A687B681B6842F001021A6007E0EA
:1021F4007B681B681A687B681B6842F001021A60DE
:10220400002318461437BD4680BC7047002C01409B
:10221400003401400004004000080040000C00406D
:1022240080B582B000AF78607B68002B01D10123B8
:1022340041E07B6893F83D30DBB2002B06D17B682C
:10224400002283F83C207868FEF78CFF7B6802222A
:1022540083F83D207B681A687B680433194610466E
:1022640000F086FB7B68012283F846207B6801220C
:1022740083F83E207B68012283F83F207B6801229B
:1022840083F840207B68012283F841207B68012287
:1022940083F842207B68012283F843207B68012273
:1022A40083F844207B68012283F845207B6801225F
:1022B40083F83D20002318460837BD4680BD000042
:1022C40080B584B000AF786039603B68002B09D1D9
:1022D4007B6893F83E30DBB2012B14BF012300234B
:1022E400DBB222E03B68042B09D17B6893F83F30D2
:1022F400DBB2012B14BF01230023DBB215E03B68E2
:10230400082B09D17B6893F84030DBB2012B14BF52
:1023140001230023DBB208E07B6893F84130DBB291
:10232400012B14BF01230023DBB2002B01D00123B6
:1023340072E03B68002B04D17B68022283F83E20C4
:1023440013E03B68042B04D17B68022283F83F200E
:102354000BE03B68082B04D17B68022283F8402001
:1023640003E07B68022283F841207B681B6801221A
:102374003968184600F0C4FD7B681B68284A9342FC
:1023840004D07B681B68274A934201D1012300E0F3
:102394000023002B07D07B681B685A6C7B681B6882
:1023A40042F400425A647B681B681D4A934218D069
:1023B4007B681B681B4A934213D07B681B68B3F18C
:1023C400804F0ED07B681B68174A934209D07B6804
:1023D4001B68164A934204D07B681B68144A9342D4
:1023E40011D17B681B689B6803F00703FB60FB68E3
:1023F400062B10D07B681B681A687B681B6842F048
:1024040001021A6007E07B681B681A687B681B6816
:1024140042F001021A60002318461037BD4680BD01
:10242400002C01400034014000040040000800403A
:10243400000C004080B584B000AF78607B681B68F6
:10244400DB68FB607B681B681B69BB60BB6803F0CF
:102454000203002B20D0FB6803F00203002B1BD0E7
:102464007B681B686FF002021A617B6801221A778D
:102474007B681B689B6903F00303002B03D0786817
:1024840000F05AFA05E0786800F04DFA786800F038
:102494005CFA7B6800221A77BB6803F00403002B04
:1024A40020D0FB6803F00403002B1BD07B681B685F
:1024B4006FF004021A617B6802221A777B681B683A
:1024C4009B6903F44073002B03D0786800F034FA5E
:1024D40005E0786800F027FA786800F036FA7B683F
:1024E40000221A77BB6803F00803002B20D0FB6896
:1024F40003F00803002B1BD07B681B686FF00802F5
:102504001A617B6804221A777B681B68DB6903F015
:102514000303002B03D0786800F00EFA05E0786816
:1025240000F001FA786800F010FA7B6800221A774C
:10253400BB6803F01003002B20D0FB6803F01003EA
:10254400002B1BD07B681B686FF010021A617B683C
:1025540008221A777B681B68DB6903F44073002B3D
:1025640003D0786800F0E8F905E0786800F0DBF95A
:10257400786800F0EAF97B6800221A77BB6803F0F8
:102584000103002B0CD0FB6803F00103002B07D0E0
:102594007B681B686FF001021A617868FEF7A4FC7F
:1025A400BB6803F08003002B0CD0FB6803F08003AE
:1025B400002B07D07B681B686FF080021A61786873
:1025C40000F088FDBB6803F04003002B0CD0FB68CF
:1025D40003F04003002B07D07B681B686FF04002B8
:1025E4001A61786800F0BAF9BB6803F02003002B85
:1025F4000CD0FB6803F02003002B07D07B681B681A
:102604006FF020021A61786800F05BFD00BF10379C
:10261400BD4680BD80B586B000AFF860B9607A6011
:102624000023FB75FB6893F83C30012B01D1022396
:10263400AEE0FB68012283F83C207B680C2B00F29F
:102644009F8001A252F823F0812600088527000804
:102654008527000885270008C1260008852700086B
:102664008527000885270008032700088527000818
:10267400852700088527000843270008FB681B6896
:10268400B968184600F0FAF9FB681B689A69FB6898
:102694001B6842F008029A61FB681B689A69FB6830
:1026A4001B6822F004029A61FB681B689969BB6885
:1026B4001A69FB681B680A439A6164E0FB681B683B
:1026C400B968184600F04AFAFB681B689A69FB6807
:1026D4001B6842F400629A61FB681B689A69FB6894
:1026E4001B6822F480629A61FB681B689969BB6865
:1026F4001B691A02FB681B680A439A6143E0FB6882
:102704001B68B968184600F09DFAFB681B68DA6913
:10271400FB681B6842F00802DA61FB681B68DA692F
:10272400FB681B6822F00402DA61FB681B68D96944
:10273400BB681A69FB681B680A43DA6123E0FB681B
:102744001B68B968184600F0F1FAFB681B68DA697F
:10275400FB681B6842F40062DA61FB681B68DA6993
:10276400FB681B6822F48062DA61FB681B68D96924
:10277400BB681B691A02FB681B680A43DA6102E042
:102784000123FB7500BFFB68002283F83C20FB7D1E
:1027940018461837BD4680BD80B584B000AF786058
:1027A40039600023FB737B6893F83C30012B01D123
:1027B4000223B4E07B68012283F83C207B68022278
:1027C40083F83D207B681B689B68BB60BB6823F073
:1027D4007703BB60BB6823F47F43BB607B681B68E3
:1027E400BA689A603B681B68B3F5005F3ED0B3F5E6
:1027F400005F00F28780B3F5805F00F08680B3F558
:10280400805F7FD8702B1AD0702B7BD8602B50D070
:10281400602B77D8502B3CD0502B73D8402B58D0FA
:10282400402B6FD8302B64D0302B6BD8202B60D04A
:10283400202B67D8002B5CD0102B5AD062E07B6829
:1028440018683B6899683B685A683B68DB6800F025
:1028540038FB7B681B689B68BB60BB6843F07703ED
:10286400BB607B681B68BA689A604FE07B68186835
:102874003B6899683B685A683B68DB6800F021FB59
:102884007B681B689A687B681B6842F480429A6084
:102894003CE07B6818683B6859683B68DB681A460B
:1028A40000F098FA7B681B685021184600F0EFFA94
:1028B4002CE07B6818683B6859683B68DB681A46FB
:1028C40000F0B6FA7B681B686021184600F0DFFA56
:1028D4001CE07B6818683B6859683B68DB681A46EB
:1028E40000F078FA7B681B684021184600F0CFFAA4
:1028F4000CE07B681A683B681B681946104600F0B8
:10290400C6FA03E00123FB7300E000BF7B680122E9
:1029140083F83D207B68002283F83C20FB7B18462B
:102924001037BD4680BD80B483B000AF786000BF6F
:102934000C37BD4680BC704780B483B000AF78606C
:1029440000BF0C37BD4680BC704780B483B000AF75
:10295400786000BF0C37BD4680BC704780B483B03C
:1029640000AF786000BF0C37BD4680BC70470000E4
:1029740080B485B000AF786039607B681B68FB6009
:102984007B68394A934213D07B68384A93420FD00C
:102994007B68B3F1804F0BD07B68354A934207D0F4
:1029A4007B68344A934203D07B68334A934208D10C
:1029B400FB6823F07003FB603B685B68FA681343B1
:1029C400FB607B68284A934213D07B68274A934272
:1029D4000FD07B68B3F1804F0BD07B68244A9342BD
:1029E40007D07B68234A934203D07B68224A9342F0
:1029F40008D1FB6823F44073FB603B68DB68FA682A
:102A04001343FB60FB6823F080023B685B6913435C
:102A1400FB607B68FA681A603B689A687B68DA62D4
:102A24003B681A687B689A627B680F4A934203D0BA
:102A34007B680E4A934203D13B681A697B681A6328
:102A44007B6801225A617B681B6903F00103002B38
:102A540005D07B681B6923F001027B681A6100BF03
:102A64001437BD4680BC7047002C0140003401403F
:102A74000004004000080040000C004080B487B00F
:102A840000AF786039607B681B6A7B617B681B6A76
:102A940023F001027B681A627B685B683B617B6898
:102AA4009B69FB60FB6823F07003FB60FB6823F009
:102AB4000303FB603B681B68FA681343FB607B6994
:102AC40023F002037B613B689B687A6913437B6153
:102AD4007B68204A934203D07B681F4A93420CD1FF
:102AE4007B6923F008037B613B68DB687A691343E5
:102AF4007B617B6923F004037B617B68154A934205
:102B040003D07B68144A934211D13B6923F4807348
:102B14003B613B6923F400733B613B685B693A6941
:102B240013433B613B689B693A6913433B617B6890
:102B34003A695A607B68FA689A613B685A687B68AC
:102B44005A637B687A691A6200BF1C37BD4680BC31
:102B5400704700BF002C01400034014080B487B0AE
:102B640000AF786039607B681B6A7B617B681B6A95
:102B740023F010027B681A627B685B683B617B68A8
:102B84009B69FB60FB6823F4E043FB60FB6823F470
:102B94004073FB603B681B681B02FA681343FB60CD
:102BA4007B6923F020037B613B689B681B017A6986
:102BB40013437B617B68214A934203D07B68204A9C
:102BC40093420DD17B6923F080037B613B68DB6812
:102BD4001B017A6913437B617B6923F040037B61AA
:102BE4007B68164A934203D07B68154A934213D1FB
:102BF4003B6923F480633B613B6923F400633B61DD
:102C04003B685B699B003A6913433B613B689B6982
:102C14009B003A6913433B617B683A695A607B685D
:102C2400FA689A613B685A687B689A637B687A6938
:102C34001A6200BF1C37BD4680BC7047002C01409F
:102C44000034014080B487B000AF786039607B689D
:102C54001B6A7B617B681B6A23F480727B681A623F
:102C64007B685B683B617B68DB69FB60FB6823F026
:102C74007003FB60FB6823F00303FB603B681B6885
:102C8400FA681343FB607B6923F400737B613B6840
:102C94009B681B027A6913437B617B68214A9342D8
:102CA40003D07B68204A93420DD17B6923F40063EF
:102CB4007B613B68DB681B027A6913437B617B6938
:102CC40023F480637B617B68164A934203D07B685C
:102CD400154A934213D13B6923F480533B613B690A
:102CE40023F400533B613B685B691B013A6913435E
:102CF4003B613B689B691B013A6913433B617B68F9
:102D04003A695A607B68FA68DA613B685A687B689A
:102D1400DA637B687A691A6200BF1C37BD4680BCDF
:102D2400704700BF002C01400034014080B487B0DC
:102D340000AF786039607B681B6A3B617B681B6A03
:102D440023F480527B681A627B685B687B617B68D2
:102D5400DB69FB60FB6823F4E043FB60FB6823F45E
:102D64004073FB603B681B681B02FA681343FB60FB
:102D74003B6923F400533B613B689B681B033A693E
:102D840013433B617B68114A934203D07B68104A2A
:102D9400934209D17B6923F480437B613B685B697F
:102DA4009B017A6913437B617B687A695A607B680B
:102DB400FA68DA613B685A687B681A647B683A6926
:102DC4001A6200BF1C37BD4680BC7047002C01400E
:102DD4000034014080B487B000AFF860B9607A6015
:102DE400FB681B6A7B61FB681B6A23F00102FB68BA
:102DF4001A62FB689B693B613B6923F0F0033B610A
:102E04007B681B013A6913433B617B6923F00A0326
:102E14007B617A69BB6813437B61FB683A699A6199
:102E2400FB687A691A6200BF1C37BD4680BC7047D4
:102E340080B487B000AFF860B9607A60FB681B6A41
:102E44007B61FB681B6A23F01002FB681A62FB6853
:102E54009B693B613B6923F470433B617B681B03C3
:102E64003A6913433B617B6923F0A0037B61BB6830
:102E74001B017A6913437B61FB683A699A61FB68B9
:102E84007A691A6200BF1C37BD4680BC704780B4A3
:102E940085B000AF786039607B689B68FB60FB6835
:102EA40023F07003FB603A68FB68134343F00703A5
:102EB400FB607B68FA689A6000BF1437BD4680BC2B
:102EC400704780B487B000AFF860B9607A603B6047
:102ED400FB689B687B617B6923F47F437B613B6870
:102EE4001A027B681A43BB6813437A6913437B61F4
:102EF400FB687A699A6000BF1C37BD4680BC704786
:102F040080B487B000AFF860B9607A60BB6803F042
:102F14001F03012202FA03F37B61FB681A6A7B69CF
:102F2400DB431A40FB681A62FB681A6ABB6803F049
:102F34001F03796801FA03F31A43FB681A6200BF9E
:102F44001C37BD4680BC704780B485B000AF786044
:102F540039607B6893F83C30012B01D1022350E0A7
:102F64007B68012283F83C207B68022283F83D20A1
:102F74007B681B685B68FB607B681B689B68BB6045
:102F8400FB6823F07003FB603B681B68FA6813431B
:102F9400FB607B681B68FA685A607B681B681B4A85
:102FA400934218D07B681B68194A934213D07B68FC
:102FB4001B68B3F1804F0ED07B681B68154A93429F
:102FC40009D07B681B68144A934204D07B681B6851
:102FD400124A93420CD1BB6823F08003BB603B6868
:102FE4005B68BA681343BB607B681B68BA689A6005
:102FF4007B68012283F83D207B68002283F83C2013
:10300400002318461437BD4680BC7047002C01408D
:10301400003401400004004000080040000C00405F
:1030240080B485B000AF786039600023FB607B68B2
:1030340093F83C30012B01D102233DE07B6801224F
:1030440083F83C20FB6823F0FF023B68DB681343F2
:10305400FB60FB6823F440723B689B681343FB608E
:10306400FB6823F480623B685B681343FB60FB6886
:1030740023F400623B681B681343FB60FB6823F482
:1030840080523B681B691343FB60FB6823F40052C6
:103094003B685B691343FB60FB6823F480423B6835
:1030A400DB691343FB607B681B68FA685A647B68BE
:1030B400002283F83C20002318461437BD4680BC08
:1030C400704780B483B000AF786000BF0C37BD4652
:1030D40080BC704780B483B000AF786000BF0C3709
:1030E400BD4680BC704703460244934200D17047FA
:1030F40003F8011BF9E7000070B500260C4D0D4CD8
:10310400641BA410A64209D100F018FE00260A4D43
:103114000A4C641BA410A64205D170BD55F8043BAB
:1031240098470136EEE755F8043B98470136F2E735
:103134004C4100084C4100084C4100085041000833
:1031440007B51A4A20F000439342014605D80021EE
:1031540003B05DF804EB00F065B8B3F1FF4F04D39E
:10316400FDF762F803B05DF804FB694600F050F91E
:1031740000F00302012A07D0022A0CD082B9019977
:10318400009800F04FF8EDE70199009800F0CAF8B4
:1031940000F10040E6E70199009800F043F8F7E7F2
:1031A40001220199009800F0BDF8DBE7D80F493FF0
:1031B40007B51B4A20F000439342014606D800227B
:1031C400002103B05DF804EB00F0ACB8B3F1FF4F9D
:1031D40004D3FDF729F803B05DF804FB694600F059
:1031E40017F900F00300012808D002280BD090B989
:1031F40001220199009800F095F8ECE701990098F4
:1032040000F010F8E7E701220199009800F08AF82D
:1032140000F10040DFE70199009800F003F8F7E7B8
:10322400D80F493F2DE9F04120F00045B5F1485F42
:103234000646884603D2FDF7C7FA00285CD031461B
:103244003046FDF7FBF84FF07C510446FDF7F6F8E5
:103254002B4907462046FDF7F1F82A49FCF7E6FF1B
:103264002146FDF7EBF82849FCF7DEFF2146FDF780
:10327400E5F82649FCF7DAFF2146FDF7DFF8244993
:10328400FCF7D2FF2146FDF7D9F82249FCF7CEFF1F
:103294002146FDF7D3F82146FDF7D0F84146044610
:1032A4003046FDF7CBF801462046FCF7BDFF1A4B2C
:1032B40004469D420AD801463846FCF7B5FF01464C
:1032C4004FF07E50FCF7B0FFBDE8F081134B4FF098
:1032D4007E509D428CBF124D05F17F452946FCF777
:1032E400A3FF294606463846FCF79EFF2146FCF715
:1032F4009BFF01463046E5E74FF07E50E4E700BF10
:103304004ED747ADF6740F317CF29334010DD037AC
:10331400610BB63AABAA2A3D9999993E0000483F01
:103324000000903E2DE9F84320F00043B3F1485FDC
:1033340004460F46914603D2FDF746FA002835D0DD
:1033440021462046FDF77AF8054601462046FDF75A
:1033540075F8294906462846FDF770F82749FCF711
:1033640063FF2946FDF76AF82549FCF75FFF294604
:10337400FDF764F82349FCF757FF2946FDF75EF88B
:103384002149FCF753FF8046B9F1000F11D10146E2
:103394002846FDF753F81D49FCF746FF3146FDF773
:1033A4004DF801462046FCF741FF04462046BDE89F
:1033B400F8834FF07C513846FDF740F8414681468A
:1033C4003046FDF73BF801464846FCF72DFF2946F9
:1033D400FDF734F83946FCF727FF0C49054630461B
:1033E400FDF72CF801462846FCF720FF014620464D
:1033F400FCF71AFFD9E700BFD3C92E2F342FD732D9
:103404001BEF3836010D50398988083CABAA2A3E97
:103414002DE9F04FA44A20F0004890450C4682461E
:1034240087B004D8002308604B6000251DE09F4A44
:1034340090454FD820F0004500289D499D4F25F028
:103444000F0524DDFCF7F0FEBD42064611D09A4973
:10345400FCF7EAFE014605463046FCF7E5FE9649D0
:10346400FCF7E2FE256001256060284607B0BDE850
:10347400F08F9249FCF7D8FE91490646FCF7D4FE3A
:10348400014605463046FCF7CFFE8D49E8E7FCF7D8
:10349400CDFEBD4206460FD08749FCF7C7FE014664
:1034A40005463046FCF7C0FE8349FCF7BFFE2560A5
:1034B40060604FF0FF35D8E78049FCF7B7FE8049DC
:1034C4000646FCF7B3FE014605463046FCF7ACFE63
:1034D4007B49EAE77B4A904500F2958000F0FEF8CC
:1034E40079490646FCF7AAFF4FF07C51FCF79EFE93
:1034F400FDF76AF90546FCF74DFF6D498146FCF777
:103504009DFF01463046FCF78FFE6B49074648464F
:10351400FCF794FF1F2D06460EDC6C4A691E52F818
:1035240021202AF0004323F0FF03934204D03146C4
:103534003846FCF779FE0BE031463846FCF774FE5A
:10354400C0F3C753C3EBD853082B4FEAE85B01DC45
:10355400206026E059494846FCF770FF06460146BC
:103564003846FCF761FE014680463846FCF75CFEAF
:103574003146FCF759FE064651494846FCF75EFFC2
:103584003146FCF751FE014606464046FCF74CFE28
:10359400C0F3C753ABEB030BBBF1190F18DC474661
:1035A4002060D4F8008038464146FCF73DFE3146A1
:1035B400FCF73AFEBAF1000F6060BFF656AF08F1AF
:1035C400004800F10040C4F8008060606D424CE7A0
:1035D4003F494846FCF732FF064601464046FCF7A1
:1035E40023FE014607464046FCF71EFE3146FCF723
:1035F4001BFE064637494846FCF720FF3146FCF7D8
:1036040013FE064693E7B8F1FF4F05D30146FCF7D6
:103614000BFE6060206008E74FEAE856863EA8EBA0
:10362400C6584046FDF7D0F8FCF7B4FE01460390B7
:103634004046FCF7F9FD4FF08741FCF7FFFE0746D3
:10364400FDF7C2F8FCF7A6FE01460490054638468D
:10365400FCF7EAFD4FF08741FCF7F0FE00210590EE
:10366400FDF780F8F0B100212846FDF77BF800282B
:1036740014BF01230223184A21460192022203A8FF
:103684000092324600F02EF8BAF1000F0546BFF65C
:10369400ECAE236803F100432360636803F1004345
:1036A400636093E70323E6E7D80F493FE3CB164073
:1036B400800FC93FD00FC93F4344353700443537E5
:1036C40008A3852E800F494384F9223F7C3D0008DE
:1036D40000A3852E32318D24FC3D000820F00040EB
:1036E400704700002DE9F04FDBB002920493649A16
:1036F400AC4B059053F8223000910193049B013B9D
:103704000393029B1A1DC0F29980DC1E48BF1C1D46
:10371400E41000254FF0000B671CFB000693029B8E
:10372400039AA3EBC707019BA4EB020803EB02096E
:10373400659B1EAE03EB880A4D4540F38180049AD5
:103744001EAB03EB82054FF0000900230DF58C7AC4
:10375400019A914540F39A8013460AAA02EB830327
:103764000893659B03EB8403019C07930DF12808E0
:10377400464625464FF087495AAB03EB840353F87A
:1037840050BC0DF58C7A002D00F3858039465846DF
:1037940000F046FA4FF078510546FCF74FFE00F072
:1037A4008BFA4FF08241FCF749FE01462846FCF7AC
:1037B4003BFD0546FDF708F80646FCF7EBFD014620
:1037C4002846FCF731FD002F814640F38180621EBC
:1037D4000AAB53F82250C7F1080145FA01F31E441D
:1037E4008B40ED1A0AAB43F82250C7F107031D4181
:1037F400002D7ADD002292460136944200F3AA801D
:10380400002F05DD012F00F0B680022F00F0BD80EF
:10381400022D6AD149464FF07E50FCF705FD8146E2
:10382400BAF1000F61D039464FF07E5000F0F8F93C
:1038340001464846FCF7F8FC814656E0002468E758
:1038440018EB050F07D45AF82500FCF7A3FD46F83A
:10385400040B013570E75846F9E70793059B5BF8BD
:10386400041D53F82800FCF7E9FD01463046FCF737
:10387400DDFC0646079B08F10108039A9045ECDD40
:103884004AF8046B09F10109043561E7AB461E46A9
:103894004FF00008F1E74FF06E515846FCF7CEFDAB
:1038A400FCF792FFFCF776FD49460990FCF7C6FD4C
:1038B40001465846FCF7B8FCFCF786FF013D46F884
:1038C400040B5AF825100998FCF7B0FC83465AE714
:1038D40005D1631E0AAA52F82350ED1188E74FF070
:1038E4007C51FCF75DFF054690BB00214846FCF780
:1038F40039FF002800F090800022631E01998B425A
:103904004ADA002A76D0013C0AAB53F82430083F47
:10391400002BF8D039464FF07E5000F081F9A246D2
:1039240007464FF06E590DF58C78BAF1000F80F20E
:10393400A18027460022002FC0F2CB8046A99046E2
:103944004FF0000A184B01EB870BA4EB0709B4E016
:1039540002254FE758F8043BBAF1000F08D123B110
:10396400C3F5807348F8043C01239A46013244E7C6
:10397400C3F1FF03F6E7621E0AAB53F8223003F0EB
:103984007F030AA941F8223042E7621E0AAB53F8CA
:10399400223003F03F03F4E70AA951F82310013B56
:1039A4000A43ABE74041000814410008013352F8D0
:1039B400041D0029FAD0049A1EA9A218661C01EB62
:1039C40082051C440DF58C79B442FFF6CFAE079BFB
:1039D400AB4653F82600FCF7DDFC4FF0000A4FF02D
:1039E40000082860039B9A4507DD49F826800435C2
:1039F4000136E9E70123089AD9E7059B5BF8040936
:103A040053F82A10FCF71AFD01464046FCF70EFC59
:103A14000AF1010A8046E5E7069B029A4846991A8C
:103A240000F0FEF84FF087418046FCF7B9FEF8B18C
:103A34004FF06E514046FCF701FDFCF7C5FEFCF764
:103A4400A9FC4FF087418146FCF7F8FC014640464B
:103A5400FCF7EAFBFCF7B8FE0AAB43F8240048463F
:103A640001340837FCF7B0FE0AAB43F8240051E7F1
:103A74004046F7E70AAB53F82A00FCF78BFC3946BB
:103A8400FCF7DCFC494648F82A003846FCF7D6FC2B
:103A94000AF1FF3A074648E753F8040B5BF8041BA6
:103AA40003920293FCF7CAFC01464046FCF7BEFBB6
:103AB400DDE9023280460AF1010A01998A4501DCF6
:103AC400CA45E9DD5AAB03EB890949F8A08C013FEB
:103AD40031E7649B022B07DC002B4EDC2ED006F072
:103AE40007005BB0BDE8F08F649B032BF7D10DF1A9
:103AF400C80B0BEB8407B846A246BAF1000F49DCA9
:103B0400A146B9F1010F60DC0020012C76DC329A69
:103B1400339B002D78D100990A600A464B6090606F
:103B2400DDE757F82410FCF781FB013C002CF8DAA0
:103B34000DB100F10040009B1860D0E7002032AFC7
:103B4400F4E757F82810FCF771FB08F1FF38B8F1D7
:103B5400000FF6DAADB100F10043009A014613609C
:103B64003298FCF761FB4FF0010844450BDA0DB1C4
:103B740000F10040009B5860B1E7A046002032AF3E
:103B8400E5E70346E9E757F8041FFCF74FFB08F1A4
:103B94000108EAE7D8F8003058F8042C1946104612
:103BA40002930192FCF742FB019A014681461046BA
:103BB400FCF73AFB029B0AF1FF3A1946FCF736FB85
:103BC40048F80409C8F8009097E757F8043CD7F878
:103BD40000A0184651460193FCF728FB019B0146BF
:103BE40080461846FCF720FB5146FCF71FFB47F8BC
:103BF400040909F1FF39C7F8008082E75BF8241053
:103C0400FCF714FB013C80E7009902F1004203F148
:103C140000430A604B600A4600F100407FE700BFA2
:103C240030F0004238B503460D4604462ED0B2F1BA
:103C3400FF4F04D30146FCF7F9FA034626E010F0DF
:103C4400FF4F18D14FF09841FCF7F8FB174A034691
:103C540095420CDB0446C0F3C752193A4CF250317A
:103C64008D420ADD1249184661F31E0000E0114935
:103C7400FCF7E4FBE1E7D20DF0E75119FE29F1DC92
:103C8400002905DD24F0FF4444EAC153184638BD39
:103C940011F1160F01DA0749E5E701F1190024F0E3
:103CA400FF444FF04C5144EAC050E1E7B03CFFFF01
:103CB400CAF249716042A20D70B5C0F3C7557F3D89
:103CC400162D0146044620F0004626DC002D0FDAAE
:103CD4001749FCF7ABFA0021FCF76CFD30B1002C5E
:103CE40023DA002E134C08BF4FF0004421461AE09B
:103CF400114E2E41304216D00D49FCF797FA00219F
:103D0400FCF758FD0028F1D0002CBEBF4FF400038F
:103D14002B41E41824EA0604E8E7B6F1FF4F02D386
:103D2400FCF784FA0146084670BD0024DEE700BFB4
:103D3400CAF24971000080BFFFFF7F00F8B500BFE1
:103D4400F8BC08BC9E467047F8B500BFF8BC08BC78
:043D54009E467047D0
:103D58000000000000000000010203040607080933
:103D680002030405060708090A0B0C0D0E0F1010B4
:103D780001020000000FC93F000F494000CB9640E8
:103D8800000FC9400053FB4000CB164100ED2F4106
:103D9800000F49410031624100537B41003A8A419A
:103DA80000CB9641005CA34100EDAF41007EBC41D1
:103DB800000FC94100A0D5410031E24100C2EE41E7
:103DC8000053FB4100F20342003A0A4200831042CA
:103DD80000CB164200141D42005C234200A5294274
:103DE80000ED2F4200363642007E3C4200C7424278
:103DF800000F4942A2000000F90000008300000003
:103E08006E0000004E000000440000001500000095
:103E180029000000FC0000002700000057000000F7
:103E2800D1000000F500000034000000DD000000B3
:103E3800C0000000DB0000006200000095000000E8
:103E4800990000003C0000004300000090000000C2
:103E580041000000FE000000510000006300000067
:103E6800AB000000DE000000BB000000C500000041
:103E780061000000B7000000240000006E00000090
:103E88003A000000420000004D000000D20000008F
:103E9800E000000006000000490000002E000000BD
:103EA800EA00000009000000D100000092000000B4
:103EB8001C000000FE0000001D000000EB000000D8
:103EC8001C000000B100000029000000A70000004D
:103ED8003E000000E80000008200000035000000FD
:103EE800F50000002E000000BB00000044000000A8
:103EF80084000000E90000009C0000007000000041
:103F080026000000B40000005F0000007E000000F2
:103F1800410000003900000091000000D6000000B8
:103F28003900000083000000530000003900000041
:103F3800F40000009C000000840000005F00000006
:103F48008B000000BD000000F90000002800000000
:103F58003B0000001F000000F80000009700000070
:103F6800FF000000DE0000000500000098000000CF
:103F78000F000000EF0000002F00000011000000FB
:103F88008B0000005A0000000A0000006D000000CD
:103F98001F0000006D000000360000007E000000D9
:103FA800CF00000027000000CB000000090000003F
:103FB800B70000004F000000460000003F0000006E
:103FC800660000009E0000005F000000EA0000009C
:103FD8002D0000007500000027000000BA00000056
:103FE800C7000000EB000000E5000000F100000041
:103FF8007B0000003D0000000700000039000000C1
:10400800F70000008A000000520000009200000043
:10401800EA0000006B000000FB0000005F000000E9
:10402800B10000001F0000008D0000005D000000CE
:1040380008000000560000000300000030000000E7
:1040480046000000FC0000007B0000006B00000040
:10405800AB000000F0000000CF000000BC00000032
:10406800200000009A000000F40000003600000064
:104078001D000000A9000000E300000091000000FE
:10408800610000005E000000E60000001B00000068
:10409800080000006500000099000000850000008D
:1040A8005F00000014000000A0000000680000008D
:1040B800400000008D000000FF000000D800000054
:1040C800800000004D000000730000002700000081
:1040D8003100000006000000060000001500000086
:1040E80056000000CA00000073000000A80000008D
:1040F800C900000060000000E20000007B00000032
:10410800C00000008C0000006B0000000000C93FE8
:104118000000F0390000DA370000A2330000842ED6
:104128000000502B0000C2270000D0220000C41F4E
:104138000000C61B00004417040000000700000030
:04414800090000006A
:04414C00090200085C
:04415000E50100087D
:0C41540000127A001000000001000000C2
:040000050800120DD0
:00000001FF
