:020000040800F2
:1000000000C00020BD220008ED1C0008F51C0008FF
:10001000FD1C0008051D00080D1D00080000000063
:10002000000000000000000000000000151D000896
:10003000211D0008000000002D1D0008391D0008CA
:1000400005230008052300080523000805230008F0
:1000500005230008052300080523000805230008E0
:1000600005230008052300080523000805230008D0
:1000700005230008052300080523000805230008C0
:1000800005230008052300080523000805230008B0
:1000900005230008052300080523000805230008A0
:1000A0000523000805230008052300080523000890
:1000B00005230008451D0008052300080523000846
:1000C0000523000805230008052300080523000870
:1000D00005230008591D0008052300080523000812
:1000E0000523000805230008052300080523000850
:1000F0000523000805230008052300080523000840
:10010000052300080523000805230008052300082F
:10011000052300080523000805230008052300081F
:10012000052300080523000805230008052300080F
:1001300000000000000000000000000000000000BF
:1001400000000000000000000000000000000000AF
:10015000000000000000000000000000000000009F
:10016000000000000000000000000000000000008F
:10017000000000000000000000000000000000007F
:10018000000000000000000000000000000000006F
:10019000000000000000000000000000000000005F
:1001A000000000000000000000000000000000004F
:1001B000000000000000000000000000000000003F
:1001C000000000000000000000000000000000002F
:1001D000000000000000000000000000000000001F
:0401E0005FF8E0F1F3
:1001E80010B5054C237833B9044B13B10448AFF369
:1001F80000800123237010BDD401002000000000FE
:10020800E4A8000808B5034B1BB103490348AFF342
:10021800008008BD00000000D8010020E4A8000804
:10022800034613F8012B002AFBD1181A013870472E
:1002380081F0004102E000BF83F0004330B54FEA8F
:1002480041044FEA430594EA050F08BF90EA020FFC
:100258001FBF54EA000C55EA020C7FEA645C7FEA8F
:10026800655C00F0E2804FEA5454D4EB5555B8BFB2
:100278006D420CDD2C4480EA020281EA030382EA23
:10028800000083EA010180EA020281EA0303362DB5
:1002980088BF30BD11F0004F4FEA01314FF4801C88
:1002A8004CEA113102D0404261EB410113F0004F9A
:1002B8004FEA03334CEA133302D0524263EB430351
:1002C80094EA050F00F0A780A4F10104D5F1200EEF
:1002D8000DDB02FA0EFC22FA05F2801841F100014A
:1002E80003FA0EF2801843FA05F359410EE0A5F11E
:1002F80020050EF1200E012A03FA0EFC28BF4CF04F
:10030800020C43FA05F3C01851EBE37101F0004504
:1003180007D54FF0000EDCF1000C7EEB00006EEB11
:100328000101B1F5801F1BD3B1F5001F0CD349089B
:100338005FEA30004FEA3C0C04F101044FEA4452F2
:1003480012F5800F80F09A80BCF1004F08BF5FEA79
:10035800500C50F1000041EB045141EA050130BD59
:100368005FEA4C0C404141EB0101013C28BFB1F56B
:10037800801FE9D291F0000F04BF01460020B1FAB6
:1003880081F308BF2033A3F10B03B3F120020CDA89
:100398000C3208DD02F1140CC2F10C0201FA0CF067
:1003A80021FA02F10CE002F11402D8BFC2F1200CCC
:1003B80001FA02F120FA0CFCDCBF41EA0C01904082
:1003C800E41AA2BF01EB0451294330BD6FEA0404CB
:1003D8001F3C1CDA0C340EDC04F11404C4F12002B6
:1003E80020FA04F001FA02F340EA030021FA04F3C8
:1003F80045EA030130BDC4F10C04C4F1200220FA1F
:1004080002F001FA04F340EA0300294630BD21FA5C
:1004180004F0294630BD94F0000F83F4801306BF22
:1004280081F480110134013D4EE77FEA645C18BF16
:100438007FEA655C29D094EA050F08BF90EA020FAD
:1004480005D054EA000C04BF1946104630BD91EAA5
:10045800030F1EBF0021002030BD5FEA545C05D1A8
:100468004000494128BF41F0004130BD14F58004E7
:100478003CBF01F5801130BD01F0004545F0FE415B
:1004880041F470014FF0000030BD7FEA645C1ABF90
:10049800194610467FEA655C1CBF0B46024650EAC7
:1004A800013406BF52EA033591EA030F41F40021F3
:1004B80030BD00BF90F0000F04BF0021704730B579
:1004C8004FF4806404F132044FF000054FF000014E
:1004D80050E700BF90F0000F04BF0021704730B50F
:1004E8004FF4806404F1320410F0004548BF4042E4
:1004F8004FF000013EE700BF42004FEAE2014FEA39
:1005080031014FEA02701FBF12F07F4393F07F4F13
:1005180081F06051704732F07F4208BF704793F016
:100528007F4F04BF41F40021704730B54FF4607429
:1005380001F0004521F000411CE700BF50EA01022C
:1005480008BF704730B54FF000050AE050EA0102D5
:1005580008BF704730B511F0004502D5404261EB45
:1005680041014FF4806404F132045FEA915C3FF486
:10057800D8AE4FF003025FEADC0C18BF03325FEA23
:10058800DC0C18BF033202EBDC02C2F1200300FAD4
:1005980003FC20FA02F001FA03FE40EA0E0021FAF9
:1005A80002F11444BDE600BF70B54FF0FF0C4CF4E7
:1005B800E06C1CEA11541DBF1CEA135594EA0C0F99
:1005C80095EA0C0F00F0DEF82C4481EA030621EAD4
:1005D8004C5123EA4C5350EA013518BF52EA03350F
:1005E80041F4801143F4801338D0A0FB02CE4FF0C1
:1005F8000005E1FB02E506F00042E0FB03E54FF0F1
:100608000006E1FB03569CF0000F18BF4EF0010EE8
:10061800A4F1FF04B6F5007F64F5407404D25FEAE4
:100628004E0E6D4146EB060642EAC62141EA555197
:100638004FEAC52040EA5E504FEACE2EB4F1FD0CD9
:1006480088BFBCF5E06F1ED8BEF1004F08BF5FEA57
:10065800500E50F1000041EB045170BD06F0004609
:1006680046EA010140EA020081EA0301B4EB5C04B6
:10067800C2BFD4EB0C0541EA045170BD41F48011AE
:100688004FF0000E013C00F3AB8014F1360FDEBFD3
:10069800002001F0004170BDC4F10004203C35DAAF
:1006A8000C341BDC04F11404C4F1200500FA05F332
:1006B80020FA04F001FA05F240EA020001F00042D3
:1006C80021F0004110EBD37021FA04F642EB060149
:1006D8005EEA430E08BF20EAD37070BDC4F10C0473
:1006E800C4F1200500FA04F320FA05F001FA04F237
:1006F80040EA020001F0004110EBD37041F1000123
:100708005EEA430E08BF20EAD37070BDC4F120052D
:1007180000FA05F24EEA020E20FA04F301FA05F295
:1007280043EA020321FA04F001F0004121FA04F23D
:1007380020EA020000EBD3705EEA430E08BF20EA0D
:10074800D37070BD94F0000F0FD101F00046400047
:1007580041EB010111F4801F08BF013CF7D041EAC9
:10076800060195F0000F18BF704703F000465200CD
:1007780043EB030313F4801F08BF013DF7D043EA9E
:100788000603704794EA0C0F0CEA135518BF95EA54
:100798000C0F0CD050EA410618BF52EA4306D1D1DB
:1007A80081EA030101F000414FF0000070BD50EAFA
:1007B800410606BF1046194652EA430619D094EA84
:1007C8000C0F02D150EA013613D195EA0C0F05D16E
:1007D80052EA03361CBF104619460AD181EA0301C2
:1007E80001F0004141F0FE4141F470014FF000007A
:1007F80070BD41F0FE4141F4780170BD70B54FF015
:10080800FF0C4CF4E06C1CEA11541DBF1CEA135594
:1008180094EA0C0F95EA0C0F00F0A7F8A4EB050476
:1008280081EA030E52EA03354FEA013100F088806D
:100838004FEA03334FF0805545EA131343EA126336
:100848004FEA022245EA111545EA10654FEA0026EB
:100858000EF000419D4208BF964244F1FD0404F5A4
:10086800407402D25B084FEA3202B61A65EB030500
:100878005B084FEA32024FF480104FF4002CB6EBBD
:10088800020E75EB030E22BFB61A754640EA0C003D
:100898005B084FEA3202B6EB020E75EB030E22BF7D
:1008A800B61A754640EA5C005B084FEA3202B6EBBE
:1008B800020E75EB030E22BFB61A754640EA9C007D
:1008C8005B084FEA3202B6EB020E75EB030E22BF4D
:1008D800B61A754640EADC0055EA060E18D04FEA0B
:1008E800051545EA16754FEA06164FEAC30343EAAB
:1008F80052734FEAC2025FEA1C1CC0D111F4801F78
:100908000BD141EA00014FF000004FF0004CB6E770
:1009180011F4801F04BF01430020B4F1FD0C88BF0F
:10092800BCF5E06F3FF6AFAEB5EB030C04BFB6EB1A
:10093800020C5FEA500C50F1000041EB045170BD0D
:100948000EF0004E4EEA113114EB5C04C2BFD4EB3A
:100958000C0541EA045170BD41F480114FF0000EBE
:10096800013C90E645EA060E8DE60CEA135594EA3A
:100978000C0F08BF95EA0C0F3FF43BAF94EA0C0F3D
:100988000AD150EA01347FF434AF95EA0C0F7FF4B2
:1009980025AF104619462CE795EA0C0F06D152EA06
:1009A80003353FF4FDAE1046194622E750EA4106EA
:1009B80018BF52EA43067FF4C5AE50EA41047FF4FB
:1009C8000DAF52EA43057FF4EBAE12E74FF0FF3C60
:1009D80006E000BF4FF0010C02E000BF4FF0010C31
:1009E8004DF804CD4FEA410C7FEA6C5C4FEA430CAA
:1009F80018BF7FEA6C5C1BD001B050EA410C0CBFF9
:100A080052EA430C91EA030F02BF90EA020F00205A
:100A1800704710F1000F91EA030F58BF994208BFC1
:100A280090422CBFD8176FEAE37040F0010070477E
:100A38004FEA410C7FEA6C5C02D150EA013C07D1D5
:100A48004FEA430C7FEA6C5CD6D152EA033CD3D020
:100A58005DF8040B704700BF8446104662468C461A
:100A68001946634600E000BF01B5FFF7B7FF00284D
:100A780048BF10F1000F01BD4DF808EDFFF7F4FF76
:100A88000CBF012000205DF808FB00BF4DF808ED01
:100A9800FFF7EAFF34BF012000205DF808FB00BF24
:100AA8004DF808EDFFF7E0FF94BF012000205DF846
:100AB80008FB00BF4DF808EDFFF7CEFF94BF0120FB
:100AC80000205DF808FB00BF4DF808EDFFF7C4FFF4
:100AD80034BF012000205DF808FB00BF4FEA410C3D
:100AE8007FEA6C5C02D150EA013C0AD14FEA430C20
:100AF8007FEA6C5C02D152EA033C02D14FF000005D
:100B080070474FF0010070474FEA410212F500129A
:100B180015D211D56FF47873B3EB625212D94FEA3C
:100B2800C12343F0004343EA505311F0004F23FA26
:100B380002F018BF404270474FF00000704750EA7B
:100B4800013005D111F0004008BF6FF00040704738
:100B58004FF00000704700BF4A0011D212F5001292
:100B680011D20DD56FF47873B3EB62520ED44FEAFD
:100B7800C12343F0004343EA505323FA02F070477D
:100B88004FF00000704750EA013002D14FF0FF30BB
:100B980070474FF0000070474FEA4102B2F1E0435E
:100BA80024BFB3F5001CDCF1FE5C0DD901F0004C4C
:100BB8004FEAC0024CEA5070B2F1004F40EB83009C
:100BC80008BF20F00100704711F0804F21D113F1C8
:100BD8003872BCBF01F00040704741F480114FEA01
:100BE8005252C2F11802C2F1200C10FA0CF320FA8A
:100BF80002F018BF40F001004FEAC1234FEAD323A7
:100C080003FA0CFC40EA0C0023FA02F34FEA430310
:100C1800CCE77FEA625307D150EA01331EBF4FF099
:100C2800FE4040F44000704701F0004040F0FE40B4
:100C380040F40000704700BF80F0004002E000BFB1
:100C480081F0004142001FBF5FEA410392EA030FAF
:100C58007FEA226C7FEA236C6AD04FEA1262D2EBF9
:100C68001363C1BFD218414048404140B8BF5B42FE
:100C7800192B88BF704710F0004F40F4000020F097
:100C88007F4018BF404211F0004F41F4000121F0AD
:100C98007F4118BF494292EA030F3FD0A2F10102F7
:100CA80041FA03FC10EB0C00C3F1200301FA03F135
:100CB80000F0004302D5494260EB4000B0F5000F58
:100CC80013D3B0F1807F06D340084FEA310102F117
:100CD8000102FE2A51D2B1F1004F40EBC25008BFC9
:100CE80020F0010040EA03007047490040EB000093
:100CF800013A28BFB0F5000FEDD2B0FA80FCACF194
:100D0800080CB2EB0C0200FA0CF0AABF00EBC250C0
:100D180052421843BCBFD0401843704792F0000FAE
:100D280081F4000106BF80F400000132013BB5E701
:100D38004FEA41037FEA226C18BF7FEA236C21D077
:100D480092EA030F04D092F0000F08BF08467047DC
:100D580090EA010F1CBF0020704712F07F4F04D1AA
:100D6800400028BF40F00040704712F100723CBFBD
:100D780000F50000704700F0004343F0FE4040F4E7
:100D8800000070477FEA226216BF08467FEA2363A5
:100D98000146420206BF5FEA412390EA010F40F490
:100DA800800070474FF0000304E000BF10F00043DC
:100DB80048BF40425FEA000C08BF704743F09643C3
:100DC80001464FF000001CE050EA010208BF7047DE
:100DD8004FF000030AE000BF50EA010208BF704765
:100DE80011F0004302D5404261EB41015FEA010C7A
:100DF80002BF84460146002043F0B64308BFA3F172
:100E08008053A3F50003BCFA8CF2083AA3EBC25353
:100E180010DB01FA02FC634400FA02FCC2F1200272
:100E2800BCF1004F20FA02F243EB020008BF20F0A9
:100E38000100704702F1200201FA02FCC2F120020F
:100E480050EA4C0021FA02F243EB020008BF20EA04
:100E5800DC7070474FF0FF0C1CEAD0521EBF1CEA32
:100E6800D15392EA0C0F93EA0C0F6FD01A4480EA20
:100E7800010C400218BF5FEA41211ED04FF0006309
:100E880043EA501043EA5111A0FB01310CF0004035
:100E9800B1F5000F3EBF490041EAD3715B0040EA5B
:100EA800010062F17F02FD2A1DD8B3F1004F40EB2B
:100EB800C25008BF20F00100704790F0000F0CF0FE
:100EC800004C08BF49024CEA502040EA51207F3AC2
:100ED800C2BFD2F1FF0340EAC250704740F400009D
:100EE8004FF00003013A5DDC12F1190FDCBF00F08E
:100EF80000407047C2F10002410021FA02F1C2F13C
:100F0800200200FA02FC5FEA310040F1000053EAD7
:100F18004C0308BF20EADC70704792F0000F00F025
:100F2800004C02BF400010F4000F013AF9D040EA2B
:100F38000C0093F0000F01F0004C02BF490011F4BF
:100F4800000F013BF9D041EA0C018FE70CEAD153BD
:100F580092EA0C0F18BF93EA0C0F0AD030F0004C3D
:100F680018BF31F0004CD8D180EA010000F00040F1
:100F7800704790F0000F17BF90F0004F084691F0AF
:100F8800000F91F0004F14D092EA0C0F01D14202E9
:100F98000FD193EA0C0F03D14B0218BF084608D1B2
:100FA80080EA010000F0004040F0FE4040F40000FC
:100FB800704740F0FE4040F4400070474FF0FF0C8F
:100FC8001CEAD0521EBF1CEAD15392EA0C0F93EAD6
:100FD8000C0F69D0A2EB030280EA010C49024FEA28
:100FE800402037D04FF0805343EA111143EA1013E1
:100FF8000CF000408B4238BF5B0042F17D024FF499
:10100800000C8B4224BF5B1A40EA0C00B3EB510F73
:1010180024BFA3EB510340EA5C00B3EB910F24BF5C
:10102800A3EB910340EA9C00B3EBD10F24BFA3EBE1
:10103800D10340EADC001B0118BF5FEA1C1CE0D1A9
:10104800FD2A3FF650AF8B4240EBC25008BF20F05C
:10105800010070470CF0004C4CEA50207F32C2BFB0
:10106800D2F1FF0340EAC250704740F400004FF04D
:101078000003013A37E792F0000F00F0004C02BF7E
:10108800400010F4000F013AF9D040EA0C0093F048
:10109800000F01F0004C02BF490011F4000F013BA2
:1010A800F9D041EA0C0195E70CEAD15392EA0C0F0A
:1010B80008D142027FF47DAF93EA0C0F7FF470AF42
:1010C800084676E793EA0C0F04D14B023FF44CAF85
:1010D80008466EE730F0004C18BF31F0004CCAD11A
:1010E80030F000427FF45CAF31F000437FF43CAF56
:1010F8005FE700BF4FF0FF3C06E000BF4FF0010C78
:1011080002E000BF4FF0010C4DF804CD4FEA400259
:101118004FEA41037FEA226C18BF7FEA236C11D0A3
:1011280001B052EA530C18BF90EA010F58BFB2EB56
:10113800030088BFC81738BF6FEAE17018BF40F0D6
:10114800010070477FEA226C02D15FEA402C05D18A
:101158007FEA236CE4D15FEA412CE1D05DF8040B0F
:10116800704700BF844608466146FFE70FB5FFF7A2
:10117800C9FF002848BF10F1000F0FBD4DF808ED5A
:10118800FFF7F4FF0CBF012000205DF808FB00BF4B
:101198004DF808EDFFF7EAFF34BF012000205DF8A5
:1011A80008FB00BF4DF808EDFFF7E0FF94BF0120F2
:1011B80000205DF808FB00BF4DF808EDFFF7D2FFEF
:1011C80094BF012000205DF808FB00BF4DF808ED32
:1011D800FFF7C8FF34BF012000205DF808FB00BFFF
:1011E8004FEA40024FEA41037FEA226C02D15FEAEC
:1011F800402C08D17FEA236C02D15FEA412C02D14E
:101208004FF0000070474FF0010070474FEA40026E
:10121800B2F1FE4F0FD34FF09E03B3EB12620DD91C
:101228004FEA002343F0004310F0004F23FA02F086
:1012380018BF404270474FF00000704712F1610F2D
:1012480001D1420205D110F0004008BF6FF0004004
:1012580070474FF00000704738B50022002304465D
:101268000D46FFF713FC28B920462946BDE838404B
:1012780000F00AB8204605F1004100F005F84042A8
:1012880061EB410138BD00BFD0B500220B4B0646CB
:101298000F46FFF789F9FFF75FFC0446FFF70AF9E5
:1012A8000022074BFFF780F902460B4630463946C5
:1012B800FEF7C2FFFFF750FC2146D0BD0000F03D0D
:1012C8000000F04180B500AF194802F013F9002280
:1012D8004FF40051174801F094FC00228021154872
:1012E80001F08FFC00224FF48051124801F089FC74
:1012F800002240210F4801F084FC00224FF4807145
:101308000C4801F07EFC00224FF48041094801F0AE
:1013180078FC00224FF40071064801F072FC0022AC
:101328004FF40041034801F06CFC00BF80BD00BFD2
:101338000C020020000C014080B500AF00224FF4E1
:101348000051164801F05DFC01228021134801F08C
:1013580058FC00224FF48051104801F052FC012241
:1013680040210E4801F04DFC00224FF480710B48DB
:1013780001F047FC01224FF48041084801F041FC8C
:1013880001224FF40071054801F03BFC00224FF4A4
:101398000041024801F035FC00BF80BD000C01404F
:1013A80080B500AF01224FF40051164801F029FC26
:1013B80000228021134801F024FC01224FF48051BF
:1013C800104801F01EFC002240210E4801F019FCD3
:1013D80000224FF480710B4801F013FC01224FF4F6
:1013E8008041084801F00DFC01224FF400710548C6
:1013F80001F007FC00224FF40041024801F001FC13
:1014080000BF80BD000C014080B500AF00224FF442
:101418000051164801F0F5FB01228021134801F024
:10142800F0FB00224FF48051104801F0EAFB012242
:1014380040210E4801F0E5FB01224FF480710B4872
:1014480001F0DFFB00224FF48041084801F0D9FB8E
:1014580000224FF40071054801F0D3FB01224FF43C
:101468000041024801F0CDFB00BF80BD000C0140E7
:1014780080B500AF00224FF40051164801F0C1FBBF
:1014880000228021134801F0BCFB00224FF4805158
:10149800104801F0B6FB002240210E4801F0B1FBD4
:1014A80000224FF480710B4801F0ABFB00224FF48F
:1014B8008041084801F0A5FB00224FF4007105485F
:1014C80001F09FFB00224FF40041024801F099FB14
:1014D80000BF80BD000C0140B0B584B000AF78609B
:1014E8000A23FB811E4BBB607B68002B13DAFFF7D6
:1014F80057FFBB6883F000431846FEF7FDFF04461C
:101508000D46B868FEF7F8FF02460B462046294606
:1015180000F0C0FD19E0FFF777FFB868FEF7ECFFB1
:101528000DA3D3E90023FFF73FF802460B46144604
:101538001D46BB6883F000431846FEF7DDFF0246F0
:101548000B462046294600F0A5FD00BF1037BD46D2
:10155800B0BD00BFAFF30080666666666666EE3FA4
:101568000000A041B0B584B000AF78600A23FB81C9
:10157800FFF7E2FE094BBB60B868FEF7BDFF044603
:101588000D46B868FEF7B8FF02460B4620462946C6
:1015980000F080FD00BF1037BD46B0BD0000A0417F
:1015A80080B588B000AF07F1100300221A605A60B6
:1015B8009A60DA604C4B9B694B4A43F02003936175
:1015C800494B9B6903F02003FB60FB68464B9B6912
:1015D800454A43F010039361434B9B6903F01003A2
:1015E800BB60BB68404B9B693F4A43F0040393616F
:1015F8003D4B9B6903F004037B607B683A4B9B6916
:10160800394A43F008039361374B9B6903F0080399
:101618003B603B68002240F28461344801F0F1FAF3
:1016280001220121324801F0ECFA00224FF2C031C8
:101638002F4801F0E6FA012204212E4801F0E1FAD0
:1016480040F284633B6101237B610023BB61022379
:10165800FB6107F110031946244801F027F901231B
:101668003B6100237B610223BB6107F1100319462C
:10167800214801F01BF930233B6100237B610123E2
:10168800BB6107F110031946184801F00FF94FF232
:10169800C1333B6101237B610023BB610223FB61F2
:1016A80007F110031946124801F000F904233B61C1
:1016B80001237B610023BB610223FB6107F1100357
:1016C80019460C4801F0F2F830233B6100237B6196
:1016D8000123BB6107F110031946054801F0E6F83C
:1016E80000BF2037BD4680BD0010024000100140F9
:1016F800000C0140001401400008014080B500AF13
:101708001021234801F066FA0346002B0FD120214F
:101718001F4801F05FFA0346012B08D101211D483B
:1017280001F058FA0346002B01D101232EE01021C5
:10173800174801F04FFA0346012B0FD12021144816
:1017480001F048FA0346002B08D10121114801F0A5
:1017580041FA0346002B01D1022317E010210C485F
:1017680001F038FA0346012B0FD12021084801F077
:1017780031FA0346012B08D10121064801F02AFA63
:101788000346012B01D1032300E00023184680BD46
:10179800001001400008014080B582B000AF00F0A1
:1017A800AFFD00F021F8FFF7FBFE00F0FFFB00F0B3
:1017B80003FDFFF7A3FF78600A4B5B78722B01D11A
:1017C80001237B607B68012B02D100F059F8F0E718
:1017D8007B68022B02D100F0F1F9EAE7FFF748FE37
:1017E800E7E700BFF001002080B590B000AF07F137
:1017F800180328220021184604F07FF83B1D002218
:101808001A605A609A60DA601A610123BB614FF46A
:101818008033FB6100233B620123BB6202237B63AD
:101828004FF48033BB634FF4E013FB6307F11803F5
:10183800184601F0FFF90346002B01D000F019F813
:101848000F237B600223BB600023FB604FF480639F
:101858003B6100237B613B1D0221184601F06CFCB3
:101868000346002B01D000F004F800BF4037BD4606
:1018780080BD80B400AF72B600BF00BFFDE70000B6
:1018880090B5A7B000AFC64BC7F894300023A7F8AF
:1018980092300023A7F89030C24BC7F88C30D7F8A5
:1018A8008C301B780A2B04D1D7F88C300133C7F859
:1018B8008C303B46D7F88C10184604F09EF8B7F8E1
:1018C8009220B7F890303846B74903F0A5FF0123B6
:1018D80087F8873092E01423A7F87A301E23A7F8F8
:1018E8007830B7F87820B7F89030D31A7B67B7F814
:1018F8007A20B7F89230D31A3B67B7F89230002BAA
:101908005BD0786FFFF752FA0446386FFFF74EFA4C
:1019180003461946204607F0C3FFF866F86EFEF73F
:10192800EBFD4FF00002A14BFEF73EFE02460B46D0
:101938001046194696A3D3E90023FEF75FFF024637
:101948000B4610461946FFF727F90346BB66B96EE2
:10195800D7F89400FFF774F90346C7F8883094491C
:10196800D7F88800FFF732FC0346002B08D09149CE
:10197800D7F88800FFF764F90346C7F888300FE006
:101988008D49D7F88800FFF703FC0346002B07D0E2
:101998008849D7F88800FFF755F90346C7F8883013
:1019A800D7F88800FEF7A8FD02460B4610461946F0
:1019B800FFF792FDBB6EC7F894307B6F03FB03F211
:1019C8003B6F03FB03F313441846FFF7EFF9034695
:1019D8007B66786E07F066FF7866786EFEF78CFD9A
:1019E80002460B4610461946FFF7BCFDB7F87A3099
:1019F800A7F89230B7F87830A7F8903097F8873082
:101A0800012B3FF468AFB7E040F27623C7F8803087
:101A180040F6C413FB67FFF755FC5A20FFF75CFD3F
:101A2800D7F88030642202FB03F3184600F0CAFCA2
:101A3800FFF71EFD0021002000F02CFB6420FFF7BB
:101A480091FDFB6F184600F0BDFCFFF711FD00216A
:101A5800002000F01FFB6FF05900FFF73DFDD7F89D
:101A68008000FEF737FD4CA3D3E90023FEF79CFD69
:101A780002460B4610461946FFF76EF8034618460D
:101A880000F0A0FCFFF7F4FC0021002000F002FBAE
:101A98003220FFF767FDFB6FDA0F13445B1018461F
:101AA80000F090FCFFF7E4FC0021002000F0F2FABF
:101AB8006FF05900FFF710FDD7F88000FEF70AFD18
:101AC80035A3D3E90023FEF76FFD02460B46104607
:101AD8001946FFF741F80346184600F073FCFFF774
:101AE800C7FC0021002000F0D5FA6420FFF73AFD7A
:101AF800FB6F184600F066FCFFF7BAFC00210020D7
:101B080000F0C8FA5A20FFF7E7FCD7F880301846EB
:101B180000F058FCFFF7ACFC0021002000F0BAFAF6
:101B28003220FFF71FFDFB6FDA0F13445B101846D6
:101B380000F048FCFFF79CFC0021002000F0AAFA06
:101B48005A20FFF7C9FCD7F88030184600F03AFC55
:101B5800FFF78EFC0021002000F09CFA6420FFF7BC
:101B680001FDFB6F184600F02DFCFFF781FC0021FA
:101B7800002000F08FFA05E097F88730022B3FF439
:101B880043AF00BF00BF9C37BD4690BDAFF3008098
:101B9800F1D4C853FB210940CDCCCCCCCCCCEC3F04
:101BA8000000B442F001002000A90008008066404F
:101BB800000034430000B443000034C380B582B051
:101BC80000AFFFF77FFB47E01021284801F002F83B
:101BD8000346FB712021254800F0FCFF0346BB713A
:101BE800FB79002B0CD0BB79002B09D0FFF740FC08
:101BF80000224FF000014FF0000000F04BFA28E0FF
:101C0800FB79002B0AD1BB79002B07D0FFF7FCFB2F
:101C180000221749174800F03DFA1AE0FB79002B1B
:101C28000AD0BB79002B07D1FFF7BAFB0022114974
:101C38000F4800F02FFA0CE0FB79002B09D1BB7993
:101C4800002B06D1FFF778FB01220A49094800F06A
:101C580021FA0A2000F0B6FB074B5B78732BB3D14F
:101C680000BF00BF0837BD4680BD00BF000C014063
:101C78000000A0C10000A041F001002080B584B0A0
:101C880000AF164B9B69154A43F001039361134B50
:101C98009B6903F00103BB60BB68104BDB690F4A0B
:101CA80043F08053D3610D4BDB6903F080537B60B5
:101CB8007B68052000F076FC094B5B68FB60FB68DD
:101CC80023F0E063FB60FB6843F00073FB60044AA9
:101CD800FB68536000BF1037BD4680BD001002404E
:101CE8000000014080B400AF00BFFDE780B400AF42
:101CF80000BFFDE780B400AF00BFFDE780B400AFD0
:101D080000BFFDE780B400AF00BFFDE780B400AFBF
:101D180000BFBD4680BC704780B400AF00BFBD4661
:101D280080BC704780B400AF00BFBD4680BC704720
:101D380080B500AF00F02AFB00BF80BD80B500AFC2
:101D4800024801F037FC00BF80BD00BF0C02002034
:101D580080B500AF044802F0A3F801220349024805
:101D680002F079F800BF80BD60020020F001002079
:101D780080B582B000AF78607B681B68244A9342C4
:101D880042D1244B1B8801339AB2224B1A80214B33
:101D98001B88092B02D91F4B00221A801D4B1B8858
:101DA800042B0BD801224FF480611B4800F029FF57
:101DB80001220421184800F024FF0AE000224FF411
:101DC8008061154800F01DFF00220421124800F030
:101DD80018FF104B1B88042B0BD801224FF40071FD
:101DE8000D4800F00EFF012280210B4800F009FF8A
:101DF8000AE000224FF40071074800F002FF0022B9
:101E08008021054800F0FDFE00BF0837BD4680BDB3
:101E180000040040040200200010014080B400AF1C
:101E280001231846BD4680BC704780B582B000AF1C
:101E38007860396003F0B4FD034616221A604FF04B
:101E4800FF3318460837BD4680BD80B582B000AF65
:101E580078604FF0FF317868FFF7E7FF00BFFDE7D4
:101E680080B586B000AFF860B9607A6000237B6106
:101E78000AE0AFF300800146BB685A1CBA60CAB2D8
:101E88001A707B6901337B617A697B689A42F0DB5F
:101E98007B6818461837BD4680BD80B586B000AF50
:101EA800F860B9607A6000237B6109E0BB685A1C5E
:101EB800BA601B781846AFF300807B6901337B61F9
:101EC8007A697B689A42F1DB7B6818461837BD4609
:101ED80080BD80B483B000AF78604FF0FF33184600
:101EE8000C37BD4680BC704780B483B000AF7860C3
:101EF80039603B684FF400525A60002318460C378B
:101F0800BD4680BC704780B483B000AF78600123C1
:101F180018460C37BD4680BC704780B485B000AF0A
:101F2800F860B9607A60002318461437BD4680BC53
:101F38007047000080B586B000AF7860144A154B32
:101F4800D31A7B617B693B61134B1B68002B02D161
:101F5800114B124A1A60104B1A687B6813443A698D
:101F68009A4207D203F01CFD03460C221A604FF078
:101F7800FF3309E0084B1B68FB60074B1A687B6856
:101F88001344054A1360FB6818461837BD4680BDE0
:101F980000C000200004000008020020F803002010
:101FA80080B400AF00BFBD4680BC704780B586B026
:101FB80000AF07F1080300221A605A609A60DA60DD
:101FC8003B4600221A605A601D4B1E4A1A601C4B81
:101FD80041F61F425A601A4B00229A60184B092298
:101FE800DA60174B00221A61154B00229A611448D7
:101FF80001F030FA0346002B01D0FFF73AFC4FF40A
:102008008053BB6007F1080319460D4801F0C2FB75
:102018000346002B01D0FFF72CFC00233B60002374
:102028007B603B461946064801F0BCFD0346002B81
:1020380001D0FFF71EFC00BF1837BD4680BD00BFAA
:102048000C0200200004004080B584B000AF786026
:102058007B681B680D4A934213D10D4BDB690C4A10
:1020680043F00203D3610A4BDB6903F00203FB6010
:10207800FB68002201211D2000F09FFA1D2000F0BE
:10208800B8FA00BF1037BD4680BD00BF000400404D
:1020980000100240B0B592B002AFF860B9607A6043
:1020A800B968F868FEF7CEFD03464FF07C51184634
:1020B800FEF7D0FE0346FB63F968B868FEF7C0FD7B
:1020C800034638491846FEF779FF0346BB63364B8B
:1020D8009C683649B86BFEF7BDFE03461946204694
:1020E800FEF7B0FD03461A462F4B9A602E4B1C682C
:1020F8002D4B9B68184607F0EFFB0346F96B184613
:10210800FEF7A8FE034629491846FEF7A3FE034634
:1021180019462046FEF796FD03461A46224B1A60DA
:10212800214B5C68204B9B68184607F00DFC034662
:10213800F96B1846FEF78EFE03461C491846FEF753
:1021480089FE034619462046FEF77CFD03461A46DB
:10215800154B5A607B68012B20D1134B1B6818461E
:10216800FEF7CAF904460D460F4B5B681846FEF7A2
:10217800C3F902460B4607F11400CDE900232246B5
:102188002B460B4903F026FB78637B6B9AB207F169
:1021980014014FF6FF73074801F0D2FD00BF403726
:1021A800BD46B0BD00006041540200200AD7233C60
:1021B80008A900086002002080B500AF114B124A40
:1021C8001A60104B4FF4E1325A600E4B00229A60AD
:1021D8000C4B0022DA600B4B00221A61094B0C22CF
:1021E8005A61084B00229A61064B0022DA610548C1
:1021F80001F056FD0346002B01D0FFF73AFB00BF64
:1022080080BD00BF600200200038014080B588B062
:1022180000AF786007F1100300221A605A609A60D4
:10222800DA607B681B68204A934239D11F4B9B694F
:102238001E4A43F4804393611C4B9B6903F480431B
:10224800FB60FB68194B9B69184A43F004039361D0
:10225800164B9B6903F00403BB60BB684FF4007323
:102268003B6102237B610323FB6107F110031946DD
:102278000F4800F01BFB4FF480633B6100237B6138
:102288000023BB6107F110031946094800F00EFB53
:1022980000220121252000F090F9252000F0A9F95D
:1022A80000BF2037BD4680BD003801400010024005
:1022B80000080140FFF774FE0B480C490C4A002344
:1022C80002E0D458C4500433C4188C42F9D3094AE4
:1022D800094C002301E013600432A242FBD303F04F
:1022E80065FBFFF759FA704700000020D401002071
:1022F800ACB10008D4010020F8030020FEE700007C
:1023080080B500AF084B1B68074A43F01003136001
:10231800032000F047F9002000F008F8FFF7AEFCB2
:102328000023184680BD00BF0020024080B582B05F
:1023380000AF7860124B1A68124B1B7819464FF49D
:102348007A73B3FBF1F3B2FBF3F3184600F05FF9CD
:102358000346002B01D001230EE07B680F2B0AD81F
:10236800002279684FF0FF3000F027F9064A7B68B1
:102378001360002300E0012318460837BD4680BDDE
:1023880000000020080000200400002080B400AFF6
:10239800054B1B781A46054B1B681344034A136008
:1023A80000BFBD4680BC704708000020A80200207E
:1023B80080B400AF024B1B681846BD4680BC70470E
:1023C800A802002080B584B000AF7860FFF7F0FF66
:1023D800B8607B68FB60FB68B3F1FF3F05D00A4B30
:1023E8001B781A46FB681344FB6000BFFFF7E0FF49
:1023F8000246BB68D31AFA689A42F7D800BF00BFF2
:102408001037BD4680BD00BF0800002080B485B0ED
:1024180000AF78607B6803F00703FB600C4BDB6858
:10242800BB60BA684FF6FF031340BB60FB681A0233
:10243800BB68134343F0BF6343F40033BB60044AF3
:10244800BB68D36000BF1437BD4680BC704700BF6F
:1024580000ED00E080B400AF044BDB681B0A03F01A
:1024680007031846BD4680BC704700BF00ED00E07A
:1024780080B483B000AF0346FB7197F90730002B97
:102488000BDBFB7903F01F02064997F907305B095C
:10249800012000FA02F241F8232000BF0C37BD46A4
:1024A80080BC704700E100E080B483B000AF034611
:1024B8003960FB7197F90730002B0ADB3B68DAB209
:1024C8000C4997F907301201D2B20B4483F8002364
:1024D8000AE03B68DAB20849FB7903F00F03043BD2
:1024E8001201D2B20B441A7600BF0C37BD4680BC2D
:1024F800704700BF00E100E000ED00E080B489B063
:1025080000AFF860B9607A60FB6803F00703FB610D
:10251800FB69C3F10703042B28BF0423BB61FB69D4
:102528000433062B02D9FB69033B00E000237B61DF
:102538004FF0FF32BB6902FA03F3DA43BB681A4073
:102548007B699A404FF0FF317B6901FA03F3D94365
:102558007B680B40134318462437BD4680BC704740
:1025680080B582B000AF78607B68013BB3F1807FB3
:1025780001D301230FE00A4A7B68013B53600F2116
:102588004FF0FF30FFF790FF054B00229A60044B95
:1025980007221A60002318460837BD4680BD00BFD1
:1025A80010E000E080B582B000AF78607868FFF78F
:1025B8002DFF00BF0837BD4680BD80B586B000AF8F
:1025C8000346B9607A60FB7300237B61FFF742FF23
:1025D80078617A68B9687869FFF790FF024697F9D9
:1025E8000F3011461846FFF75FFF00BF1837BD468A
:1025F80080BD80B582B000AF0346FB7197F9073004
:102608001846FFF735FF00BF0837BD4680BD80B5C7
:1026180082B000AF78607868FFF7A2FF03461846DB
:102628000837BD4680BD80B485B000AF7860002310
:10263800FB737B6893F82130DBB2022B08D07B68F0
:1026480004229A637B68002283F82020012320E07B
:102658007B681B681A687B681B6822F00E021A6088
:102668007B681B681A687B681B6822F001021A6085
:102678007B681A6C7B68DB6B012101FA02F25A60F5
:102688007B68012283F821207B68002283F82020C0
:10269800FB7B18461437BD4680BC704780B584B0B4
:1026A80000AF78600023FB737B6893F82130DBB2BE
:1026B800022B05D07B6804229A630123FB73D6E0C2
:1026C8007B681B681A687B681B6822F00E021A6018
:1026D8007B681B681A687B681B6822F001021A6015
:1026E8007B681B681A46644B9A4258D97B681B68FA
:1026F800624A93424FD07B681B68614A934248D034
:102708007B681B685F4A934240D07B681B685E4ABF
:10271800934238D07B681B685C4A934230D07B6810
:102728001B685B4A934228D07B681B68524A9342D5
:1027380020D07B681B68574A934219D07B681B6876
:10274800554A934212D07B681B68544A93420AD078
:102758007B681B68524A934202D14FF480531BE0B6
:102768004FF4803318E04FF4807315E0102313E022
:10277800012311E04FF080730EE04FF480130BE05B
:102788004FF4803308E04FF4805305E04FF4807332
:1027980002E0102300E00123424A536057E07B68BF
:1027A8001B68364A93424FD07B681B68344A934271
:1027B80048D07B681B68334A934240D07B681B68CB
:1027C800314A934238D07B681B68304A934230D0F4
:1027D8007B681B682E4A934228D07B681B68264A70
:1027E800934220D07B681B682A4A934219D07B68A1
:1027F8001B68294A934212D07B681B68274A934278
:102808000AD07B681B68264A934202D14FF4805352
:102818001BE04FF4803318E04FF4807315E0102369
:1028280013E0012311E04FF080730EE04FF48013A2
:102838000BE04FF4803308E04FF4805305E04FF489
:10284800807302E0102300E00123174A53607B687D
:10285800012283F821207B68002283F820207B68EE
:102868005B6B002B03D07B685B6B78689847FB7BBE
:1028780018461037BD4680BD80000240080002405F
:102888001C00024030000240440002405800024050
:102898006C000240080402401C040240300402405C
:1028A80044040240000402400000024080B48BB09F
:1028B80000AF7860396000237B6200233B6279E1D6
:1028C80001227B6A02FA03F3FB613B681B68FA6921
:1028D8001340BB61BA69FB699A4240F068813B6862
:1028E8005B68964A93425ED0944A934275D8944A5C
:1028F800934258D0924A93426FD8924A934252D008
:10290800904A934269D8904A93424CD08E4A934257
:1029180063D88E4A934246D08C4A93425DD8122B94
:102928002AD8122B59D801A252F823F0AF2900084F
:10293800892900089B290008DD290008E3290008E7
:10294800E3290008E3290008E3290008E32900082F
:10295800E3290008E3290008E3290008E32900081F
:10296800E3290008E3290008E3290008E32900080F
:1029780091290008A5290008754A934213D02CE034
:102988003B68DB683B6229E03B68DB6804333B62F9
:1029980024E03B68DB6808333B621FE03B68DB6888
:1029A8000C333B621AE03B689B68002B02D104237E
:1029B8003B6213E03B689B68012B05D108233B620F
:1029C8007B68FA691A6109E008233B627B68FA6947
:1029D8005A6103E000233B6200E000BFBB69FF2BA4
:1029E80001D87B6801E07B6804337B61BB69FF2BFE
:1029F80002D87B6A9B0002E07B6A083B9B003B6134
:102A08007B691A680F213B6901FA03F3DB431A401B
:102A1800396A3B6901FA03F31A437B691A603B6818
:102A28005B6803F08053002B00F0C180494B9B6921
:102A3800484A43F001039361464B9B6903F0010345
:102A4800BB60BB68444A7B6A9B08023352F8233058
:102A5800FB607B6A03F003039B000F2202FA03F377
:102A6800DB43FA681340FB607B683C4A93421FD003
:102A78007B683B4A934219D07B683A4A934213D009
:102A88007B68394A93420DD07B68384A934207D015
:102A98007B68374A934201D105230AE0062308E000
:102AA800042306E0032304E0022302E0012300E0FC
:102AB80000237A6A02F0030292009340FA681343F3
:102AC800FB6025497B6A9B080233FA6841F823209A
:102AD8003B685B6803F48013002B06D0254B9A688B
:102AE8002449BB6913438B6006E0224B9A68BB6993
:102AF800DB43204913408B603B685B6803F4001399
:102B0800002B06D01B4BDA681A49BB691343CB600C
:102B180006E0184BDA68BB69DB4316491340CB6003
:102B28003B685B6803F40033002B25D0114B5A68CF
:102B38001049BB6913434B6025E000BF0000321009
:102B480000003110000022100000211000001210B7
:102B58000000111000100240000001400008014070
:102B6800000C014000100140001401400018014011
:102B7800001C014000040140154B5A68BB69DB4347
:102B8800134913404B603B685B6803F48033002BA8
:102B980006D00F4B1A680E49BB6913430B6006E059
:102BA8000B4B1A68BB69DB43094913400B607B6A0E
:102BB80001337B623B681A687B6A22FA03F3002BB5
:102BC8007FF47EAE00BF00BF2C37BD4680BC704787
:102BD8000004014080B485B000AF78600B467B806C
:102BE8007B689A687B881340002B02D00123FB7313
:102BF80001E00023FB73FB7B18461437BD4680BCFD
:102C0800704780B483B000AF78600B467B80134672
:102C18007B707B78002B03D07A887B681A6103E08D
:102C28007B881A047B681A6100BF0C37BD4680BCDC
:102C38007047000080B586B000AF78607B68002BD5
:102C480001D1012372E27B681B6803F00103002BAA
:102C580000F08780924B5B6803F00C03042B0CD0C8
:102C68008F4B5B6803F00C03082B12D18C4B5B680D
:102C780003F48033B3F5803F0BD1894B1B6803F411
:102C88000033002B6CD07B685B68002B68D1012374
:102C98004CE27B685B68B3F5803F06D1804B1B68CC
:102CA8007F4A43F4803313602EE07B685B68002B17
:102CB8000CD17B4B1B687A4A23F480331360784B22
:102CC8001B68774A23F4802313601DE07B685B68E8
:102CD800B3F5A02F0CD1724B1B68714A43F48023C3
:102CE80013606F4B1B686E4A43F4803313600BE02C
:102CF8006B4B1B686A4A23F480331360684B1B686C
:102D0800674A23F4802313607B685B68002B13D029
:102D1800FFF74EFB386108E0FFF74AFB02463B69C4
:102D2800D31A642B01D9032300E25D4B1B6803F41B
:102D38000033002BF0D014E0FFF73AFB386108E0CD
:102D4800FFF736FB02463B69D31A642B01D90323EC
:102D5800ECE1534B1B6803F40033002BF0D100E087
:102D680000BF7B681B6803F00203002B63D04C4B49
:102D78005B6803F00C03002B0BD0494B5B6803F036
:102D88000C03082B1CD1464B5B6803F48033002BE3
:102D980016D1434B1B6803F00203002B05D07B6858
:102DA8001B69012B01D00123C0E13D4B1B6823F0B7
:102DB800F8027B685B69DB00394913430B603AE032
:102DC8007B681B69002B20D0364B01221A60FFF765
:102DD800EFFA386108E0FFF7EBFA02463B69D31ACD
:102DE800022B01D90323A1E12D4B1B6803F0020339
:102DF800002BF0D02A4B1B6823F0F8027B685B6934
:102E0800DB00274913430B6015E0264B00221A60AC
:102E1800FFF7CEFA386108E0FFF7CAFA02463B69C5
:102E2800D31A022B01D9032380E11D4B1B6803F041
:102E38000203002BF0D17B681B6803F00803002B0A
:102E48003AD07B689B69002B19D0174B01221A6076
:102E5800FFF7AEFA386108E0FFF7AAFA02463B69C5
:102E6800D31A022B01D9032360E10D4B5B6A03F0EF
:102E78000203002BF0D0012000F0CEFA1CE00A4B30
:102E880000221A60FFF794FA38610FE0FFF790FA12
:102E980002463B69D31A022B08D9032346E100BF37
:102EA800001002400000424280044242924B5B6A9A
:102EB80003F00203002BE9D17B681B6803F00403CD
:102EC800002B00F0A6800023FB758B4BDB6903F019
:102ED8008053002B0DD1884BDB69874A43F0805320
:102EE800D361854BDB6903F08053BB60BB6801236A
:102EF800FB75824B1B6803F48073002B18D17F4B42
:102F08001B687E4A43F480731360FFF751FA3861F7
:102F180008E0FFF74DFA02463B69D31A642B01D942
:102F2800032303E1754B1B6803F48073002BF0D077
:102F38007B68DB68012B06D16F4B1B6A6E4A43F036
:102F4800010313622DE07B68DB68002B0CD16A4B10
:102F58001B6A694A23F001031362674B1B6A664ABE
:102F680023F0040313621CE07B68DB68052B0CD19B
:102F7800614B1B6A604A43F0040313625E4B1B6A91
:102F88005D4A43F0010313620BE05B4B1B6A5A4A2C
:102F980023F001031362584B1B6A574A23F00403BA
:102FA80013627B68DB68002B15D0FFF701FA3861E4
:102FB8000AE0FFF7FDF902463B69D31A41F288326D
:102FC800934201D90323B1E04B4B1B6A03F0020380
:102FD800002BEED014E0FFF7EBF938610AE0FFF7B9
:102FE800E7F902463B69D31A41F28832934201D984
:102FF80003239BE0404B1B6A03F00203002BEED136
:10300800FB7D012B05D13C4BDB693B4A23F0805308
:10301800D3617B68DB69002B00F08780364B5B68E7
:1030280003F00C03082B61D07B68DB69022B46D1C7
:10303800334B00221A60FFF7BBF9386108E0FFF74D
:10304800B7F902463B69D31A022B01D903236DE075
:10305800294B1B6803F00073002BF0D17B681B6AB7
:10306800B3F5803F08D1244B5B6823F400327B68BA
:103078009B68214913434B601F4B5B6823F4741210
:103088007B68196A7B685B6A0B431B4913434B6077
:103098001B4B01221A60FFF78BF9386108E0FFF734
:1030A80087F902463B69D31A022B01D903233DE075
:1030B800114B1B6803F00073002BF0D035E0104B68
:1030C80000221A60FFF774F9386108E0FFF770F919
:1030D80002463B69D31A022B01D9032326E0064B8B
:1030E8001B6803F00073002BF0D11EE07B68DB69DE
:1030F800012B07D1012319E00010024000700040A5
:10310800600042420B4B5B68FB60FB6803F4803253
:103118007B681B6A9A4206D1FB6803F470127B68CD
:103128005B6A9A4201D0012300E000231846183751
:10313800BD4680BD0010024080B584B000AF786005
:1031480039607B68002B01D10123D0E06A4B1B68F2
:1031580003F007033A689A4210D9674B1B6823F0BB
:10316800070265493B6813430B60634B1B6803F018
:1031780007033A689A4201D00123B8E07B681B68CC
:1031880003F00203002B20D07B681B6803F00403C4
:10319800002B05D0594B5B68584A43F4E0635360F1
:1031A8007B681B6803F00803002B05D0534B5B6852
:1031B800524A43F460535360504B5B6823F0F0026B
:1031C8007B689B684D4913434B607B681B6803F021
:1031D8000103002B40D07B685B68012B07D1474B6C
:1031E8001B6803F40033002B15D101237FE07B68B3
:1031F8005B68022B07D1414B1B6803F00073002B5F
:1032080009D1012373E03D4B1B6803F00203002B37
:1032180001D101236BE0394B5B6823F003027B6823
:103228005B68364913434B60FFF7C2F8F8600AE061
:10323800FFF7BEF80246FB68D31A41F28832934280
:1032480001D9032353E02D4B5B6803F00C027B6824
:103258005B689B009A42EBD1274B1B6803F007037E
:103268003A689A4210D2244B1B6823F0070222497D
:103278003B6813430B60204B1B6803F007033A6855
:103288009A4201D0012332E07B681B6803F00403F3
:10329800002B08D0194B5B6823F4E0627B68DB687D
:1032A800164913434B607B681B6803F00803002B27
:1032B80009D0124B5B6823F460527B681B69DB0002
:1032C8000E4913434B6000F021F802460B4B5B6834
:1032D8001B0903F00F030A49CB5C22FA03F3094ADE
:1032E8001360094B1B681846FFF720F8002318469F
:1032F8001037BD4680BD00BF0020024000100240CC
:1033080020A90008000000200400002080B487B035
:1033180000AF0023FB600023BB6000237B61002318
:103328007B6000233B611E4B5B68FB60FB6803F01E
:103338000C03042B02D0082B03D027E0194B3B6168
:1033480027E0FB689B0C03F00F03174AD35C7B60F4
:10335800FB6803F48033002B10D0114B5B685B0CC7
:1033680003F00103114AD35CBB607B680D4A03FB81
:1033780002F2BB68B2FBF3F37B6104E07B680C4AA2
:1033880002FB03F37B617B693B6102E0054B3B6118
:1033980000BF3B6918461C37BD4680BC704700BF5C
:1033A8000010024000127A0038A9000848A9000855
:1033B80000093D0080B400AF024B1B681846BD46AB
:1033C80080BC70470000002080B500AFFFF7F2FF17
:1033D8000246054B5B681B0A03F007030349CB5CF5
:1033E80022FA03F3184680BD0010024030A90008F5
:1033F80080B500AFFFF7DEFF0246054B5B68DB0ACE
:1034080003F007030349CB5C22FA03F3184680BD97
:103418000010024030A9000880B485B000AF786081
:103428000A4B1B680A4AA2FB03235B0A7A6802FB61
:1034380003F3FB6000BFFB685A1EFA60002BF9D14A
:1034480000BF00BF1437BD4680BC70470000002095
:10345800D34D621080B582B000AF78607B68002BD6
:1034680001D1012341E07B6893F83D30DBB2002BAA
:1034780006D17B68002283F83C207868FEF7E4FDDB
:103488007B68022283F83D207B681A687B680433D6
:103498001946104600F06AFA7B68012283F8462034
:1034A8007B68012283F83E207B68012283F83F2055
:1034B8007B68012283F840207B68012283F8412041
:1034C8007B68012283F842207B68012283F843202D
:1034D8007B68012283F844207B68012283F8452019
:1034E8007B68012283F83D20002318460837BD4633
:1034F80080BD000080B485B000AF78607B6893F829
:103508003D30DBB2012B01D0012344E07B6802226D
:1035180083F83D207B681B68DA687B681B6842F08B
:103528000102DA607B681B681D4A934218D07B68E9
:103538001B681C4A934213D07B681B68B3F1804F09
:103548000ED07B681B68184A934209D07B681B68B9
:10355800164A934204D07B681B68154A934211D1DE
:103568007B681B689B6803F00703FB60FB68062BFE
:1035780010D07B681B681A687B681B6842F00102E0
:103588001A6007E07B681B681A687B681B6842F052
:1035980001021A60002318461437BD4680BC7047E4
:1035A800002C0140003401400004004000080040A5
:1035B800000C004080B584B000AF78607B681B6861
:1035C800DB68FB607B681B681B69BB60BB6803F03A
:1035D8000203002B20D0FB6803F00203002B1BD052
:1035E8007B681B686FF002021A617B6801221A77F8
:1035F8007B681B689B6903F00303002B03D0786882
:1036080000F098F905E0786800F08BF9786800F028
:103618009AF97B6800221A77BB6803F00403002B31
:1036280020D0FB6803F00403002B1BD07B681B68C9
:103638006FF004021A617B6802221A777B681B68A4
:103648009B6903F44073002B03D0786800F072F98B
:1036580005E0786800F065F9786800F074F97B682F
:1036680000221A77BB6803F00803002B20D0FB6800
:1036780003F00803002B1BD07B681B686FF008025F
:103688001A617B6804221A777B681B68DB6903F080
:103698000303002B03D0786800F04CF905E0786844
:1036A80000F03FF9786800F04EF97B6800221A773D
:1036B800BB6803F01003002B20D0FB6803F0100355
:1036C800002B1BD07B681B686FF010021A617B68A7
:1036D80008221A777B681B68DB6903F44073002BA8
:1036E80003D0786800F026F905E0786800F019F949
:1036F800786800F028F97B6800221A77BB6803F025
:103708000103002B0CD0FB6803F00103002B07D04A
:103718007B681B686FF001021A617868FEF728FB66
:10372800BB6803F08003002B0CD0FB6803F0800318
:10373800002B07D07B681B686FF080021A617868DD
:1037480000F0A5FABB6803F04003002B0CD0FB681F
:1037580003F04003002B07D07B681B686FF0400222
:103768001A61786800F0F8F8BB6803F02003002BB2
:103778000CD0FB6803F02003002B07D07B681B6884
:103788006FF020021A61786800F078FA00BF1037ED
:10379800BD4680BD80B584B000AF78603960002335
:1037A800FB737B6893F83C30012B01D10223B4E012
:1037B8007B68012283F83C207B68022283F83D2045
:1037C8007B681B689B68BB60BB6823F07703BB60A2
:1037D800BB6823F47F43BB607B681B68BA689A6048
:1037E8003B681B68B3F5005F3ED0B3F5005F00F29D
:1037F8008780B3F5805F00F08680B3F5805F7FD85F
:10380800702B1AD0702B7BD8602B50D0602B77D8B8
:10381800502B3CD0502B73D8402B58D0402B6FD80E
:10382800302B64D0302B6BD8202B60D0202B67D85E
:10383800002B5CD0102B5AD062E07B6818683B687C
:1038480099683B685A683B68DB6800F08CF97B68CC
:103858001B689B68BB60BB6843F07703BB607B68F1
:103868001B68BA689A604FE07B6818683B6899687B
:103878003B685A683B68DB6800F075F97B681B6831
:103888009A687B681B6842F480429A603CE07B68D7
:1038980018683B6859683B68DB681A4600F0ECF822
:1038A8007B681B685021184600F043F92CE07B68C0
:1038B80018683B6859683B68DB681A4600F00AF9E3
:1038C8007B681B686021184600F033F91CE07B68B0
:1038D80018683B6859683B68DB681A4600F0CCF802
:1038E8007B681B684021184600F023F90CE07B68D0
:1038F8001A683B681B681946104600F01AF903E07D
:103908000123FB7300E000BF7B68012283F83D20A0
:103918007B68002283F83C20FB7B18461037BD46A5
:1039280080BD80B483B000AF786000BF0C37BD465F
:1039380080BC704780B483B000AF786000BF0C379C
:10394800BD4680BC704780B483B000AF786000BFCC
:103958000C37BD4680BC704780B483B000AF786038
:1039680000BF0C37BD4680BC7047000080B485B0EE
:1039780000AF786039607B681B68FB607B68394AF8
:10398800934213D07B68384A93420FD07B68B3F1D7
:10399800804F0BD07B68354A934207D07B68344A06
:1039A800934203D07B68334A934208D1FB6823F0E3
:1039B8007003FB603B685B68FA681343FB607B68D5
:1039C800284A934213D07B68274A93420FD07B68DA
:1039D800B3F1804F0BD07B68244A934207D07B68B1
:1039E800234A934203D07B68224A934208D1FB685A
:1039F80023F44073FB603B68DB68FA681343FB60A1
:103A0800FB6823F080023B685B691343FB607B68BB
:103A1800FA681A603B689A687B68DA623B681A68D9
:103A28007B689A627B680F4A934203D07B680E4A90
:103A3800934203D13B681A697B681A637B68012249
:103A48005A617B681B6903F00103002B05D07B6872
:103A58001B6923F001027B681A6100BF1437BD4659
:103A680080BC7047002C0140003401400004004035
:103A780000080040000C004080B487B000AFF86038
:103A8800B9607A60FB681B6A7B61FB681B6A23F07C
:103A98000102FB681A62FB689B693B613B6923F082
:103AA800F0033B617B681B013A6913433B617B6907
:103AB80023F00A037B617A69BB6813437B61FB6867
:103AC8003A699A61FB687A691A6200BF1C37BD4679
:103AD80080BC704780B487B000AFF860B9607A6086
:103AE800FB681B6A7B61FB681B6A23F01002FB689A
:103AF8001A62FB689B693B613B6923F470433B6135
:103B08007B681B033A6913433B617B6923F0A0037D
:103B18007B61BB681B017A6913437B61FB683A6967
:103B28009A61FB687A691A6200BF1C37BD4680BC7F
:103B3800704780B485B000AF786039607B689B6857
:103B4800FB60FB6823F07003FB603A68FB68134373
:103B580043F00703FB607B68FA689A6000BF14377C
:103B6800BD4680BC704780B487B000AFF860B960CC
:103B78007A603B60FB689B687B617B6923F47F43C9
:103B88007B613B681A027B681A43BB6813437A69F6
:103B980013437B61FB687A699A6000BF1C37BD4696
:103BA80080BC704780B485B000AF786039607B68AE
:103BB80093F83C30012B01D1022350E07B680122AD
:103BC80083F83C207B68022283F83D207B681B68D1
:103BD8005B68FB607B681B689B68BB60FB6823F0C5
:103BE8007003FB603B681B68FA681343FB607B68E3
:103BF8001B68FA685A607B681B681B4A934218D096
:103C08007B681B68194A934213D07B681B68B3F121
:103C1800804F0ED07B681B68154A934209D07B6899
:103C28001B68144A934204D07B681B68124A93426B
:103C38000CD1BB6823F08003BB603B685B68BA6843
:103C48001343BB607B681B68BA689A607B68012273
:103C580083F83D207B68002283F83C200023184627
:103C68001437BD4680BC7047002C01400034014029
:103C78000004004000080040000C004080B483B0FD
:103C880000AF786000BF0C37BD4680BC704780B479
:103C980083B000AF786000BF0C37BD4680BC70476A
:103CA80080B582B000AF78607B68002B01D101231A
:103CB80042E07B6893F84130DBB2002B06D17B6889
:103CC800002283F840207868FEF7A0FA7B68242257
:103CD80083F841207B681B68DA687B681B6822F4DC
:103CE8000052DA60786800F0C1FD7B681B681A69C9
:103CF8007B681B6822F490421A617B681B685A69CA
:103D08007B681B6822F02A025A617B681B68DA68A4
:103D18007B681B6842F40052DA607B6800225A64B0
:103D28007B68202283F841207B68202283F8422088
:103D38007B6800225A63002318460837BD4680BDB9
:103D480080B58AB002AFF860B9603B601346FB806B
:103D580000237B61FB6893F84130DBB2202B75D1DF
:103D6800BB68002B02D0FB88002B01D101236EE039
:103D7800FB6800225A64FB68212283F84120FEF781
:103D880017FB7861FB68FA889A84FB68FA88DA84FA
:103D9800FB689B68B3F5805F08D1FB681B69002B43
:103DA80004D10023FB61BB68BB6103E0BB68FB6116
:103DB8000023BB612EE03B6800937B6900228021D1
:103DC800F86800F025FB0346002B05D0FB6820228D
:103DD80083F8412003233AE0FB69002B0BD1BB6930
:103DE8001B881A46FB681B68C2F308025A60BB6945
:103DF8000233BB6107E0FB691A78FB681B685A60ED
:103E0800FB690133FB61FB68DB8C9BB2013B9AB217
:103E1800FB68DA84FB68DB8C9BB2002BCBD13B6858
:103E280000937B6900224021F86800F0F1FA03460C
:103E3800002B05D0FB68202283F84120032306E0ED
:103E4800FB68202283F84120002300E00223184663
:103E58002037BD4680BD80B584B000AFF860B9603A
:103E68001346FB80FB6893F84230DBB2202B12D15B
:103E7800BB68002B02D0FB88002B01D101230BE08B
:103E8800FB6800221A63FB881A46B968F86800F0D4
:103E980018FB034600E0022318461037BD4680BDD4
:103EA80080B5BAB000AF78607B681B681B68C7F83C
:103EB800E4307B681B68DB68C7F8E0307B681B6808
:103EC8005B69C7F8DC300023C7F8D8300023C7F88F
:103ED800D430D7F8E43003F00F03C7F8D830D7F858
:103EE800D830002B0FD1D7F8E43003F02003002B93
:103EF80009D0D7F8E03003F02003002B03D078680E
:103F080000F0F5FB5BE2D7F8D830002B00F0DE803C
:103F1800D7F8DC3003F00103002B06D1D7F8E030E6
:103F280003F49073002B00F0D180D7F8E43003F04D
:103F38000103002B0BD0D7F8E03003F48073002B7B
:103F480005D07B685B6C43F001027B685A64D7F844
:103F5800E43003F00403002B0BD0D7F8DC3003F077
:103F68000103002B05D07B685B6C43F002027B6881
:103F78005A64D7F8E43003F00203002B0BD0D7F8CB
:103F8800DC3003F00103002B05D07B685B6C43F049
:103F980004027B685A64D7F8E43003F00803002B66
:103FA80011D0D7F8E03003F02003002B05D1D7F863
:103FB800DC3003F00103002B05D07B685B6C43F019
:103FC80008027B685A647B685B6C002B00F0F28106
:103FD800D7F8E43003F02003002B08D0D7F8E030FE
:103FE80003F02003002B02D0786800F080FB7B6888
:103FF8001B685B6903F04003002B14BF01230023F7
:10400800DBB2C7F8D4307B685B6C03F00803002B85
:1040180003D1D7F8D430002B4FD0786800F08AFA53
:104028007B681B685B6903F04003002B41D07B6809
:104038001B681433C7F89C30D7F89C3053E8003F0E
:10404800C7F89830D7F8983023F04003C7F8D03035
:104058007B681B681433D7F8D020C7F8A820C7F8A6
:10406800A430D7F8A410D7F8A82041E80023C7F84F
:10407800A030D7F8A030002BD9D17B68DB6B002BA0
:1040880013D07B68DB6B7E4A5A637B68DB6B184610
:10409800FEF704FB0346002B16D07B68DB6B5B6BDB
:1040A8007A68D26B104698470EE0786800F09CF961
:1040B8000AE0786800F098F906E0786800F094F96A
:1040C8007B6800225A6475E100BF73E17B681B6B53
:1040D800012B40F04F81D7F8E43003F01003002B98
:1040E80000F04881D7F8E03003F01003002B00F00F
:1040F80041810023BB607B681B681B68BB607B68D1
:104108001B685B68BB60BB687B681B685B6903F006
:104118004003002B00F0B6807B68DB6B1B685B6894
:10412800A7F8BE30B7F8BE30002B00F045817B6899
:104138009B8DB7F8BE209A4280F03E817B68B7F825
:10414800BE20DA857B68DB6B9B69202B00F08880BA
:104158007B681B680C33C7F88830D7F8883053E879
:10416800003FC7F88430D7F8843023F48073C7F849
:10417800B8307B681B680C33D7F8B820C7F8942090
:10418800C7F89030D7F89010D7F8942041E800236A
:10419800C7F88C30D7F88C30002BD9D17B681B68D6
:1041A80014337B677B6F53E8003F3B673B6F23F01B
:1041B8000103C7F8B4307B681B681433D7F8B42000
:1041C800C7F88020FB67F96FD7F8802041E8002303
:1041D800BB67BB6F002BE1D17B681B6814333B6660
:1041E8003B6E53E8003FFB65FB6D23F04003C7F8C7
:1041F800B0307B681B681433D7F8B020FA66BB660A
:10420800B96EFA6E41E800237B667B6E002BE3D122
:104218007B68202283F842207B6800221A637B682F
:104228001B680C33FB64FB6C53E8003FBB64BB6C3E
:1042380023F01003C7F8AC307B681B680C33D7F841
:10424800AC20BA657B65796DBA6D41E800233B65A2
:104258003B6D002BE3D17B68DB6B1846FEF7E3F977
:104268007B6802225A637B689A8D7B68DB8D9BB2E0
:10427800D31A9BB21946786800F0BFF89CE000BFDB
:10428800014600087B689A8D7B68DB8D9BB2D31A48
:10429800A7F8CE307B68DB8D9BB2002B00F08E80B8
:1042A800B7F8CE30002B00F089807B681B680C3390
:1042B800BB63BB6B53E8003F7B637B6B23F490735A
:1042C800C7F8C8307B681B680C33D7F8C8207A64F5
:1042D8003B64396C7A6C41E80023FB63FB6B002B71
:1042E800E3D17B681B6814337B627B6A53E8003F29
:1042F8003B623B6A23F00103C7F8C4307B681B6844
:104308001433D7F8C4203A63FB62F96A3A6B41E880
:104318000023BB62BB6A002BE3D17B68202283F8B1
:1043280042207B6800221A637B681B680C333B6160
:104338003B6953E8003FFB60FB6823F01003C7F8B4
:10434800C0307B681B680C33D7F8C020FA61BB61AA
:10435800B969FA6941E800237B617B69002BE3D1E5
:104368007B6802225A63B7F8CE301946786800F0A5
:1043780044F823E0D7F8E43003F08003002B09D099
:10438800D7F8E03003F08003002B03D0786800F002
:1043980047F914E0D7F8E43003F04003002B0ED0BF
:1043A800D7F8E03003F04003002B08D0786800F01D
:1043B80086F904E000BF02E000BF00E000BFE83774
:1043C800BD4680BD80B483B000AF786000BF0C37B5
:1043D800BD4680BC704780B483B000AF786000BF32
:1043E8000C37BD4680BC704780B483B000AF78609E
:1043F80000BF0C37BD4680BC704780B483B000AFA7
:1044080078600B467B8000BF0C37BD4680BC704788
:1044180080B586B000AFF860B9603B601346FB71A9
:104428003BE03B6AB3F1FF3F37D0FDF7C1FF0246DF
:104438003B68D31A3A6A9A4202D33B6A002B01D1ED
:1044480003233AE0FB681B68DB6803F00403002BD6
:1044580023D0BB68802B20D0BB68402B1DD0FB68C5
:104468001B681B6803F00803082B16D100237B6127
:10447800FB681B681B687B61FB681B685B687B616A
:104488007B69F86800F056F8FB6808225A64FB68F4
:10449800002283F8402001230FE0FB681B681A689C
:1044A800BB681340BA689A420CBF01230023DBB2F1
:1044B8001A46FB799A42B4D0002318461837BD46ED
:1044C80080BD80B485B000AFF860B9601346FB804A
:1044D800FB68BA689A62FB68FA889A85FB68FA886A
:1044E800DA85FB6800225A64FB68222283F842209E
:1044F800FB681B69002B07D0FB681B68DA68FB6840
:104508001B6842F48072DA60FB681B685A69FB68B2
:104518001B6842F001025A61FB681B68DA68FB6895
:104528001B6842F02002DA60002318461437BD46A3
:1045380080BC704780B495B000AF78607B681B681A
:104548000C337B637B6B53E8003F3B633B6B23F48B
:104558009073FB647B681B680C33FA6C3A64FB63EA
:10456800F96B3A6C41E80023BB63BB6B002BE5D1C8
:104578007B681B6814333B623B6A53E8003FFB616E
:10458800FB6923F00103BB647B681B681433BA6CB6
:10459800FA62BB62B96AFA6A41E800237B627B6A05
:1045A800002BE5D17B681B6B012B19D17B681B683D
:1045B8000C33FB60FB6853E8003FBB60BB6823F02B
:1045C80010037B647B681B680C337A6CBA617B616F
:1045D8007969BA6941E800233B613B69002BE5D161
:1045E8007B68202283F842207B6800221A6300BF80
:1045F8005437BD4680BC704780B584B000AF786042
:104608007B685B6AFB60FB680022DA85FB68002236
:10461800DA84F868FFF7E8FE00BF1037BD4680BDB2
:1046280080B485B000AF78607B6893F84130DBB226
:10463800212B3ED17B689B68B3F5805F14D17B68E2
:104648001B69002B10D17B681B6AFB60FB681B8809
:104658001A467B681B68C2F308025A607B681B6AAB
:104668009A1C7B681A6208E07B681B6A591C7A6886
:1046780011621A787B681B685A607B68DB8C9BB276
:10468800013B9BB27A681946D184002B0FD17B6815
:104698001B68DA687B681B6822F08002DA607B6836
:1046A8001B68DA687B681B6842F04002DA60002306
:1046B80000E0022318461437BD4680BC704780B519
:1046C80082B000AF78607B681B68DA687B681B681B
:1046D80022F04002DA607B68202283F84120786863
:1046E800FFF770FE002318460837BD4680BD80B529
:1046F8008CB000AF78607B6893F84230DBB2222B35
:1047080040F0AE807B689B68B3F5805F17D17B680B
:104718001B69002B13D10023FB627B689B6ABB6279
:104728007B681B685B689BB2C3F308039AB2BB6AD9
:104738001A807B689B6A9A1C7B689A6226E07B6871
:104748009B6AFB620023BB627B689B68B3F5805F52
:1047580007D07B689B68002B0AD17B681B69002BFC
:1047680006D17B681B685B68DAB2FB6A1A7008E0DE
:104778007B681B685B68DBB203F07F03DAB2FB6A15
:104788001A707B689B6A5A1C7B689A627B68DB8D0F
:104798009BB2013B9BB27A681946D185002B5DD14B
:1047A8007B681B68DA687B681B6822F02002DA6085
:1047B8007B681B68DA687B681B6822F48072DA60A1
:1047C8007B681B685A697B681B6822F001025A6182
:1047D8007B68202283F842207B6800225A637B682A
:1047E8001B6B012B35D17B6800221A637B681B6821
:1047F8000C337B617B6953E8003F3B613B6923F0E5
:1048080010037B627B681B680C337A6A3A62FB612F
:10481800F9693A6A41E80023BB61BB69002BE5D11D
:104828007B681B681B6803F01003102B0AD1002358
:10483800FB607B681B681B68FB607B681B685B68A8
:10484800FB60FB687B689B8D19467868FFF7D5FD90
:1048580002E07868FFF7BFFD002302E0002300E0D4
:10486800022318463037BD4680BD000080B584B0AD
:1048780000AF78607B681B681B6923F440517B6834
:10488800DA687B681B680A431A617B689A687B68E8
:104898001B691A437B685B691343BB607B681B68B1
:1048A800DB6823F4B05323F00C037A681268B96804
:1048B8000B43D3607B681B685B6923F440717B689A
:1048C8009A697B681B680A435A617B681B682C4A93
:1048D800934203D1FEF78CFDF86002E0FEF774FD09
:1048E800F860FA6813469B0013449A001A447B68E0
:1048F8005B689B00B2FBF3F3224AA2FB03235B092C
:104908001901FA6813469B0013449A001A447B68FD
:104918005B689B00B2FBF3F21A4BA3FB02035B0933
:10492800642000FB03F3D31A1B013233154AA2FBA0
:1049380003235B0903F0F0031944FA6813469B004C
:1049480013449A001A447B685B689B00B2FBF3F23D
:104958000C4BA3FB02035B09642000FB03F3D31A8F
:104968001B013233074AA2FB03235B0903F00F0242
:104978007B681B680A449A6000BF1037BD4680BD3B
:10498800003801401F85EB51002B2DE9F0471D46EB
:10499800BBBF03F100431D4600232D2388B01446F6
:1049A800B8BF1446129A109E1370149BDDF84CA0E1
:1049B80023F02008B8F1460F05D0B8F1450F00D113
:1049C8000136022300E0032307AA049206AACDE9D0
:1049D80002A2CDE9003622462B4601F0B1F8B8F123
:1049E800470F074619D1119BDB070ED500EB0609C7
:1049F8000022002320462946FCF73EF808B1CDF8EE
:104A08001C903022079B4B451ED33846079B159AAE
:104A1800DB1B136008B0BDE8F087B8F1460F00EB68
:104A28000609E5D10378302B0AD10022002320465D
:104A38002946FCF721F818B9C6F10106CAF8006042
:104A4800DAF800309944D3E7591C07911A70D9E76E
:104A5800F7B50029B6BF2D232B2349420929027037
:104A6800437029DD0DF107031D460A27B1FBF7F650
:104A78001A4607FB1614303402F8014C0C46632C16
:104A8800314603F1FF33F1DC3031941E03F8011C89
:104A98002346411CAB420AD30DF109039B1AAC42D1
:104AA80088BF002302330344181A03B0F0BD13F87B
:104AB800016B01F8016FEDE7302330318370C1706D
:104AC800031DF1E72DE9F04F91B00C46DDF8688041
:104AD80016461F46054600F019FF03681846089356
:104AE800FBF79EFB00230E93D8F80030099007339C
:104AF80023F0070303F1080294F818A0D4F800B0D3
:104B0800C8F80020D3E9008929F000430B93CDF8B9
:104B180028804FF0FF32DDE90A01C4E912899C4B75
:104B2800FBF7DCFF70BBDDE90A014FF0FF32984B61
:104B3800FBF7B6FF30BB0022002340464946FBF78F
:104B4800A5FF10B12D2384F84330924A924BBAF155
:104B5800470F8CBF9046984603234FF00009236106
:104B68002BF00403236033462146284600970FAAFA
:104B780000F0D4F9013040F090804FF0FF3011B0D0
:104B8800BDE8F08F42464B4640464946FBF7A6FF34
:104B980048B14B46002BB8BF2D23804AB8BF84F8D4
:104BA80043307F4BD3E763680AF0DF015A1C3FD1DB
:104BB8000623636000224BF48063236006920EAAEA
:104BC800CDE904A20DAA03920DF13302CDE9013219
:104BD80063684246009328464B460A91FFF7D4FE85
:104BE8000A99804647290D9928D1C81C02DB6368B9
:104BF800994240DDAAF1020A5FFA8AFA524601395F
:104C080004F150000D91FFF723FF0E9A8146131807
:104C1800012A236102DC2268D20701D5013323610E
:104C28009DF83330002B9ED02D2384F843309AE72B
:104C38004729BFD1002BBDD10123BAE7BAF1650FCF
:104C4800DCD9BAF1660F18D1002963680BDD216140
:104C580013B92268D00702D501330B4423614FF002
:104C68000009A165DCE713B92268D20701D5023330
:104C7800F4E70123F2E74FF0670A0E9B994205DB40
:104C880023682161D807EAD54B1CE7E70029CCBF88
:104C98000122C1F102021344E0E723685A0507D450
:104CA8002369424631462846B84701302BD164E78C
:104CB800BAF1650F40F2DC80D4E91201002200232A
:104CC800FBF7DAFE002833D0012331462846354A5F
:104CD800B84701303FF451AFDDE90D38434502DBF9
:104CE8002368D8070FD5DDE9082331462846B84799
:104CF80001303FF442AF4FF0000908F1FF3804F1EA
:104D08001A0AC84509DC23689B0700F10281E0689C
:104D18000F9B9842B8BF184631E7012352463146E7
:104D28002846B84701303FF428AF09F10109E8E700
:104D38000D9B002B38DC012331462846194AB84719
:104D480001303FF41AAFDDE90D3959EA030302D106
:104D58002368D907D7D5DDE9082331462846B8475F
:104D680001303FF40AAF4FF0000A04F11A0B0D9B13
:104D78005B42534501DC4B4693E701235A463146D3
:104D88002846B84701303FF4F8AE0AF1010AEEE7C9
:104D9800FFFFEF7F4EA900084AA9000856A900089E
:104DA80052A9000890AA0008A36DDDF838A0534561
:104DB800A8BF5346002B994636DC4FF0000B29EA72
:104DC800E97904F11A02A36D0A93A3EB09035B4581
:104DD80031DC0D9B9A453ADC2368DA0737D40D9B02
:104DE800AAEB03090A9BAAEB03039945A8BF9946B6
:104DF800B9F1000F33DC4FF0000829EAE97904F132
:104E08001A0B0D9BAAEB0303A3EB090343457FF79A
:104E18007AAF01235A4631462846B84701303FF455
:104E2800ACAE08F10108ECE7424631462846B847DF
:104E38000130C2D1A1E60123314628460A92B8477B
:104E480001303FF49AAE0A9A0BF1010BBBE73146E9
:104E5800DDE908232846B8470130C0D18DE60A9A13
:104E68004B46314628464244B8470130C3D184E610
:104E7800DDF838A0BAF1010F01DCDB0736D50123D4
:104E8800424631462846B84701303FF476AEDDE960
:104E9800082331462846B84701303FF46EAED4E9BE
:104EA8001201002200230AF1FF3AFBF7E5FDC0B921
:104EB800534608F1010231462846B84701300CD163
:104EC8005BE601235A4631462846B84701303FF48D
:104ED80054AE08F10108D045F3DB4B4604F150020B
:104EE800E0E64FF0000804F11A0BF4E7012342460C
:104EF800E1E701234A4631462846B84701303FF4E6
:104F08003CAE08F10108E3680F995B1A4345F0DCF1
:104F1800FDE64FF0000804F11909F4E72DE9F04720
:104F2800164698468A680B6907469342B8BF1346E7
:104F3800336091F843200C46DDF820900AB1013324
:104F480033602368990642BF3368023333602568AB
:104F580015F0060506D104F1190AE36832689B1AB0
:104F6800AB422BDC94F843302268003B18BF012386
:104F7800920630D44146384604F14302C84701300E
:104F880023D02368226903F00603042B14BF0025ED
:104F980033684FF0000608BFE56804F11A0408BF3B
:104FA800ED1A54F8123C08BF25EAE5759342C4BFD0
:104FB8009B1AED18B5421AD1002008E00123524689
:104FC80041463846C847013003D14FF0FF30BDE8AD
:104FD800F0870135C1E73020E11881F843005A1CF9
:104FE80094F845102244023382F84310C2E70123A3
:104FF800224641463846C8470130E6D00136D9E74F
:105008002DE9FF470F7E9146782F80460C469A4639
:105018000C9E01F1430207D8622F0AD8002F00F036
:10502800D180582F00F0B88004F1420684F842700D
:105038003AE0A7F16303152BF6D801A151F823F044
:10504800A1500008B5500008315000083150000840
:105058003150000831500008B550000831500008A0
:10506800315000083150000831500008B351000891
:10507800DF5000086D510008315000083150000819
:10508800D551000831500008DF50000831500008A1
:10509800315000087551000833681A1D1B683260CA
:1050A80004F1420684F8423001239CE0336820680A
:1050B800191D3160060601D51D6803E04506FBD5BC
:1050C800B3F90050002D03DA2D236D4284F84330E4
:1050D8000A23584811E021683368080653F8045B2E
:1050E80002D4490648BFADB26F2F336014BF0A23FC
:1050F80008235048002184F843106668002EA660F3
:1051080005DB21682E4321F0040121604BD01646AF
:10511800B5FBF3F103FB1157C75D06F8017D2F4678
:10512800BB420D46F4D9082B0BD12368DF0708D5FD
:10513800236961689942DEBF302306F8013C06F115
:10514800FF36921B22614B4621464046CDF800A00F
:1051580003AAFFF7E3FE01304AD14FF0FF3004B055
:10516800BDE8F087236843F020032360782732489E
:1051780084F84570236831681F0651F8045B02D42F
:105188005F0648BFADB23160D90744BF43F0200382
:1051980023601DB11023ADE72648E9E7236823F013
:1051A80020032360F6E71646BDE733682568181D17
:1051B800616930602E061B6801D5196002E0680637
:1051C800FBD51980002316462361BCE7336800210C
:1051D8001A1D32601E686268304600F016FC08B17D
:1051E800801B606063682361002384F84330AAE76A
:1051F8003246494640462369D0470130ADD023683E
:105208009B0713D4E068039B9842B8BF1846A6E7EB
:105218000123324649464046D04701309DD00135EA
:10522800E36803995B1AAB42F2DCEBE7002504F173
:105238001906F5E75AA900086BA900082DE9F04FEF
:1052480087B003938B6891465A1EB2F5AE7F82BF32
:105258006FF4AE7503EB050B40F25D130A464FF091
:10526800000588BF8B600B68804643F4F06342F802
:105278001C3B0C4698BF4FF0000B1646AA462F461B
:10528800CDE9045501920295A2685AB1D9F80030C7
:105298001B784E2B62D8402B3AD8A3F12B01C8B209
:1052A8000E2838D91FB1236823F4807323600AF1CC
:1052B800FF3ABAF1010F00F21481019B9E4200F2FD
:1052C8000581012007B0BDE8F08FA3F161020D2A26
:1052D800E8D801A151F822F029540008AD5200087D
:1052E800AD520008AD520008855400085F5400080C
:1052F800AD520008AD52000837540008AD520008FE
:10530800AD520008AD520008AD520008F353000832
:10531800A3F14102DBE70E29C4D801A050F821F01F
:10532800E3530008AD520008E35300087354000823
:10533800AD52000885530008C9530008C953000836
:10534800C9530008C9530008C9530008C9530008C5
:10535800C9530008C9530008C95300086E2B09D85F
:10536800602BB2D8542B7BD0592B9BD1072D99D1C8
:1053780008252FE0742B73D0792BF6E72168C80530
:105388001ED521F0800121600137BBF1000F03D049
:1053980001320BF1FF3BA260A368013BA3602369C4
:1053A80001332361D9F80430013B002BC9F80430DC
:1053B80040F38380D9F800300133C9F8003063E73F
:1053C8001AEB05017FF46EAF0D468A46226822F477
:1053D800C072226006F8013BDEE7226810067FF5FE
:1053E80061AF22F080022260F4E7BAF1000F0CD11D
:1053F80077B9226802F4E061B1F5E06F08D122F4D0
:10540800F0624FF0010A2260E4E7BAF1020F51D0CE
:10541800012D02D0042D7FF445AF0135EDB2D9E757
:10542800BAF1010F7FF43EAF4FF0020AD2E775B927
:10543800002F7FF438AF226802F4E061B1F5E06F25
:1054480040F0FF8022F4F06201252260C2E7032DBC
:10545800E3D0052DDFE7022D7FF424AF0325B9E75C
:10546800062D7FF41FAF0725B4E7226891057FF565
:1054780019AF22F4207222600297ABE7226802F487
:10548800A061B1F5806F05D050057FF50BAF002FF7
:1054980000F0D780910558BF029922F4F06258BFF6
:1054A800791A42F4C0724FF0000758BFCDE90416CC
:1054B80022608FE74FF0030A8CE749464046D4F84C
:1054C8008031984700283FF4DFAEEBE6D4F87C3112
:1054D8004A46404616F8011D98472369013B236157
:1054E800EBE66B1E062B24D8022D36D8019B9E4274
:1054F8007FF6E7AED4F87C314A46404616F8011DDF
:1055080098472369013B2361F0E7D4F87C314A4688
:1055180040461BF8011D98472369013B23610AF1A6
:10552800FF3A5FFA8AFABAF1020FEED1033DEDB203
:10553800761B2368DA0530D55B0511D5019B9E42A1
:105548007FF6BFAED4F87C314A46404616F8011DB6
:1055580098472369013B2361F0E7AA46B346DEE793
:1055680016F8011C2369652903F1FF3306F1FF359D
:1055780023610CD045290AD0D4F87C314A464046EC
:105588009847236916F8021C013BB51E23614A4659
:105598004046D4F87C3198472E46226812F0100213
:1055A80001D000208EE63270236803F4C063B3F59F
:1055B800806F25D1029B9F420AD0DA1B04F26F1339
:1055C8009E4228BF04F5B77630461F4900F002F91D
:1055D80000224046019902F01FFC039B25681B68C6
:1055E80015F0020F06460F4603F1040215D0039981
:1055F8000A601B68C3E90067E3680133E360D0E72A
:10560800049B002BE4D005990A234046013102F09F
:1056180083FC049B059EC21AD0E76D07E7D4039D5F
:105628002A601D6802460B46FBF758FA20B1074866
:1056380000F0FAF92860DFE730463946FBF7ACFAA4
:10564800F8E7002733E600BF7CA90008D8AA0008BD
:10565800002310B50446C0E90033C0E90433836071
:1056680081814366C2818361194608225C3000F05B
:1056780044F90D4B246263620C4BA3620C4BE3624A
:105688000C4B23630C4B9C4206D003F168029442F6
:1056980002D0D0339C4205D104F15800BDE8104037
:1056A80000F0A8B910BD00BF795800089F5800083D
:1056B800D7580008FB580008AC020020024A0349EA
:1056C800034800F069B800BF0C00002009890008F1
:1056D8001C00002041680C4B10B59942044601D0CB
:1056E80003F00EF9A168094B994202D0204603F055
:1056F80007F9E168064B994204D02046BDE81040FE
:1057080003F0FEB810BD00BFAC0200201403002057
:105718007C03002010B50B4B0B4C0C4A20461A603A
:1057280004210022FFF794FF04F1680001220921F7
:10573800FFF78EFF04F1D0000222BDE810401221CD
:10574800FFF786BFE4030020AC020020C55600081E
:10575800014800F050B900BFED030020014800F0F7
:105768004BB900BFED03002010B50446FFF7F0FF6A
:10577800236A1BB1BDE81040FFF7F0BF044B23625A
:10578800044B1B68002BF5D1FFF7C4FFF2E700BFFD
:10579800DD560008E40300202DE9F8430746884653
:1057A80014460026D4E90195B9F1010905D5246804
:1057B800002CF7D13046BDE8F883AB89012B07D917
:1057C800B5F90E30013303D029463846C0470643A1
:1057D8006835E9E70EB46FF0004110B500249DB0BC
:1057E8001FAB02900690079104910948094953F8A4
:1057F800042B0591006802A901931B9402F0EAFBAF
:10580800029B1C701DB0BDE8104003B0704700BF7C
:10581800180000200802FFFF0EB44FF4017270B5A3
:1058280000259DB021AC54F8046BADF814201B95ED
:1058380002900690FAF7F4FC0B4B03900B934FF68B
:10584800FF7307900948ADF816303246234602A97F
:1058580000680F951495019402F012FD1DB0BDE883
:10586800704003B0704700BF9B5800081800002024
:1058780010B50C46B1F90E1000F06EF80028ABBF59
:10588800636DA3891B1823F48053ACBF6365A381A0
:1058980010BD002070472DE9F0411F468B89054651
:1058A800DB050C46164605D502230022B1F90E1079
:1058B80000F040F8A389324623F48053A381284698
:1058C8003B46B4F90E10BDE8F04100F057B810B5EA
:1058D8000C46B1F90E1000F02DF8431CA38915BF32
:1058E800606523F4805343F48053A38118BFA381D8
:1058F80010BDB1F90E1000F00DB8034602449342F2
:1059080000D1704703F8011BF9E700000048704711
:105918005801002038B50023054D044608462B6081
:10592800FCF7D7FA431C02D12B6803B1236038BDBA
:10593800E803002038B50446084611460022054D04
:105948002A601A46FCF7E9FA431C02D12B6803B116
:10595800236038BDE803002038B5044608461146E0
:105968000022054D2A601A46FCF77AFA431C02D138
:105978002B6803B1236038BDE803002038B504461E
:10598800084611460022054D2A601A46FCF785FA9A
:10599800431C02D12B6803B1236038BDE803002003
:1059A800014B1868704700BF1800002070B500262A
:1059B8000C4D0D4C641BA410A64209D104F08EFFB7
:1059C80000260A4D0A4C641BA410A64205D170BDDE
:1059D80055F8043B98470136EEE755F8043B9847DD
:1059E8000136F2E7A4B10008A4B10008A4B1000888
:1059F800A8B10008704770477047034611F8012B9B
:105A080003F8012B002AF9D17047034610B5C9B233
:105A180002449342184601D1002003E00478013380
:105A28008C42F6D110BD0000004870470000C07FCE
:105A38002DE9F74F03690C690746A3427EDB013C59
:105A4800A30000F1140501F11408009305EB840389
:105A5800019358F8243055F8242001339A42B2FBB8
:105A6800F3F608EB84092ED34FF0000AC446AE467D
:105A7800D3465CF8043B98B206FB00A01B0C020C52
:105A880006FB0323DEF8002080B292B2121A5A44B1
:105A9800DEF800004FEA134A9BB2C3EB224303EB44
:105AA800104392B242EA0342E1454FEA234B4EF8D3
:105AB800042BDED2009BEB582BB9019B043B9D4283
:105AC8001A462FD33C61384601F0C8F9002825DB77
