:020000040800F2
:1000000000C00020991A00088D18000895180008F3
:100010009D180008A5180008AD1800080000000091
:10002000000000000000000000000000B5180008FB
:10003000C118000800000000CD180008D9180008F9
:10004000E11A0008E11A0008E11A0008E11A0008A4
:10005000E11A0008E11A0008E11A0008E11A000894
:10006000E11A0008E11A0008E11A0008E11A000884
:10007000E11A0008E11A0008E11A0008E11A000874
:10008000E11A0008E11A0008E11A0008E11A000864
:10009000E11A0008E11A0008E11A0008E11A000854
:1000A000E11A0008E11A0008E11A0008E11A000844
:1000B000E11A0008E5180008E11A0008E11A000832
:1000C000E11A0008E11A0008E11A0008E11A000824
:1000D000E11A0008E11A0008E11A0008E11A000814
:1000E000E11A0008E11A0008E11A0008E11A000804
:1000F000E11A0008E11A0008E11A0008E11A0008F4
:10010000E11A0008E11A0008E11A0008E11A0008E3
:10011000E11A0008E11A0008E11A0008E11A0008D3
:10012000E11A0008E11A0008E11A0008E11A0008C3
:1001300000000000000000000000000000000000BF
:1001400000000000000000000000000000000000AF
:10015000000000000000000000000000000000009F
:10016000000000000000000000000000000000008F
:10017000000000000000000000000000000000007F
:10018000000000000000000000000000000000006F
:10019000000000000000000000000000000000005F
:1001A000000000000000000000000000000000004F
:1001B000000000000000000000000000000000003F
:1001C000000000000000000000000000000000002F
:1001D000000000000000000000000000000000001F
:0401E0005FF8E0F1F3
:1001E80010B5054C237833B9044B13B10448AFF369
:1001F80000800123237010BD5C0000200000000077
:100208004836000808B5034B1BB103490348AFF350
:10021800008008BD0000000060000020483600088B
:1002280081F0004102E000BF83F0004330B54FEA9F
:1002380041044FEA430594EA050F08BF90EA020F0C
:100248001FBF54EA000C55EA020C7FEA645C7FEA9F
:10025800655C00F0E2804FEA5454D4EB5555B8BFC2
:100268006D420CDD2C4480EA020281EA030382EA33
:10027800000083EA010180EA020281EA0303362DC5
:1002880088BF30BD11F0004F4FEA01314FF4801C98
:100298004CEA113102D0404261EB410113F0004FAA
:1002A8004FEA03334CEA133302D0524263EB430361
:1002B80094EA050F00F0A780A4F10104D5F1200EFF
:1002C8000DDB02FA0EFC22FA05F2801841F100015A
:1002D80003FA0EF2801843FA05F359410EE0A5F12E
:1002E80020050EF1200E012A03FA0EFC28BF4CF05F
:1002F800020C43FA05F3C01851EBE37101F0004515
:1003080007D54FF0000EDCF1000C7EEB00006EEB21
:100318000101B1F5801F1BD3B1F5001F0CD34908AB
:100328005FEA30004FEA3C0C04F101044FEA445202
:1003380012F5800F80F09A80BCF1004F08BF5FEA89
:10034800500C50F1000041EB045141EA050130BD69
:100358005FEA4C0C404141EB0101013C28BFB1F57B
:10036800801FE9D291F0000F04BF01460020B1FAC6
:1003780081F308BF2033A3F10B03B3F120020CDA99
:100388000C3208DD02F1140CC2F10C0201FA0CF077
:1003980021FA02F10CE002F11402D8BFC2F1200CDC
:1003A80001FA02F120FA0CFCDCBF41EA0C01904092
:1003B800E41AA2BF01EB0451294330BD6FEA0404DB
:1003C8001F3C1CDA0C340EDC04F11404C4F12002C6
:1003D80020FA04F001FA02F340EA030021FA04F3D8
:1003E80045EA030130BDC4F10C04C4F1200220FA2F
:1003F80002F001FA04F340EA0300294630BD21FA6D
:1004080004F0294630BD94F0000F83F4801306BF32
:1004180081F480110134013D4EE77FEA645C18BF26
:100428007FEA655C29D094EA050F08BF90EA020FBD
:1004380005D054EA000C04BF1946104630BD91EAB5
:10044800030F1EBF0021002030BD5FEA545C05D1B8
:100458004000494128BF41F0004130BD14F58004F7
:100468003CBF01F5801130BD01F0004545F0FE416B
:1004780041F470014FF0000030BD7FEA645C1ABFA0
:10048800194610467FEA655C1CBF0B46024650EAD7
:10049800013406BF52EA033591EA030F41F4002103
:1004A80030BD00BF90F0000F04BF0021704730B589
:1004B8004FF4806404F132044FF000054FF000015E
:1004C80050E700BF90F0000F04BF0021704730B51F
:1004D8004FF4806404F1320410F0004548BF4042F4
:1004E8004FF000013EE700BF42004FEAE2014FEA49
:1004F80031014FEA02701FBF12F07F4393F07F4F24
:1005080081F06051704732F07F4208BF704793F026
:100518007F4F04BF41F40021704730B54FF4607439
:1005280001F0004521F000411CE700BF50EA01023C
:1005380008BF704730B54FF000050AE050EA0102E5
:1005480008BF704730B511F0004502D5404261EB55
:1005580041014FF4806404F132045FEA915C3FF496
:10056800D8AE4FF003025FEADC0C18BF03325FEA33
:10057800DC0C18BF033202EBDC02C2F1200300FAE4
:1005880003FC20FA02F001FA03FE40EA0E0021FA09
:1005980002F11444BDE600BF70B54FF0FF0C4CF4F7
:1005A800E06C1CEA11541DBF1CEA135594EA0C0FA9
:1005B80095EA0C0F00F0DEF82C4481EA030621EAE4
:1005C8004C5123EA4C5350EA013518BF52EA03351F
:1005D80041F4801143F4801338D0A0FB02CE4FF0D1
:1005E8000005E1FB02E506F00042E0FB03E54FF001
:1005F8000006E1FB03569CF0000F18BF4EF0010EF9
:10060800A4F1FF04B6F5007F64F5407404D25FEAF4
:100618004E0E6D4146EB060642EAC62141EA5551A7
:100628004FEAC52040EA5E504FEACE2EB4F1FD0CE9
:1006380088BFBCF5E06F1ED8BEF1004F08BF5FEA67
:10064800500E50F1000041EB045170BD06F0004619
:1006580046EA010140EA020081EA0301B4EB5C04C6
:10066800C2BFD4EB0C0541EA045170BD41F48011BE
:100678004FF0000E013C00F3AB8014F1360FDEBFE3
:10068800002001F0004170BDC4F10004203C35DABF
:100698000C341BDC04F11404C4F1200500FA05F342
:1006A80020FA04F001FA05F240EA020001F00042E3
:1006B80021F0004110EBD37021FA04F642EB060159
:1006C8005EEA430E08BF20EAD37070BDC4F10C0483
:1006D800C4F1200500FA04F320FA05F001FA04F247
:1006E80040EA020001F0004110EBD37041F1000133
:1006F8005EEA430E08BF20EAD37070BDC4F120053E
:1007080000FA05F24EEA020E20FA04F301FA05F2A5
:1007180043EA020321FA04F001F0004121FA04F24D
:1007280020EA020000EBD3705EEA430E08BF20EA1D
:10073800D37070BD94F0000F0FD101F00046400057
:1007480041EB010111F4801F08BF013CF7D041EAD9
:10075800060195F0000F18BF704703F000465200DD
:1007680043EB030313F4801F08BF013DF7D043EAAE
:100778000603704794EA0C0F0CEA135518BF95EA64
:100788000C0F0CD050EA410618BF52EA4306D1D1EB
:1007980081EA030101F000414FF0000070BD50EA0A
:1007A800410606BF1046194652EA430619D094EA94
:1007B8000C0F02D150EA013613D195EA0C0F05D17E
:1007C80052EA03361CBF104619460AD181EA0301D2
:1007D80001F0004141F0FE4141F470014FF000008A
:1007E80070BD41F0FE4141F4780170BD70B54FF025
:1007F800FF0C4CF4E06C1CEA11541DBF1CEA1355A5
:1008080094EA0C0F95EA0C0F00F0A7F8A4EB050486
:1008180081EA030E52EA03354FEA013100F088807D
:100828004FEA03334FF0805545EA131343EA126346
:100838004FEA022245EA111545EA10654FEA0026FB
:100848000EF000419D4208BF964244F1FD0404F5B4
:10085800407402D25B084FEA3202B61A65EB030510
:100868005B084FEA32024FF480104FF4002CB6EBCD
:10087800020E75EB030E22BFB61A754640EA0C004D
:100888005B084FEA3202B6EB020E75EB030E22BF8D
:10089800B61A754640EA5C005B084FEA3202B6EBCE
:1008A800020E75EB030E22BFB61A754640EA9C008D
:1008B8005B084FEA3202B6EB020E75EB030E22BF5D
:1008C800B61A754640EADC0055EA060E18D04FEA1B
:1008D800051545EA16754FEA06164FEAC30343EABB
:1008E80052734FEAC2025FEA1C1CC0D111F4801F88
:1008F8000BD141EA00014FF000004FF0004CB6E781
:1009080011F4801F04BF01430020B4F1FD0C88BF1F
:10091800BCF5E06F3FF6AFAEB5EB030C04BFB6EB2A
:10092800020C5FEA500C50F1000041EB045170BD1D
:100938000EF0004E4EEA113114EB5C04C2BFD4EB4A
:100948000C0541EA045170BD41F480114FF0000ECE
:10095800013C90E645EA060E8DE60CEA135594EA4A
:100968000C0F08BF95EA0C0F3FF43BAF94EA0C0F4D
:100978000AD150EA01347FF434AF95EA0C0F7FF4C2
:1009880025AF104619462CE795EA0C0F06D152EA16
:1009980003353FF4FDAE1046194622E750EA4106FA
:1009A80018BF52EA43067FF4C5AE50EA41047FF40B
:1009B8000DAF52EA43057FF4EBAE12E74A0011D2BD
:1009C80012F5001211D20DD56FF47873B3EB6252A1
:1009D8000ED44FEAC12343F0004343EA505323FAAD
:1009E80002F070474FF00000704750EA013002D122
:1009F8004FF0FF3070474FF0000070474FEA410258
:100A0800B2F1E04324BFB3F5001CDCF1FE5C0DD964
:100A180001F0004C4FEAC0024CEA5070B2F1004FAE
:100A280040EB830008BF20F00100704711F0804FB1
:100A380021D113F13872BCBF01F00040704741F476
:100A480080114FEA5252C2F11802C2F1200C10FA7A
:100A58000CF320FA02F018BF40F001004FEAC1235E
:100A68004FEAD32303FA0CFC40EA0C0023FA02F302
:100A78004FEA4303CCE77FEA625307D150EA0133D8
:100A88001EBF4FF0FE4040F44000704701F00040A8
:100A980040F0FE4040F40000704700BF80F0004086
:100AA80002E000BF81F0004142001FBF5FEA41033E
:100AB80092EA030F7FEA226C7FEA236C6AD04FEA3E
:100AC8001262D2EB1363C1BFD21841404840414083
:100AD800B8BF5B42192B88BF704710F0004F40F435
:100AE800000020F07F4018BF404211F0004F41F451
:100AF800000121F07F4118BF494292EA030F3FD01D
:100B0800A2F1010241FA03FC10EB0C00C3F120032F
:100B180001FA03F100F0004302D5494260EB4000BE
:100B2800B0F5000F13D3B0F1807F06D340084FEA29
:100B3800310102F10102FE2A51D2B1F1004F40EB1E
:100B4800C25008BF20F0010040EA03007047490086
:100B580040EB0000013A28BFB0F5000FEDD2B0FA23
:100B680080FCACF1080CB2EB0C0200FA0CF0AABF46
:100B780000EBC25052421843BCBFD04018437047E4
:100B880092F0000F81F4000106BF80F400000132EA
:100B9800013BB5E74FEA41037FEA226C18BF7FEAC1
:100BA800236C21D092EA030F04D092F0000F08BF03
:100BB8000846704790EA010F1CBF0020704712F0EA
:100BC8007F4F04D1400028BF40F00040704712F129
:100BD80000723CBF00F50000704700F0004343F08E
:100BE800FE4040F4000070477FEA226216BF0846C4
:100BF8007FEA23630146420206BF5FEA412390EA87
:100C0800010F40F4800070474FF0000304E000BF7C
:100C180010F0004348BF40425FEA000C08BF70472D
:100C280043F0964301464FF000001CE050EA0102F1
:100C380008BF70474FF000030AE000BF50EA010206
:100C480008BF704711F0004302D5404261EB4101F3
:100C58005FEA010C02BF84460146002043F0B64318
:100C680008BFA3F18053A3F50003BCFA8CF2083A3D
:100C7800A3EBC25310DB01FA02FC634400FA02FC46
:100C8800C2F12002BCF1004F20FA02F243EB02004D
:100C980008BF20F00100704702F1200201FA02FCAF
:100CA800C2F1200250EA4C0021FA02F243EB0200A2
:100CB80008BF20EADC7070474FF0FF0C1CEAD052E6
:100CC8001EBF1CEAD15392EA0C0F93EA0C0F6FD0A7
:100CD8001A4480EA010C400218BF5FEA41211ED085
:100CE8004FF0006343EA501043EA5111A0FB013171
:100CF8000CF00040B1F5000F3EBF490041EAD37146
:100D08005B0040EA010062F17F02FD2A1DD8B3F1C1
:100D1800004F40EBC25008BF20F00100704790F030
:100D2800000F0CF0004C08BF49024CEA502040EA82
:100D380051207F3AC2BFD2F1FF0340EAC250704748
:100D480040F400004FF00003013A5DDC12F1190F86
:100D5800DCBF00F000407047C2F10002410021FAF8
:100D680002F1C2F1200200FA02FC5FEA310040F110
:100D7800000053EA4C0308BF20EADC70704792F089
:100D8800000F00F0004C02BF400010F4000F013AC1
:100D9800F9D040EA0C0093F0000F01F0004C02BFBC
:100DA800490011F4000F013BF9D041EA0C018FE72B
:100DB8000CEAD15392EA0C0F18BF93EA0C0F0AD031
:100DC80030F0004C18BF31F0004CD8D180EA010057
:100DD80000F00040704790F0000F17BF90F0004FF0
:100DE800084691F0000F91F0004F14D092EA0C0FD2
:100DF80001D142020FD193EA0C0F03D14B0218BF65
:100E0800084608D180EA010000F0004040F0FE40AA
:100E180040F40000704740F0FE4040F44000704746
:100E28004FF0FF0C1CEAD0521EBF1CEAD15392EAC5
:100E38000C0F93EA0C0F69D0A2EB030280EA010CB5
:100E480049024FEA402037D04FF0805343EA11114E
:100E580043EA10130CF000408B4238BF5B0042F1AC
:100E68007D024FF4000C8B4224BF5B1A40EA0C0051
:100E7800B3EB510F24BFA3EB510340EA5C00B3EB83
:100E8800910F24BFA3EB910340EA9C00B3EBD10F71
:100E980024BFA3EBD10340EADC001B0118BF5FEAC3
:100EA8001C1CE0D1FD2A3FF650AF8B4240EBC250EC
:100EB80008BF20F0010070470CF0004C4CEA5020AD
:100EC8007F32C2BFD2F1FF0340EAC250704740F4FC
:100ED80000004FF00003013A37E792F0000F00F0EE
:100EE800004C02BF400010F4000F013AF9D040EA6C
:100EF8000C0093F0000F01F0004C02BF490011F400
:100F0800000F013BF9D041EA0C0195E70CEAD153F7
:100F180092EA0C0F08D142027FF47DAF93EA0C0FDE
:100F28007FF470AF084676E793EA0C0F04D14B02C2
:100F38003FF44CAF08466EE730F0004C18BF31F074
:100F4800004CCAD130F000427FF45CAF31F000436E
:100F58007FF43CAF5FE700BF4FF0FF3C06E000BF07
:100F68004FF0010C02E000BF4FF0010C4DF804CD2A
:100F78004FEA40024FEA41037FEA226C18BF7FEA3A
:100F8800236C11D001B052EA530C18BF90EA010F3C
:100F980058BFB2EB030088BFC81738BF6FEAE170CB
:100FA80018BF40F0010070477FEA226C02D15FEA67
:100FB800402C05D17FEA236CE4D15FEA412CE1D0D3
:100FC8005DF8040B704700BF844608466146FFE79A
:100FD8000FB5FFF7C9FF002848BF10F1000F0FBD7C
:100FE8004DF808EDFFF7F4FF0CBF012000205DF875
:100FF80008FB00BF4DF808EDFFF7EAFF34BF0120FA
:1010080000205DF808FB00BF4DF808EDFFF7E0FF92
:1010180094BF012000205DF808FB00BF4DF808EDE3
:10102800FFF7D2FF94BF012000205DF808FB00BF46
:101038004DF808EDFFF7C8FF34BF012000205DF828
:1010480008FB00BF4FEA40024FEA41037FEA226CE7
:1010580002D15FEA402C08D17FEA236C02D15FEA13
:10106800412C02D14FF0000070474FF0010070474B
:1010780080B500AF194801F0B7FC00224FF40051C9
:10108800174801F06AF800228021154801F065F838
:1010980000224FF48051124801F05FF800224021ED
:1010A8000F4801F05AF800224FF480710C4801F003
:1010B80054F800224FF48041094801F04EF800220C
:1010C8004FF40071064801F048F800224FF400413F
:1010D800034801F042F800BF80BD00BF7C0000203B
:1010E800000C014080B500AF00224FF400511948B0
:1010F80001F033F801228021164801F02EF8002271
:101108004FF48051134801F028F80122402111487A
:1011180001F023F800224FF480710E4801F01DF809
:1011280001224FF480410B4801F017F801224FF4D7
:101138000071084801F011F800224FF400410548F9
:1011480001F00BF8044BF4221A70044BF4221A70C5
:1011580000BF80BD000C014078000020790000200D
:1011680080B500AF01224FF40051194800F0F5FF97
:1011780000228021164800F0F0FF01224FF4805130
:10118800134800F0EAFF00224021114800F0E5FF73
:1011980000224FF480710E4800F0DFFF01224FF467
:1011A80080410B4800F0D9FF01224FF40071084834
:1011B80000F0D3FF00224FF40041054800F0CDFFB6
:1011C800044BF4221A70044BF4221A7000BF80BD3D
:1011D800000C0140780000207900002080B500AFA5
:1011E80000224FF40051194800F0B7FF0122802176
:1011F800164800F0B2FF00224FF48051134800F067
:10120800ACFF01224021114800F0A7FF01224FF452
:1012180080710E4800F0A1FF00224FF480410B4876
:1012280000F09BFF00224FF40071084800F095FF82
:1012380001224FF40041054800F08FFF044BF422CF
:101248001A70044BF4221A7000BF80BD000C0140D4
:10125800780000207900002080B500AF00224FF40C
:101268000051194800F079FF00228021164800F04B
:1012780074FF00224FF48051134800F06EFF0022E3
:101288004021114800F069FF00224FF480710E4898
:1012980000F063FF00224FF480410B4800F05DFF2F
:1012A80000224FF40071084800F057FF00224FF465
:1012B8000041054800F051FF044B00221A70044B0E
:1012C80000221A7000BF80BD000C01407800002089
:1012D80079000020B0B584B000AF78600A23FB81A4
:1012E8007B6823F000431846FFF7FEF804460D46D6
:1012F800FB891846FFF7E6F802460B4620462946C2
:10130800FFF74AF902460B4610461946FFF756FB07
:101318000346BB604FF000017868FFF76BFE034699
:10132800002B05D0FFF71CFFB86800F039FC04E07B
:10133800FFF754FFB86800F033FCFFF78DFF00BFDC
:101348001037BD46B0BDB0B584B000AF78600A2391
:10135800FB817B6823F000431846FFF7C5F8044675
:101368000D46FB891846FFF7ADF802460B462046A6
:101378002946FFF711F902460B4610461946FFF7B2
:101388001DFB0346BB60FFF7ADFEB86800F008FC24
:10139800FFF762FF00BF1037BD46B0BD80B588B00B
:1013A80000AF07F1100300221A605A609A60DA60F1
:1013B8004C4B9B694B4A43F020039361494B9B6913
:1013C80003F02003FB60FB68464B9B69454A43F0EA
:1013D80010039361434B9B6903F01003BB60BB6828
:1013E800404B9B693F4A43F0040393613D4B9B6923
:1013F80003F004037B607B683A4B9B69394A43F0EE
:1014080008039361374B9B6903F008033B603B6813
:10141800002240F28461344800F09FFE012201213D
:10142800324800F09AFE00224FF2C0312F4800F0F7
:1014380094FE012204212E4800F08FFE40F28463BE
:101448003B6101237B610023BB610223FB6107F140
:1014580010031946244800F0D5FC01233B61002302
:101468007B610223BB6107F110031946214800F094
:10147800C9FC30233B6100237B610123BB6107F179
:1014880010031946184800F0BDFC4FF2C1333B6108
:1014980001237B610023BB610223FB6107F1100379
:1014A8001946124800F0AEFC04233B6101237B611E
:1014B8000023BB610223FB6107F1100319460C48A6
:1014C80000F0A0FC30233B6100237B610123BB615A
:1014D80007F110031946054800F094FC00BF2037B7
:1014E800BD4680BD0010024000100140000C0140C4
:1014F800001401400008014080B500AF10212348C6
:1015080000F014FE0346002B0FD120211F4800F0E5
:101518000DFE0346012B08D101211D4800F006FEEF
:101528000346002B01D101232EE01021174800F0BB
:10153800FDFD0346012B0FD12021144800F0F6FDD4
:101548000346002B08D10121114800F0EFFD0346A6
:10155800002B01D1022317E010210C4800F0E6FD12
:101568000346012B0FD12021084800F0DFFD034678
:10157800012B08D10121064800F0D8FD0346012BB4
:1015880001D1032300E00023184680BD001001406C
:101598000008014080B582B000AF00F09FFA00F06B
:1015A80016F8FFF7FBFE00F0FFF9FFF7A5FF7860DC
:1015B8007B68012B02D100F057F8F6E77B68022B15
:1015C80002D100F0F3F8F0E7FFF746FEEDE780B54B
:1015D80090B000AF07F1180328220021184601F047
:1015E800D9FD3B1D00221A605A609A60DA601A61C0
:1015F8000123BB614FF48033FB6100233B6201236D
:10160800BB6202237B634FF48033BB634FF4E01368
:10161800FB6307F11803184600F0B8FD0346002BDA
:1016280001D000F019F80F237B600223BB60002370
:10163800FB604FF480633B6100237B613B1D02210B
:10164800184601F025F80346002B01D000F004F8F5
:1016580000BF4037BD4680BD80B400AF72B600BF42
:1016680000BFFDE70000000090B58BB000AF4A4B0B
:101678007B6200237B8400233B840123FB767DE08F
:1016880014233B831E23FB82FA8A3B8CD31A3B61CB
:101698003A8B7B8CD31AFB607B8C002B51D038693A
:1016A800FFF7B6FA0446F868FFF7B2FA0346194698
:1016B800204601F0A1FDB860B868FEF715FF4FF0AD
:1016C8000002364BFEF768FF02460B4610461946E5
:1016D8002FA3D3E90023FFF789F802460B461046EB
:1016E8001946FFF78BF903467B607968786AFFF73C
:1016F800D9F90346FB612A49F869FFF799FC0346C3
:10170800002B06D02749F869FFF7CCF90346FB619F
:101718000CE02549F869FFF76DFC0346002B05D05E
:101728002049F869FFF7C0F90346FB61F869FEF73D
:10173800DBFE02460B4610461946FFF7CBFD7B68D9
:101748007B623B6903FB03F2FB6803FB03F313446F
:101758001846FFF75DFA03463B60386801F04EFD16
:1017680038603868FEF7C0FE02460B461046194638
:10177800FFF7E9FD3B8B7B84FB8A3B84FB7E012BD7
:101788003FF47EAF00BF00BF2C37BD4690BD00BF01
:10179800F1D4C853FB2109400000B44200806640E0
:1017A800000034430000B443000034C380B582B065
:1017B80000AFFFF75DFC1021184800F0B7FC0346A6
:1017C800FB712021154800F0B1FC0346BB71FB7981
:1017D800002B05D0BB79002B02D0FFF73DFD19E0A7
:1017E800FB79002B05D1BB79002B02D0FFF7F6FC63
:1017F80010E0FB79002B05D0BB79002B02D1FFF755
:10180800AFFC07E0FB79002B04D1BB79002B01D199
:10181800FFF768FC0A2000F0C3F9CCE7000C014090
:1018280080B485B000AF154B9B69144A43F001039F
:101838009361124B9B6903F00103BB60BB680F4BBC
:10184800DB690E4A43F08053D3610C4BDB6903F02C
:1018580080537B607B680A4B5B68FB60FB6823F006
:10186800E063FB60FB6843F00073FB60044AFB68BD
:10187800536000BF1437BD4680BC7047001002405B
:101888000000014080B400AF00BFFDE780B400AFA6
:1018980000BFFDE780B400AF00BFFDE780B400AF34
:1018A80000BFFDE780B400AF00BFFDE780B400AF24
:1018B80000BFBD4680BC704780B400AF00BFBD46C6
:1018C80080BC704780B400AF00BFBD4680BC704785
:1018D80080B500AF00F048F900BF80BD80B500AF0B
:1018E800024801F0E1F800BF80BD00BF7C00002085
:1018F80080B582B000AF78607B681B68244A934249
:1019080042D1244B1B8801339AB2224B1A80214BB7
:101918001B88092B02D91F4B00221A801D4B1B88DC
:10192800042B0BD801224FF480611B4800F015FCF2
:1019380001220421184800F010FC0AE000224FF4AC
:101948008061154800F009FC00220421124800F0CB
:1019580004FC104B1B88042B0BD801224FF4007198
:101968000D4800F0FAFB012280210B4800F0F5FB3E
:101978000AE000224FF40071074800F0EEFB002255
:101988008021054800F0E9FB00BF0837BD4680BD4F
:10199800000400407A0000200010014080B400AF2D
:1019A80000BFBD4680BC704780B586B000AF07F168
:1019B800080300221A605A609A60DA603B460022E7
:1019C8001A605A601D4B1E4A1A601C4B41F61F4292
:1019D8005A601A4B00229A60184B0922DA60174B9A
:1019E80000221A61154B00229A61144800F0ACFFDE
:1019F8000346002B01D0FFF72FFE4FF48053BB6046
:101A080007F1080319460D4801F03EF90346002B7B
:101A180001D0FFF721FE00233B6000237B603B469B
:101A28001946064801F038FB0346002B01D0FFF7A2
:101A380013FE00BF1837BD4680BD00BF7C000020E4
:101A48000004004080B584B000AF78607B681B68F4
:101A58000D4A934213D10D4BDB690C4A43F0020344
:101A6800D3610A4BDB6903F00203FB60FB680022C9
:101A780001211D2000F08FF91D2000F0A8F900BFFA
:101A88001037BD4680BD00BF000400400010024072
:101A9800FFF784FF0B480C490C4A002302E0D45896
:101AA800C4500433C4188C42F9D3094A094C0023A2
:101AB80001E013600432A242FBD301F079FBFFF787
:101AC80069FD7047000000205C000020CC3600084B
:101AD8005C00002000020020FEE7000080B500AF97
:101AE800084B1B68074A43F010031360032000F0FB
:101AF80047F9002000F008F8FFF792FE0023184687
:101B080080BD00BF0020024080B582B000AF786081
:101B1800124B1A68124B1B7819464FF47A73B3FBB1
:101B2800F1F3B2FBF3F3184600F05FF90346002B1C
:101B380001D001230EE07B680F2B0AD800227968B8
:101B48004FF0FF3000F027F9064A7B681360002346
:101B580000E0012318460837BD4680BD000000207C
:101B6800080000200400002080B400AF054B1B785B
:101B78001A46054B1B681344034A136000BFBD4651
:101B880080BC704708000020C400002080B400AF6B
:101B9800024B1B681846BD4680BC7047C400002035
:101BA80080B584B000AF7860FFF7F0FFB8607B685D
:101BB800FB60FB68B3F1FF3F05D00A4B1B781A4660
:101BC800FB681344FB6000BFFFF7E0FF0246BB68F9
:101BD800D31AFA689A42F7D800BF00BF1037BD463B
:101BE80080BD00BF0800002080B485B000AF7860D9
:101BF8007B6803F00703FB600C4BDB68BB60BA68CB
:101C08004FF6FF031340BB60FB681A02BB6813431F
:101C180043F0BF6343F40033BB60044ABB68D3603E
:101C280000BF1437BD4680BC704700BF00ED00E020
:101C380080B400AF044BDB681B0A03F007031846A7
:101C4800BD4680BC704700BF00ED00E080B483B0A3
:101C580000AF0346FB7197F90730002B0BDBFB79CC
:101C680003F01F02064997F907305B09012000FAC3
:101C780002F241F8232000BF0C37BD4680BC7047F4
:101C880000E100E080B483B000AF03463960FB7127
:101C980097F90730002B0ADB3B68DAB20C4997F951
:101CA80007301201D2B20B4483F800230AE03B68E4
:101CB800DAB20849FB7903F00F03043B1201D2B2F0
:101CC8000B441A7600BF0C37BD4680BC704700BF76
:101CD80000E100E000ED00E080B489B000AFF860FA
:101CE800B9607A60FB6803F00703FB61FB69C3F125
:101CF8000703042B28BF0423BB61FB690433062BAD
:101D080002D9FB69033B00E000237B614FF0FF32FF
:101D1800BB6902FA03F3DA43BB681A407B699A404D
:101D28004FF0FF317B6901FA03F3D9437B680B401D
:101D3800134318462437BD4680BC704780B582B02F
:101D480000AF78607B68013BB3F1807F01D301234A
:101D58000FE00A4A7B68013B53600F214FF0FF30C8
:101D6800FFF790FF054B00229A60044B07221A6088
:101D7800002318460837BD4680BD00BF10E000E0CC
:101D880080B582B000AF78607868FFF72DFF00BF9C
:101D98000837BD4680BD80B586B000AF0346B96040
:101DA8007A60FB7300237B61FFF742FF78617A68F2
:101DB800B9687869FFF790FF024697F90F30114626
:101DC8001846FFF75FFF00BF1837BD4680BD80B5D6
:101DD80082B000AF0346FB7197F907301846FFF74A
:101DE80035FF00BF0837BD4680BD80B582B000AF63
:101DF80078607868FFF7A2FF034618460837BD46A3
:101E080080BD000080B48BB000AF786039600023DB
:101E18007B6200233B6279E101227B6A02FA03F3C9
:101E2800FB613B681B68FA691340BB61BA69FB69CF
:101E38009A4240F068813B685B68964A93425ED05C
:101E4800944A934275D8944A934258D0924A9342FE
:101E58006FD8924A934252D0904A934269D8904A96
:101E680093424CD08E4A934263D88E4A934246D0CE
:101E78008C4A93425DD8122B2AD8122B59D801A22A
:101E880052F823F0071F0008E11E0008F31E00089F
:101E9800351F00083B1F00083B1F00083B1F0008B8
:101EA8003B1F00083B1F00083B1F00083B1F0008A2
:101EB8003B1F00083B1F00083B1F00083B1F000892
:101EC8003B1F00083B1F0008E91E0008FD1E000814
:101ED800754A934213D02CE03B68DB683B6229E0EB
:101EE8003B68DB6804333B6224E03B68DB6808330B
:101EF8003B621FE03B68DB680C333B621AE03B68DF
:101F08009B68002B02D104233B6213E03B689B686B
:101F1800012B05D108233B627B68FA691A6109E045
:101F280008233B627B68FA695A6103E000233B623D
:101F380000E000BFBB69FF2B01D87B6801E07B682C
:101F480004337B61BB69FF2B02D87B6A9B0002E0EC
:101F58007B6A083B9B003B617B691A680F213B69E0
:101F680001FA03F3DB431A40396A3B6901FA03F3C8
:101F78001A437B691A603B685B6803F08053002B47
:101F880000F0C180494B9B69484A43F001039361C3
:101F9800464B9B6903F00103BB60BB68444A7B6AFC
:101FA8009B08023352F82330FB607B6A03F003037B
:101FB8009B000F2202FA03F3DB43FA681340FB602D
:101FC8007B683C4A93421FD07B683B4A934219D0B6
:101FD8007B683A4A934213D07B68394A93420DD0C2
:101FE8007B68384A934207D07B68374A934201D1CD
:101FF80005230AE0062308E0042306E0032304E09F
:10200800022302E0012300E000237A6A02F00302BF
:1020180092009340FA681343FB6025497B6A9B084A
:102028000233FA6841F823203B685B6803F48013A5
:10203800002B06D0254B9A682449BB6913438B6053
:1020480006E0224B9A68BB69DB43204913408B604A
:102058003B685B6803F40013002B06D01B4BDA685F
:102068001A49BB691343CB6006E0184BDA68BB69B1
:10207800DB4316491340CB603B685B6803F40033CD
:10208800002B25D0114B5A681049BB6913434B608C
:1020980025E000BF000032100000311000002210BF
:1020A8000000211000001210000011100010024062
:1020B8000000014000080140000C014000100140F0
:1020C8000014014000180140001C014000040140B8
:1020D800154B5A68BB69DB43134913404B603B6897
:1020E8005B6803F48033002B06D00F4B1A680E4947
:1020F800BB6913430B6006E00B4B1A68BB69DB43F3
:10210800094913400B607B6A01337B623B681A689C
:102118007B6A22FA03F3002B7FF47EAE00BF00BF78
:102128002C37BD4680BC70470004014080B485B0A0
:1021380000AF78600B467B807B689A687B88134089
:10214800002B02D00123FB7301E00023FB73FB7B10
:1021580018461437BD4680BC704780B483B000AFC2
:1021680078600B467B8013467B707B78002B03D00E
:102178007A887B681A6103E07B881A047B681A6195
:1021880000BF0C37BD4680BC7047000080B586B0E4
:1021980000AF78607B68002B01D1012372E27B6875
:1021A8001B6803F00103002B00F08780924B5B68EB
:1021B80003F00C03042B0CD08F4B5B6803F00C036B
:1021C800082B12D18C4B5B6803F48033B3F5803F46
:1021D8000BD1894B1B6803F40033002B6CD07B6850
:1021E8005B68002B68D101234CE27B685B68B3F520
:1021F800803F06D1804B1B687F4A43F480331360CD
:102208002EE07B685B68002B0CD17B4B1B687A4AFD
:1022180023F480331360784B1B68774A23F48023B8
:1022280013601DE07B685B68B3F5A02F0CD1724B7F
:102238001B68714A43F4802313606F4B1B686E4A16
:1022480043F4803313600BE06B4B1B686A4A23F43A
:1022580080331360684B1B68674A23F4802313603C
:102268007B685B68002B13D0FFF790FC386108E0AF
:10227800FFF78CFC02463B69D31A642B01D9032370
:1022880000E25D4B1B6803F40033002BF0D014E030
:10229800FFF77CFC386108E0FFF778FC02463B69F1
:1022A800D31A642B01D90323ECE1534B1B6803F4C5
:1022B8000033002BF0D100E000BF7B681B6803F0FF
:1022C8000203002B63D04C4B5B6803F00C03002B1C
:1022D8000BD0494B5B6803F00C03082B1CD1464B11
:1022E8005B6803F48033002B16D1434B1B6803F063
:1022F8000203002B05D07B681B69012B01D0012349
:10230800C0E13D4B1B6823F0F8027B685B69DB008A
:10231800394913430B603AE07B681B69002B20D0D6
:10232800364B01221A60FFF731FC386108E0FFF7ED
:102338002DFC02463B69D31A022B01D90323A1E1E4
:102348002D4B1B6803F00203002BF0D02A4B1B68AF
:1023580023F0F8027B685B69DB00274913430B60B5
:1023680015E0264B00221A60FFF710FC386108E0E0
:10237800FFF70CFC02463B69D31A022B01D9032351
:1023880080E11D4B1B6803F00203002BF0D17B6832
:102398001B6803F00803002B3AD07B689B69002B6D
:1023A80019D0174B01221A60FFF7F0FB386108E0DB
:1023B800FFF7ECFB02463B69D31A022B01D9032332
:1023C80060E10D4B5B6A03F00203002BF0D00120A3
:1023D80000F09CFA1CE00A4B00221A60FFF7D6FBBB
:1023E80038610FE0FFF7D2FB02463B69D31A022B94
:1023F80008D9032346E100BF001002400000424212
:1024080080044242924B5B6A03F00203002BE9D13D
:102418007B681B6803F00403002B00F0A6800023F0
:10242800FB758B4BDB6903F08053002B0DD1884B78
:10243800DB69874A43F08053D361854BDB6903F03E
:102448008053BB60BB680123FB75824B1B6803F498
:102458008073002B18D17F4B1B687E4A43F480732E
:102468001360FFF793FB386108E0FFF78FFB024624
:102478003B69D31A642B01D9032303E1754B1B680D
:1024880003F48073002BF0D07B68DB68012B06D146
:102498006F4B1B6A6E4A43F0010313622DE07B68A1
:1024A800DB68002B0CD16A4B1B6A694A23F00103D5
:1024B8001362674B1B6A664A23F0040313621CE02D
:1024C8007B68DB68052B0CD1614B1B6A604A43F0C3
:1024D800040313625E4B1B6A5D4A43F001031362F7
:1024E8000BE05B4B1B6A5A4A23F001031362584BFB
:1024F8001B6A574A23F0040313627B68DB68002BCE
:1025080015D0FFF743FB38610AE0FFF73FFB0246AF
:102518003B69D31A41F28832934201D90323B1E0CF
:102528004B4B1B6A03F00203002BEED014E0FFF7BD
:102538002DFB38610AE0FFF729FB02463B69D31AF5
:1025480041F28832934201D903239BE0404B1B6A36
:1025580003F00203002BEED1FB7D012B05D13C4B90
:10256800DB693B4A23F08053D3617B68DB69002B2E
:1025780000F08780364B5B6803F00C03082B61D0B2
:102588007B68DB69022B46D1334B00221A60FFF7C8
:10259800FDFA386108E0FFF7F9FA02463B69D31AF9
:1025A800022B01D903236DE0294B1B6803F000734C
:1025B800002BF0D17B681B6AB3F5803F08D1244B10
:1025C8005B6823F400327B689B68214913434B60A6
:1025D8001F4B5B6823F474127B68196A7B685B6A1B
:1025E8000B431B4913434B601B4B01221A60FFF737
:1025F800CDFA386108E0FFF7C9FA02463B69D31AF9
:10260800022B01D903233DE0114B1B6803F0007333
:10261800002BF0D035E0104B00221A60FFF7B6FA15
:10262800386108E0FFF7B2FA02463B69D31A022B79
:1026380001D9032326E0064B1B6803F00073002B27
:10264800F0D11EE07B68DB69012B07D1012319E07B
:102658000010024000700040600042420B4B5B6873
:10266800FB60FB6803F480327B681B6A9A4206D1E0
:10267800FB6803F470127B685B6A9A4201D00123FD
:1026880000E0002318461837BD4680BD0010024000
:1026980080B584B000AF786039607B68002B01D1C9
:1026A8000123D0E06A4B1B6803F007033A689A429B
:1026B80010D9674B1B6823F0070265493B68134331
:1026C8000B60634B1B6803F007033A689A4201D01A
:1026D8000123B8E07B681B6803F00203002B20D0BD
:1026E8007B681B6803F00403002B05D0594B5B681B
:1026F800584A43F4E06353607B681B6803F008039F
:10270800002B05D0534B5B68524A43F46053536027
:10271800504B5B6823F0F0027B689B684D4913437C
:102728004B607B681B6803F00103002B40D07B687B
:102738005B68012B07D1474B1B6803F40033002B60
:1027480015D101237FE07B685B68022B07D1414BE1
:102758001B6803F00073002B09D1012373E03D4B84
:102768001B6803F00203002B01D101236BE0394BF6
:102778005B6823F003027B685B68364913434B6050
:10278800FFF704FAF8600AE0FFF700FA0246FB6870
:10279800D31A41F28832934201D9032353E02D4BD7
:1027A8005B6803F00C027B685B689B009A42EBD184
:1027B800274B1B6803F007033A689A4210D2244B50
:1027C8001B6823F0070222493B6813430B60204B28
:1027D8001B6803F007033A689A4201D0012332E0EC
:1027E8007B681B6803F00403002B08D0194B5B6857
:1027F80023F4E0627B68DB68164913434B607B680F
:102808001B6803F00803002B09D0124B5B6823F404
:1028180060527B681B69DB000E4913434B6000F074
:1028280021F802460B4B5B681B0903F00F030A49AA
:10283800CB5C22FA03F3094A1360094B1B6818465C
:10284800FFF762F9002318461037BD4680BD00BF68
:1028580000200240001002406036000800000020FE
:102868000400002080B487B000AF0023FB60002381
:10287800BB6000237B6100237B6000233B611E4B10
:102888005B68FB60FB6803F00C03042B02D0082B89
:1028980003D027E0194B3B6127E0FB689B0C03F052
:1028A8000F03174AD35C7B60FB6803F48033002B6B
:1028B80010D0114B5B685B0C03F00103114AD35C29
:1028C800BB607B680D4A03FB02F2BB68B2FBF3F303
:1028D8007B6104E07B680C4A02FB03F37B617B6944
:1028E8003B6102E0054B3B6100BF3B6918461C3762
:1028F800BD4680BC704700BF0010024000127A003D
:10290800703600088036000800093D0080B485B0A4
:1029180000AF78600A4B1B680A4AA2FB03235B0AD4
:102928007A6802FB03F3FB6000BFFB685A1EFA607B
:10293800002BF9D100BF00BF1437BD4680BC7047DB
:1029480000000020D34D621080B582B000AF7860DF
:102958007B68002B01D1012341E07B6893F83D306F
:10296800DBB2002B06D17B68002283F83C20786814
:10297800FFF768F87B68022283F83D207B681A68B5
:102988007B6804331946104600F06AFA7B68012216
:1029980083F846207B68012283F83E207B68012269
:1029A80083F83F207B68012283F840207B6801225E
:1029B80083F841207B68012283F842207B6801224A
:1029C80083F843207B68012283F844207B68012236
:1029D80083F845207B68012283F83D2000231846B0
:1029E8000837BD4680BD000080B485B000AF786070
:1029F8007B6893F83D30DBB2012B01D0012344E022
:102A08007B68022283F83D207B681B68DA687B6854
:102A18001B6842F00102DA607B681B681D4A93421A
:102A280018D07B681B681C4A934213D07B681B68CC
:102A3800B3F1804F0ED07B681B68184A934209D0C7
:102A48007B681B68164A934204D07B681B68154A4A
:102A5800934211D17B681B689B6803F00703FB60F6
:102A6800FB68062B10D07B681B681A687B681B689C
:102A780042F001021A6007E07B681B681A687B68ED
:102A88001B6842F001021A60002318461437BD463D
:102A980080BC7047002C0140003401400004004015
:102AA80000080040000C004080B584B000AF78609A
:102AB8007B681B68DB68FB607B681B681B69BB6005
:102AC800BB6803F00203002B20D0FB6803F002036D
:102AD800002B1BD07B681B686FF002021A617B68B1
:102AE80001221A777B681B689B6903F00303002B9C
:102AF80003D0786800F098F905E0786800F08BF961
:102B0800786800F09AF97B6800221A77BB6803F0AE
:102B18000403002B20D0FB6803F00403002B1BD018
:102B28007B681B686FF004021A617B6802221A77BF
:102B38007B681B689B6903F44073002B03D078689B
:102B480000F072F905E0786800F065F9786800F03F
:102B580074F97B6800221A77BB6803F00803002B1E
:102B680020D0FB6803F00803002B1BD07B681B6890
:102B78006FF008021A617B6804221A777B681B6869
:102B8800DB6903F00303002B03D0786800F04CF9ED
:102B980005E0786800F03FF9786800F04EF97B6846
:102BA80000221A77BB6803F01003002B20D0FB68C3
:102BB80003F01003002B1BD07B681B686FF010021A
:102BC8001A617B6808221A777B681B68DB6903F443
:102BD8004073002B03D0786800F026F905E0786888
:102BE80000F019F9786800F028F97B6800221A7754
:102BF800BB6803F00103002B0CD0FB6803F0010352
:102C0800002B07D07B681B686FF001021A61786897
:102C1800FEF76EFEBB6803F08003002B0CD0FB6848
:102C280003F08003002B07D07B681B686FF08002DD
:102C38001A61786800F0A5FABB6803F04003002B1E
:102C48000CD0FB6803F04003002B07D07B681B689F
:102C58006FF040021A61786800F0F8F8BB6803F07A
:102C68002003002B0CD0FB6803F02003002B07D0B7
:102C78007B681B686FF020021A61786800F078FAA8
:102C880000BF1037BD4680BD80B584B000AF786006
:102C980039600023FB737B6893F83C30012B01D12A
:102CA8000223B4E07B68012283F83C207B6802227F
:102CB80083F83D207B681B689B68BB60BB6823F07A
:102CC8007703BB60BB6823F47F43BB607B681B68EA
:102CD800BA689A603B681B68B3F5005F3ED0B3F5ED
:102CE800005F00F28780B3F5805F00F08680B3F55F
:102CF800805F7FD8702B1AD0702B7BD8602B50D078
:102D0800602B77D8502B3CD0502B73D8402B58D001
:102D1800402B6FD8302B64D0302B6BD8202B60D051
:102D2800202B67D8002B5CD0102B5AD062E07B6830
:102D380018683B6899683B685A683B68DB6800F02C
:102D48008CF97B681B689B68BB60BB6843F07703A2
:102D5800BB607B681B68BA689A604FE07B6818683C
:102D68003B6899683B685A683B68DB6800F075F90E
:102D78007B681B689A687B681B6842F480429A608B
:102D88003CE07B6818683B6859683B68DB681A4612
:102D980000F0ECF87B681B685021184600F043F9F6
:102DA8002CE07B6818683B6859683B68DB681A4602
:102DB80000F00AF97B681B686021184600F033F9B7
:102DC8001CE07B6818683B6859683B68DB681A46F2
:102DD80000F0CCF87B681B684021184600F023F906
:102DE8000CE07B681A683B681B681946104600F0BF
:102DF8001AF903E00123FB7300E000BF7B6801229E
:102E080083F83D207B68002283F83C20FB7B184632
:102E18001037BD4680BD80B483B000AF786000BF76
:102E28000C37BD4680BC704780B483B000AF786073
:102E380000BF0C37BD4680BC704780B483B000AF7C
:102E4800786000BF0C37BD4680BC704780B483B043
:102E580000AF786000BF0C37BD4680BC70470000EB
:102E680080B485B000AF786039607B681B68FB6010
:102E78007B68394A934213D07B68384A93420FD013
:102E88007B68B3F1804F0BD07B68354A934207D0FB
:102E98007B68344A934203D07B68334A934208D113
:102EA800FB6823F07003FB603B685B68FA681343B8
:102EB800FB607B68284A934213D07B68274A934279
:102EC8000FD07B68B3F1804F0BD07B68244A9342C4
:102ED80007D07B68234A934203D07B68224A9342F7
:102EE80008D1FB6823F44073FB603B68DB68FA6831
:102EF8001343FB60FB6823F080023B685B69134364
:102F0800FB607B68FA681A603B689A687B68DA62DB
:102F18003B681A687B689A627B680F4A934203D0C1
:102F28007B680E4A934203D13B681A697B681A632F
:102F38007B6801225A617B681B6903F00103002B3F
:102F480005D07B681B6923F001027B681A6100BF0A
:102F58001437BD4680BC7047002C01400034014046
:102F68000004004000080040000C004080B487B016
:102F780000AFF860B9607A60FB681B6A7B61FB6828
:102F88001B6A23F00102FB681A62FB689B693B61BC
:102F98003B6923F0F0033B617B681B013A691343EB
:102FA8003B617B6923F00A037B617A69BB68134341
:102FB8007B61FB683A699A61FB687A691A6200BFAB
:102FC8001C37BD4680BC704780B487B000AFF8603E
:102FD800B9607A60FB681B6A7B61FB681B6A23F037
:102FE8001002FB681A62FB689B693B613B6923F42A
:102FF80070433B617B681B033A6913433B617B6900
:1030080023F0A0037B61BB681B017A6913437B61D2
:10301800FB683A699A61FB687A691A6200BF1C37D3
:10302800BD4680BC704780B485B000AF7860396019
:103038007B689B68FB60FB6823F07003FB603A6861
:10304800FB68134343F00703FB607B68FA689A60E8
:1030580000BF1437BD4680BC704780B487B000AF4E
:10306800F860B9607A603B60FB689B687B617B694C
:1030780023F47F437B613B681A027B681A43BB6871
:1030880013437A6913437B61FB687A699A6000BFCE
:103098001C37BD4680BC704780B485B000AF7860EF
:1030A80039607B6893F83C30012B01D1022350E052
:1030B8007B68012283F83C207B68022283F83D204C
:1030C8007B681B685B68FB607B681B689B68BB60F0
:1030D800FB6823F07003FB603B681B68FA681343C6
:1030E800FB607B681B68FA685A607B681B681B4A30
:1030F800934218D07B681B68194A934213D07B68A7
:103108001B68B3F1804F0ED07B681B68154A934249
:1031180009D07B681B68144A934204D07B681B68FB
:10312800124A93420CD1BB6823F08003BB603B6812
:103138005B68BA681343BB607B681B68BA689A60AF
:103148007B68012283F83D207B68002283F83C20BD
:10315800002318461437BD4680BC7047002C014038
:10316800003401400004004000080040000C00400A
:1031780080B483B000AF786000BF0C37BD4680BC18
:10318800704780B483B000AF786000BF0C37BD468D
:1031980080BC704703460244934200D1704703F84D
:1031A800011BF9E7014B1868704700BF0C000020AD
:1031B80070B500260C4D0D4C641BA410A64209D115
:1031C80000F03EFA00260A4D0A4C641BA410A642E1
:1031D80005D170BD55F8043B98470136EEE755F820
:1031E800043B98470136F2E7C4360008C4360008A5
:1031F800C4360008C836000800F08AB838B5054655
:1032080000F016F8294604462846FDF71BFF68B962
:1032180000212846FDF7EEFE40B1FFF7C3FF21234A
:10322800002103600846FDF7FBFD0446204638BD33
:1032380020F00042B2F1FF4F2DE9F0410346044669
:103248000AD30146FDF738FD01462046FDF72CFC60
:1032580004462046BDE8F081002AFAD0002806DAA4
:103268000146FDF71FFC0146FDF7DAFDF0E710F017
:10327800FF413CD0C2150024192026464FF080712A
:10328800C3F31603A2F17F0543F40003D20758BF26
:103298005B006D105B0072189A42CFBF1A46561831
:1032A80064189A1A01384FEA42034FEA5101F2D1E1
:1032B800BAB1154E154F30683968FDF7F3FBD6F8EB
:1032C800008001464046FDF79FFE50B130683968DE
:1032D800FDF7EAFB366801463046FDF78BFE70B114
:1032E8000234641004F17C5404EBC554B1E75B006C
:1032F80018020A4601F10101F9D55242BBE701342F
:1033080024F00104EDE700BF883600088436000881
:10331800F8B521F00046B6F1FF4F034605D820F076
:103328000042B2F1FF4F074604D91846FDF7BCFB2F
:10333800034610E0B1F17E5F03D1BDE8F84000F02C
:103348006FB88C1704F0020444EAD0742AB9022C2E
:103358004BD0032C4BD01846F8BD1EB9002F4CDBC0
:10336800274BF8E7B6F1FF4F0ED1B2F1FF4F04F14A
:10337800FF3405D1022C3CD8224B53F82430EAE71D
:10338800022C38D8204BF8E7B2F1FF4FE6D0921B59
:10339800B2F1F45F4FEAE25017DA002901DA3C3063
:1033A80015DB1846FDF73CFD00F046F900F038F84B
:1033B8000346012C0DD0022C0ED0002CCBD0134983
:1033C8001846FDF771FB12490CE00D4BF1E700239D
:1033D800EFE703F10043BEE70C491846FDF764FB2D
:1033E80001460B48FDF75EFBA2E7094BB3E7094B23
:1033F800B1E7094BAFE70023ADE7084BABE700BFE8
:10340800DB0FC93F983600088C3600082EBDBB3349
:10341800DB0F4940DB0F49C0DB0F493FDB0FC9BF5A
:103428002DE9F04120F00045B5F1A14F0446804652
:103438000ED3B5F1FF4F04D90146FDF735FB04461D
:1034480003E0002840F3CE80674C2046BDE8F081B9
:10345800664B9D420ED8B5F1445F08D26449FDF72A
:1034680023FB4FF07E51FDF7E3FD0028EDD14FF02F
:10347800FF361CE000F0E0F85E4B04469D427CD825
:10348800A3F5D0039D4267D80146FDF70DFB4FF029
:103498007E51FDF707FB4FF0804105462046FDF7BA
:1034A80003FB01462846FDF7BBFC002604462146DF
:1034B8002046FDF701FC01460746FDF7FDFB0546E2
:1034C8004D49FDF7F9FB4D49FDF7EEFA2946FDF7A1
:1034D800F3FB4B49FDF7E8FA2946FDF7EDFB4949AF
:1034E800FDF7E2FA2946FDF7E7FB4749FDF7DCFA65
:1034F8002946FDF7E1FB4549FDF7D6FA3946FDF7C0
:10350800DBFB434907462846FDF7D6FB4149FDF753
:10351800C9FA2946FDF7D0FB3F49FDF7C3FA29460A
:10352800FDF7CAFB3D49FDF7BDFA2946FDF7C4FB87
:103538003B49FDF7B7FA2946FDF7BEFB0146384679
:10354800FDF7B2FA2146FDF7B7FB731C014633D1EC
:103558002046FDF7A7FA72E74FF07E51FDF7A2FA71
:103568004FF07E5105462046FDF79EFA0146284653
:10357800FDF756FC0126044699E72A4B9D4214D8CC
:103588004FF07F51FDF78EFA4FF07F5105462046E8
:10359800FDF792FB4FF07E51FDF786FA014628466B
:1035A800FDF73EFC0226044681E701461E48FDF76A
:1035B80037FC032604467AE71C4B53F82610FDF720
:1035C80071FA2146FDF76EFA194B014653F82600A9
:1035D800FDF768FAB8F1000F0446BFF636AF00F100
:1035E800004432E7134C30E7DB0FC93FFFFFDF3EF3
:1035F800CAF24971FFFF973FD769853C59DA4B3DBD
:10360800356B883D6E2EBA3D2549123EABAAAA3EBF
:1036180021A215BD6BF16E3D95879D3D388EE33D2A
:10362800CDCC4C3EFFFF1B40000080BFA4360008F5
:10363800B4360008DB0FC9BF20F000407047000017
:10364800F8B500BFF8BC08BC9E467047F8B500BF87
:08365800F8BC08BC9E46704757
:103660000000000000000000010203040607080932
:1036700002030405060708090A0B0C0D0E0F1010B3
:10368000010200006042A20D0000803F00000080A7
:10369000DB0F4940DB0F49C0DB0F49BFE4CB1640CD
:1036A000E4CB16C06937AC3168212233B40F143330
:1036B0006821A2333863ED3EDA0F493F5E987B3FC5
:0436C000DA0FC93F15
:0436C4000D020008EB
:0436C800E90100080C
:1036CC0000127A0010000000010000001000002021
:1036DC0000000000C80000203001002098010020EC
:1036EC0000000000000000000000000000000000CE
:1036FC0000000000000000000000000000000000BE
:10370C0000000000000000000000000000000000AD
:0C371C00000000000000000000000000A1
:0400000508001A993C
:00000001FF
