:020000040800F2
:1000000000C00020311E0008351A00083D1A000803
:10001000451A00084D1A0008551A00080000000093
:100020000000000000000000000000005D1A000851
:10003000691A000800000000751A0008811A0008FB
:10004000791E0008791E0008791E0008791E000834
:10005000791E0008791E0008791E0008791E000824
:10006000791E0008791E0008791E0008791E000814
:10007000791E0008791E0008791E0008791E000804
:10008000791E0008791E0008791E0008791E0008F4
:10009000791E0008791E0008791E0008791E0008E4
:1000A000791E0008791E0008791E0008791E0008D4
:1000B000791E00088D1A0008791E0008791E0008B4
:1000C000791E0008791E0008791E0008791E0008B4
:1000D000791E0008A11A0008791E0008791E000880
:1000E000791E0008791E0008791E0008791E000894
:1000F000791E0008791E0008791E0008791E000884
:10010000791E0008791E0008791E0008791E000873
:10011000791E0008791E0008791E0008791E000863
:10012000791E0008791E0008791E0008791E000853
:1001300000000000000000000000000000000000BF
:1001400000000000000000000000000000000000AF
:10015000000000000000000000000000000000009F
:10016000000000000000000000000000000000008F
:10017000000000000000000000000000000000007F
:10018000000000000000000000000000000000006F
:10019000000000000000000000000000000000005F
:1001A000000000000000000000000000000000004F
:1001B000000000000000000000000000000000003F
:1001C000000000000000000000000000000000002F
:1001D000000000000000000000000000000000001F
:0401E0005FF8E0F1F3
:1001E80010B5054C237833B9044B13B10448AFF369
:1001F80000800123237010BD5C0000200000000077
:10020800DC53000808B5034B1BB103490348AFF39F
:10021800008008BD0000000060000020DC530008DA
:1002280081F0004102E000BF83F0004330B54FEA9F
:1002380041044FEA430594EA050F08BF90EA020F0C
:100248001FBF54EA000C55EA020C7FEA645C7FEA9F
:10025800655C00F0E2804FEA5454D4EB5555B8BFC2
:100268006D420CDD2C4480EA020281EA030382EA33
:10027800000083EA010180EA020281EA0303362DC5
:1002880088BF30BD11F0004F4FEA01314FF4801C98
:100298004CEA113102D0404261EB410113F0004FAA
:1002A8004FEA03334CEA133302D0524263EB430361
:1002B80094EA050F00F0A780A4F10104D5F1200EFF
:1002C8000DDB02FA0EFC22FA05F2801841F100015A
:1002D80003FA0EF2801843FA05F359410EE0A5F12E
:1002E80020050EF1200E012A03FA0EFC28BF4CF05F
:1002F800020C43FA05F3C01851EBE37101F0004515
:1003080007D54FF0000EDCF1000C7EEB00006EEB21
:100318000101B1F5801F1BD3B1F5001F0CD34908AB
:100328005FEA30004FEA3C0C04F101044FEA445202
:1003380012F5800F80F09A80BCF1004F08BF5FEA89
:10034800500C50F1000041EB045141EA050130BD69
:100358005FEA4C0C404141EB0101013C28BFB1F57B
:10036800801FE9D291F0000F04BF01460020B1FAC6
:1003780081F308BF2033A3F10B03B3F120020CDA99
:100388000C3208DD02F1140CC2F10C0201FA0CF077
:1003980021FA02F10CE002F11402D8BFC2F1200CDC
:1003A80001FA02F120FA0CFCDCBF41EA0C01904092
:1003B800E41AA2BF01EB0451294330BD6FEA0404DB
:1003C8001F3C1CDA0C340EDC04F11404C4F12002C6
:1003D80020FA04F001FA02F340EA030021FA04F3D8
:1003E80045EA030130BDC4F10C04C4F1200220FA2F
:1003F80002F001FA04F340EA0300294630BD21FA6D
:1004080004F0294630BD94F0000F83F4801306BF32
:1004180081F480110134013D4EE77FEA645C18BF26
:100428007FEA655C29D094EA050F08BF90EA020FBD
:1004380005D054EA000C04BF1946104630BD91EAB5
:10044800030F1EBF0021002030BD5FEA545C05D1B8
:100458004000494128BF41F0004130BD14F58004F7
:100468003CBF01F5801130BD01F0004545F0FE416B
:1004780041F470014FF0000030BD7FEA645C1ABFA0
:10048800194610467FEA655C1CBF0B46024650EAD7
:10049800013406BF52EA033591EA030F41F4002103
:1004A80030BD00BF90F0000F04BF0021704730B589
:1004B8004FF4806404F132044FF000054FF000015E
:1004C80050E700BF90F0000F04BF0021704730B51F
:1004D8004FF4806404F1320410F0004548BF4042F4
:1004E8004FF000013EE700BF42004FEAE2014FEA49
:1004F80031014FEA02701FBF12F07F4393F07F4F24
:1005080081F06051704732F07F4208BF704793F026
:100518007F4F04BF41F40021704730B54FF4607439
:1005280001F0004521F000411CE700BF50EA01023C
:1005380008BF704730B54FF000050AE050EA0102E5
:1005480008BF704730B511F0004502D5404261EB55
:1005580041014FF4806404F132045FEA915C3FF496
:10056800D8AE4FF003025FEADC0C18BF03325FEA33
:10057800DC0C18BF033202EBDC02C2F1200300FAE4
:1005880003FC20FA02F001FA03FE40EA0E0021FA09
:1005980002F11444BDE600BF70B54FF0FF0C4CF4F7
:1005A800E06C1CEA11541DBF1CEA135594EA0C0FA9
:1005B80095EA0C0F00F0DEF82C4481EA030621EAE4
:1005C8004C5123EA4C5350EA013518BF52EA03351F
:1005D80041F4801143F4801338D0A0FB02CE4FF0D1
:1005E8000005E1FB02E506F00042E0FB03E54FF001
:1005F8000006E1FB03569CF0000F18BF4EF0010EF9
:10060800A4F1FF04B6F5007F64F5407404D25FEAF4
:100618004E0E6D4146EB060642EAC62141EA5551A7
:100628004FEAC52040EA5E504FEACE2EB4F1FD0CE9
:1006380088BFBCF5E06F1ED8BEF1004F08BF5FEA67
:10064800500E50F1000041EB045170BD06F0004619
:1006580046EA010140EA020081EA0301B4EB5C04C6
:10066800C2BFD4EB0C0541EA045170BD41F48011BE
:100678004FF0000E013C00F3AB8014F1360FDEBFE3
:10068800002001F0004170BDC4F10004203C35DABF
:100698000C341BDC04F11404C4F1200500FA05F342
:1006A80020FA04F001FA05F240EA020001F00042E3
:1006B80021F0004110EBD37021FA04F642EB060159
:1006C8005EEA430E08BF20EAD37070BDC4F10C0483
:1006D800C4F1200500FA04F320FA05F001FA04F247
:1006E80040EA020001F0004110EBD37041F1000133
:1006F8005EEA430E08BF20EAD37070BDC4F120053E
:1007080000FA05F24EEA020E20FA04F301FA05F2A5
:1007180043EA020321FA04F001F0004121FA04F24D
:1007280020EA020000EBD3705EEA430E08BF20EA1D
:10073800D37070BD94F0000F0FD101F00046400057
:1007480041EB010111F4801F08BF013CF7D041EAD9
:10075800060195F0000F18BF704703F000465200DD
:1007680043EB030313F4801F08BF013DF7D043EAAE
:100778000603704794EA0C0F0CEA135518BF95EA64
:100788000C0F0CD050EA410618BF52EA4306D1D1EB
:1007980081EA030101F000414FF0000070BD50EA0A
:1007A800410606BF1046194652EA430619D094EA94
:1007B8000C0F02D150EA013613D195EA0C0F05D17E
:1007C80052EA03361CBF104619460AD181EA0301D2
:1007D80001F0004141F0FE4141F470014FF000008A
:1007E80070BD41F0FE4141F4780170BD70B54FF025
:1007F800FF0C4CF4E06C1CEA11541DBF1CEA1355A5
:1008080094EA0C0F95EA0C0F00F0A7F8A4EB050486
:1008180081EA030E52EA03354FEA013100F088807D
:100828004FEA03334FF0805545EA131343EA126346
:100838004FEA022245EA111545EA10654FEA0026FB
:100848000EF000419D4208BF964244F1FD0404F5B4
:10085800407402D25B084FEA3202B61A65EB030510
:100868005B084FEA32024FF480104FF4002CB6EBCD
:10087800020E75EB030E22BFB61A754640EA0C004D
:100888005B084FEA3202B6EB020E75EB030E22BF8D
:10089800B61A754640EA5C005B084FEA3202B6EBCE
:1008A800020E75EB030E22BFB61A754640EA9C008D
:1008B8005B084FEA3202B6EB020E75EB030E22BF5D
:1008C800B61A754640EADC0055EA060E18D04FEA1B
:1008D800051545EA16754FEA06164FEAC30343EABB
:1008E80052734FEAC2025FEA1C1CC0D111F4801F88
:1008F8000BD141EA00014FF000004FF0004CB6E781
:1009080011F4801F04BF01430020B4F1FD0C88BF1F
:10091800BCF5E06F3FF6AFAEB5EB030C04BFB6EB2A
:10092800020C5FEA500C50F1000041EB045170BD1D
:100938000EF0004E4EEA113114EB5C04C2BFD4EB4A
:100948000C0541EA045170BD41F480114FF0000ECE
:10095800013C90E645EA060E8DE60CEA135594EA4A
:100968000C0F08BF95EA0C0F3FF43BAF94EA0C0F4D
:100978000AD150EA01347FF434AF95EA0C0F7FF4C2
:1009880025AF104619462CE795EA0C0F06D152EA16
:1009980003353FF4FDAE1046194622E750EA4106FA
:1009A80018BF52EA43067FF4C5AE50EA41047FF40B
:1009B8000DAF52EA43057FF4EBAE12E74A0011D2BD
:1009C80012F5001211D20DD56FF47873B3EB6252A1
:1009D8000ED44FEAC12343F0004343EA505323FAAD
:1009E80002F070474FF00000704750EA013002D122
:1009F8004FF0FF3070474FF0000070474FEA410258
:100A0800B2F1E04324BFB3F5001CDCF1FE5C0DD964
:100A180001F0004C4FEAC0024CEA5070B2F1004FAE
:100A280040EB830008BF20F00100704711F0804FB1
:100A380021D113F13872BCBF01F00040704741F476
:100A480080114FEA5252C2F11802C2F1200C10FA7A
:100A58000CF320FA02F018BF40F001004FEAC1235E
:100A68004FEAD32303FA0CFC40EA0C0023FA02F302
:100A78004FEA4303CCE77FEA625307D150EA0133D8
:100A88001EBF4FF0FE4040F44000704701F00040A8
:100A980040F0FE4040F40000704700BF80F0004086
:100AA80002E000BF81F0004142001FBF5FEA41033E
:100AB80092EA030F7FEA226C7FEA236C6AD04FEA3E
:100AC8001262D2EB1363C1BFD21841404840414083
:100AD800B8BF5B42192B88BF704710F0004F40F435
:100AE800000020F07F4018BF404211F0004F41F451
:100AF800000121F07F4118BF494292EA030F3FD01D
:100B0800A2F1010241FA03FC10EB0C00C3F120032F
:100B180001FA03F100F0004302D5494260EB4000BE
:100B2800B0F5000F13D3B0F1807F06D340084FEA29
:100B3800310102F10102FE2A51D2B1F1004F40EB1E
:100B4800C25008BF20F0010040EA03007047490086
:100B580040EB0000013A28BFB0F5000FEDD2B0FA23
:100B680080FCACF1080CB2EB0C0200FA0CF0AABF46
:100B780000EBC25052421843BCBFD04018437047E4
:100B880092F0000F81F4000106BF80F400000132EA
:100B9800013BB5E74FEA41037FEA226C18BF7FEAC1
:100BA800236C21D092EA030F04D092F0000F08BF03
:100BB8000846704790EA010F1CBF0020704712F0EA
:100BC8007F4F04D1400028BF40F00040704712F129
:100BD80000723CBF00F50000704700F0004343F08E
:100BE800FE4040F4000070477FEA226216BF0846C4
:100BF8007FEA23630146420206BF5FEA412390EA87
:100C0800010F40F4800070474FF0000304E000BF7C
:100C180010F0004348BF40425FEA000C08BF70472D
:100C280043F0964301464FF000001CE050EA0102F1
:100C380008BF70474FF000030AE000BF50EA010206
:100C480008BF704711F0004302D5404261EB4101F3
:100C58005FEA010C02BF84460146002043F0B64318
:100C680008BFA3F18053A3F50003BCFA8CF2083A3D
:100C7800A3EBC25310DB01FA02FC634400FA02FC46
:100C8800C2F12002BCF1004F20FA02F243EB02004D
:100C980008BF20F00100704702F1200201FA02FCAF
:100CA800C2F1200250EA4C0021FA02F243EB0200A2
:100CB80008BF20EADC7070474FF0FF0C1CEAD052E6
:100CC8001EBF1CEAD15392EA0C0F93EA0C0F6FD0A7
:100CD8001A4480EA010C400218BF5FEA41211ED085
:100CE8004FF0006343EA501043EA5111A0FB013171
:100CF8000CF00040B1F5000F3EBF490041EAD37146
:100D08005B0040EA010062F17F02FD2A1DD8B3F1C1
:100D1800004F40EBC25008BF20F00100704790F030
:100D2800000F0CF0004C08BF49024CEA502040EA82
:100D380051207F3AC2BFD2F1FF0340EAC250704748
:100D480040F400004FF00003013A5DDC12F1190F86
:100D5800DCBF00F000407047C2F10002410021FAF8
:100D680002F1C2F1200200FA02FC5FEA310040F110
:100D7800000053EA4C0308BF20EADC70704792F089
:100D8800000F00F0004C02BF400010F4000F013AC1
:100D9800F9D040EA0C0093F0000F01F0004C02BFBC
:100DA800490011F4000F013BF9D041EA0C018FE72B
:100DB8000CEAD15392EA0C0F18BF93EA0C0F0AD031
:100DC80030F0004C18BF31F0004CD8D180EA010057
:100DD80000F00040704790F0000F17BF90F0004FF0
:100DE800084691F0000F91F0004F14D092EA0C0FD2
:100DF80001D142020FD193EA0C0F03D14B0218BF65
:100E0800084608D180EA010000F0004040F0FE40AA
:100E180040F40000704740F0FE4040F44000704746
:100E28004FF0FF0C1CEAD0521EBF1CEAD15392EAC5
:100E38000C0F93EA0C0F69D0A2EB030280EA010CB5
:100E480049024FEA402037D04FF0805343EA11114E
:100E580043EA10130CF000408B4238BF5B0042F1AC
:100E68007D024FF4000C8B4224BF5B1A40EA0C0051
:100E7800B3EB510F24BFA3EB510340EA5C00B3EB83
:100E8800910F24BFA3EB910340EA9C00B3EBD10F71
:100E980024BFA3EBD10340EADC001B0118BF5FEAC3
:100EA8001C1CE0D1FD2A3FF650AF8B4240EBC250EC
:100EB80008BF20F0010070470CF0004C4CEA5020AD
:100EC8007F32C2BFD2F1FF0340EAC250704740F4FC
:100ED80000004FF00003013A37E792F0000F00F0EE
:100EE800004C02BF400010F4000F013AF9D040EA6C
:100EF8000C0093F0000F01F0004C02BF490011F400
:100F0800000F013BF9D041EA0C0195E70CEAD153F7
:100F180092EA0C0F08D142027FF47DAF93EA0C0FDE
:100F28007FF470AF084676E793EA0C0F04D14B02C2
:100F38003FF44CAF08466EE730F0004C18BF31F074
:100F4800004CCAD130F000427FF45CAF31F000436E
:100F58007FF43CAF5FE700BF4FF0FF3C06E000BF07
:100F68004FF0010C02E000BF4FF0010C4DF804CD2A
:100F78004FEA40024FEA41037FEA226C18BF7FEA3A
:100F8800236C11D001B052EA530C18BF90EA010F3C
:100F980058BFB2EB030088BFC81738BF6FEAE170CB
:100FA80018BF40F0010070477FEA226C02D15FEA67
:100FB800402C05D17FEA236CE4D15FEA412CE1D0D3
:100FC8005DF8040B704700BF844608466146FFE79A
:100FD8000FB5FFF7C9FF002848BF10F1000F0FBD7C
:100FE8004DF808EDFFF7F4FF0CBF012000205DF875
:100FF80008FB00BF4DF808EDFFF7EAFF34BF0120FA
:1010080000205DF808FB00BF4DF808EDFFF7E0FF92
:1010180094BF012000205DF808FB00BF4DF808EDE3
:10102800FFF7D2FF94BF012000205DF808FB00BF46
:101038004DF808EDFFF7C8FF34BF012000205DF828
:1010480008FB00BF4FEA40024FEA41037FEA226CE7
:1010580002D15FEA402C08D17FEA236C02D15FEA13
:10106800412C02D14FF0000070474FF0010070474B
:101078004FEA4002B2F1FE4F0FD34FF09E03B3EB9D
:1010880012620DD94FEA002343F0004310F0004FDD
:1010980023FA02F018BF404270474FF00000704733
:1010A80012F1610F01D1420205D110F0004008BFD2
:1010B8006FF0004070474FF00000704780B500AFF8
:1010C800194801F0D1FF00224FF40051174801F0F0
:1010D80052FB00228021154801F04DFB00224FF4FD
:1010E8008051124801F047FB002240210F4801F0CF
:1010F80042FB00224FF480710C4801F03CFB0022B7
:101108004FF48041094801F036FB00224FF400718A
:10111800064801F030FB00224FF40041034801F07B
:101128002AFB00BF80BD00BF90000020000C0140DA
:1011380080B500AF00224FF40051164801F01BFBA8
:1011480001228021134801F016FB00224FF4805140
:10115800104801F010FB012240210E4801F00BFB62
:1011680000224FF480710B4801F005FB01224FF477
:101178008041084801F0FFFA01224FF40071054848
:1011880001F0F9FA00224FF40041024801F0F3FAA5
:1011980000BF80BD000C014080B500AF01224FF4B4
:1011A8000051164801F0E7FA00228021134801F0A7
:1011B800E2FA01224FF48051104801F0DCFA0022D3
:1011C80040210E4801F0D7FA00224FF480710B48F5
:1011D80001F0D1FA01224FF48041084801F0CBFA1E
:1011E80001224FF40071054801F0C5FA00224FF4BE
:1011F8000041024801F0BFFA00BF80BD000C014069
:1012080080B500AF00224FF40051164801F0B3FA40
:1012180001228021134801F0AEFA00224FF48051D8
:10122800104801F0A8FA012240210E4801F0A3FA63
:1012380001224FF480710B4801F09DFA00224FF40F
:101248008041084801F097FA00224FF400710548E0
:1012580001F091FA01224FF40041024801F08BFAA3
:1012680000BF80BD000C014080B500AF00224FF4E4
:101278000051164801F07FFA00228021134801F03E
:101288007AFA00224FF48051104801F074FA0022D3
:1012980040210E4801F06FFA00224FF480710B488C
:1012A80001F069FA00224FF48041084801F063FA1E
:1012B80000224FF40071054801F05DFA00224FF456
:1012C8000041024801F057FA00BF80BD000C014000
:1012D800B0B584B000AF78600A23FB81174BBB60C0
:1012E8007B68002B13DAFFF757FFBB6883F00043D6
:1012F8001846FFF7F9F804460D46B868FFF7F4F802
:1013080002460B462046294600F0A6FC12E0FFF7ED
:1013180077FFB868FFF7E8F804460D46BB6883F026
:1013280000431846FFF7E0F802460B4620462946D8
:1013380000F092FC00BF1037BD46B0BD0000A041D0
:10134800B0B584B000AF78600A23FB81FFF7F0FEE8
:10135800094BBB60B868FFF7C7F804460D46B86884
:10136800FFF7C2F802460B462046294600F074FCF7
:1013780000BF1037BD46B0BD0000A04180B588B0A1
:1013880000AF07F1100300221A605A609A60DA6011
:101398004C4B9B694B4A43F020039361494B9B6933
:1013A80003F02003FB60FB68464B9B69454A43F00A
:1013B80010039361434B9B6903F01003BB60BB6848
:1013C800404B9B693F4A43F0040393613D4B9B6943
:1013D80003F004037B607B683A4B9B69394A43F00E
:1013E80008039361374B9B6903F008033B603B6834
:1013F800002240F28461344801F0BDF90122012144
:10140800324801F0B8F900224FF2C0312F4801F0FC
:10141800B2F9012204212E4801F0ADF940F28463AB
:101428003B6101237B610023BB610223FB6107F160
:1014380010031946244800F0F3FF01233B61002301
:101448007B610223BB6107F110031946214800F0B4
:10145800E7FF30233B6100237B610123BB6107F178
:1014680010031946184800F0DBFF4FF2C1333B6107
:1014780001237B610023BB610223FB6107F1100399
:101488001946124800F0CCFF04233B6101237B611D
:101498000023BB610223FB6107F1100319460C48C6
:1014A80000F0BEFF30233B6100237B610123BB6159
:1014B80007F110031946054800F0B2FF00BF2037B6
:1014C800BD4680BD0010024000100140000C0140E4
:1014D800001401400008014080B500AF10212348E6
:1014E80001F032F90346002B0FD120211F4801F0EB
:1014F8002BF90346012B08D101211D4801F024F9DD
:101508000346002B01D101232EE01021174801F0DA
:101518001BF90346012B0FD12021144801F014F9BF
:101528000346002B08D10121114801F00DF90346AB
:10153800002B01D1022317E010210C4801F004F917
:101548000346012B0FD12021084801F0FDF803467E
:10155800012B08D10121064801F0F6F80346012BBA
:1015680001D1032300E00023184680BD001001408C
:101578000008014080B582B000AF00F07BFC00F0AD
:1015880025F8FFF7FBFE00F0F3FA00F0CFFBFFF7BA
:10159800A3FF78600B4B1B78302B04D1002201216C
:1015A800094801F0E8F87B68012B02D100F05CF8EB
:1015B800EDE77B68022B02D100F0B4F9E7E7FFF70B
:1015C80053FEE4E778000020000C014080B590B09D
:1015D80000AF07F1180328220021184602F0AAFEDE
:1015E8003B1D00221A605A609A60DA601A61012372
:1015F800BB614FF48033FB6100233B620123BB6274
:1016080002237B634FF48033BB634FF4E013FB6327
:1016180007F11803184601F0C7F80346002B01D05C
:1016280000F019F80F237B600223BB600023FB60E6
:101638004FF480633B6100237B613B1D0221184608
:1016480001F034FB0346002B01D000F004F800BF82
:101658004037BD4680BD80B400AF72B600BF00BF42
:10166800FDE700000000000090B58DB000AFA84B6A
:10167800FB6200237B8500233B85022387F8233008
:101688007DE01423FB821E23BB82BA8A3B8DD31ACA
:101698003B61FA8A7B8DD31AFB607B8D002B51D07E
:1016A8003869FFF7B5FA0446F868FFF7B1FA034658
:1016B8001946204602F070FEB860B868FEF714FFBD
:1016C8004FF00002934BFEF767FF02460B461046A9
:1016D80019468BA3D3E90023FFF788F802460B4687
:1016E80010461946FFF78AF903467B607968F86A5D
:1016F800FFF7D8F903467B628749786AFFF798FCB9
:101708000346002B06D08549786AFFF7CBF90346D4
:101718007B620CE08249786AFFF76CFC0346002B79
:1017280005D07E49786AFFF7BFF903467B62786A7D
:10173800FEF7DAFE02460B4610461946FFF7C8FDCB
:101748007B68FB623B6903FB03F2FB6803FB03F363
:1017580013441846FFF75CFA03463B60386802F00A
:101768001DFE38603868FEF7BFFE02460B4610467D
:101778001946FFF7E5FDFB8A7B85BB8A3B8597F811
:101788002330012B3FF47DAFAEE040F27623FB61BE
:101798004FF4FA63BB61FFF791FC5A20FFF798FDFD
:1017A800FB69184600F0C8FBFFF75EFD002100202A
:1017B80000F052FA6420FFF7C3FDBB69184600F039
:1017C800BBFBFFF751FD0021002000F045FA6FF048
:1017D8005900FFF77DFDF869FEF774FE4AA3D3E9C7
:1017E8000023FEF7D9FE02460B4610461946FFF7BE
:1017F800E5F80346184600F09FFBFFF735FD00218A
:10180800002000F029FA3220FFF79AFDBB69DA0FB1
:1018180013445B10184600F08FFBFFF725FD0021ED
:10182800002000F019FA6FF05900FFF751FDF86930
:10183800FEF748FE34A3D3E90023FEF7ADFE0246C7
:101848000B4610461946FFF7B9F80346184600F04C
:1018580073FBFFF709FD0021002000F0FDF964206B
:10186800FFF76EFDBB69184600F066FBFFF7FCFC4E
:101878000021002000F0F0F95A20FFF729FDFB694C
:10188800184600F059FBFFF7EFFC0021002000F09C
:10189800E3F93220FFF754FDBB69DA0F13445B10FC
:1018A800184600F049FBFFF7DFFC0021002000F09C
:1018B800D3F95A20FFF70CFDFB69184600F03CFBF2
:1018C800FFF7D2FC0021002000F0C6F96420FFF7E2
:1018D80037FDBB69184600F02FFBFFF7C5FC002158
:1018E800002000F0B9F905E097F82330022B3FF407
:1018F8004CAF00BF00BF3437BD4690BDAFF300808A
:10190800F1D4C853FB210940CDCCCCCCCCCCEC3F96
:101918000000B44200806640000034430000B44335
:10192800000034C380B582B000AFFFF7C7FB1021B9
:10193800214800F009FF0346FB7120211E4800F0F2
:1019480003FF0346BB71FB79002B0BD0BB79002B3F
:1019580008D0FFF789FC4FF000014FF0000000F0BD
:101968007BF925E0FB79002B09D1BB79002B06D048
:10197800FFF746FC1149124800F06EF918E0FB79B0
:10198800002B09D0BB79002B06D1FFF705FC0C49C9
:101998000A4800F061F90BE0FB79002B08D1BB790C
:1019A800002B05D1FFF7C4FB0549054800F054F9A1
:1019B8000A2000F0C1FABAE7000C01400000A0C1FB
:1019C8000000A04180B584B000AF164B9B69154A52
:1019D80043F001039361134B9B6903F00103BB6060
:1019E800BB68104BDB690F4A43F08053D3610D4B42
:1019F800DB6903F080537B607B68052000F08CFB7B
:101A0800094B5B68FB60FB6823F0E063FB60FB68E5
:101A180043F00073FB60044AFB68536000BF103753
:101A2800BD4680BD001002400000014080B400AFF8
:101A380000BFFDE780B400AF00BFFDE780B400AF92
:101A480000BFFDE780B400AF00BFFDE780B400AF82
:101A580000BFFDE780B400AF00BFBD4680BC704743
:101A680080B400AF00BFBD4680BC704780B400AFF3
:101A780000BFBD4680BC704780B500AF00F040FA9B
:101A880000BF80BD80B500AF024801F04DFB00BF2C
:101A980080BD00BF9000002080B500AF044801F071
:101AA8002FFF01220349024801F004FF00BF80BD57
:101AB800E40000207800002080B582B000AF786094
:101AC8007B681B68244A934242D1244B1B8801330C
:101AD8009AB2224B1A80214B1B88092B02D91F4B23
:101AE80000221A801D4B1B88042B0BD801224FF4AF
:101AF80080611B4800F03FFE01220421184800F0D5
:101B08003AFE0AE000224FF48061154800F033FEE7
:101B180000220421124800F02EFE104B1B88042BD3
:101B28000BD801224FF400710D4800F024FE012269
:101B380080210B4800F01FFE0AE000224FF40071DC
:101B4800074800F018FE00228021054800F013FE27
:101B580000BF0837BD4680BD000400408C0000204F
:101B68000010014080B400AF00BFBD4680BC704784
:101B780080B586B000AF07F1080300221A605A60EA
:101B88009A60DA603B4600221A605A601D4B1E4A72
:101B98001A601C4B41F61F425A601A4B00229A6089
:101BA800184B0922DA60174B00221A61154B0022E4
:101BB8009A61144801F008FA0346002B01D0FFF798
:101BC8004AFD4FF48053BB6007F1080319460D48DE
:101BD80001F09AFB0346002B01D0FFF73CFD0023E0
:101BE8003B6000237B603B461946064801F094FDA4
:101BF8000346002B01D0FFF72EFD00BF1837BD4666
:101C080080BD00BF900000200004004080B584B073
:101C180000AF78607B681B680D4A934213D10D4B67
:101C2800DB690C4A43F00203D3610A4BDB6903F01A
:101C38000203FB60FB68002201211D2000F077FAF7
:101C48001D2000F090FA00BF1037BD4680BD00BFD0
:101C5800000400400010024090B585B000AF7860E5
:101C6800396039687868FEF71FFF03464FF07C51EA
:101C78001846FFF721F80346FB6079683868FEF7D5
:101C880011FF034626491846FFF7CAF80346BB600A
:101C9800244B9C682449B868FFF70EF80346194698
:101CA8002046FEF701FF03461A461E4B9A601D4B5D
:101CB8001C681C4B9B68184602F08AFB0346F968AF
:101CC8001846FEF7F9FF034617491846FEF7F4FFD2
:101CD800034619462046FEF7E7FE03461A46114B0F
:101CE8001A60104B5C680F4B9B68184602F0A8FB03
:101CF8000346F9681846FEF7DFFF03460A49184607
:101D0800FEF7DAFF034619462046FEF7CDFE0346E6
:101D18001A46044B5A6000BF1437BD4690BD00BF39
:101D280000006041D80000200AD7233C80B500AFEE
:101D3800114B124A1A60104B4FF4E1325A600E4BA5
:101D480000229A600C4B0022DA600B4B00221A61C9
:101D5800094B0C225A61084B00229A61064B00225B
:101D6800DA61054801F056FD0346002B01D0FFF764
:101D780072FC00BF80BD00BFE400002000380140B5
:101D880080B588B000AF786007F1100300221A60B0
:101D98005A609A60DA607B681B68204A934239D19E
:101DA8001F4B9B691E4A43F4804393611C4B9B69FC
:101DB80003F48043FB60FB68194B9B69184A43F0A6
:101DC80004039361164B9B6903F00403BB60BB6873
:101DD8004FF400733B6102237B610323FB6107F12E
:101DE800100319460F4800F01BFB4FF480633B615A
:101DF80000237B610023BB6107F1100319460948E2
:101E080000F00EFB00220121252000F090F925208A
:101E180000F0A9F900BF2037BD4680BD0038014059
:101E28000010024000080140FFF79CFE0B480C49D7
:101E38000C4A002302E0D458C4500433C4188C421E
:101E4800F9D3094A094C002301E013600432A24285
:101E5800FBD302F07DFAFFF78DFB704700000020EE
:101E68005C000020385800085C0000206802002050
:101E7800FEE7000080B500AF084B1B68074A43F037
:101E880010031360032000F047F9002000F008F861
:101E9800FFF798FD0023184680BD00BF00200240D0
:101EA80080B582B000AF7860124B1A68124B1B786D
:101EB80019464FF47A73B3FBF1F3B2FBF3F3184608
:101EC80000F05FF90346002B01D001230EE07B6888
:101ED8000F2B0AD8002279684FF0FF3000F027F95D
:101EE800064A7B681360002300E001231846083780
:101EF800BD4680BD0000002008000020040000202E
:101F080080B400AF054B1B781A46054B1B68134479
:101F1800034A136000BFBD4680BC7047080000201C
:101F28002C01002080B400AF024B1B681846BD4648
:101F380080BC70472C01002080B584B000AF786069
:101F4800FFF7F0FFB8607B68FB60FB68B3F1FF3F09
:101F580005D00A4B1B781A46FB681344FB6000BF88
:101F6800FFF7E0FF0246BB68D31AFA689A42F7D82F
:101F780000BF00BF1037BD4680BD00BF080000206D
:101F880080B485B000AF78607B6803F00703FB601E
:101F98000C4BDB68BB60BA684FF6FF031340BB60AD
:101FA800FB681A02BB68134343F0BF6343F4003372
:101FB800BB60044ABB68D36000BF1437BD4680BC11
:101FC800704700BF00ED00E080B400AF044BDB6851
:101FD8001B0A03F007031846BD4680BC704700BFC4
:101FE80000ED00E080B483B000AF0346FB7197F9C1
:101FF8000730002B0BDBFB7903F01F02064997F92A
:1020080007305B09012000FA02F241F8232000BFE3
:102018000C37BD4680BC704700E100E080B483B057
:1020280000AF03463960FB7197F90730002B0ADBD4
:102038003B68DAB20C4997F907301201D2B20B4467
:1020480083F800230AE03B68DAB20849FB7903F019
:102058000F03043B1201D2B20B441A7600BF0C37AF
:10206800BD4680BC704700BF00E100E000ED00E025
:1020780080B489B000AFF860B9607A60FB6803F09B
:102088000703FB61FB69C3F10703042B28BF042383
:10209800BB61FB690433062B02D9FB69033B00E0F3
:1020A80000237B614FF0FF32BB6902FA03F3DA4386
:1020B800BB681A407B699A404FF0FF317B6901FA8F
:1020C80003F3D9437B680B40134318462437BD46B6
:1020D80080BC704780B582B000AF78607B68013BF8
:1020E800B3F1807F01D301230FE00A4A7B68013BEB
:1020F80053600F214FF0FF30FFF790FF054B002290
:102108009A60044B07221A60002318460837BD4618
:1021180080BD00BF10E000E080B582B000AF7860FD
:102128007868FFF72DFF00BF0837BD4680BD80B532
:1021380086B000AF0346B9607A60FB7300237B6109
:10214800FFF742FF78617A68B9687869FFF790FF0E
:10215800024697F90F3011461846FFF75FFF00BF98
:102168001837BD4680BD80B582B000AF0346FB710D
:1021780097F907301846FFF735FF00BF0837BD4607
:1021880080BD80B582B000AF78607868FFF7A2FFA5
:10219800034618460837BD4680BD80B485B000AFF9
:1021A80078600023FB737B6893F82130DBB2022B45
:1021B80008D07B6804229A637B68002283F8202079
:1021C800012320E07B681B681A687B681B6822F083
:1021D8000E021A607B681B681A687B681B6822F00D
:1021E80001021A607B681A6C7B68DB6B012101FABB
:1021F80002F25A607B68012283F821207B68002262
:1022080083F82020FB7B18461437BD4680BC7047F6
:1022180080B584B000AF78600023FB737B6893F8C7
:102228002130DBB2022B05D07B6804229A6301239C
:10223800FB73D6E07B681B681A687B681B6822F012
:102248000E021A607B681B681A687B681B6822F09C
:1022580001021A607B681B681A46644B9A4258D977
:102268007B681B68624A93424FD07B681B68614A4F
:10227800934248D07B681B685F4A934240D07B6892
:102288001B685E4A934238D07B681B685C4A93425D
:1022980030D07B681B685B4A934228D07B681B68F8
:1022A800524A934220D07B681B68574A934219D000
:1022B8007B681B68554A934212D07B681B68544A56
:1022C80093420AD07B681B68524A934202D14FF46A
:1022D80080531BE04FF4803318E04FF4807315E00F
:1022E800102313E0012311E04FF080730EE04FF448
:1022F80080130BE04FF4803308E04FF4805305E07F
:102308004FF4807302E0102300E00123424A536037
:1023180057E07B681B68364A93424FD07B681B683E
:10232800344A934248D07B681B68334A934240D072
:102338007B681B68314A934238D07B681B68304AF7
:10234800934230D07B681B682E4A934228D07B6822
:102358001B68264A934220D07B681B682A4A93420E
:1023680019D07B681B68294A934212D07B681B6886
:10237800274A93420AD07B681B68264A934202D1B7
:102388004FF480531BE04FF4803318E04FF4807310
:1023980015E0102313E0012311E04FF080730EE0E5
:1023A8004FF480130BE04FF4803308E04FF4805370
:1023B80005E04FF4807302E0102300E00123174A80
:1023C80053607B68012283F821207B68002283F810
:1023D80020207B685B6B002B03D07B685B6B786885
:1023E8009847FB7B18461037BD4680BD80000240E9
:1023F800080002401C000240300002404400024035
:10240800580002406C000240080402401C040240CC
:10241800300402404404024000040240000002402C
:1024280080B48BB000AF7860396000237B620023F2
:102438003B6279E101227B6A02FA03F3FB613B68A4
:102448001B68FA691340BB61BA69FB699A4240F09C
:1024580068813B685B68964A93425ED0944A93428F
:1024680075D8944A934258D0924A93426FD8924A68
:10247800934252D0904A934269D8904A93424CD0A2
:102488008E4A934263D88E4A934246D08C4A9342EE
:102498005DD8122B2AD8122B59D801A252F823F052
:1024A80023250008FD2400080F25000851250008F1
:1024B8005725000857250008572500085725000804
:1024C80057250008572500085725000857250008F4
:1024D80057250008572500085725000857250008E4
:1024E800572500080525000819250008754A934254
:1024F80013D02CE03B68DB683B6229E03B68DB6873
:1025080004333B6224E03B68DB6808333B621FE02E
:102518003B68DB680C333B621AE03B689B68002B26
:1025280002D104233B6213E03B689B68012B05D171
:1025380008233B627B68FA691A6109E008233B6259
:102548007B68FA695A6103E000233B6200E000BF40
:10255800BB69FF2B01D87B6801E07B6804337B6192
:10256800BB69FF2B02D87B6A9B0002E07B6A083BB1
:102578009B003B617B691A680F213B6901FA03F3F1
:10258800DB431A40396A3B6901FA03F31A437B6952
:102598001A603B685B6803F08053002B00F0C18031
:1025A800494B9B69484A43F001039361464B9B6939
:1025B80003F00103BB60BB68444A7B6A9B08023393
:1025C80052F82330FB607B6A03F003039B000F2261
:1025D80002FA03F3DB43FA681340FB607B683C4A6A
:1025E80093421FD07B683B4A934219D07B683A4A92
:1025F800934213D07B68394A93420DD07B68384A9E
:10260800934207D07B68374A934201D105230AE0F9
:10261800062308E0042306E0032304E0022302E083
:10262800012300E000237A6A02F00302920093403B
:10263800FA681343FB6025497B6A9B080233FA68F2
:1026480041F823203B685B6803F48013002B06D015
:10265800254B9A682449BB6913438B6006E0224BDB
:102668009A68BB69DB43204913408B603B685B6811
:1026780003F40013002B06D01B4BDA681A49BB6918
:102688001343CB6006E0184BDA68BB69DB43164995
:102698001340CB603B685B6803F40033002B25D004
:1026A800114B5A681049BB6913434B6025E000BFC2
:1026B800000032100000311000002210000021102C
:1026C800000012100000111000100240000001402C
:1026D80000080140000C01400010014000140140B6
:1026E80000180140001C014000040140154B5A68C5
:1026F800BB69DB43134913404B603B685B6803F4D9
:102708008033002B06D00F4B1A680E49BB69134360
:102718000B6006E00B4B1A68BB69DB4309491340A1
:102728000B607B6A01337B623B681A687B6A22FA1A
:1027380003F3002B7FF47EAE00BF00BF2C37BD46ED
:1027480080BC70470004014080B485B000AF786059
:102758000B467B807B689A687B881340002B02D0ED
:102768000123FB7301E00023FB73FB7B184614373E
:10277800BD4680BC704780B483B000AF78600B461C
:102788007B8013467B707B78002B03D07A887B682C
:102798001A6103E07B881A047B681A6100BF0C3752
:1027A800BD4680BC7047000080B586B000AF786039
:1027B8007B68002B01D1012372E27B681B6803F060
:1027C8000103002B00F08780924B5B6803F00C0339
:1027D800042B0CD08F4B5B6803F00C03082B12D131
:1027E8008C4B5B6803F48033B3F5803F0BD1894B86
:1027F8001B6803F40033002B6CD07B685B68002BEC
:1028080068D101234CE27B685B68B3F5803F06D151
:10281800804B1B687F4A43F4803313602EE07B684B
:102828005B68002B0CD17B4B1B687A4A23F48033FE
:102838001360784B1B68774A23F4802313601DE0EC
:102848007B685B68B3F5A02F0CD1724B1B68714A8B
:1028580043F4802313606F4B1B686E4A43F4803344
:1028680013600BE06B4B1B686A4A23F480331360D8
:10287800684B1B68674A23F4802313607B685B6896
:10288800002B13D0FFF74EFB386108E0FFF74AFB37
:1028980002463B69D31A642B01D9032300E25D4B3E
:1028A8001B6803F40033002BF0D014E0FFF73AFB69
:1028B800386108E0FFF736FB02463B69D31A642B00
:1028C80001D90323ECE1534B1B6803F40033002BBD
:1028D800F0D100E000BF7B681B6803F00203002B07
:1028E80063D04C4B5B6803F00C03002B0BD0494BB7
:1028F8005B6803F00C03082B1CD1464B5B6803F4A0
:102908008033002B16D1434B1B6803F00203002BC6
:1029180005D07B681B69012B01D00123C0E13D4B29
:102928001B6823F0F8027B685B69DB0039491343B5
:102938000B603AE07B681B69002B20D0364B0122E4
:102948001A60FFF7EFFA386108E0FFF7EBFA024682
:102958003B69D31A022B01D90323A1E12D4B1B6834
:1029680003F00203002BF0D02A4B1B6823F0F80277
:102978007B685B69DB00274913430B6015E0264B36
:1029880000221A60FFF7CEFA386108E0FFF7CAFAAA
:1029980002463B69D31A022B01D9032380E11D4B60
:1029A8001B6803F00203002BF0D17B681B6803F05F
:1029B8000803002B3AD07B689B69002B19D0174B72
:1029C80001221A60FFF7AEFA386108E0FFF7AAFAA9
:1029D80002463B69D31A022B01D9032360E10D4B50
:1029E8005B6A03F00203002BF0D0012000F0CEFA5E
:1029F8001CE00A4B00221A60FFF794FA38610FE0D6
:102A0800FFF790FA02463B69D31A022B08D9032331
:102A180046E100BF001002400000424280044242EA
:102A2800924B5B6A03F00203002BE9D17B681B68B9
:102A380003F00403002B00F0A6800023FB758B4BEA
:102A4800DB6903F08053002B0DD1884BDB69874A83
:102A580043F08053D361854BDB6903F08053BB603F
:102A6800BB680123FB75824B1B6803F48073002B42
:102A780018D17F4B1B687E4A43F480731360FFF7BD
:102A880051FA386108E0FFF74DFA02463B69D31A5C
:102A9800642B01D9032303E1754B1B6803F480738E
:102AA800002BF0D07B68DB68012B06D16F4B1B6ACB
:102AB8006E4A43F0010313622DE07B68DB68002B4C
:102AC8000CD16A4B1B6A694A23F001031362674BF6
:102AD8001B6A664A23F0040313621CE07B68DB6808
:102AE800052B0CD1614B1B6A604A43F00403136247
:102AF8005E4B1B6A5D4A43F0010313620BE05B4BBC
:102B08001B6A5A4A23F001031362584B1B6A574A3F
:102B180023F0040313627B68DB68002B15D0FFF7F2
:102B280001FA38610AE0FFF7FDF902463B69D31A5A
:102B380041F28832934201D90323B1E04B4B1B6A1F
:102B480003F00203002BEED014E0FFF7EBF9386135
:102B58000AE0FFF7E7F902463B69D31A41F28832E7
:102B6800934201D903239BE0404B1B6A03F0020305
:102B7800002BEED1FB7D012B05D13C4BDB693B4A99
:102B880023F08053D3617B68DB69002B00F08780DA
:102B9800364B5B6803F00C03082B61D07B68DB695C
:102BA800022B46D1334B00221A60FFF7BBF938617C
:102BB80008E0FFF7B7F902463B69D31A022B01D99F
:102BC80003236DE0294B1B6803F00073002BF0D141
:102BD8007B681B6AB3F5803F08D1244B5B6823F4FC
:102BE80000327B689B68214913434B601F4B5B682D
:102BF80023F474127B68196A7B685B6A0B431B4970
:102C080013434B601B4B01221A60FFF78BF93861A5
:102C180008E0FFF787F902463B69D31A022B01D96E
:102C280003233DE0114B1B6803F00073002BF0D029
:102C380035E0104B00221A60FFF774F9386108E09C
:102C4800FFF770F902463B69D31A022B01D9032317
:102C580026E0064B1B6803F00073002BF0D11EE042
:102C68007B68DB69012B07D1012319E000100240C2
:102C780000700040600042420B4B5B68FB60FB68E1
:102C880003F480327B681B6A9A4206D1FB6803F41E
:102C980070127B685B6A9A4201D0012300E000232E
:102CA80018461837BD4680BD0010024080B584B074
:102CB80000AF786039607B68002B01D10123D0E038
:102CC8006A4B1B6803F007033A689A4210D9674BAE
:102CD8001B6823F0070265493B6813430B60634B8D
:102CE8001B6803F007033A689A4201D00123B8E051
:102CF8007B681B6803F00203002B20D07B681B68ED
:102D080003F00403002B05D0594B5B68584A43F481
:102D1800E06353607B681B6803F00803002B05D051
:102D2800534B5B68524A43F460535360504B5B68A3
:102D380023F0F0027B689B684D4913434B607B6826
:102D48001B6803F00103002B40D07B685B68012BF4
:102D580007D1474B1B6803F40033002B15D101231F
:102D68007FE07B685B68022B07D1414B1B6803F04F
:102D78000073002B09D1012373E03D4B1B6803F05E
:102D88000203002B01D101236BE0394B5B6823F070
:102D980003027B685B68364913434B60FFF7C2F850
:102DA800F8600AE0FFF7BEF80246FB68D31A41F262
:102DB8008832934201D9032353E02D4B5B6803F01B
:102DC8000C027B685B689B009A42EBD1274B1B681F
:102DD80003F007033A689A4210D2244B1B6823F089
:102DE800070222493B6813430B60204B1B6803F022
:102DF80007033A689A4201D0012332E07B681B68D6
:102E080003F00403002B08D0194B5B6823F4E0623D
:102E18007B68DB68164913434B607B681B6803F0CB
:102E28000803002B09D0124B5B6823F460527B68BF
:102E38001B69DB000E4913434B6000F021F8024682
:102E48000B4B5B681B0903F00F030A49CB5C22FAA2
:102E580003F3094A1360094B1B681846FFF720F86B
:102E6800002318461037BD4680BD00BF0020024031
:102E780000100240F4530008000000200400002065
:102E880080B487B000AF0023FB600023BB60002341
:102E98007B6100237B6000233B611E4B5B68FB600A
:102EA800FB6803F00C03042B02D0082B03D027E0A7
:102EB800194B3B6127E0FB689B0C03F00F03174A93
:102EC800D35C7B60FB6803F48033002B10D0114B7C
:102ED8005B685B0C03F00103114AD35CBB607B6841
:102EE8000D4A03FB02F2BB68B2FBF3F37B6104E01B
:102EF8007B680C4A02FB03F37B617B693B6102E060
:102F0800054B3B6100BF3B6918461C37BD4680BC7A
:102F1800704700BF0010024000127A000C540008ED
:102F28001C54000800093D0080B400AF024B1B6828
:102F38001846BD4680BC70470000002080B500AF31
:102F4800FFF7F2FF0246054B5B681B0A03F0070315
:102F58000349CB5C22FA03F3184680BD00100240F7
:102F68000454000880B500AFFFF7DEFF0246054BAA
:102F78005B68DB0A03F007030349CB5C22FA03F31F
:102F8800184680BD001002400454000880B485B083
:102F980000AF78600A4B1B680A4AA2FB03235B0A4E
:102FA8007A6802FB03F3FB6000BFFB685A1EFA60F5
:102FB800002BF9D100BF00BF1437BD4680BC704755
:102FC80000000020D34D621080B582B000AF786059
:102FD8007B68002B01D1012341E07B6893F83D30E9
:102FE800DBB2002B06D17B68002283F83C2078688E
:102FF800FEF70CFE7B68022283F83D207B681A6886
:103008007B6804331946104600F06AFA7B6801228F
:1030180083F846207B68012283F83E207B680122E2
:1030280083F83F207B68012283F840207B680122D7
:1030380083F841207B68012283F842207B680122C3
:1030480083F843207B68012283F844207B680122AF
:1030580083F845207B68012283F83D200023184629
:103068000837BD4680BD000080B485B000AF7860E9
:103078007B6893F83D30DBB2012B01D0012344E09B
:103088007B68022283F83D207B681B68DA687B68CE
:103098001B6842F00102DA607B681B681D4A934294
:1030A80018D07B681B681C4A934213D07B681B6846
:1030B800B3F1804F0ED07B681B68184A934209D041
:1030C8007B681B68164A934204D07B681B68154AC4
:1030D800934211D17B681B689B6803F00703FB6070
:1030E800FB68062B10D07B681B681A687B681B6816
:1030F80042F001021A6007E07B681B681A687B6867
:103108001B6842F001021A60002318461437BD46B6
:1031180080BC7047002C014000340140000400408E
:1031280000080040000C004080B584B000AF786013
:103138007B681B68DB68FB607B681B681B69BB607E
:10314800BB6803F00203002B20D0FB6803F00203E6
:10315800002B1BD07B681B686FF002021A617B682A
:1031680001221A777B681B689B6903F00303002B15
:1031780003D0786800F098F905E0786800F08BF9DA
:10318800786800F09AF97B6800221A77BB6803F028
:103198000403002B20D0FB6803F00403002B1BD092
:1031A8007B681B686FF004021A617B6802221A7739
:1031B8007B681B689B6903F44073002B03D0786815
:1031C80000F072F905E0786800F065F9786800F0B9
:1031D80074F97B6800221A77BB6803F00803002B98
:1031E80020D0FB6803F00803002B1BD07B681B680A
:1031F8006FF008021A617B6804221A777B681B68E3
:10320800DB6903F00303002B03D0786800F04CF966
:1032180005E0786800F03FF9786800F04EF97B68BF
:1032280000221A77BB6803F01003002B20D0FB683C
:1032380003F01003002B1BD07B681B686FF0100293
:103248001A617B6808221A777B681B68DB6903F4BC
:103258004073002B03D0786800F026F905E0786801
:1032680000F019F9786800F028F97B6800221A77CD
:10327800BB6803F00103002B0CD0FB6803F00103CB
:10328800002B07D07B681B686FF001021A61786811
:10329800FEF712FCBB6803F08003002B0CD0FB6820
:1032A80003F08003002B07D07B681B686FF0800257
:1032B8001A61786800F0A5FABB6803F04003002B98
:1032C8000CD0FB6803F04003002B07D07B681B6819
:1032D8006FF040021A61786800F0F8F8BB6803F0F4
:1032E8002003002B0CD0FB6803F02003002B07D031
:1032F8007B681B686FF020021A61786800F078FA22
:1033080000BF1037BD4680BD80B584B000AF78607F
:1033180039600023FB737B6893F83C30012B01D1A3
:103328000223B4E07B68012283F83C207B680222F8
:1033380083F83D207B681B689B68BB60BB6823F0F3
:103348007703BB60BB6823F47F43BB607B681B6863
:10335800BA689A603B681B68B3F5005F3ED0B3F566
:10336800005F00F28780B3F5805F00F08680B3F5D8
:10337800805F7FD8702B1AD0702B7BD8602B50D0F1
:10338800602B77D8502B3CD0502B73D8402B58D07B
:10339800402B6FD8302B64D0302B6BD8202B60D0CB
:1033A800202B67D8002B5CD0102B5AD062E07B68AA
:1033B80018683B6899683B685A683B68DB6800F0A6
:1033C8008CF97B681B689B68BB60BB6843F077031C
:1033D800BB607B681B68BA689A604FE07B681868B6
:1033E8003B6899683B685A683B68DB6800F075F988
:1033F8007B681B689A687B681B6842F480429A6005
:103408003CE07B6818683B6859683B68DB681A468B
:1034180000F0ECF87B681B685021184600F043F96F
:103428002CE07B6818683B6859683B68DB681A467B
:1034380000F00AF97B681B686021184600F033F930
:103448001CE07B6818683B6859683B68DB681A466B
:1034580000F0CCF87B681B684021184600F023F97F
:103468000CE07B681A683B681B681946104600F038
:103478001AF903E00123FB7300E000BF7B68012217
:1034880083F83D207B68002283F83C20FB7B1846AC
:103498001037BD4680BD80B483B000AF786000BFF0
:1034A8000C37BD4680BC704780B483B000AF7860ED
:1034B80000BF0C37BD4680BC704780B483B000AFF6
:1034C800786000BF0C37BD4680BC704780B483B0BD
:1034D80000AF786000BF0C37BD4680BC7047000065
:1034E80080B485B000AF786039607B681B68FB608A
:1034F8007B68394A934213D07B68384A93420FD08D
:103508007B68B3F1804F0BD07B68354A934207D074
:103518007B68344A934203D07B68334A934208D18C
:10352800FB6823F07003FB603B685B68FA68134331
:10353800FB607B68284A934213D07B68274A9342F2
:103548000FD07B68B3F1804F0BD07B68244A93423D
:1035580007D07B68234A934203D07B68224A934270
:1035680008D1FB6823F44073FB603B68DB68FA68AA
:103578001343FB60FB6823F080023B685B691343DD
:10358800FB607B68FA681A603B689A687B68DA6255
:103598003B681A687B689A627B680F4A934203D03B
:1035A8007B680E4A934203D13B681A697B681A63A9
:1035B8007B6801225A617B681B6903F00103002BB9
:1035C80005D07B681B6923F001027B681A6100BF84
:1035D8001437BD4680BC7047002C014000340140C0
:1035E8000004004000080040000C004080B487B090
:1035F80000AFF860B9607A60FB681B6A7B61FB68A2
:103608001B6A23F00102FB681A62FB689B693B6135
:103618003B6923F0F0033B617B681B013A69134364
:103628003B617B6923F00A037B617A69BB681343BA
:103638007B61FB683A699A61FB687A691A6200BF24
:103648001C37BD4680BC704780B487B000AFF860B7
:10365800B9607A60FB681B6A7B61FB681B6A23F0B0
:103668001002FB681A62FB689B693B613B6923F4A3
:1036780070433B617B681B033A6913433B617B6979
:1036880023F0A0037B61BB681B017A6913437B614C
:10369800FB683A699A61FB687A691A6200BF1C374D
:1036A800BD4680BC704780B485B000AF7860396093
:1036B8007B689B68FB60FB6823F07003FB603A68DB
:1036C800FB68134343F00703FB607B68FA689A6062
:1036D80000BF1437BD4680BC704780B487B000AFC8
:1036E800F860B9607A603B60FB689B687B617B69C6
:1036F80023F47F437B613B681A027B681A43BB68EB
:1037080013437A6913437B61FB687A699A6000BF47
:103718001C37BD4680BC704780B485B000AF786068
:1037280039607B6893F83C30012B01D1022350E0CB
:103738007B68012283F83C207B68022283F83D20C5
:103748007B681B685B68FB607B681B689B68BB6069
:10375800FB6823F07003FB603B681B68FA6813433F
:10376800FB607B681B68FA685A607B681B681B4AA9
:10377800934218D07B681B68194A934213D07B6820
:103788001B68B3F1804F0ED07B681B68154A9342C3
:1037980009D07B681B68144A934204D07B681B6875
:1037A800124A93420CD1BB6823F08003BB603B688C
:1037B8005B68BA681343BB607B681B68BA689A6029
:1037C8007B68012283F83D207B68002283F83C2037
:1037D800002318461437BD4680BC7047002C0140B2
:1037E800003401400004004000080040000C004084
:1037F80080B483B000AF786000BF0C37BD4680BC92
:10380800704780B483B000AF786000BF0C37BD4606
:1038180080BC704780B582B000AF78607B68002BB1
:1038280001D1012342E07B6893F84130DBB2002BE1
:1038380006D17B68002283F840207868FEF7A0FA5A
:103848007B68242283F841207B681B68DA687B68E0
:103858001B6822F40052DA60786800F0DDFC7B68AF
:103868001B681A697B681B6822F490421A617B689E
:103878001B685A697B681B6822F02A025A617B68B8
:103888001B68DA687B681B6842F40052DA607B6860
:1038980000225A647B68202283F841207B6820221A
:1038A80083F842207B6800225A63002318460837B1
:1038B800BD4680BD80B584B000AFF860B9601346DE
:1038C800FB80FB6893F84230DBB2202B12D1BB6837
:1038D800002B02D0FB88002B01D101230BE0FB68F1
:1038E80000221A63FB881A46B968F86800F0C0FA23
:1038F800034600E0022318461037BD4680BD00008D
:1039080080B5BAB000AF78607B681B681B68C7F8E1
:10391800E4307B681B68DB68C7F8E0307B681B68AD
:103928005B69C7F8DC300023C7F8D8300023C7F834
:10393800D430D7F8E43003F00F03C7F8D830D7F8FD
:10394800D830002B0FD1D7F8E43003F02003002B38
:1039580009D0D7F8E03003F02003002B03D07868B3
:1039680000F09CFB5BE2D7F8D830002B00F0DE803B
:10397800D7F8DC3003F00103002B06D1D7F8E0308C
:1039880003F49073002B00F0D180D7F8E43003F0F3
:103998000103002B0BD0D7F8E03003F48073002B21
:1039A80005D07B685B6C43F001027B685A64D7F8EA
:1039B800E43003F00403002B0BD0D7F8DC3003F01D
:1039C8000103002B05D07B685B6C43F002027B6827
:1039D8005A64D7F8E43003F00203002B0BD0D7F871
:1039E800DC3003F00103002B05D07B685B6C43F0EF
:1039F80004027B685A64D7F8E43003F00803002B0C
:103A080011D0D7F8E03003F02003002B05D1D7F808
:103A1800DC3003F00103002B05D07B685B6C43F0BE
:103A280008027B685A647B685B6C002B00F0F281AB
:103A3800D7F8E43003F02003002B08D0D7F8E030A3
:103A480003F02003002B02D0786800F027FB7B6886
:103A58001B685B6903F04003002B14BF012300239C
:103A6800DBB2C7F8D4307B685B6C03F00803002B2B
:103A780003D1D7F8D430002B4FD0786800F031FA52
:103A88007B681B685B6903F04003002B41D07B68AF
:103A98001B681433C7F89C30D7F89C3053E8003FB4
:103AA800C7F89830D7F8983023F04003C7F8D030DB
:103AB8007B681B681433D7F8D020C7F8A820C7F84C
:103AC800A430D7F8A410D7F8A82041E80023C7F8F5
:103AD800A030D7F8A030002BD9D17B68DB6B002B46
:103AE80013D07B68DB6B7E4A5A637B68DB6B1846B6
:103AF800FEF78EFB0346002B16D07B68DB6B5B6BF7
:103B08007A68D26B104698470EE0786800F09CF906
:103B18000AE0786800F098F906E0786800F094F90F
:103B28007B6800225A6475E100BF73E17B681B6BF8
:103B3800012B40F04F81D7F8E43003F01003002B3D
:103B480000F04881D7F8E03003F01003002B00F0B4
:103B580041810023BB607B681B681B68BB607B6876
:103B68001B685B68BB60BB687B681B685B6903F0AC
:103B78004003002B00F0B6807B68DB6B1B685B683A
:103B8800A7F8BE30B7F8BE30002B00F045817B683F
:103B98009B8DB7F8BE209A4280F03E817B68B7F8CB
:103BA800BE20DA857B68DB6B9B69202B00F0888060
:103BB8007B681B680C33C7F88830D7F8883053E81F
:103BC800003FC7F88430D7F8843023F48073C7F8EF
:103BD800B8307B681B680C33D7F8B820C7F8942036
:103BE800C7F89030D7F89010D7F8942041E8002310
:103BF800C7F88C30D7F88C30002BD9D17B681B687C
:103C080014337B677B6F53E8003F3B673B6F23F0C0
:103C18000103C7F8B4307B681B681433D7F8B420A5
:103C2800C7F88020FB67F96FD7F8802041E80023A8
:103C3800BB67BB6F002BE1D17B681B6814333B6605
:103C48003B6E53E8003FFB65FB6D23F04003C7F86C
:103C5800B0307B681B681433D7F8B020FA66BB66AF
:103C6800B96EFA6E41E800237B667B6E002BE3D1C8
:103C78007B68202283F842207B6800221A637B68D5
:103C88001B680C33FB64FB6C53E8003FBB64BB6CE4
:103C980023F01003C7F8AC307B681B680C33D7F8E7
:103CA800AC20BA657B65796DBA6D41E800233B6548
:103CB8003B6D002BE3D17B68DB6B1846FEF76DFA92
:103CC8007B6802225A637B689A8D7B68DB8D9BB286
:103CD800D31A9BB21946786800F0BFF89CE000BF81
:103CE800AF3F00087B689A8D7B68DB8D9BB2D31A47
:103CF800A7F8CE307B68DB8D9BB2002B00F08E805E
:103D0800B7F8CE30002B00F089807B681B680C3335
:103D1800BB63BB6B53E8003F7B637B6B23F49073FF
:103D2800C7F8C8307B681B680C33D7F8C8207A649A
:103D38003B64396C7A6C41E80023FB63FB6B002B16
:103D4800E3D17B681B6814337B627B6A53E8003FCE
:103D58003B623B6A23F00103C7F8C4307B681B68E9
:103D68001433D7F8C4203A63FB62F96A3A6B41E826
:103D78000023BB62BB6A002BE3D17B68202283F857
:103D880042207B6800221A637B681B680C333B6106
:103D98003B6953E8003FFB60FB6823F01003C7F85A
:103DA800C0307B681B680C33D7F8C020FA61BB6150
:103DB800B969FA6941E800237B617B69002BE3D18B
:103DC8007B6802225A63B7F8CE301946786800F04B
:103DD80044F823E0D7F8E43003F08003002B09D03F
:103DE800D7F8E03003F08003002B03D0786800F0A8
:103DF800EEF814E0D7F8E43003F04003002B0ED0BF
:103E0800D7F8E03003F04003002B08D0786800F0C2
:103E18002DF904E000BF02E000BF00E000BFE83772
:103E2800BD4680BD80B483B000AF786000BF0C375A
:103E3800BD4680BC704780B483B000AF786000BFD7
:103E48000C37BD4680BC704780B483B000AF786043
:103E580000BF0C37BD4680BC704780B483B000AF4C
:103E680078600B467B8000BF0C37BD4680BC70472E
:103E780080B485B000AFF860B9601346FB80FB687A
:103E8800BA689A62FB68FA889A85FB68FA88DA85C4
:103E9800FB6800225A64FB68222283F84220FB68F0
:103EA8001B69002B07D0FB681B68DA68FB681B6876
:103EB80042F48072DA60FB681B685A69FB681B6809
:103EC80042F001025A61FB681B68DA68FB681B68EC
:103ED80042F02002DA60002318461437BD4680BC41
:103EE800704780B495B000AF78607B681B680C336E
:103EF8007B637B6B53E8003F3B633B6B23F490731E
:103F0800FB647B681B680C33FA6C3A64FB63F96BDF
:103F18003A6C41E80023BB63BB6B002BE5D17B689F
:103F28001B6814333B623B6A53E8003FFB61FB6943
:103F380023F00103BB647B681B681433BA6CFA6214
:103F4800BB62B96AFA6A41E800237B627B6A002B8C
:103F5800E5D17B681B6B012B19D17B681B680C337F
:103F6800FB60FB6853E8003FBB60BB6823F01003AD
:103F78007B647B681B680C337A6CBA617B617969F6
:103F8800BA6941E800233B613B69002BE5D17B68B6
:103F9800202283F842207B6800221A6300BF54372E
:103FA800BD4680BC704780B584B000AF78607B6840
:103FB8005B6AFB60FB680022DA85FB680022DA8412
:103FC800F868FFF741FF00BF1037BD4680BD80B4D9
:103FD80085B000AF78607B6893F84130DBB2212B65
:103FE8003ED17B689B68B3F5805F14D17B681B6901
:103FF800002B10D17B681B6AFB60FB681B881A4684
:104008007B681B68C2F308025A607B681B6A9A1CAB
:104018007B681A6208E07B681B6A591C7A6811621F
:104028001A787B681B685A607B68DB8C9BB2013B03
:104038009BB27A681946D184002B0FD17B681B6824
:10404800DA687B681B6822F08002DA607B681B688C
:10405800DA687B681B6842F04002DA60002300E0FF
:10406800022318461437BD4680BC704780B582B01D
:1040780000AF78607B681B68DA687B681B6822F091
:104088004002DA607B68202283F841207868FFF7D5
:10409800C9FE002318460837BD4680BD80B58CB0E0
:1040A80000AF78607B6893F84230DBB2222B40F097
:1040B800AE807B689B68B3F5805F17D17B681B690E
:1040C800002B13D10023FB627B689B6ABB627B6871
:1040D8001B685B689BB2C3F308039AB2BB6A1A8079
:1040E8007B689B6A9A1C7B689A6226E07B689B6A5D
:1040F800FB620023BB627B689B68B3F5805F07D0D7
:104108007B689B68002B0AD17B681B69002B06D152
:104118007B681B685B68DAB2FB6A1A7008E07B6828
:104128001B685B68DBB203F07F03DAB2FB6A1A70C4
:104138007B689B6A5A1C7B689A627B68DB8D9BB2A2
:10414800013B9BB27A681946D185002B5DD17B680B
:104158001B68DA687B681B6822F02002DA607B68DB
:104168001B68DA687B681B6822F48072DA607B68F7
:104178001B685A697B681B6822F001025A617B68D8
:10418800202283F842207B6800225A637B681B6BDD
:10419800012B35D17B6800221A637B681B680C33BE
:1041A8007B617B6953E8003F3B613B6923F0100367
:1041B8007B627B681B680C337A6A3A62FB61F96937
:1041C8003A6A41E80023BB61BB69002BE5D17B68F3
:1041D8001B681B6803F01003102B0AD10023FB6037
:1041E8007B681B681B68FB607B681B685B68FB60FF
:1041F800FB687B689B8D19467868FFF72EFE02E006
:104208007868FFF718FE002302E0002300E002238D
:1042180018463037BD4680BD80B584B000AF7860A1
:104228007B681B681B6923F440517B68DA687B68EC
:104238001B680A431A617B689A687B681B691A4382
:104248007B685B691343BB607B681B68DB6823F48E
:10425800B05323F00C037A681268B9680B43D36033
:104268007B681B685B6923F440717B689A697B688B
:104278001B680A435A617B681B682C4A934203D126
:10428800FEF770FEF86002E0FEF758FEF860FA6884
:1042980013469B0013449A001A447B685B689B0092
:1042A800B2FBF3F3224AA2FB03235B091901FA6864
:1042B80013469B0013449A001A447B685B689B0072
:1042C800B2FBF3F21A4BA3FB02035B09642000FB69
:1042D80003F3D31A1B013233154AA2FB03235B09EC
:1042E80003F0F0031944FA6813469B0013449A003C
:1042F8001A447B685B689B00B2FBF3F20C4BA3FB90
:1043080002035B09642000FB03F3D31A1B01323359
:10431800074AA2FB03235B0903F00F027B681B68B3
:104328000A449A6000BF1037BD4680BD003801407E
:104338001F85EB5103460244934200D1704703F8AE
:10434800011BF9E7014B1868704700BF0C000020FB
:1043580070B500260C4D0D4C641BA410A64209D163
:1043680001F038F800260A4D0A4C641BA410A64236
:1043780005D170BD55F8043B98470136EEE755F86E
:10438800043B98470136F2E73058000830580008D7
:10439800305800083458000800F0F2B938B505461E
:1043A80000F088F8294604462846FCF74BFE68B911
:1043B80000212846FCF71EFE40B1FFF7C3FF21236A
:1043C800002103600846FCF72BFD0446204638BD53
:1043D80007B51A4A20F000439342014605D8002148
:1043E80003B05DF804EB00F0D5B8B3F1FF4F04D388
:1043F800FCF758FB03B05DF804FB694600F048FA87
:1044080000F00302012A07D0022A0CD082B90199D0
:10441800009800F0BFF8EDE70199009800F03AF92C
:1044280000F10040E6E70199009800F0B3F8F7E7DB
:1044380001220199009800F02DF9DBE7D80F493FD8
:1044480007B51B4A20F000439342014606D80022D4
:10445800002103B05DF804EB00F01CB9B3F1FF4F85
:1044680004D3FCF71FFB03B05DF804FB694600F0BA
:104478000FFA00F00300012808D002280BD090B9E9
:1044880001220199009800F005F9ECE701990098DC
:1044980000F080F8E7E701220199009800F0FAF8A7
:1044A80000F10040DFE70199009800F073F8F7E7A2
:1044B800D80F493F20F00042B2F1FF4F2DE9F041FB
:1044C800034604460AD30146FCF7F6FB014620469C
:1044D800FCF7EAFA04462046BDE8F081002AFAD043
:1044E800002806DA0146FCF7DDFA0146FCF798FCDD
:1044F800F0E710F0FF413CD0C215002419202646F1
:104508004FF08071C3F31603A2F17F0543F4000353
:10451800D20758BF5B006D105B0072189A42CFBF7C
:104528001A46561864189A1A01384FEA42034FEA95
:104538005101F2D1BAB1154E154F30683968FCF700
:10454800B1FAD6F8008001464046FCF75DFD50B14F
:1045580030683968FCF7A8FA366801463046FCF737
:1045680049FD70B10234641004F17C5404EBC55465
:10457800B1E75B0018020A4601F10101F9D5524280
:10458800BBE7013424F00104EDE700BF2454000820
:10459800205400082DE9F04120F00045B5F1485FAE
:1045A8000646884603D2FCF763FD00285CD03146F6
:1045B8003046FCF781FB4FF07C510446FCF77CFB4E
:1045C8002B4907462046FCF777FB2A49FCF76CFA8B
:1045D8002146FCF771FB2849FCF764FA2146FCF7F1
:1045E8006BFB2649FCF760FA2146FCF765FB24497A
:1045F800FCF758FA2146FCF75FFB2249FCF754FA0E
:104608002146FCF759FB2146FCF756FB4146044678
:104618003046FCF751FB01462046FCF743FA1A4B9B
:1046280004469D420AD801463846FCF73BFA014643
:104638004FF07E50FCF736FABDE8F081134B4FF08F
:104648007E509D428CBF124D05F17F452946FCF7EF
:1046580029FA294606463846FCF724FA2146FCF78B
:1046680021FA01463046E5E74FF07E50E4E700BF07
:104678004ED747ADF6740F317CF29334010DD03725
:10468800610BB63AABAA2A3D9999993E0000483F7A
:104698000000903E2DE9F84320F00043B3F1485F55
:1046A80004460F46914603D2FCF7E2FC002835D0B9
:1046B80021462046FCF700FB054601462046FCF74C
:1046C800FBFA294906462846FCF7F6FA2749FCF77B
:1046D800E9F92946FCF7F0FA2549FCF7E5F92946F6
:1046E800FCF7EAFA2349FCF7DDF92946FCF7E4FA76
:1046F8002149FCF7D9F98046B9F1000F11D10146DB
:104708002846FCF7D9FA1D49FCF7CCF93146FCF7E5
:10471800D3FA01462046FCF7C7F904462046BDE80F
:10472800F8834FF07C513846FCF7C6FA414681467B
:104738003046FCF7C1FA01464846FCF7B3F929466A
:10474800FCF7BAFA3946FCF7ADF90C49054630468C
:10475800FCF7B2FA01462846FCF7A6F901462046BE
:10476800FCF7A0F9D9E700BFD3C92E2F342FD732D1
:104778001BEF3836010D50398988083CABAA2A3E10
:10478800F8B521F00046B6F1FF4F034605D820F0F2
:104798000042B2F1FF4F074604D91846FCF784F9E6
:1047A800034610E0B1F17E5F03D1BDE8F84000F0A8
:1047B800D5B98C1704F0020444EAD0742AB9022C43
:1047C8004BD0032C4BD01846F8BD1EB9002F4CDB3C
:1047D800274BF8E7B6F1FF4F0ED1B2F1FF4F04F1C6
:1047E800FF3405D1022C3CD8224B53F82430EAE799
:1047F800022C38D8204BF8E7B2F1FF4FE6D0921BD5
:10480800B2F1F45F4FEAE25017DA002901DA3C30DE
:1048180015DB1846FCF704FB00F0ACFA00F09EF933
:104828000346012C0DD0022C0ED0002CCBD01349FE
:104838001846FCF739F912490CE00D4BF1E7002353
:10484800EFE703F10043BEE70C491846FCF72CF9E3
:1048580001460B48FCF726F9A2E7094BB3E7094BD9
:10486800B1E7094BAFE70023ADE7084BABE700BF63
:10487800DB0FC93F34540008285400082EBDBB3351
:10488800DB0F4940DB0F49C0DB0F493FDB0FC9BFD6
:104898002DE9F04FA44A20F0004890450C46824686
:1048A80087B004D8002308604B6000251DE09F4AAC
:1048B80090454FD820F0004500289D499D4F25F090
:1048C8000F0524DDFCF7EEF8BD42064611D09A49E3
:1048D800FCF7E8F8014605463046FCF7E3F8964948
:1048E800FCF7E0F8256001256060284607B0BDE8C0
:1048F800F08F9249FCF7D6F891490646FCF7D2F8B2
:10490800014605463046FCF7CDF88D49E8E7FCF747
:10491800CBF8BD4206460FD08749FCF7C5F80146DB
:1049280005463046FCF7BEF88349FCF7BDF825601C
:1049380060604FF0FF35D8E78049FCF7B5F880494B
:104948000646FCF7B1F8014605463046FCF7AAF8DA
:104958007B49EAE77B4A904500F2958000F00AFA25
:1049680079490646FCF7A8F94FF07C51FCF79CF80A
:10497800FCF77EFB0546FCF74BF96D498146FCF7D1
:104988009BF901463046FCF78DF86B4907464846C7
:10499800FCF792F91F2D06460EDC6C4A691E52F888
:1049A80021202AF0004323F0FF03934204D031462C
:1049B8003846FCF777F80BE031463846FCF772F8D2
:1049C800C0F3C753C3EBD853082B4FEAE85B01DCAD
:1049D800206026E059494846FCF76EF9064601462C
:1049E8003846FCF75FF8014680463846FCF75AF827
:1049F8003146FCF757F8064651494846FCF75CF93A
:104A08003146FCF74FF8014606464046FCF74AF89F
:104A1800C0F3C753ABEB030BBBF1190F18DC4746C8
:104A28002060D4F8008038464146FCF73BF8314610
:104A3800FCF738F8BAF1000F6060BFF656AF08F11E
:104A4800004800F10040C4F8008060606D424CE707
:104A58003F494846FCF730F9064601464046FCF710
:104A680021F8014607464046FCF71CF83146FCF79A
:104A780019F8064637494846FCF71EF93146FCF74F
:104A880011F8064693E7B8F1FF4F05D30146FCF746
:104A980009F86060206008E74FEAE856863EA8EB10
:104AA800C6584046FCF7E4FAFCF7B2F80146039012
:104AB8004046FBF7F7FF4FF08741FCF7FDF8074644
:104AC800FCF7D6FAFCF7A4F80146049005463846E8
:104AD800FBF7E8FF4FF08741FCF7EEF8002105905F
:104AE800FCF77EFAF0B100212846FCF779FA002895
:104AF80014BF01230223184A21460192022203A867
:104B08000092324600F03AF9BAF1000F0546BFF6B6
:104B1800ECAE236803F100432360636803F10043AC
:104B2800636093E70323E6E7D80F493FE3CB1640DA
:104B3800800FC93FD00FC93F43443537004435374C
:104B480008A3852E800F494384F9223F405400086A
:104B580000A3852E32318D24C05400082DE9F04180
:104B680020F00045B5F1A14F044680460ED3B5F1BB
:104B7800FF4F04D90146FBF797FF044603E00028DE
:104B880040F3CE80674C2046BDE8F081664B9D42DD
:104B98000ED8B5F1445F08D26449FBF785FF4FF0A2
:104BA8007E51FCF745FA0028EDD14FF0FF361CE0A6
:104BB80000F0E0F85E4B04469D427CD8A3F5D00394
:104BC8009D4267D80146FBF76FFF4FF07E51FBF718
:104BD80069FF4FF0804105462046FBF765FF014617
:104BE8002846FCF71DF90026044621462046FCF716
:104BF80063F801460746FCF75FF805464D49FCF7A0
:104C08005BF84D49FBF750FF2946FCF755F84B492F
:104C1800FBF74AFF2946FCF74FF84949FBF744FFE1
:104C28002946FCF749F84749FBF73EFF2946FCF7B8
:104C380043F84549FBF738FF3946FCF73DF8434947
:104C480007462846FCF738F84149FBF72BFF294669
:104C5800FCF732F83F49FBF725FF2946FCF72CF80B
:104C68003D49FBF71FFF2946FCF726F83B49FBF7B0
:104C780019FF2946FCF720F801463846FBF714FFD0
:104C88002146FCF719F8731C014633D12046FBF77F
:104C980009FF72E74FF07E51FBF704FF4FF07E519A
:104CA80005462046FBF700FF01462846FCF7B8F802
:104CB8000126044699E72A4B9D4214D84FF07F51AC
:104CC800FBF7F0FE4FF07F5105462046FBF7F4FF57
:104CD8004FF07E51FBF7E8FE01462846FCF7A0F8A6
:104CE8000226044681E701461E48FCF799F8032688
:104CF80004467AE71C4B53F82610FBF7D3FE2146EF
:104D0800FBF7D0FE194B014653F82600FBF7CAFE05
:104D1800B8F1000F0446BFF636AF00F1004432E7A1
:104D2800134C30E7DB0FC93FFFFFDF3ECAF2497182
:104D3800FFFF973FD769853C59DA4B3D356B883D76
:104D48006E2EBA3D2549123EABAAAA3E21A215BD38
:104D58006BF16E3D95879D3D388EE33DCDCC4C3E45
:104D6800FFFF1B40000080BFD8570008E857000825
:104D7800DB0FC9BF20F00040704700002DE9F04F5D
:104D8800DBB002920493649AAC4B059053F822303E
:104D980000910193049B013B0393029B1A1DC0F2EF
:104DA8009980DC1E48BF1C1DE41000254FF0000B45
:104DB800671CFB000693029B039AA3EBC707019BA2
:104DC800A4EB020803EB0209659B1EAE03EB880AFD
:104DD8004D4540F38180049A1EAB03EB82054FF0EA
:104DE800000900230DF58C7A019A914540F39A80C9
:104DF80013460AAA02EB83030893659B03EB84031B
:104E0800019C07930DF12808464625464FF087492F
:104E18005AAB03EB840353F850BC0DF58C7A002D84
:104E280000F385803946584600F046FA4FF078512D
:104E38000546FBF741FF00F08BFA4FF08241FBF784
:104E48003BFF01462846FBF72DFE0546FCF710F907
:104E58000646FBF7DDFE01462846FBF723FE002F3A
:104E6800814640F38180621E0AAB53F82250C7F195
:104E7800080145FA01F31E448B40ED1A0AAB43F8CA
:104E88002250C7F107031D41002D7ADD002292460A
:104E98000136944200F3AA80002F05DD012F00F0AF
:104EA800B680022F00F0BD80022D6AD149464FF02E
:104EB8007E50FBF7F7FD8146BAF1000F61D0394605
:104EC8004FF07E5000F0F8F901464846FBF7EAFD3E
:104ED800814656E0002468E718EB050F07D45AF816
:104EE8002500FBF795FE46F8040B013570E7584698
:104EF800F9E70793059B5BF8041D53F82800FBF7B7
:104F0800DBFE01463046FBF7CFFD0646079B08F15E
:104F18000108039A9045ECDD4AF8046B09F1010990
:104F2800043561E7AB461E464FF00008F1E74FF045
:104F38006E515846FBF7C0FEFCF79AF8FBF768FE7F
:104F480049460990FBF7B8FE01465846FBF7AAFD0B
:104F5800FCF78EF8013D46F8040B5AF8251009981D
:104F6800FBF7A2FD83465AE705D1631E0AAA52F849
:104F78002350ED1188E74FF07C51FCF74FF80546B8
:104F880090BB00214846FCF72BF8002800F09080E1
:104F98000022631E01998B424ADA002A76D0013C2E
:104FA8000AAB53F82430083F002BF8D039464FF0AD
:104FB8007E5000F081F9A24607464FF06E590DF574
:104FC8008C78BAF1000F80F2A18027460022002FCA
:104FD800C0F2CB8046A990464FF0000A184B01EB6F
:104FE800870BA4EB0709B4E002254FE758F8043B08
:104FF800BAF1000F08D123B1C3F5807348F8043C17
:1050080001239A46013244E7C3F1FF03F6E7621E23
:105018000AAB53F8223003F07F030AA941F8223083
:1050280042E7621E0AAB53F8223003F03F03F4E76D
:105038000AA951F82310013B0A43ABE7245800089A
:10504800F8570008013352F8041D0029FAD0049AD1
:105058001EA9A218661C01EB82051C440DF58C796B
:10506800B442FFF6CFAE079BAB4653F82600FBF7DA
:10507800CFFD4FF0000A4FF000082860039B9A45C7
:1050880007DD49F8268004350136E9E70123089A47
:10509800D9E7059B5BF8040953F82A10FBF70CFEC7
:1050A80001464046FBF700FD0AF1010A8046E5E7A4
:1050B800069B029A4846991A00F0FEF84FF087417D
:1050C8008046FBF7ABFFF8B14FF06E514046FBF757
:1050D800F3FDFBF7CDFFFBF79BFD4FF087418146C2
:1050E800FBF7EAFD01464046FBF7DCFCFBF7C0FF97
:1050F8000AAB43F82400484601340837FBF7B8FFE9
:105108000AAB43F8240051E74046F7E70AAB53F8E7
:105118002A00FBF77DFD3946FBF7CEFD494648F8E6
:105128002A003846FBF7C8FD0AF1FF3A074648E768
:1051380053F8040B5BF8041B03920293FBF7BCFDC6
:1051480001464046FBF7B0FCDDE9023280460AF131
:10515800010A01998A4501DCCA45E9DD5AAB03EB2E
:10516800890949F8A08C013F31E7649B022B07DCD1
:10517800002B4EDC2ED006F007005BB0BDE8F08FA8
:10518800649B032BF7D10DF1C80B0BEB8407B846D2
:10519800A246BAF1000F49DCA146B9F1010F60DC63
:1051A8000020012C76DC329A339B002D78D10099AF
:1051B8000A600A464B609060DDE757F82410FBF759
:1051C80073FC013C002CF8DA0DB100F10040009BA3
:1051D8001860D0E7002032AFF4E757F82810FBF743
:1051E80063FC08F1FF38B8F1000FF6DAADB100F151
:1051F8000043009A014613603298FBF753FC4FF0C6
:10520800010844450BDA0DB100F10040009B5860DD
:10521800B1E7A046002032AFE5E70346E9E757F8D3
:10522800041FFBF741FC08F10108EAE7D8F8003051
:1052380058F8042C1946104602930192FBF734FCE7
:10524800019A014681461046FBF72CFC029B0AF1A5
:10525800FF3A1946FBF728FC48F80409C8F80090FB
:1052680097E757F8043CD7F800A018465146019331
:10527800FBF71AFC019B014680461846FBF712FC17
:105288005146FBF711FC47F8040909F1FF39C7F843
:10529800008082E75BF82410FBF706FC013C80E7FE
:1052A800009902F1004203F100430A604B600A468C
:1052B80000F100407FE700BF30F0004238B50346F8
:1052C8000D4604462ED0B2F1FF4F04D30146FBF73A
:1052D800EBFB034626E010F0FF4F18D14FF0984142
:1052E800FBF7EAFC174A034695420CDB0446C0F379
:1052F800C752193A4CF250318D420ADD124918460C
:1053080061F31E0000E01149FBF7D6FCE1E7D20D7E
:10531800F0E75119FE29F1DC002905DD24F0FF44EE
:1053280044EAC153184638BD11F1160F01DA07498E
:10533800E5E701F1190024F0FF444FF04C5144EA2D
:10534800C050E1E7B03CFFFFCAF249716042A20DCC
:1053580070B5C0F3C7557F3D162D0146044620F0B1
:10536800004626DC002D0FDA1749FBF79DFB0021CC
:10537800FBF75EFE30B1002C23DA002E134C08BF79
:105388004FF0004421461AE0114E2E41304216D00B
:105398000D49FBF789FB0021FBF74AFE0028F1D0F5
:1053A800002CBEBF4FF400032B41E41824EA060486
:1053B800E8E7B6F1FF4F02D3FBF776FB0146084654
:1053C80070BD0024DEE700BFCAF24971000080BF4B
:1053D800FFFF7F00F8B500BFF8BC08BC9E467047C9
:0C53E800F8B500BFF8BC08BC9E4670473A
:1053F4000000000000000000010203040607080981
:105404000000000001020304020304050607080962
:105414000A0B0C0D0E0F1010010200006042A20DC9
:105424000000803F00000080DB0F4940DB0F49C0D3
:10543400DB0F49BFE4CB1640E4CB16C0000FC93FD5
:10544400000F494000CB9640000FC9400053FB4079
:1054540000CB164100ED2F41000F4941003162415C
:1054640000537B41003A8A4100CB9641005CA34142
:1054740000EDAF41007EBC41000FC94100A0D54101
:105484000031E24100C2EE410053FB4100F203420D
:10549400003A0A420083104200CB164200141D4217
:1054A400005C234200A5294200ED2F42003636421B
:1054B400007E3C4200C74242000F4942A200000065
:1054C400F9000000830000006E0000004E000000A0
:1054D400440000001500000029000000FC0000004A
:1054E4002700000057000000D1000000F500000074
:1054F40034000000DD000000C0000000DB000000FC
:105504006200000095000000990000003C000000CB
:10551400430000009000000041000000FE00000075
:105524005100000063000000AB000000DE0000003A
:10553400BB000000C500000061000000B7000000CF
:10554400240000006E0000003A0000004200000049
:105554004D000000D2000000E00000000600000042
:10556400490000002E000000EA00000009000000CD
:10557400D1000000920000001C000000FE000000AA
:105584001D000000EB0000001C000000B100000042
:1055940029000000A70000003E000000E800000011
:1055A4008200000035000000F50000002E0000001D
:1055B400BB0000004400000084000000E90000007B
:1055C4009C0000007000000026000000B4000000F1
:1055D4005F0000007E000000410000003900000070
:1055E40091000000D6000000390000008300000094
:1055F4005300000039000000F40000009C0000008B
:10560400840000005F0000008B000000BD0000006B
:10561400F9000000280000003B0000001F0000000B
:10562400F800000097000000FF000000DE0000000A
:1056340005000000980000000F000000EF000000CB
:105644002F000000110000008B0000005A00000031
:105654000A0000006D0000001F0000006D00000043
:10566400360000007E000000CF000000270000008C
:10567400CB00000009000000B70000004F0000004C
:10568400460000003F000000660000009E0000008D
:105694005F000000EA0000002D000000750000001B
:1056A40027000000BA000000C7000000EB00000063
:1056B400E5000000F10000007B0000003D00000058
:1056C4000700000039000000F70000008A00000015
:1056D4005200000092000000EA0000006B0000008D
:1056E400FB0000005F000000B10000001F0000008C
:1056F4008D0000005D00000008000000560000005E
:10570400030000003000000046000000FC00000020
:105714007B0000006B000000AB000000F000000004
:10572400CF000000BC000000200000009A00000030
:10573400F4000000360000001D000000A900000075
:10574400E300000091000000610000005E00000022
:10575400E60000001B0000000800000065000000D7
:1057640099000000850000005F00000014000000A4
:10577400A000000068000000400000008D00000050
:10578400FF000000D8000000800000004D00000071
:105794007300000027000000310000000600000034
:1057A400060000001500000056000000CA000000BA
:1057B40073000000A8000000C900000060000000A1
:1057C400E20000007B000000C00000008C0000002C
:1057D4006B0000006937AC3168212233B40F1433F5
:1057E4006821A2333863ED3EDA0F493F5E987B3F70
:1057F400DA0FC93F0000C93F0000F0390000DA3772
:105804000000A2330000842E0000502B0000C227A9
:105814000000D0220000C41F0000C61B0000441773
:0C58240004000000070000000900000064
:045830000D0200085D
:04583400E90100087E
:1058380000127A0010000000010000001000002093
:105848000000000030010020980100200002002024
:105858000000000000000000000000000000000040
:105868000000000000000000000000000000000030
:105878000000000000000000000000000000000020
:0C58880000000000000000000000000014
:0400000508001E31A0
:00000001FF
